:020000040800F2
:10000000980B0020B5330008BD0B0008BF0B00089B
:10001000C30B0008C70B0008CB0B00080000000052
:10002000000000000000000000000000CF0B0008EE
:10003000D10B000800000000D30B0008D50B00080E
:10004000CF330008CF330008CF330008CF33000888
:10005000CF330008CF330008CF330008CF33000878
:10006000CF330008CF330008CF330008CF33000868
:10007000CF330008CF330008CF330008CF33000858
:10008000CF330008CF330008CF3300089D16000897
:10009000B3160008CF330008CF330008CF33000871
:1000A000CF330008CF330008CF330008CF33000828
:1000B000CF330008CF330008352B0008CF330008BA
:1000C000CF330008CF330008CF330008CF33000808
:1000D000CF330008492F0008CF330008BF2900089C
:1000E000CF330008CF330008CF330008CF330008E8
:1000F000CF330008CF330008CF330008CF330008D8
:10010000CF330008CF330008CF330008CF330008C7
:10011000CF330008CF330008AF270008CF330008E3
:10012000CF330008CF330008CF330008CF330008A7
:10013000CF330008CF330008CF330008CF33000897
:10014000CF3300082D310008CF330008CF3300082B
:10015000CF330008CF330008CF330008CF33000877
:10016000CF330008CF330008CF330008CF33000867
:10017000CF330008CF330008CF330008CF33000857
:10018000CF330008CF33000800F002F800F03CF84D
:100190000AA090E8000C82448344AAF10107DA45E2
:1001A00001D100F031F8AFF2090EBAE80F0013F0F8
:1001B000010F18BFFB1A43F001031847147F00001A
:1001C000347F0000103A24BF78C878C1FAD85207AB
:1001D00024BF30C830C144BF04680C6070470000C1
:1001E0000023002400250026103A28BF78C1FBD840
:1001F000520728BF30C148BF0B6070471FB507F0DA
:100200000AFE1FBD10B510BD05F0BEFB1146FFF77D
:10021000F5FF00F0B9F905F0DCFB03B4FFF7F2FFDE
:1002200003BC05F0DDFB0000B0EE401AB4EEE01AAE
:10023000F1EE10FA02DDB0EE600A7047B1EE600A2E
:10024000B4EEC01AF1EE10FA02D2B1EE600AF4E791
:10025000B0EE410AF1E700B5FE480068052829D153
:100260000320FD494874FD48FD4B0ECB18300EC0ED
:100270002438D0ED060AB0EE600ADFEDFA0AFFF787
:10028000D3FFF64880ED060AD0ED070AB0EE600A0B
:10029000DFEDF40AFFF7C8FFF04880ED070AD0ED64
:1002A000080AB0EE600ADFEDEF0AFFF7BDFFEB488A
:1002B00080ED080A00BD10B59FEDEB0AE74880ED20
:1002C0000F0A9FEDE90A80ED100A9FEDE70A80ED25
:1002D000110A9FEDE50A80ED120A9FEDE30A80ED19
:1002E000130A9FEDE10A80ED140A9FEDDF0A80ED0D
:1002F000150A9FEDDD0A80ED160A9FEDDB0A80ED01
:10030000170A0121084600F0CFFF4FF4967002F063
:1003100099FB0121032000F0C7FF4FF4967002F013
:1003200091FB0121022000F0BFFF4FF4967002F014
:1003300089FBCE4890ED000ACD48D0ED000A30EEA2
:10034000200ACA4880ED000A10BD00B5C148006807
:10035000012829D10220C0494874C048C04B0ECBA7
:100360000C300EC01838D0ED030AB0EE600ADFED95
:10037000BD0AFFF759FFB94880ED030AD0ED040A22
:10038000B0EE600ADFEDB70AFFF74EFFB34880ED2D
:10039000040AD0ED050AB0EE600ADFEDB20AFFF7FD
:1003A00043FFAE4880ED050A00BD30B587B040215F
:1003B000B04803F0D1FE00287DD0A648006801288F
:1003C00006D1A5494870FFF7C0FF0020A149086089
:1003D000A048006802282FD1FF2002F0D2FAFF20A7
:1003E00002F0CFFA012002F0CCFA002002F0C9FAA4
:1003F0000D2002F0C6FA022002F0C3FA1025974A37
:1004000007CA04AB07C3002408E004A9085D02F092
:10041000B8FA04A8005D284485B2641C0C2CF4DBF7
:10042000FF2095FBF0F100FB115085B2E8B202F01D
:10043000A8FA0020874908608648006803281CD174
:10044000FFF739FFFF2002F09CFAFF2002F099FA33
:10045000012002F096FA002002F093FA022002F046
:1004600090FA032002F08DFA002002F08AFA0620AA
:1004700002F087FA0020774908607648006804286F
:1004800031D1FF2002F07DFAFF2002F07AFA01203C
:1004900002F077FA002002F074FA0D2002F071FAEF
:1004A000042002F06EFA12256C4A3C3207CA01ABF6
:1004B00007C3002409E022E001A9085D02F061FA07
:1004C00001A8005D284485B2641C0C2CF4DBFF20DD
:1004D00095FBF0F100FB115085B2E8B202F051FA41
:1004E00000205C4908605B480068052807D10120AE
:1004F00059494870FFF7AFFE00205649086000BF19
:1005000040215C4803F028FE0028F9D007B030BD38
:1005100010B5024600201378062B18D2DFE803F04E
:100520001703070B0F1301234A4C236010E002232B
:10053000484C23600CE00323464C236008E004236E
:10054000444C236004E00523424C236000E000BFDC
:1005500000BF404B1B68012B08D1002004E0431C66
:10056000D35C3F4C2354401C0C28F8DB394B1B68F0
:10057000052B08D1002004E0431CD35C384C2354E5
:10058000401C0C28F8DB10BDDCB00027642143A818
:1005900005F0BDF9B84600202F49C87002F07BF97C
:1005A00002F050F9344800F013FD02202A49487443
:1005B0000120C870FCE2304800788DF880002E4899
:1005C00040788DF881002C4880788DF882002A4888
:1005D000C0788DF88300284800798DF8840026487B
:1005E00040798DF88500244880798DF8860022486E
:1005F000C0798DF887002048007A8DF888001E4861
:10060000407A8DF889001C48807A8DF88A001A4853
:10061000C07A8DF88B001848007B8DF88C00164846
:10062000407B8DF88D001448807B8DF88E00124839
:10063000C07B8DF88F001048007C8DF890000E482C
:10064000407C8DF891000C48807C8DF892000A481F
:10065000C07C13E000000020040200208C01002078
:1006600028010020CDCC4C3F000000008400002079
:1006700088000020004800409C0000208DF8930076
:10068000FE48007D8DF89400FC48407D8DF8950073
:10069000FA48807D8DF89600F848C07D8DF8970067
:1006A000F648007E8DF89800F448407E8DF8990059
:1006B000F248807E8DF89A00F048C07E8DF89B004D
:1006C000EE48007F8DF89C00EC48407F8DF89D003F
:1006D000EA48807F8DF89E00E848C07F8DF89F0033
:1006E000E64890F820008DF8A000E44890F821003A
:1006F0008DF8A100E14890F822008DF8A200DF48B3
:1007000090F823008DF8A300DC4890F824008DF8C1
:10071000A400DA4890F825008DF8A500D74890F895
:1007200026008DF8A600D54890F827008DF8A70080
:10073000D24890F828008DF8A800D04890F82900F9
:100740008DF8A900CD4890F82A008DF8AA00CB4872
:1007500090F82B008DF8AB00C84890F82C008DF86D
:10076000AC00C64890F82D008DF8AD00C34890F855
:100770002E008DF8AE00C14890F82F008DF8AF0024
:10078000BE4890F830008DF8B000BC4890F83100B9
:100790008DF8B100B94890F832008DF8B200B74832
:1007A00090F833008DF8B300B44890F834008DF819
:1007B000B400B24890F835008DF8B500AF4890F815
:1007C00036008DF8B600AD4890F837008DF8B700C8
:1007D000AA4890F838008DF8B800A84890F8390079
:1007E0008DF8B900A54890F83A008DF8BA00A348F2
:1007F00090F83B008DF8BB00A04890F83C008DF8C5
:10080000BC009E4890F83D008DF8BD009B4890F8D4
:100810003E008DF8BE00994890F83F008DF8BF006B
:10082000964890F840008DF8C000944890F8410038
:100830008DF8C100914890F842008DF8C2008F48B1
:1008400090F843008DF8C3008C4890F844008DF870
:10085000C4008A4890F845008DF8C500874890F894
:1008600046008DF8C600854890F847008DF8C7000F
:10087000824890F848008DF8C800804890F84900F8
:100880008DF8C9007D4890F84A008DF8CA007B4871
:1008900090F84B008DF8CB00784890F84C008DF81C
:1008A000CC00764890F84D008DF8CD00734890F854
:1008B0004E008DF8CE00714890F84F008DF8CF00B3
:1008C0006E4890F850008DF8D0006C4890F85100B8
:1008D0008DF8D100694890F852008DF8D200674831
:1008E00090F853008DF8D300644890F854008DF8C8
:1008F000D400624890F855008DF8D5005F4890F814
:1009000056008DF8D6005D4890F857008DF8D70056
:100910005A4890F858008DF8D800584890F8590077
:100920008DF8D900554890F85A008DF8DA005348F0
:1009300090F85B008DF8DB00504890F85C008DF873
:10094000DC004E4890F85D008DF8DD004B4890F8D3
:100950005E008DF8DE00494890F85F008DF8DF00FA
:10096000464890F860008DF8E000444890F8610037
:100970008DF8E100414890F862008DF8E2003F48B0
:1009800090F863008DF8E3003C4890F864008DF81F
:10099000E4003A4890F865008DF8E500374890F893
:1009A00066008DF8E600354890F867008DF8E7009E
:1009B000324890F868008DF8E800304890F86900F7
:1009C0008DF8E9002D4890F86A008DF8EA002B4870
:1009D00090F86B008DF8EB00284890F86C008DF8CB
:1009E000EC00264890F86D008DF8ED00234890F853
:1009F0006E008DF8EE00214890F86F008DF8EF0042
:100A00001E4890F870008DF8F0001C4890F87100B6
:100A10008DF8F100194890F872008DF8F20017482F
:100A200090F873008DF8F300144890F874008DF876
:100A3000F400124890F875008DF8F5000F4890F812
:100A400076008DF8F6000D4890F877008DF8F700E5
:100A50000A4890F878008DF8F800084890F8790076
:100A60008DF8F900054890F87A008DF8FA000348EF
:100A700090F87B008DF8FB00004801E09C0000200E
:100A800090F87C008DF8FC004A4890F87D008DF8C5
:100A9000FD00484890F87E008DF8FE00454890F82B
:100AA0007F008DF8FF00434890F880008DF800012A
:100AB0004048D0F8840041903E48D0F888007C221D
:100AC00024A94290684604F0F0FE20A80FC800F068
:100AD000A5FA00B16CE0374800F081FA0446B8F19D
:100AE000080F60D2DFE808F0040D5F15222B3644B2
:100AF000FF2C05D14FF0010800202F490880002766
:100B000054E0FF2C02D14FF0030801E04FF0000841
:100B10004CE0012C07D12848008820442649088051
:100B20004FF0040801E04FF000083FE02248008841
:100B300020442149088025464FF0050836E01E482C
:100B4000008820441C49088044EA052006B24FF082
:100B500006082BE0184800882044174908803846CA
:100B60007F1C43A90C54B74201DB4FF007081DE07E
:100B700011480088FF2190FBF1F201FB12000E49A1
:100B800008800846008884420AD1314643A8FFF70E
:100B9000BFFCFFF70AFC002007490880804601E0FF
:100BA0004FF0000802E04FF0000800BF00BF00BF98
:100BB00001E500009C00002004000020704700BFF9
:100BC000FEE700BFFEE700BFFEE700BFFEE770479D
:100BD00070477047704700000CB5002001900090EE
:100BE0007648006840F480307449086000BF73485C
:100BF000006800F4003000900198401C01900098BB
:100C000018B90198B0F5A04FF1D16C48006800F414
:100C1000003010B10120009001E000200090009809
:100C2000012846D165484030006840F08050634953
:100C3000403108606248006840F440406049086004
:100C40005E48083000685D49083108600846006861
:100C500040F4004008600846006840F4A050086076
:100C60005848091F0860081F006840F08070091F7D
:100C7000086000BF5148006800F000700028F9D0FB
:100C800040F20570504908604C480830006820F078
:100C900003004A49083108600846006840F0020035
:100CA000086000BF45480830006800F00C000828C4
:100CB000F8D10CBD10B54548006840F470004349B8
:100CC00008603E48006840F001003C490860002090
:100CD0003A4908310860394800683D4908403749B9
:100CE00008603C48091D0860081F006820F4802047
:100CF000091F0860002031490C310860FFF76CFFC4
:100D00004FF0006031498039086010BD70B5002097
:100D10000022022300240221284D08352D6805F009
:100D20000C0020B1042806D0082834D107E02A4D51
:100D30002A4E356033E02A4D284E35602FE01F4D96
:100D40002D1D2D68C5F380541C4D2D1D2D6805F0FB
:100D50003F0154B1224DB5FBF1F5184E361D3668F2
:100D6000C6F3881605FB06F209E01B4DB5FBF1F54D
:100D7000124E361D3668C6F3881605FB06F20F4D77
:100D80002D1D2D68C5F301456D1C6B00B2FBF3F5FD
:100D9000124E356003E0104D104E356000BF00BFAD
:100DA000064D08352D68C5F303150E4E705D0B4DCD
:100DB0002D68C540094E356070BD00000038024006
:100DC0000070004008544007003C024088ED00E0FD
:100DD000FFFFF6FE103000240024F400080000207D
:100DE00000127A000C0000202DE9F0418AB0044680
:100DF0000D4616461F46DDF840800121084602F0E8
:100E00008DFE0121480602F0D2FE4FF4C05008903A
:100E100002208DF8240000208DF8260003208DF894
:100E2000250001208DF8270008A9584802F0D8FBBA
:100E300009220B21554802F05EFC09220C2153487F
:100E400002F059FC00208DF81A008DF81B008DF877
:100E50001C008DF81D008DF81E008DF81F008DF808
:100E600016808DF817408DF818608DF81950ADF880
:100E7000147005A9464803F0E8F900208DF80E002B
:100E80008DF80F0001208DF810000020ADF804004F
:100E9000ADF80600ADF80800ADF80A00ADF80C009A
:100EA00001208DF8110001A803F059FA0122022156
:100EB000374803F053FD14208DF8000001208DF811
:100EC000010000208DF8020001208DF80300684623
:100ED00002F095FA00200AB0BDE8F081F0B585B0C7
:100EE00007460D46002432200090019000208DF826
:100EF00008008DF809008DF80A5000BF05E0395D43
:100F00000DF10B000155601C84B2AC42F7DB694661
:100F10001F4803F013FB0646002406E0601C84B261
:100F200069461B4803F00AFB06463146184803F0A1
:100F30009DFB18B940F6FF708442EFDB40F6FF706E
:100F4000844202DB012005B0F0BD0020FBE730B594
:100F500085B0054600210E4803F068FC10B900205A
:100F600005B030BD6A460021094803F0DCFB0024CF
:100F700004E00DF10B00005D2855641C9DF80A008B
:100F8000A042F6D89DF80A00EAE7000000000240FF
:100F9000006400401CB50121022002F0BFFD0120C9
:100FA00000908DF8040000208DF8060003208DF8D5
:100FB000050001208DF807006946044802F010FB87
:100FC0000121024802F088FB1CBD00000004024021
:100FD00010B504468C21204604F099FC10BD10B5D4
:100FE0000146D1F88420885CD1F88420521C8123EA
:100FF00092FBF3F403FB1422C1F8842010BD10B55A
:10100000D0F888208154D0F88820521C812392FB8C
:10101000F3F403FB1422C0F8882010BD0FB421980C
:101020002299884202D1012004B070470020FBE7DA
:101030000FB42298401C812190FBF1F201FB1200B9
:101040002199884202D1012004B070470020FBE7BB
:101050003EB50023009301930293002209E000F0C3
:101060000F051346521C0DF803500011082A00D139
:1010700001E00028F3D100BF9DF800309DF8014049
:1010800043EA04130B709DF802309DF8034043EAD5
:1010900004134B709DF804309DF8054043EA041397
:1010A0008B709DF806309DF8074043EA0413CB701F
:1010B0003EBD70B52DED028B86B0B0EE408A054680
:1010C000002400200590009501958DF809008DF809
:1010D000080008208DF80A008DF80B008DF80C50E0
:1010E00090218DF80D1000218DF80E1005A9BDEE90
:1010F000C80A10EE100AFFF7ABFF9DF814108DF828
:101100000F109DF815108DF810109DF816108DF821
:1011100011109DF817108DF8121000BF00BF69461E
:10112000FD4803F00BFA0646601C84B2042E03D17E
:1011300040F6FF708442F2DB002401E0601C84B2C0
:101140003146F54803F092FA18B940F6FF70844230
:10115000F4DB40F6FF70844204DB012006B0BDECF6
:10116000028B70BD0020F9E710B5EC48007808B993
:10117000012000E00020E9490870E9480078401C9F
:10118000E7490870E748407C68B99FEDE70AE748FF
:1011900080ED0C0A9FEDE40A80ED0D0A9FEDE20A56
:1011A00080ED0E0A3AE0DF48407C01280FD1DF488D
:1011B000D0ED081AB0EE611AD0ED071AF0EE610A10
:1011C000D0ED061AB0EE610A00F0AAFB26E0D54881
:1011D000407C02280FD1D548D0ED051AB0EE611A37
:1011E000D0ED041AF0EE610AD0ED031AB0EE610AF8
:1011F00000F040FB12E0CB48407C03280ED1CB48E6
:10120000D0ED081AB0EE611AD0ED071AF0EE610ABF
:10121000D0ED061AB0EE610A00F082FBC148407CB6
:10122000012807D0BF48407C022803D0BD48407C3D
:10123000032820D1B9480078A0B1BC48D0ED0E0AEF
:10124000B0EE600A3020FFF734FF4FF4C87001F0B1
:10125000F9FBB648D0ED0D0AB0EE600A3220FFF778
:1012600028FF20E0B148D0ED0C0AB0EE600A36202D
:10127000FFF71FFF17E036209FEDAB0AFFF719FFBE
:10128000C82001F0DFFB30209FEDA70AFFF711FF18
:10129000C82001F0D7FB32209FEDA30AFFF709FF1A
:1012A000C82001F0CFFB10BDF0B585B004460F4655
:1012B00000250094019400208DF809008DF80800A5
:1012C00003208DF80A008DF80B008DF80C408DF886
:1012D0000D7000BF00BF69468F4803F02FF9064626
:1012E000681C85B2042E03D140F6FF708542F2DB04
:1012F00001E0681C85B23146874803F0B7F918B998
:1013000040F6FF708542F4DB05B0F0BD10B52DED61
:10131000048B8748007830BB012085490870012183
:101320000846FFF7C1FF4FF4967001F08BFB0121D7
:101330000320FFF7B9FF4FF4967001F083FB012102
:101340000220FFF7B1FF4FF4967001F07BFB794864
:1013500090ED000A7848D0ED000A30EE200A75487A
:1013600080ED000A97E100210120FFF79DFF4FF477
:10137000967001F067FB6D4890ED120ADFED6F0A81
:1013800080EE201AB0EE000A21EE000ADFED6C0AB2
:1013900060EE200A90ED150A9FED6A1A10EE810AA0
:1013A000694880ED000A614890ED150A6648D0ED65
:1013B000000A30EE200A5D4880ED150A90ED140A0F
:1013C000DFED5E0A80EE201AB0EE000A21EE000A80
:1013D000DFED5B0A60EE200A90ED170A9FED591AC7
:1013E00010EE810A584880ED020A504890ED170A25
:1013F0005548D0ED020A30EE200A4C4880ED170A1D
:1014000090ED130ADFED4D0A80EE201AB0EE000ACF
:1014100021EE000ADFED4A0A60EE200A90ED160A7E
:101420009FED481A10EE810A474880ED010A3F48B7
:1014300090ED160A4448D0ED010A30EE200A3B48F0
:1014400080ED160AC82001F0FDFA3F4890ED000A31
:101450003E4880ED000A3C4890ED010A10EE101A5B
:10146000084606F067FC41EC190B9FED390B53EC75
:10147000102B06F069F941EC180B05F089FE334991
:101480004860314890ED020A10EE101A084606F046
:1014900051FC41EC190B9FED2E0B53EC102B06F079
:1014A00053F941EC180B05F073FE284988601F487A
:1014B000D0ED110AB0EE600A2749244800F057FF2A
:1014C000254890ED000ADFED250AB4EEE00AF1EEC2
:1014D00010FA0CD290ED000ADFED210AB4EEE00A1A
:1014E000F1EE10FA03DD9FED100A80ED000A1A48B4
:1014F00090ED010ADFED190AB4EEE00AF1EE10FA00
:1015000034D290ED010ADFED160AB4EEE00AF1EEF6
:1015100010FA2BDD26E00000006400401D000020D2
:101520001C00002004020020000000008C010020AC
:101530001F00002084000020880000200000B44329
:10154000560E494060E5503D1C0200202802002054
:10155000713D0AD7A370ED3F34020020BD378635B8
:10156000BD3786B51FED100A80ED010A914890ED58
:10157000020A5FED060AB4EEE00AF1EE10FA0CD2B0
:1015800090ED020A5FED0A0AB4EEE00AF1EE10FAFD
:1015900003DD1FED1B0A80ED020A874890ED0F0A5C
:1015A0008448D0ED000A30EE600A834880ED0F0ACF
:1015B00090ED100A7F48D0ED010A30EE600A7E48B7
:1015C00080ED100A7D4890ED000ADFED7D0A80EE87
:1015D000201A1FED250A21EE000A774880ED110A36
:1015E0007449784800F053FB724890ED000A5FEDB3
:1015F000250AB4EEE00AF1EE10FA0CD290ED000AE2
:101600005FED290AB4EEE00AF1EE10FA03DD1FEDFA
:101610003A0A80ED000A674890ED010A5FED310A51
:10162000B4EEE00AF1EE10FA0CD290ED010A5FED93
:10163000340AB4EEE00AF1EE10FA03DD1FED460ABB
:1016400080ED010A5B4890ED020A5FED3C0AB4EEC2
:10165000E00AF1EE10FA0CD290ED020A5FED400ABA
:10166000B4EEE00AF1EE10FA03DD1FED510A80ED51
:10167000020A504890ED000A4F4880ED000A4D489C
:1016800090ED010A4C4880ED010A4A4890ED020AAB
:10169000494880ED020ABDEC048B10BD10B5012154
:1016A000494803F0C3F918B10121474803F059FA3A
:1016B00010BD10B586B00221434803F0B7F90028E9
:1016C00076D001AA0021404803F02DF80298B0F529
:1016D000887F16D19DF80E00082812D19DF80F00C2
:1016E00002280ED1002407E00DF10F00A11C405C80
:1016F00036490855601CC4B2062CF5DB012034497C
:1017000008700298B0F5047F17D19DF80E000828E4
:1017100013D19DF80F0002280FD1002408E00DF12D
:101720000F00A11C415C294AA01D1154601CC4B2C9
:10173000062CF4DB0120264948700298B0F5447F5E
:1017400017D19DF80E00062813D19DF80F0002282E
:101750000FD1002407E00DF10F00A11C405C1B49D4
:101760000855601CC4B2042CF5DB134817490968FE
:10177000016517480078012811D1154840780128E3
:101780000DD100201249087048700B480F490968B4
:1017900081640E494968C1640C4989680165022168
:1017A000094803F0DEF90021074803F034F800BFD0
:1017B00006B010BD340200208C01002088000020FB
:1017C000000034431C02002000640040400200205E
:1017D0002000002010B52DED048BB0EE409AB0EE45
:1017E000608AF0EE418AB1EE490AF84880ED000ABD
:1017F000B1EE480A80ED010AC0ED028AF44900F01A
:1018000009FAF34890ED000ADFEDF20A80EE201AA3
:101810009FEDF10A21EE000AF1EE080A80EE201A8F
:10182000EE4880ED0C1AEA4890ED010ADFEDE90A76
:1018300080EE201A9FEDE80A21EE000AF1EE080A78
:1018400080EE201AE54880ED0D1AE14890ED020A7D
:10185000DFEDE00A80EE201A9FEDDF0A21EE000A9C
:10186000F1EE080A80EE201ADC4880ED0E1ABDEC7D
:10187000048B10BD10B52DED048BB0EE408AF0EE58
:10188000608AB0EE419AB1EE480AD54880ED000A70
:10189000B1EE680A80ED010A80ED029ACF48D0EDE2
:1018A000110AB0EE600ACF49CD4800F00EFCCD48D9
:1018B00090ED000ADFEDC70A80EE201A9FEDC60A00
:1018C00021EE000AF1EE080A80EE201AC34880EDEE
:1018D0000C1AC44890ED010ADFEDBE0A80EE201A12
:1018E0009FEDBD0A21EE000AF1EE080A80EE201AF3
:1018F000BA4880ED0D1ABB4890ED020A9FEDB51A6B
:10190000C0EE010A9FEDB40A20EE800AF1EE080A4B
:1019100080EE201AB14880ED0E1ABDEC048B10BD8C
:1019200010B52DED048BB0EE409AB0EE608AF0EE6B
:10193000418AB1EE490AAC4880ED000AB1EE480A8E
:1019400080ED010AC0ED028AA84900F063F9A748BA
:1019500090ED000ADFED9F0A80EE201A9FED9E0AAF
:1019600021EE000AF1EE080A80EE201A9B4880ED75
:101970000C1A9E4890ED010ADFED960A80EE201ABF
:101980009FED950A21EE000AF1EE080A80EE201A7A
:10199000924880ED0D1A954890ED020ADFED8D0A10
:1019A00080EE201A9FED8C0A21EE000AF1EE080A63
:1019B00080EE201A894880ED0E1ABDEC048B10BD14
:1019C00010B52DED048BB0EE408AF0EE608A88EE03
:1019D000280AB0EE409AB0EE491ADFED850AB0EE63
:1019E000480AFFF79DFFBDEC048B10BD10B52DED2F
:1019F000068BF0EE409AB0EE60AAB0EE418AF0EEAF
:101A0000618AF0EE42AA88EE280AB0EE409AB0EE63
:101A1000491ADFED770AB0EE480AFFF781FFBDEC07
:101A2000068B10BD10B52DED108B84B0B0EE40FAD2
:101A3000B0EE608AF0EE418AF0EE61FA674890ED10
:101A40000F0ADFED6C0A20EE200AC0EE080A10EE45
:101A5000904A204606F06EF941EC1C0BB0EE4C0AA1
:101A6000F0EE6C0A03F0DCFFB0EE40AAF0EE60AAE4
:101A7000B0EE000A2FEE000ADFED5F0A20EE200A2A
:101A8000C0EE080A10EE904A204606F053F941ECE9
:101A90001B0B53EC1A2B05F057FE41EC190B05F00C
:101AA00077FB564908600846006806F043F99FED49
:101AB000541BCDE902019DED020B04F015F8B0EEC8
:101AC00040EAF0EE60EA9FED500B53EC102B51EC26
:101AD0001E0B05F08FFB41EC1D0BB0EE4D0AF0EE36
:101AE0006D0A04F081FEB0EE40CAF0EE60CA53EC1D
:101AF0001C2B9FED450B51EC100B05F037FC41EC16
:101B00001A0B18EE900A06F015F941EC1B0B53EC7A
:101B10001A2B05F019FE41EC190B05F039FB2F4982
:101B2000C8603648006806F005F99FED351BCDE921
:101B300000019DED000B03F0D7FF8DED020B9FED33
:101B4000320B53EC102B9DED020B51EC100B05F0FA
:101B500051FB41EC1D0BB0EE4D0AF0EE6D0A04F0A6
:101B600043FEB0EE40EAF0EE60EA2448006806F07A
:101B7000E1F841EC1C0B53EC1E2B05F0F7FB41EC9C
:101B80001A0B18EE900A06F0D5F841EC1B0B53EC3B
:101B90001A2B05F0D9FD41EC190B05F0F9FA0F49A4
:101BA00008610846C0ED05FAD0ED051AB0EE611ADD
:101BB000D0ED041AF0EE610AD0ED031AB0EE610A1E
:101BC000FFF758FE04B0BDEC108B10BD4C02002096
:101BD0005802002060E5503D9C3065428C01002099
:101BE00064020020700200207C0200208802002095
:101BF00000000000560EC940560E49402400002047
:101C00000000000000000040000000000000F03F65
:101C10007047000090ED000ADFEDFE0A20EE200A7A
:101C2000D0ED010AB7EE001A01EE200AD0ED020A4B
:101C30009FEDF91A01EE200A81ED000A90ED000AED
:101C4000DFEDF60A20EE200AD0ED010AB6EE001A0A
:101C500001EE600AD0ED020A9FEDEF1A01EE200AB4
:101C600081ED010A90ED000ADFEDED0A20EE200A79
:101C7000D0ED010AB6EE001A01EE600AD0ED020ABC
:101C80009FEDE51A01EE200A81ED020A704790ED02
:101C9000000ADFEDE00A20EE200AD0ED010A9FEDF8
:101CA000E11A01EE200AD0ED020A9FEDDF1A01EEE3
:101CB000200A81ED000A90ED000ADFEDDC0A20EE3B
:101CC000200AD0ED010A9FEDDA1A01EE600AD0ED8C
:101CD000020A9FEDD81A01EE200A81ED010A90ED6B
:101CE000000AD0ED010A30EE200AD0ED020A30EEF3
:101CF000200ADFEDD10A20EE200A81ED020A7047AA
:101D000030B52DED108B85B005460C46B0EE408AFF
:101D100094ED020ADFEDBF0A20EE200A10EE101A41
:101D2000084606F007F841EC1A0B94ED010A10EE94
:101D3000101A084605F0FEFF41EC1D0B18EE100AC4
:101D400005F0F8FF41EC1F0BB0EE4F0AF0EE6F0A02
:101D500004F0E6FCB0EE40EAF0EE60EA53EC1D2B36
:101D600051EC1E0B05F0F0FC41EC1C0B94ED000A4D
:101D700010EE101A084605F0DDFF41EC1D0B18EEC1
:101D8000100A05F0D7FF41EC1F0BB0EE4F0AF0EE42
:101D90006F0A03F045FEB0EE40EAF0EE60EA53EC65
:101DA0001D2B51EC1E0B05F0CFFC53EC1C2BCDE989
:101DB00002019DED020B51EC100B05F01BFA41ECFA
:101DC0001B0B53EC1A2B05F015FA41EC190B05F01F
:101DD000DFF9286094ED020ADFED8E0A20EE200A7A
:101DE00010EE101A084605F0A5FF41EC190B94ED12
:101DF000010A10EE101A084605F09CFF41EC1C0B7E
:101E000018EE100A05F096FF41EC1E0BB0EE4E0ADC
:101E1000F0EE6E0A03F004FEB0EE40DAF0EE60DAA7
:101E200053EC1C2B51EC1D0B05F08EFC41EC1A0BF6
:101E300094ED000A10EE101A084605F07BFF41EC05
:101E40001C0B18EE100A05F075FF41EC1F0BB0EEED
:101E50004F0AF0EE6F0A04F063FCB0EE40EAF0EED9
:101E600060EA51EC1E0B05F086F941EC1D0B53ECBA
:101E70001C2B05F069FC41EC1B0B53EC1A2B05F0F5
:101E8000B9F953EC192BCDE900019DED000B51EC94
:101E9000100B05F0AFF9CDE902019DED020B51ECFD
:101EA000100B05F075F9686094ED000ADFED590A32
:101EB00020EE200AD4ED010A9FED561A01EE200A09
:101EC000D4ED020AB7EE001A01EE200A85ED020AEF
:101ED00005B0BDEC108B30BD30B52DED108B83B04F
:101EE00004460D46B0EE408A94ED020ADFED490A41
:101EF00020EE200A10EE101A084605F01BFF41ECF8
:101F00001A0B94ED010A10EE101A084605F012FFA4
:101F100041EC1D0B18EE100A05F00CFF41EC1F0BF5
:101F2000B0EE4F0AF0EE6F0A04F0FAFBB0EE40EAB2
:101F3000F0EE60EA53EC1D2B51EC1E0B05F004FC97
:101F400041EC1C0B94ED000A10EE101A084605F047
:101F5000F1FE41EC1D0B18EE100A05F0EBFE41EC12
:101F60001F0BB0EE4F0AF0EE6F0A03F059FDB0EE12
:101F700040EAF0EE60EA53EC1D2B51EC1E0B05F02D
:101F8000E3FB53EC1C2BCDE900019DED000B51EC64
:101F9000100B05F0E5FD41EC1B0B53EC1A2B05F083
:101FA00029F941EC190B05F0F3F8286094ED020AC9
:101FB000DFED180A20EE200A10EE101A084605F090
:101FC000B9FE41EC190B94ED010A10EE101A084607
:101FD00005F0B0FE41EC1D0B18EE100A05F0AAFE4C
:101FE00041EC1F0BB0EE4F0AF0EE6F0A03F018FD44
:101FF000B0EE40EAF0EE60EA53EC1D2B51EC1E0B04
:1020000005F0A2FB41EC1B0B94ED000A10EE101A38
:10201000084613E0000000005C8F823ED0B35DBF35
:10202000D0B35D3F36CD13BF36CD133FB0AA2A3FA4
:102030009FAAAA3E9FAAAABEF151A73F05F07AFE29
:1020400041EC1D0B18EE100A05F074FE41EC1F0B5D
:10205000B0EE4F0AF0EE6F0A04F062FBB0EE40EA19
:10206000F0EE60EA53EC1D2B51EC1E0B05F06CFBFF
:1020700041EC1C0B53EC1B2B05F0BCF841EC1A0B8C
:1020800053EC192B05F0B6F8CDE900019DED000BDE
:1020900051EC100B05F07CF8686094ED000A5FEDE0
:1020A000230A20EE200AD4ED010A1FED261A01EEC4
:1020B000200AD4ED020AB7EE001A01EE200A85EDDF
:1020C000020A03B0BDEC108B30BD30B52DED108B86
:1020D00085B004460D46B0EE408AD4ED020A1FEDED
:1020E000320A20EE800A10EE101A084605F022FE91
:1020F00041EC1A0B94ED010A10EE101A084605F097
:1021000019FE41EC1C0B18EE100A05F013FE41EC11
:102110001E0BB0EE4E0AF0EE6E0A03F081FCB0EE3C
:1021200040DAF0EE60DA53EC1C2B51EC1D0B05F09D
:102130000BFBCDE9000194ED000A10EE101A0846E1
:1021400005F0F8FD41EC1C0B18EE100A05F0F2FD4D
:1021500041EC1F0BB0EE4F0AF0EE6F0A04F0E0FA0C
:10216000B0EE40EAF0EE60EA51EC1E0B05F003F829
:1021700041EC1D0B53EC1C2B05F0E6FA41EC1B0B5C
:102180009DED000B53EC102B05F034F853EC1A2B9B
:10219000CDE902019DED020B51EC100B05F02AF880
:1021A00041EC190B04F0F4FF2860D4ED020A1FED96
:1021B000660A20EE800A10EE101A084605F0BAFDF5
:1021C00041EC190B94ED010A10EE101A084605F0C7
:1021D000B1FD41EC1C0B9FEDFE0A30EE480A10EEFB
:1021E000101A084605F0A6FD41EC1E0BB0EE4E0A93
:1021F000F0EE6E0A03F014FCB0EE40DAF0EE60DAB6
:1022000053EC1C2B51EC1D0B05F09EFA41EC1A0B04
:1022100094ED000A10EE101A084605F08BFD41EC13
:102220001C0B9FEDEB0A30EE480A10EE101A084620
:1022300005F080FD41EC1F0BB0EE4F0AF0EE6F0A87
:1022400004F06EFAB0EE40EAF0EE60EA51EC1E0BDC
:1022500004F091FF41EC1D0B53EC1C2B05F074FABC
:1022600041EC1B0B53EC1A2B05F07AFC53EC192BA9
:10227000CDE900019DED000B51EC100B04F0BAFF0D
:10228000CDE902019DED020B51EC100B04F080FF33
:10229000686094ED020A5FEDA00A20EE200A10EEBD
:1022A000101A084605F046FD41EC1A0B94ED010AA0
:1022B00010EE101A084605F03DFD41EC1D0B9FED98
:1022C000C40A38EE000A10EE101A084605F032FD76
:1022D00041EC1F0BB0EE4F0AF0EE6F0A03F0A0FBCB
:1022E000B0EE40EAF0EE60EA53EC1D2B51EC1E0B11
:1022F00005F02AFACDE9020194ED000A10EE101A59
:10230000084605F017FD41EC1D0B9FEDB10A38EEB4
:10231000000A10EE101A084605F00CFD41EC1F0BE8
:10232000B0EE4F0AF0EE6F0A04F0FAF9B0EE40EAB0
:10233000F0EE60EA53EC1D2B51EC1E0B05F004FA95
:1023400041EC1C0B9DED020B53EC102B05F008FC2F
:1023500041EC1B0B53EC1A2B04F04CFF41EC190B16
:1023600004F016FFA86005B0BDEC108B30BD30B591
:102370002DED108B89B004460D46B0EE408A94EDE9
:10238000020A10EE101A084605F0D4FC41EC1A0BB4
:1023900018EE100A05F0CEFC41EC1F0BB0EE4F0A10
:1023A000F0EE6F0A04F0BCF9B0EE40EAF0EE60EA3D
:1023B0009FED880B53EC102B51EC1E0B05F0C4F96C
:1023C00041EC1C0B18EE100A05F0B4FC41EC1F0B9D
:1023D000B0EE4F0AF0EE6F0A03F022FBB0EE40EAD7
:1023E000F0EE60EA9FED7D0B53EC102B51EC1E0BD1
:1023F00005F0AAF941EC1D0B53EC1C2B04F0FAFE7E
:1024000041EC1B0B53EC1A2B05F09EF9CDE90401AE
:1024100094ED010A10EE101A084605F08BFC41EC11
:102420001C0B18EE100A05F085FC41EC1F0BB0EEFA
:102430004F0AF0EE6F0A04F073F9B0EE40EAF0EEE6
:1024400060EA9FED680B53EC102B51EC1E0B05F06E
:102450007BF9CDE9020118EE100A05F06BFC41ECA6
:102460001F0BB0EE4F0AF0EE6F0A03F0D9FAB0EE90
:1024700040EAF0EE60EA9FED5D0B53EC102B51EC5F
:102480001E0B05F061F9CDE900019DED020B53EC47
:10249000102B9DED000B51EC100B04F0ABFE41EC4A
:1024A0001D0B53EC1C2B05F04FF941EC1A0B94ED6E
:1024B000000A10EE101A084605F03CFC41EC1C0B1B
:1024C00018EE100A05F036FC41EC1F0BB0EE4F0A77
:1024D000F0EE6F0A04F024F9B0EE40EAF0EE60EAA4
:1024E0009FED440B53EC102B51EC1E0B05F02CF917
:1024F00041EC1D0B53EC1C2B05F026F941EC1B0B9A
:1025000053EC1A2B04F076FE41EC190B9DED040BF5
:1025100053EC102B04F06EFECDE906019DED060B89
:1025200051EC100B04F034FE286094ED020A10EE1A
:10253000101A084605F0FEFB41EC190B18EE100AC4
:1025400005F0F8FB41EC1E0BB0EE4E0AF0EE6E0A01
:1025500003F066FAB0EE40DAF0EE60DA9FED210BA0
:1025600053EC102B51EC1D0B05F0EEF841EC1C0B5D
:1025700018EE100A05F0DEFB41EC1E0BB0EE4E0A21
:10258000F0EE6E0A04F0CCF8B0EE40DAF0EE60DA6D
:102590009FED120B53EC102B51EC1D0B05F0D4F8F2
:1025A00041EC1B0B53EC1C2B05F0DAFA41EC1A0B37
:1025B00053EC192B05F0C8F8CDE9040194ED010A9C
:1025C00010EE101A084605F0B5FB41EC1A0B15E0A9
:1025D0008F09863F465D6BEF5355D53F000000C025
:1025E000A679E23F000000E05355D53F000000C04F
:1025F000A679E2BF000000005655E5BF18EE100AAC
:1026000005F098FB41EC1F0BB0EE4F0AF0EE6F0A9D
:1026100003F006FAB0EE40EAF0EE60EA1FED0F0BB1
:1026200053EC102B51EC1E0B05F08EF841EC1C0BFB
:1026300018EE100A05F07EFB41EC1F0BB0EE4F0ABE
:10264000F0EE6F0A04F06CF8B0EE40EAF0EE60EAEB
:102650001FED1A0B53EC102B51EC1E0B05F074F808
:1026600041EC1D0B53EC1C2B05F07AFA41EC1B0BD3
:1026700053EC1A2B05F068F841EC190B94ED000AA5
:1026800010EE101A084605F055FB41EC1A0B18EE37
:10269000100A05F04FFB41EC1D0BB0EE4D0AF0EEB9
:1026A0006D0A03F0BDF9B0EE40CAF0EE60CA9FEDCE
:1026B000200B53EC102B51EC1C0B05F045F841ECB2
:1026C0001B0B53EC1A2B05F03FF853EC192BCDE9FB
:1026D00000019DED000B51EC100B04F08BFDCDE9DA
:1026E00002019DED040B53EC102B9DED020B51EC00
:1026F000100B04F07FFDCDE906019DED060B51ECBA
:10270000100B04F045FD686094ED000AD4ED010A59
:1027100030EE200AD4ED020A30EE200ADFED060A80
:1027200020EE200A85ED020A09B0BDEC108B30BD09
:10273000000000005655E53FFD51A73F10B50121AF
:10274000084601F0EBF90121022001F0E7F901212F
:10275000042001F0E3F90121102001F028FA012101
:10276000480601F024FA0121880601F020FA01212F
:10277000880401F01CFA10BD10B542F20F705349E5
:10278000486053200880002048800881504802F0AB
:10279000E8FA01214E4802F06DFB012211464C4837
:1027A00002F080FF01214A4802F090FF10BD10B5F1
:1027B0000121474802F08DFF002842D04548408A59
:1027C000401C00B2434948824348B0F9000000EB86
:1027D000800040004FF47A7191FBF0F000B23D4967
:1027E000B1F9121088420ADC00203A4948823B487D
:1027F000006808B9012000E0002038490860384826
:1028000000F07EF9374880ED000A3748007828B993
:10281000FEF7AAFC01203449087004E0FEF776FDBB
:102820000020314908702E4800F06AF92F4880EDE9
:10283000000A0121264802F05DFF0121244802F030
:1028400045FF10BD10B54FF4A06000F0D3FD362059
:102850002749087002204870002088700120C87045
:10286000084600F0CCFD2720214908700020487060
:1028700001208870C870084600F0C1FD25201C4961
:10288000087000208870032088700120C8700846F6
:1028900000F0B5FD10BD08B5FFF750FF00F0DFF800
:1028A000FFF76AFFFEF776FB00F024F8002006230E
:1028B0001A4605210090FEF797FA0020032306220E
:1028C0000521009000F0B6FB08BD00009402002036
:1028D00000100040040200204E0000208082404290
:1028E00028000020300000204C0000203400002090
:1028F0004800002000B587B00121022001F00EF948
:102900000121880401F053F907220A21424800F00E
:10291000F2FE07220B21404800F0EDFE4FF440602C
:10292000019002208DF8080000208DF80A00032095
:102930008DF8090000208DF80B0001A9364800F041
:102940004FFE4FF4E13003900020ADF81000ADF8D9
:102950001200ADF814000C20ADF816000020ADF800
:10296000180003A92D4801F094FA012240F22551E4
:102970002A4801F0CCFB0121284801F012FB07B0E6
:1029800000BD10B5044600BF4021244801F0E4FB1F
:102990000028F9D02146214801F02EFB10BD70B56A
:1029A00004460D4600BF40211C4801F0D5FB00281D
:1029B000F9D0E1B2194801F01FFB204670BD10B5F7
:1029C000A0B0002440F22551144801F0DBFB00B315
:1029D0001348006808B9012000E000201049086091
:1029E0007C221049684602F060FF0E4810380FC87C
:1029F000FEF71EFB40B90948001D0088C4B22146FD
:102A000008481038FEF7FBFA40F22551034801F060
:102A1000F4FB20B010BD000000040240004800405C
:102A200080824042AC00002010B5002107E04AF24D
:102A3000104200BF1300A2F10102FBD1491C8142E8
:102A4000F5D310BD10B5002106E0282200BF130009
:102A5000A2F10102FBD1491C8142F6D310BD1FB582
:102A60004FF4A06000F0C6FC1E208DF80C00012081
:102A70008DF80D0000208DF80E0001208DF80F005C
:102A800003A800F0BCFC0121042001F090F83648B6
:102A900002F0BAF84FF6FF7001905320ADF8000035
:102AA0000020ADF80800ADF8020069462E4802F09B
:102AB00058F901212C4802F009FE012211462A484A
:102AC00002F0F0FD0121284802F0D4F90121042090
:102AD00001F06DF81FBD2448243000682349B1F986
:102AE00000104FF4803202FB010000EE900AF8EE75
:102AF000600A9FED1F1AC0EE811AB0EE610A70479E
:102B000030B5194B24331B68184CB4F900404FF40E
:102B1000803505FB04320368D11A0260002902DA0D
:102B20009FED140A30BD00EE101AF8EEC00AB0EEA8
:102B3000600AF7E710B501210B4802F0CAFD88B121
:102B40000A480088401C00B2084908800846B0F9CD
:102B50000000B0F57A7F01DB0020088001210248E7
:102B600002F0C8FD10BD0000000800405000002029
:102B7000002474490000000010B5044600BF402145
:102B8000FD4801F0E9FA0028F9D02146FA4801F0A1
:102B900033FA10BD10B586B004460121084600F096
:102BA000BDFF0121102001F013F807220921F3488D
:102BB00000F0A1FD07220A21F04800F09CFD4FF42F
:102BC000C060009002208DF8040000208DF80600FF
:102BD00003208DF8050000208DF807006946E748BE
:102BE00000F0FEFC02940020ADF80C00ADF80E00E1
:102BF000ADF810000C20ADF812000020ADF8140064
:102C000002A9DD4801F045F9012240F22551DA48D8
:102C100001F07DFA0121D84801F0C3F90A20FFF73D
:102C200003FFFF20FFF7A8FFAA20FFF7A5FF522010
:102C3000FFF7A2FF06B010BD10B52DED048B82B0DA
:102C40000446CF4801780078401CCD4A1070CD482A
:102C500044540078552806D000201146087002B070
:102C6000BDEC048B10BDC64800780B2800DAF6E7EF
:102C7000C4484078512804D052286AD053287AD1C9
:102C8000D1E0C04840880190BDF9040004F0F5FC93
:102C900041EC190B9FEDBC0B53EC102B04F066FBC1
:102CA00041EC180B9FEDBA0B53EC102B04F04CFDCC
:102CB000B94A03C2B34840680190BDF9040004F06A
:102CC000DCFC41EC190B9FEDB00B53EC102B04F026
:102CD0004DFB41EC180B9FEDAE0B53EC102B04F0A9
:102CE00033FDAD4AC2E90201A648C0880190BDF992
:102CF000040004F0C2FC41EC190B9FEDA30B53EC54
:102D0000102B04F033FB41EC180B9FEDA10B53EC9F
:102D1000102B04F019FDA04AC2E90401994880680B
:102D20000190BDF9040004F0A8FC41EC190B9FEDE3
:102D30009B0B53EC102B04F019FB41EC180B9FED8F
:102D4000990B53EC102B04F055FA934AC2E9060193
:102D5000D2E08C4840880190BDF9040004F08DFC5D
:102D600041EC190B9FED880B53EC102B04F0FEFA8D
:102D700041EC180B00E0BEE09FED8C0B53EC102BE8
:102D800004F0E2FC8B4A03C27E4840680190BDF922
:102D9000040004F072FC41EC190B9FED7B0B53EC2B
:102DA000102B04F0E3FA41EC180B9FED800B53EC71
:102DB000102B04F0C9FC7F4AC2E902017148C088A7
:102DC0000190BDF9040004F058FC41EC190B9FED93
:102DD0006E0B53EC102B04F0C9FA41EC180B9FED6D
:102DE000730B53EC102B04F0AFFC724AC2E90401E0
:102DF000644880680190BDF9040004F03EFC41EC99
:102E0000190B9FED660B53EC102B04F0AFFA41EC5D
:102E1000180B9FED640B53EC102B04F0EBF9654A93
:102E2000C2E9060168E0574840880190BDF90400F6
:102E300004F023FC41EC190B9FED530B53EC102BCA
:102E400004F094FA41EC180B9FED5B0B53EC102B44
:102E500004F07AFC5A4A03C24A4840680190BDF91E
:102E6000040004F00AFC41EC190B9FED470B53ECF6
:102E7000102B04F07BFA41EC180B9FED4F0B53EC39
:102E8000102B04F061FC4E4AC2E902013D48C088A3
:102E90000190BDF9040004F0F0FB41EC190B9FED2B
:102EA0003A0B53EC102B04F061FA41EC180B9FED38
:102EB000420B53EC102B04F047FC414AC2E90401D9
:102EC000304880680190BDF9040004F0D6FB41EC65
:102ED000190B9FED320B53EC102B04F047FA41EC29
:102EE000180B9FED300B53EC102B04F083F9344A90
:102EF000C2E9060100E000BF00BF002020490870C1
:102F000000BFACE62F490A780978491C2D4B19708F
:102F10001C4988540978AA2903D000211A46117047
:102F2000704728490978062900DAF9E715494978F0
:102F3000AB2904D12449134AD2F802200A600021A7
:102F4000204A117000BFEBE710B540F225510A4846
:102F500001F018F948B108498988C8B2FFF7D2FFD3
:102F600040F22551044801F048F94FF458710248E5
:102F700001F043F910BD00000010014000000240C4
:102F80005400002018030020000000000000E04072
:102F90000000000000003040B802002000000000E7
:102FA000004075400000000000204240000000008A
:102FB00000409F40D8020020000000C0CA21094004
:102FC000F8020020550000208800002010B50446BB
:102FD00029E020780D280BD10D21154801F00CF8BF
:102FE00000BF4021124801F0B7F80128F9D119E0DB
:102FF00020780A280BD10A210D4800F0FDFF00BF00
:1030000040210B4801F0A8F80128F9D10AE0217805
:10301000074800F0F1FF00BF4021054801F09CF88F
:103020000128F9D1641C20780028D2D110BD0000FD
:10303000001001402DE9F0418AB004460D461646C5
:103040001F46DDF840800121022000F067FD0121CC
:10305000880600F0ACFD6020089002208DF8240066
:1030600000208DF8260003208DF8250001208DF822
:10307000270008A9BC4800F0B3FA09220521BA4884
:1030800000F039FB09220621B74800F034FB00208C
:103090008DF81A008DF81B008DF81C0001208DF8AA
:1030A0001D0000208DF81E008DF81F008DF8168081
:1030B0008DF817408DF818608DF81950ADF8147020
:1030C00005A9AA4801F0C1F80E208DF80E000020D5
:1030D0008DF80F0001208DF810000020ADF80400DD
:1030E000ADF80600ADF80800ADF80A000120ADF813
:1030F0000C008DF8110001A801F031F90122102116
:103100009A4801F02BFC41208DF8000001208DF839
:10311000010000208DF8020001208DF803006846B0
:1031200000F06DF900200AB0BDE8F08110B5904ABA
:1031300001218E4801F0F7FA8D48006840F2014104
:10314000884278D18A48C07A01068948007B41EAE2
:1031500000418748407B41EA00208549897B08433C
:1031600000EE100AB8EEC00A824880ED000A90ED29
:10317000000ADFED810A20EE200A804880ED000A77
:1031800090ED000ADFED7E0AB4EEE00AF1EE10FAEF
:1031900008DC90ED000ADFED7B0AB4EEE00AF1EE08
:1031A00010FA05D2784890ED000A744880ED000AC4
:1031B000724890ED000A7448D0ED000A30EE600AC3
:1031C000724880ED000A90ED000ADFED710AB4EE5E
:1031D000E00AF1EE10FA08DC90ED000ADFED6D0A6E
:1031E000B4EEE00AF1EE10FA05D26B4890ED000A59
:1031F000664880ED000A654890ED000A664880ED5B
:10320000000A614890ED000A6048D0ED000A30EEF7
:10321000200A5D4880ED000A60485B49096801604A
:10322000594890ED000A5E48D0ED000A30EE600A81
:103230005C4880ED000A4E48007B012810D14C48C4
:10324000407BA1280CD14A48C07B574908704848A8
:10325000007C48704648407C88704548807CC87037
:103260004348007B022810D14148407BA1280CD163
:103270003F48C07B4C4908713D48007C48713C4840
:10328000407C88713A48807CC8713948007B0328AB
:1032900010D13748407BA1280CD13548C07B42492A
:1032A00008723348007C48723148407C887230484C
:1032B000807CC8722E48C07A062807D12C48407BF3
:1032C000992803D100203949087018E02848C07AAD
:1032D00008280FD12648407B9B2807D02448407BF4
:1032E0009E2803D02248407BA12803D100203049EA
:1032F000087004E0FF202D4908702D49087010BDAA
:10330000F0B585B007460D460024009501950020D4
:103310008DF808008DF8090008208DF80A0000BF1C
:1033200005E0395D0DF10B000155601C84B2082CDD
:10333000F7DB69460D4801F001F90646002401E07B
:10334000601C84B23146094801F090F918B940F682
:10335000FF708442F4DB40F6FF70844202DB012000
:1033600005B0F0BD0020FBE700040240006800400B
:10337000140500206C0000200AD7233C64000020C4
:1033800000A00C4700A00CC77C00002074000020A7
:103390000000FA430000FAC3700000205A00002029
:1033A000840000208800002028050020580000200C
:1033B000590000200948804709480047FEE7FEE71A
:1033C000FEE7FEE7FEE7FEE7FEE7FEE7FEE7FEE7D5
:1033D00004480549054A064B70470000B50C000833
:1033E0008901000898050020980B0020980700200C
:1033F0009807002032490143324A1160704770B586
:10340000002100230F22C4781CB32E4C246804F43E
:10341000E064C4F5E064C4F30721C1F10404E3B23D
:103420000A4144789C40E1B28478144021430C075F
:10343000210E254C05786155047804F01F05012400
:10344000AC4005786D11AD0005F1E025C5F80041EF
:1034500009E0047804F01F050124AC401B4D0678F8
:10346000761145F8264070BD194A0A400243154BB3
:103470001B1F1A60704739B1124A121D12680243AD
:10348000104B1B1D1A6006E00E4A121D1268824383
:103490000C4B1B1D1A607047042808D14FF0E02127
:1034A000096941F004014FF0E022116107E04FF09B
:1034B000E021096921F004014FF0E0221161704719
:1034C0000000FA050CED00E000E400E080E100E01F
:1034D00080FFFF1F10B504469848844208D101219F
:1034E000084600F086FB0021012000F082FB76E018
:1034F0009348844208D10121022000F07AFB002188
:10350000022000F076FB6AE08E48844208D1012157
:10351000042000F06EFB0021042000F06AFB5EE056
:103520008948844208D10121082000F062FB002173
:10353000082000F05EFB52E08448844208D101215B
:10354000102000F056FB0021102000F052FB46E056
:103550007F48844208D10121202000F04AFB00214D
:10356000202000F046FB3AE07A48844208D101214D
:10357000402000F03EFB0021402000F03AFB2EE00E
:103580007548844208D10121802000F032FB0021DF
:10359000802000F02EFB22E07048844208D10121F7
:1035A000801500F026FB0021A01500F022FB16E09C
:1035B0006B48844208D10121401500F01AFB00211C
:1035C000601500F016FB0AE06648844207D101212D
:1035D000001500F00EFB0021201500F00AFB10BDC5
:1035E000F0B50A4600210023002400BF3DE001257C
:1035F00005FA01F3156805EA03049C4234D1056815
:103600004F000326BE40B543056015794E00B54016
:103610000668354305601579012D02D01579022D14
:1036200016D185684F000326BE40B54385605579A5
:103630004E00B540866835438560456801268E405A
:10364000B5434560456896798E40B6B235434560CE
:10365000C5684F000326BE40B543C560D5794E000E
:10366000B540C6683543C560491C1029BFD3F0BDBD
:103670004FF6FF7101600021017141718171C171CB
:10368000704708B54FF480320092009A0A430092C6
:10369000009AC261C161009AC261C2690092C269A6
:1036A000009208BD0246002013690B400BB10120B7
:1036B00000E0002070470146086980B2704702466A
:1036C000002053690B400BB1012000E0002070473F
:1036D0000146486980B27047018370474183704753
:1036E0000AB1018300E0418370474161704742693C
:1036F0004A4042617047F0B5002300244D07ED0EAB
:1037000002FA05F3CE1000F1200555F826504E07B9
:10371000F70E0F26BE40B543CF1000F1200646F845
:103720002750CE1000F1200555F8265045EA030435
:10373000CE1000F1200545F82640F0BD0000024003
:103740000004024000080240000C02400010024049
:103750000014024000180240001C024000200240F9
:103760000024024000280240F948006840F00100AF
:10377000F74908600020F64908310860F4480068FD
:10378000F4490840F2490860F348091D0860F3480D
:10379000EF4984310860F0481038091D0860EC4892
:1037A000006820F48020EA4908600020E8490C31D4
:1037B0000860E7498C31086070470021E44A921C98
:1037C000117011460870704710B5014600220023A1
:1037D00000204A11012A02D1DD4C236808E0022AA8
:1037E00003D1DB4C7034236802E0D94C7434236875
:1037F00001F01F02012494401C400CB1012000E0A4
:10380000002010BD38B5002000900024002500BF26
:103810003120FFF7D9FF05460098401C0090009822
:10382000B0F5A04F01D0002DF2D03120FFF7CCFF32
:1038300008B1012400E00024204638BD01460020E4
:10384000C34A106820F0F80040EAC10010607047D9
:10385000C349086070470021BD4A70321170117071
:10386000012802D004280AD104E00121B84A7032AC
:10387000117005E00521B64A7032117000E000BFFA
:1038800000BF7047B7490860704770B5049C41EAB3
:1038900082150126C6EB530645EA0645054345EA6F
:1038A0000465AB4E361D356070BDAD490866704786
:1038B000820142EA0172A64B84331A607047A8491C
:1038C0008866704710B5830143EA016343EA0273D7
:1038D0009F4C8834236010BDA14908677047A049F8
:1038E000C864704702460020994B0833186820F0DE
:1038F000EC6042EA01031843954B083318607047A7
:1039000002460020924B0833186820F0784042EAC3
:10391000010318438E4B083318607047014600209E
:103920008B4A0832106820F003000843106070478B
:1039300087480830006800F00C00704701460020FE
:10394000834A0832106820F0F00008431060704786
:10395000014600207E4A0832106820F4E0500843F7
:103960001060704701460020794A0832106820F440
:10397000604040EAC10010607047F0B500210022AD
:103980000024022500260223714F08373F6807F004
:103990000C0121B1042905D0082937D105E0724F67
:1039A000076036E0714F076033E0694F3F1D3F68A5
:1039B000C7F38056664F3F1D3F6807F03F036EB167
:1039C0006A4FB7FBF3F7DFF888C10CF1040CDCF8A1
:1039D00000C0CCF3881C07FB0CF40CE0624FB7FB73
:1039E000F3F7DFF86CC10CF1040CDCF800C0CCF389
:1039F000881C07FB0CF4564F3F1D3F68C7F3014777
:103A00007F1C7D00B4FBF5F7076002E0564F0760AE
:103A100000BF00BF4E4F08373F6807F0F0010909AB
:103A2000534F7A5C0768D7404760494F08373F6873
:103A300007F4E051890A4E4F7A5C4768D7408760A7
:103A4000434F08373F6807F46041490B484F7A5CA1
:103A50004768D740C760F0BD002100F44072B2F55E
:103A6000407F0AD13A4A0832116821F4F811414ADC
:103A700002401143364A08321160354A70321268EA
:103A8000C0F30B031A43324B70331A607047354949
:103A900044390860704733494039086070473649F7
:103AA0000860704701460020294A8C32106820F0D7
:103AB0001F004A1E1043264A8C3210607047014690
:103AC0000020234A8C32106820F4F8504A1E40EA45
:103AD00002201F4A8C3210607047014600201C4AA9
:103AE0008C32106820F44010084310607047014683
:103AF0000020174A8C32106820F440000843106000
:103B0000704701460020124A8C32106820F4403081
:103B100008431060704719490860704739B10C4A72
:103B20003032126802430A4B30331A6006E0084A0A
:103B3000303212688243064B30331A607047F9B155
:103B4000034A343212680243014B34331A601CE0DA
:103B500000380240FFFFF6EA103000240030002059
:103B600000004742800E47420024F40000127A0011
:103B70008C000020FFFCFF0F5C014742E011474230
:103B80008F4A126882438E4B1A60704739B18C4A53
:103B9000121D126802438A4B1B1D1A6006E0884AF8
:103BA000121D12688243864B1B1D1A60704739B183
:103BB000834A0C3212680243814B0C331A6006E0D0
:103BC0007F4A0C32126882437D4B0C331A60704777
:103BD00039B17B4A103212680243794B10331A60B4
:103BE00006E0774A103212688243754B10331A6030
:103BF000704739B1724A243A12680243704B243B31
:103C00001A6006E06E4A243A126882436C4B243BE9
:103C10001A60704739B16A4A203A12680243684B09
:103C2000203B1A6006E0664A203A12688243644BE1
:103C3000203B1A60704739B1614A1C3A126802434E
:103C40005F4B1C3B1A6006E05D4A1C3A12688243D7
:103C50005B4B1C3B1A60704739B1594A143A1268E1
:103C60000243574B143B1A6006E0554A143A126857
:103C70008243534B143B1A60704739B1504A103A93
:103C8000126802434E4B103B1A6006E04C4A103A51
:103C9000126882434A4B103B1A60704739B1484A58
:103CA0001C3212680243464B1C331A6006E0444A39
:103CB0001C3212688243424B1C331A60704739B180
:103CC0003F4A2032126802433D4B20331A6006E01F
:103CD0003B4A203212688243394B20331A607047C6
:103CE00039B1374A243212680243354B24331A6003
:103CF00006E0334A243212688243314B24331A607F
:103D0000704739B12E4A2C32126802432C4B2C33A7
:103D10001A6006E02A4A2C3212688243284B2C3360
:103D20001A60704739B1264A303212680243244B78
:103D300030331A6006E0224A303212688243204B48
:103D400030331A607047012808D11D493C31096899
:103D500041F008011A4A3C32116007E018493C3131
:103D6000096821F00801164A3C321160704739B1E8
:103D7000134A273A12780243114B273B1A7006E088
:103D80000F4A273A127882430D4B273B1A7070472F
:103D90000B484030006840F08070094940310860AD
:103DA000704701460020064A283A12680A400AB1C4
:103DB000012000E000207047014926390870704753
:103DC0003438024010B50446FA48844208D1012133
:103DD0001020FFF752FF00211020FFF74EFF57E0A1
:103DE000F548844209D101214804FFF735FF00213D
:103DF0004FF40030FFF730FF4AE0F048844209D129
:103E000001218804FFF728FF00214FF48020FFF7ED
:103E100023FF3DE0EA48844209D10121C804FFF7AD
:103E20001BFF00214FF40020FFF716FF30E0E548AC
:103E3000844209D101210805FFF70EFF00214FF44C
:103E40008010FFF709FF23E0DF48844208D10121F9
:103E50002020FFF712FF00212020FFF70EFF17E0C0
:103E6000DA48844209D101218807FFF7F5FE0021D5
:103E70004FF08040FFF7F0FE0AE0D548844207D1BA
:103E800001214005FFF7E8FE00216005FFF7E4FE91
:103E900010BD2DE9FF4705460E460024A14600BF90
:103EA000A046B08900B100BF2C8A24F44054F088A9
:103EB00004432C82AC8941F20C608443B088318980
:103EC0000843718908430443AC81AC8A24F44074EC
:103ED000B0890443AC826846FFF74FFDB548854280
:103EE00002D0B948854202D1DDF80C9001E0DDF83E
:103EF0000890A88900F4004040B109EBC90000EB2C
:103F0000091031684900B0FBF1F707E009EBC9007F
:103F100000EB091031688900B0FBF1F76420B7FBB2
:103F2000F0F004012009642101FB1078A88900F455
:103F3000004040B1322000EBC800B0FBF1F000F0CF
:103F40000700044308E0322000EB08106421B0FBB6
:103F5000F1F000F00F0004432C81BDE8FF874FF41F
:103F60001651016000218180C18001810C214181B5
:103F700000218181704710B502460020108A20F48C
:103F800070600B884C8823438C882343CC88234360
:103F90001843108210BD0021018041808180C180C2
:103FA000704721B1828942F40052828104E0828903
:103FB0004DF6FF731A4082817047028B02F47F42F4
:103FC0000283028B0A430283704721B1828942F443
:103FD0000042828103E08289C2F30E02828170472F
:103FE00021B1828A42F40062828204E0828A4FF226
:103FF000FF731A4082827047C1F3080282807047C3
:1040000001468888C0F308007047028A4FF6F073B3
:104010001A400282028A0A430282704721B18289D1
:1040200042F00202828104E082894FF6FD731A4059
:104030008281704782894FF2FF731A4082818289A0
:104040000A4382817047028A4FF6DF731A40028268
:10405000028A0A430282704721B1028A42F48042F6
:10406000028204E0028A4BF6FF731A400282704714
:10407000818941F001018181704721B1828A42F03A
:104080000802828204E0828A4FF6F7731A40828225
:104090007047028BD2B20283028B42EA0122028372
:1040A000704721B1828A42F02002828204E0828A33
:1040B0004FF6DF731A408282704721B1828A42F044
:1040C0001002828204E0828A4FF6EF731A408282E5
:1040D0007047828A4FF6FB731A408282828A0A43B3
:1040E0008282704721B1828A42F00202828204E019
:1040F000828A4FF6FD731A40828270471AB1838A12
:104100000B43838202E0838A8B4383827047F0B53E
:104110000346002400260025002040F66A17B94215
:1041200000D100BF1846C1F3421401F01F06012759
:1041300007FA06F5012C01D10C3004E0022C01D164
:10414000103000E014301AB107682F43076002E016
:104150000768AF430760F0BD02460020B1F5007F5D
:1041600000D100BF13880B400BB1012000E00020FC
:10417000704701F40072B2F5007F00D100BFCA435E
:104180000280704770B502460024002300250020FD
:1041900040F66A16B14200D100BFC1F3421501F0EA
:1041A0001F03012606FA03F3012D13D1968933402C
:1041B00017E00000001001400044004000480040AB
:1041C000004C0040005000400014014000780040C6
:1041D000007C0040022D02D1168A334001E0968A0D
:1041E00033400C12012606FA04F41688344013B149
:1041F0000CB1012000E0002070BD10B500220023AA
:1042000040F66A14A14200D100BF0A120124944072
:10421000A3B2DC43048010BD10B50446FE488442BE
:1042200009D101214806FFF717FD00214FF000706A
:10423000FFF712FD08E001218806FFF70DFD0021C0
:104240004FF08060FFF708FD10BD30B5024600203A
:104250000023146824F002041460146844F001047C
:10426000146000E05B1C546804F001041CB94FF6B4
:10427000FF74A342F6D1546804F001040CB9002085
:104280006CE08C79012C04D1146844F08004146033
:1042900003E0146824F080041460CC79012C04D16C
:1042A000146844F04004146003E0146824F04004EF
:1042B00014600C7A012C04D1146844F020041460BA
:1042C00003E0146824F0200414604C7A012C04D11B
:1042D000146844F01004146003E0146824F010041F
:1042E00014608C7A012C04D1146844F00804146022
:1042F00003E0146824F008041460CC7A012C04D183
:10430000146844F00404146003E0146824F0040406
:1043100014608C78A407CD7844EA05640D7944EAEA
:1043200005444D7944EA05540D886D1E2C43D46133
:10433000146824F001041460002300E05B1C54683E
:1043400004F001041CB14FF6FF74A342F6D1546887
:1043500004F001040CB1002000E0012030BD10B5D4
:104360000021837A012202FA03F1AC4A126842F07A
:104370000102AA4B1A60A94A1C3212688A43A74B51
:104380001C331A60027BCAB9A44A0C3212688A43F1
:10439000A24B0C331A604288C38842EA03439F4A07
:1043A0004032847A42F834300288838842EA0343F8
:1043B0009A4A4032847A02EBC4025360027B012A9B
:1043C00019D1964A0C3212680A43944B0C331A6086
:1043D0004288038842EA0343904A4032847A42F892
:1043E0003430C288838842EA03438C4A4032847A5C
:1043F00002EBC4025360C27A3AB9884A121D1268AD
:104400008A43864B1B1D1A6006E0844A121D1268FF
:104410000A43824B1B1D1A60028932B97F4A14324B
:1044200012688A437D4B14331A600289012A06D12F
:104430007A4A143212680A43784B14331A60427B6A
:10444000012A06D1754A1C3212680A43734B1C3389
:104450001A60724A126822F00102704B1A6010BD95
:1044600000218171C171017241728172C1728170CA
:10447000C170032101710221417101210180704746
:104480006649096841F00101644A116011460968F2
:1044900043F60E729143614A11601146096841EA80
:1044A000002111601146096821F001011160704777
:1044B00021B1026842F48032026003E0026822F413
:1044C000803202607047E1B1026842F0800202600F
:1044D0004FF4C272125842F480734FF4C2721350F8
:1044E0004FF4CA72125842F480734FF4CA721350D8
:1044F0004FF4D272125842F480734FF4D2721350B8
:104500001BE0026822F0800202604FF4C27212586F
:1045100022F480734FF4C27213504FF4CA721258CF
:1045200022F480734FF4CA7213504FF4D2721258AF
:1045300022F480734FF4D2721350704710B50246C4
:104540000020936803F08063B3F1806F00D110E026
:10455000936803F00063B3F1006F01D1012008E01C
:10456000936803F08053B3F1805F01D1022000E033
:104570000420042879D002F5C07303EB00131B68F4
:1045800003F0010402F5C07303EB00131C600B7A07
:104590007BB94B7A0C8843EA445302F5C07404EBB0
:1045A00000142468234302F5C07404EB0014236054
:1045B00010E00B7A4C6843EAC4034C7A234302F5BB
:1045C000C07404EB00142468234302F5C07404EBA8
:1045D000001423608B7A03F00F038B7202F5C07313
:1045E00003EB00135B6823F00F0402F5C07303EBC9
:1045F00000135C6002F5C07303EB00135B688C7AF8
:10460000234302F5C07404EB001463608B7B1C062B
:104610004B7B44EA034403E0006400400066004032
:104620000B7B44EA0323CC7A234302F5C07404EBEA
:104630000014A3608B7C1C064B7C44EA03440B7C77
:1046400044EA0323CC7B234302F5C07404EB00143B
:10465000E36002F5C07303EB00131B6843F0010431
:1046600002F5C07303EB00131C6010BD10B50246C9
:10467000002321B1012907D002290FD109E0906858
:10468000F94C00EA04030BE09068F84C00EA0403DC
:1046900006E09068F64C00EA040301E0002300BF46
:1046A00000BFF44C181BA34216D007DC83B16FF097
:1046B0008060184470B1022818D111E0B0F5007F75
:1046C00010D0ED4C204448B1B0F5003F0ED10BE0C6
:1046D00002230DE000230BE0002309E0002307E0A4
:1046E000012305E0012303E0012301E0002300BFD3
:1046F00000BFD8B210BD21B1012907D002290FD1C6
:1047000009E0826842F0800282600AE0826842F436
:104710000042826005E0826842F40002826000E0AC
:1047200000BF00BF704710B500F5D87303EB01134D
:104730001B6803F004031372137A53B900F5D8739E
:1047400003EB01131B6840F2FF7404EA5353136038
:1047500009E000F5D87303EB01131B686FF06044A8
:1047600004EAD303536000F5D87303EB01131B680D
:1047700003F00203537200F5D87303EB01135B6877
:1047800003F00F03937200F5D87303EB01135B681A
:104790001B0AD37400F5D87303EB01139B68D37223
:1047A00000F5D87303EB01139B681C0A147300F522
:1047B000D87303EB01139B681C0C547300F5D8737A
:1047C00003EB01139B681B0E937300F5D87303EB87
:1047D0000113DB68D37300F5D87303EB0113DB68B7
:1047E0001C0A147400F5D87303EB0113DB681C0C6E
:1047F000547400F5D87303EB0113DB681B0E93743C
:1048000021B9C36843F02003C36003E0036943F0A8
:104810002003036110BD21B9C26842F02002C260CA
:1048200003E0026942F02002026170470246002064
:1048300019B9D36803F0030006E0012903D1136915
:1048400003F0030000E00020704710B502460B465D
:1048500000204FF6FF71BBB9146824F0020444F045
:104860000104146000E0491E546804F00304012CA4
:1048700001D00029F7D1546804F00304012C01D0C1
:10488000002032E0012030E0012B13D1146824F025
:104890000304146000E0491E546804F003040CB1E2
:1048A0000029F8D1546804F003040CB100201CE086
:1048B00001201AE0022B17D1146824F0010444F0FF
:1048C0000204146000E0491E546804F00304022C42
:1048D00001D00029F7D1546804F00304022C01D060
:1048E000002002E0012000E0002010BD0146002071
:1048F0000A6822F0010242F002020A604A6802F0ED
:104900000302022A00D10120704701464FF6FF72D0
:1049100000200B6823F002030B6000E0521E4B687E
:1049200003F00203022B01D1002AF7D14B6803F0F8
:104930000203022B00D001207047014600208A6943
:1049400002F070007047014600208A69100E70471F
:10495000014600208A69C2F3074070471AB14369D3
:104960000B43436102E043698B434361704710B5D9
:104970000246002001F4700343B19369C1F31304AC
:1049800023400BB101202DE000202BE001F08073CB
:1049900043B15368C1F3130423400BB1012021E05C
:1049A00000201FE001F0006343B19368C1F31304DA
:1049B00023400BB1012015E0002013E001F000734B
:1049C00043B1D368C1F3130423400BB1012009E0C4
:1049D000002007E01369C1F3130423400BB1012049
:1049E00000E0002010BD0022244B994202D1002398
:1049F000836111E0C1F3130201F000730BB1C260D7
:104A00000AE001F080630BB1026105E001F0006390
:104A10000BB1826000E0426070470246002002EA6B
:104A200001030BB1012000E00020704770B504467F
:104A30000D46002660692840002872D0B5F5807FB9
:104A400069D01DDC082D42D006DC012D2DD0022DB1
:104A500031D0042D7FD134E0102D3ED0202D42D016
:104A6000402D78D145E00000030000040003000859
:104A700000000310000100080001FFF77000F03093
:104A8000B5F5004F61D009DCB5F5007F4AD0B5F52A
:104A9000806F4DD0B5F5006F5DD150E0B5F5803F2A
:104AA0002DD0B5F5003F56D12FE0A0685549FFF74E
:104AB000B4FF064651E0E0680321FFF7AEFF06466B
:104AC0004BE0E0680821FFF7A8FF064645E0E068F4
:104AD0001021FFF7A2FF06463FE020690321FFF700
:104AE0009CFF064639E020690821FFF796FF06463D
:104AF00033E020691021FFF790FF06462DE0606843
:104B00000821FFF78AFF064627E060681021FFF7BB
:104B100084FF064621E0A0690121FFF77EFF0646DB
:104B20001BE01BE0A0690221FFF777FF064614E0B7
:104B3000A0690421FFF771FF06460EE00BE0A069B3
:104B40007021FFF76AFF064607E060680421FFF75F
:104B500064FF064601E0002600BF00E00026304664
:104B600070BDB1F5007F3AD00FDC202928D006DCDB
:104B700001291CD004291DD0082940D11DE040295D
:104B800021D0B1F5807F3AD126E0B1F5004F31D088
:104B900006DCB1F5806F25D0B1F5006F2FD124E090
:104BA000B1F5803F12D0B1F5003F28D111E0154A90
:104BB000826025E00822C26022E01022C2601FE06D
:104BC000082202611CE01022026119E00822426002
:104BD00016E01022426013E00422426010E004223A
:104BE00042600DE0042242600AE000228261042259
:104BF000426005E0002282610422426000E000BFC2
:104C000000BF70470101010010B50446FE48844210
:104C100008D101210846FFF730F800210120FFF7F5
:104C20002CF89DE0B4F1804F08D101210846FFF730
:104C300013F800210120FFF70FF891E0F3488442B8
:104C400008D101210220FFF707F800210220FFF719
:104C500003F885E0EE48844208D101210420FEF7E4
:104C6000FBFF00210420FEF7F7FF79E0E9488442CA
:104C700008D101210820FEF7EFFF00210820FEF7F0
:104C8000EBFF6DE0E448844208D101211020FEF7DB
:104C9000E3FF00211020FEF7DFFF61E0DF488442E0
:104CA00008D101212020FEF7D7FF00212020FEF7A8
:104CB000D3FF55E0DA48844208D101210220FEF7F3
:104CC000DCFF00210220FEF7D8FF49E0D5488442EE
:104CD00009D101210804FEF7D0FF00214FF48030F4
:104CE000FEF7CBFF3CE0D048844209D101214804C3
:104CF000FEF7C3FF00214FF40030FEF7BEFF2FE0A8
:104D0000CA48844209D101218804FEF7B6FF002178
:104D10004FF48020FEF7B1FF22E0C548844208D15D
:104D200001214020FEF798FF00214020FEF794FF6C
:104D300016E0C048844208D101218020FEF78CFF94
:104D400000218020FEF788FF0AE0BB48844207D19B
:104D500001218015FEF780FF0021A015FEF77CFFE2
:104D600010BD00220288A84B98420ED0AC4B98424E
:104D70000BD0B0F1804F08D0A44B984205D0A44B83
:104D8000984202D0A34B984204D14FF68F731A4039
:104D90004B881A43A04B984207D0A04B984204D0AE
:104DA0004FF6FF431A400B891A4302804B68C362D7
:104DB0000B880385944B984202D0994B984201D1BD
:104DC0008B7A03860123838270474FF0FF31416065
:104DD00000210180018141808172704701858282BA
:104DE00070470A46002101884FF68F73194011431E
:104DF0000180704741627047C16270470146486A4E
:104E000070470146088D704721B1028842F00202C6
:104E1000028004E002884FF6FD731A40028070475A
:104E200021B1028842F00402028004E002884FF6B9
:104E3000FB731A400280704721B1028842F0800261
:104E4000028004E002884FF67F731A4002807047A8
:104E500002884FF6F7731A40028002880A430280E4
:104E6000704702884FF6FF431A40028002880A43C7
:104E70000280704721B1028842F00102028004E002
:104E800002884FF6FE731A400280704770B5002406
:104E900000220023058C4FF6FE7635400584028CF7
:104EA0008388048B4FF68F752C40B51E2C400D88DF
:104EB0002C43751E2A408D892A434D882A43524D22
:104EC000A84202D0564DA84213D14FF6F7752A409A
:104ED000CD892A434FF6FB752A408D882A434FF629
:104EE000FF652B404FF6FF552B400D8A2B434D8A13
:104EF0002B43838004838D684563028470BD70B545
:104F0000002400220023058C4FF6EF7635400584FF
:104F1000028C8388048B48F6FF752C404FF6FF45C2
:104F20002C400D884FF6FF7606EA05252C434FF6F8
:104F3000DF752A408D8906EA05152A434D8806EA61
:104F400005152A43304DA84202D0354DA8421DD147
:104F50004FF67F752A40CD894FF6FF7606EA051594
:104F60002A434FF6BF752A408D8806EA05152A4365
:104F70004FF6FF352B404FF2FF752B400D8A06EAA6
:104F800085052B434D8A06EA85052B4383800483E0
:104F90008D688563028470BD70B5002400220023F3
:104FA000058C4FF6FF6635400584028C8388848B20
:104FB0004FF68F752C404FF6FC752C400D882C4316
:104FC0004FF6FF552A408D894FF6FF7606EA0525F4
:104FD0002A434D8806EA05252A430B4DA84202D0F4
:104FE0000F4DA84238D14FF2FF752A40CD894FF6B8
:104FF000FF7606EA05252A434FF6FF352A408D88BD
:1050000006EA05252A4319E000000140000400409B
:1050100000080040000C0040001000400014004058
:1050200000040140004001400044014000480140AC
:1050300000180040001C0040002000404EF6FF75A4
:105040002B404DF6FF752B400D8A06EA05152B43C4
:105050004D8A06EA05152B43838084838D68C563DA
:10506000028470BD70B5002200230024058C4EF62A
:10507000FF7635400584038C8488828B48F6FF7563
:105080002A404FF6FF452A400D884FF6FF7606EA84
:1050900005252A434DF6FF752B408D8906EA053517
:1050A0002B434D8806EA05352B43FE4DA84202D01E
:1050B000FD4DA84208D14BF6FF752C400D8A4FF6E6
:1050C000FF7606EA85152C43848082838D6805640B
:1050D000038470BD002101804180818081608181D5
:1050E000C18101824182704770B5034600200024CF
:1050F0001846183001258D40ACB21D8CA5431D8487
:1051000009B108290AD100EB610005684FF68F76D6
:10511000354005600568154305600FE00D1FC5F3B8
:105120004E052844056848F6FF7635400560056859
:105130004FF6FF7606EA02263543056070BD4163EF
:10514000704781637047C1637047016470470A46C6
:105150000021018B4FF68F73194011430183704773
:105160000A460021018B48F6FF7319404FF6FF7382
:1051700003EA02231943018370470A460021818B09
:105180004FF68F7319401143818370470A460021FF
:10519000818B48F6FF7319404FF6FF7303EA022331
:1051A0001943818370470A460021018B4FF6F7733C
:1051B00019401143018370470A460021018B4FF2C9
:1051C000FF7319404FF6FF7303EA0223194301836B
:1051D00070470A460021818B4FF6F773194011433F
:1051E000818370470A460021818B4FF2FF7319407B
:1051F0004FF6FF7303EA02231943818370470A467F
:105200000021018B4FF6FB73194011430183704756
:105210000A460021018B4FF6FF3319404FF6FF730A
:1052200003EA02231943018370470A460021818B58
:105230004FF6FB7319401143818370470A460021E2
:10524000818B4FF6FF3319404FF6FF7303EA0223B9
:105250001943818370470A460021018B4FF67F7303
:1052600019401143018370470A460021018BC1F3A5
:105270000E014FF6FF7303EA0223194301837047BF
:105280000A460021818B4FF67F73194011438183B9
:1052900070470A460021818BC1F30E014FF6FF7360
:1052A00003EA02231943818370470A460021018CD7
:1052B0004FF6FD7319401143018470470A460021DF
:1052C000018C4FF6F77319401143018470470A4669
:1052D0000021018C4FF6DF7319404FF6FF7303EA8C
:1052E00002131943018470470A460021018C4FF6CE
:1052F0007F7319404FF6FF7303EA021319430184C9
:1053000070470A460021018C4FF6FF5319404FF6B3
:10531000FF7303EA02231943018470470A46002100
:10532000018C4FF2FF7319404FF6FF7303EA02231B
:105330001943018470470A460021018C4DF6FF7322
:1053400019404FF6FF7303EA023319430184704793
:1053500030B5002301248C40A3B2048C9C43048408
:10536000048C02FA01F5ADB22C43048430BD30B593
:10537000002304248C40A3B2048C9C430484048C3A
:1053800002FA01F5ADB22C43048430BD828B4FF29A
:10539000FF331A408283828B4FF6FF7303EA0123A7
:1053A0001A4382837047F0B50C461546002100224F
:1053B0000026078C4EF6FF7C07EA0C070784818BDA
:1053C000028C4FF6FF7707EA043640F6FF47394074
:1053D0004FF6FF7707EA052739434FF6FF7707EACD
:1053E0000337394345F6FF773A4046F480573A434E
:1053F00081830284F0BD828B4FF6F3731A4082835F
:10540000828B0A4382837047F0B50C461546002113
:1054100000220026078C4FF6FF6C07EA0C07078472
:10542000818B028C4FF6FF7707EA04264FF60C7744
:1054300039404FF6FF7707EA03172F4339434FF2FE
:10544000FF573A4046F480773A4381830284F0BDA7
:10545000028B4FF2FF331A400283028B4FF6FF7329
:1054600003EA01231A4302837047F0B50C46154640
:10547000002100220026078C4FF6EF7C07EA0C077C
:105480000784018B028C4FF6FF7707EA041640F67B
:10549000FF4739404FF6FF7707EA033739434FF6A6
:1054A000FF7703E0000001400004014007EA052700
:1054B00039434FF65F773A4046F010073A4301838D
:1054C0000284F0BD028B4FF6F3731A400283028B05
:1054D0000A4302837047F0B50C46154600210022AE
:1054E000068C4FF6FE773E400684018B028C4FF609
:1054F0000C7631407E1C06EA03162E4331434FF6EC
:10550000F576324044F00106324301830284F0BD57
:1055100070B505460C46208850B92389A288618859
:105520002846FFF7D8FFE1882846FFF7CBFF25E0A4
:10553000208804280AD12389A28861882846FFF799
:1055400094FFE1882846FFF783FF17E020880828AA
:105550000AD12389A28861882846FFF755FFE18890
:105560002846FFF748FF09E02389A288618828467A
:10557000FFF719FFE1882846FFF708FF70BD0021FB
:1055800001804180012181800021C180018170471B
:105590002DE9F04105460C4600260127608808B930
:1055A000022600E00026A088012801D1022700E0A1
:1055B00001272088A0B92389A28861882846FFF79F
:1055C0008AFFE1882846FFF77DFF23893A46314666
:1055D0002846FFF74AFFE1882846FFF739FF13E026
:1055E0002389A28861882846FFF73FFFE188284683
:1055F000FFF72EFF23893A4631462846FFF76BFF17
:10560000E1882846FFF75EFFBDE8F0810146486B60
:1056100070470146886B70470146C86B704701466A
:10562000086C70470A884B881A438B881A43CB88CA
:105630001A430B891A434B891A438B891A43A0F8E2
:10564000442070470021018041808180C180018118
:1056500041818181704731B1B0F8442042F4004269
:10566000A0F8442005E0B0F84420C2F30E02A0F8F0
:105670004420704721B1828842F00402828004E015
:1056800082884FF6FB731A408280704721B182886E
:1056900042F00102828004E082884FF6FE731A40D5
:1056A000828070471AB183890B43838102E083892A
:1056B0008B43838170478182704702460020138AA2
:1056C0000B400BB1012000E000207047CA4302826A
:1056D000704730B50246002000230024158A05EAF1
:1056E0000103958905EA010413B10CB1012000E022
:1056F000002030BDCA430282704741EA0203A0F88D
:10570000483070471AB183890B43838102E0838953
:105710008B438381704721B1828842F008028280E6
:1057200004E082884FF6F7731A408280704701893F
:105730004FF6F8721140018170470A460021018935
:105740004FF68F73194011430181704730B50446FD
:105750000D4629462046FFF7F0FF208940F007005C
:10576000208130BD2DE9F04104460D4616461F4606
:10577000602D06D13B46012231462046FFF775FEDB
:1057800005E03B46012231462046FFF7A4FE2946AC
:105790002046FFF7D2FF208940F007002081BDE8B6
:1057A000F08130B50C4600210189C9B24FF6FF7572
:1057B00005EA0325154325432943018130BD2DE921
:1057C000F04105460E4617469846002443463A46A1
:1057D00031462846FFF7E5FF2C894FF6F870044064
:1057E00044F007044FF68F70044044F070042C819D
:1057F000BDE8F081F0B504460D4616461F463B460F
:10580000324629462046FFF7CCFF208940F48040ED
:105810002081F0BD82884FF68F731A408280828883
:105820000A438280704702894FF6F8731A4002815A
:1058300002890A430281704702894FF67F731A403A
:10584000028102890A4302817047F0B50C46154671
:105850001E460021002200230189028B038C4FF693
:10586000F877394021434FF6FC473A4040F20117A0
:105870003A434FF6DD773B404FF6FF7707EA0617CE
:105880002F433B43018102830384F0BD21B1828811
:1058900042F08002828004E082884FF67F731A40D3
:1058A00082807047A0F85010704710B5203AC0F0C1
:1058B0000B80B1E81850203AA0E81850B1E8185011
:1058C000A0E81850BFF4F5AF5FEA027C24BFB1E84E
:1058D0001850A0E8185044BF18C918C0BDE81040BF
:1058E0005FEA827C24BF51F8043B40F8043B08BFC8
:1058F0007047D20728BF31F8023B48BF11F8012B8F
:1059000028BF20F8023B48BF00F8012B70474FF03A
:10591000000200B5134694469646203922BFA0E8FF
:105920000C50A0E80C50B1F12001BFF4F7AF09070B
:1059300028BFA0E80C5048BF0CC05DF804EB8900FC
:1059400028BF40F8042B08BF704748BF20F8022B3F
:1059500011F0804F18BF00F8012B70477047704757
:10596000704710B500F008F8006810BD10B5044687
:1059700000F002F8046010BD0048704734050020B4
:1059800000487047340500207546FFF7F9FFAE4622
:1059900005006946534620F00700854618B020B53B
:1059A000FDF716FDBDE820404FF000064FF0000760
:1059B0004FF000084FF0000B21F00701AC46ACE8B7
:1059C000C009ACE8C009ACE8C009ACE8C0098D4624
:1059D00070470446AFF300802046FAF71EFC000033
:1059E00001491820ABBEFEE726000200704703B451
:1059F00001984100009850EAC12018BF04204A0DC8
:105A000018BF40F0010040F2FF72B2EB515F08BFD7
:105A100040F00200012808BF052002B070470000D6
:105A200010B52F499FED2C1B2DED020B84B005986E
:105A300020F000408842D8BF9DED040B2DDD2949A0
:105A4000884209D1049840B94FF00100FFF78EFF5A
:105A500001F01EFB06B010BD05DB9DED040B01F04F
:105A600003FB06B010BD68469DED040B00F0FCFE84
:105A700010F0030004BF9DED021B9DED000B0CD048
:105A800001280ED09DED021B9DED000B022817D0C2
:105A9000012001F039FA06B010BD01F001F906B09D
:105AA00010BD9DED021B9DED000B012001F02CFAB5
:105AB00051EC100B01F05FFB06B041EC100B10BD78
:105AC00001F0EEF851EC100B01F055FB06B041EC83
:105AD000100B10BD000000000000000000000000DE
