:020000040800F2
:10000000400B0020E52E0008690B00086B0B000870
:100010006F0B0008730B0008770B0008000000004E
:100020000000000000000000000000007B0B000842
:100030007D0B0008000000007F0B0008810B00080A
:10004000FF2E0008FF2E0008FF2E0008FF2E0008DC
:10005000FF2E0008FF2E0008FF2E0008FF2E0008CC
:10006000FF2E0008FF2E0008FF2E0008FF2E0008BC
:10007000FF2E0008FF2E0008FF2E0008FF2E0008AC
:10008000FF2E0008FF2E0008FF2E0008B9150008FB
:10009000CF150008FF2E0008FF2E0008FF2E0008D5
:1000A000FF2E0008FF2E0008FF2E0008FF2E00087C
:1000B000FF2E0008FF2E0008E5290008FF2E00088B
:1000C000FF2E0008FF2E0008FF2E0008FF2E00085C
:1000D000FF2E0008F92D0008FF2E00086F280008E9
:1000E000FF2E0008FF2E0008FF2E0008FF2E00083C
:1000F000FF2E0008FF2E0008FF2E0008FF2E00082C
:10010000FF2E0008FF2E0008FF2E0008FF2E00081B
:10011000FF2E0008FF2E000867260008FF2E0008AB
:10012000FF2E0008FF2E0008FF2E0008FF2E0008FB
:10013000FF2E0008FF2E0008FF2E0008FF2E0008EB
:10014000FF2E0008FF2E0008FF2E0008FF2E0008DB
:10015000FF2E0008FF2E0008FF2E0008FF2E0008CB
:10016000FF2E0008FF2E0008FF2E0008FF2E0008BB
:10017000FF2E0008FF2E0008FF2E0008FF2E0008AB
:10018000FF2E0008FF2E000800F002F800F03CF8F7
:100190000AA090E8000C82448344AAF10107DA45E2
:1001A00001D100F031F8AFF2090EBAE80F0013F0F8
:1001B000010F18BFFB1A43F001031847CC79000068
:1001C000EC790000103A24BF78C878C1FAD85207F9
:1001D00024BF30C830C144BF04680C6070470000C1
:1001E0000023002400250026103A28BF78C1FBD840
:1001F000520728BF30C148BF0B6070471FB507F0DA
:1002000066FB1FBD10B510BD05F056F91146FFF78E
:10021000F5FF00F095F905F074F903B4FFF7F2FF6C
:1002200003BC05F075F90000B0EE401AB4EEE01A18
:10023000F1EE10FA02DDB0EE600A7047B1EE600A2E
:10024000B4EEC01AF1EE10FA02D2B1EE600AF4E791
:10025000B0EE410AF1E700B5FE480068052829D153
:100260000320FD494874FD48FD4B0ECB18300EC0ED
:100270002438D0ED0C0AB0EE600AF2EE040AFFF763
:10028000D3FFF64880ED060AD0ED0D0AB0EE600A05
:10029000F2EE040AFFF7C8FFF04880ED070AD0ED40
:1002A0000E0AB0EE600AF2EE040AFFF7BDFFEB485B
:1002B00080ED080A00BD9FEDEB0AE84880ED0F0ACB
:1002C0009FEDE80A80ED100A9FEDE60A80ED110A25
:1002D0009FEDE40A80ED120A9FEDE20A80ED130A19
:1002E0009FEDE00A80ED140A9FEDDE0A80ED150A0D
:1002F0009FEDDC0A80ED160A9FEDDA0A80ED170A01
:10030000704700B5D3480068012829D10220D2499E
:100310004874D248D24B0ECB0C300EC01838D0EDFA
:10032000030AB0EE600AF2EE040AFFF77DFFCB4845
:1003300080ED030AD0ED040AB0EE600AF2EE040A82
:10034000FFF772FFC54880ED040AD0ED050AB0EE54
:10035000600AF2EE040AFFF767FFC04880ED050A65
:1003600000BD30B587B04021BF4803F08DFC0028A8
:100370007DD0B8480068012806D1B7494870FFF71A
:10038000C0FF0020B3490860B248006802282FD19E
:10039000FF2002F04EFAFF2002F04BFA012002F09B
:1003A00048FA002002F045FA0D2002F042FA02203D
:1003B00002F03FFA1025A94A07CA04AB07C300247C
:1003C00008E004A9085D02F034FA04A8005D28449E
:1003D00085B2641C0C2CF4DBFF2095FBF0F100FBD4
:1003E000115085B2E8B202F024FA00209949086061
:1003F0009848006803281CD1FFF75DFFFF2002F03A
:1004000018FAFF2002F015FA012002F012FA00207B
:1004100002F00FFA022002F00CFA032002F009FAAF
:10042000002002F006FA062002F003FA00208949B3
:10043000086088480068042831D1FF2002F0F9F9EB
:10044000FF2002F0F6F9012002F0F3F9002002F09B
:10045000F0F90D2002F0EDF9042002F0EAF912257E
:100460007E4A3C3207CA01AB07C3002409E022E000
:1004700001A9085D02F0DDF901A8005D284485B2FC
:10048000641C0C2CF4DBFF2095FBF0F100FB1150F9
:1004900085B2E8B202F0CDF900206E4908606D48DF
:1004A0000068052807D101206B494870FFF7D3FE8B
:1004B00000206849086000BF40216B4803F0E4FB5E
:1004C0000028F9D007B030BD10B5024600201378DF
:1004D000062B18D2DFE803F01703070B0F130123D5
:1004E0005C4C236010E002235A4C23600CE0032391
:1004F000584C236008E00423564C236004E0052395
:10050000544C236000E000BF00BF524B1B68012B1E
:1005100008D1002004E0431CD35C514C2354401C00
:100520000C28F8DB4B4B1B68052B08D1002004E09E
:10053000431CD35C4A4C2354401C0C28F8DB10BDF0
:10054000DCB00027642143A804F079FFB8460020FE
:100550004149C87002F0FBF802F0D0F8434800F0BF
:100560000DFD02203C4948740120C870F7E23F4865
:1005700000788DF880003D4840788DF881003B4838
:1005800080788DF882003948C0788DF8830037482C
:1005900000798DF88400354840798DF8850033481E
:1005A00080798DF886003148C0798DF887002F4812
:1005B000007A8DF888002D48407A8DF889002B4804
:1005C000807A8DF88A002948C07A8DF88B002748F8
:1005D000007B8DF88C002548407B8DF88D002348EA
:1005E000807B8DF88E002148C07B8DF88F001F48DE
:1005F000007C8DF890001D48407C8DF891001B48D0
:10060000807C8DF892001948C07C8DF893001748C3
:10061000007D8DF894001548407D8DF895001348B5
:10062000807D8DF896001148C07D8DF897000F48A9
:10063000007E8DF898000D48407E8DF899000B489B
:10064000807E8DF89A000948C07E8DF89B0007488F
:10065000007F0DE000000020D80100206001002094
:10066000FC00002000000000004800407000002056
:100670008DF89C00FE48407F8DF89D00FC48807FEF
:100680008DF89E00FA48C07F8DF89F00F84890F8DA
:1006900020008DF8A000F64890F821008DF8A10008
:1006A000F34890F822008DF8A200F14890F823005A
:1006B0008DF8A300EE4890F824008DF8A400EC48D3
:1006C00090F825008DF8A500E94890F826008DF8EF
:1006D000A600E74890F827008DF8A700E44890F8B6
:1006E00028008DF8A800E24890F829008DF8A900AC
:1006F000DF4890F82A008DF8AA00DD4890F82B001A
:100700008DF8AB00DA4890F82C008DF8AC00D84892
:1007100090F82D008DF8AD00D54890F82E008DF89A
:10072000AE00D34890F82F008DF8AF00D04890F875
:1007300030008DF8B000CE4890F831008DF8B1004F
:10074000CB4890F832008DF8B200C94890F83300D9
:100750008DF8B300C64890F834008DF8B400C44852
:1007600090F835008DF8B500C14890F836008DF846
:10077000B600BF4890F837008DF8B700BC4890F835
:1007800038008DF8B800BA4890F839008DF8B900F3
:10079000B74890F83A008DF8BA00B54890F83B0099
:1007A0008DF8BB00B24890F83C008DF8BC00B04812
:1007B00090F83D008DF8BD00AD4890F83E008DF8F2
:1007C000BE00AB4890F83F008DF8BF00A84890F8F5
:1007D00040008DF8C000A64890F841008DF8C10097
:1007E000A34890F842008DF8C200A14890F8430059
:1007F0008DF8C3009E4890F844008DF8C4009C48D2
:1008000090F845008DF8C500994890F846008DF89D
:10081000C600974890F847008DF8C700944890F8B4
:1008200048008DF8C800924890F849008DF8C9003A
:100830008F4890F84A008DF8CA008D4890F84B0018
:100840008DF8CB008A4890F84C008DF8CC00884891
:1008500090F84D008DF8CD00854890F84E008DF849
:10086000CE00834890F84F008DF8CF00804890F874
:1008700050008DF8D0007E4890F851008DF8D100DE
:100880007B4890F852008DF8D200794890F85300D8
:100890008DF8D300764890F854008DF8D400744851
:1008A00090F855008DF8D500714890F856008DF8F5
:1008B000D6006F4890F857008DF8D7006C4890F834
:1008C00058008DF8D8006A4890F859008DF8D90082
:1008D000674890F85A008DF8DA00654890F85B0098
:1008E0008DF8DB00624890F85C008DF8DC00604811
:1008F00090F85D008DF8DD005D4890F85E008DF8A1
:10090000DE005B4890F85F008DF8DF00584890F8F3
:1009100060008DF8E000564890F861008DF8E10025
:10092000534890F862008DF8E200514890F8630057
:100930008DF8E3004E4890F864008DF8E4004C48D0
:1009400090F865008DF8E500494890F866008DF84C
:10095000E600474890F867008DF8E700444890F8B3
:1009600068008DF8E800424890F869008DF8E900C9
:100970003F4890F86A008DF8EA003D4890F86B0017
:100980008DF8EB003A4890F86C008DF8EC00384890
:1009900090F86D008DF8ED00354890F86E008DF8F8
:1009A000EE00334890F86F008DF8EF00304890F873
:1009B00070008DF8F0002E4890F871008DF8F1006D
:1009C0002B4890F872008DF8F200294890F87300D7
:1009D0008DF8F300264890F874008DF8F400244850
:1009E00090F875008DF8F500214890F876008DF8A4
:1009F000F6001F4890F877008DF8F7001C4890F833
:100A000078008DF8F8001A4890F879008DF8F90010
:100A1000174890F87A008DF8FA00154890F87B0096
:100A20008DF8FB00124890F87C008DF8FC0010480F
:100A300090F87D008DF8FD000D4890F87E008DF84F
:100A4000FE000B4890F87F008DF8FF00084890F8F2
:100A500080008DF800010648D0F8840041900448D9
:100A6000D0F888007C2224A94290684602E0000069
:100A70007000002004F0B1FC20A80FC800F0A4FA18
:100A800000B16CE0364800F080FA0446B8F1080F77
:100A900060D2DFE808F0040D5F15222B3644FF2CEE
:100AA00005D14FF0010800202E490880002754E0AE
:100AB000FF2C02D14FF0030801E04FF000084CE09A
:100AC000012C07D1274800882044264908804FF090
:100AD000040801E04FF000083FE02248008820446D
:100AE0002049088025464FF0050836E01D4800885B
:100AF00020441C49088044EA052006B24FF006084D
:100B00002BE01848008820441649088038467F1C8E
:100B100043A90C54B74201DB4FF007081DE0114810
:100B20000088FF2190FBF1F201FB12000D490880C3
:100B30000846008884420AD1314643A8FFF7C4FC26
:100B4000FFF70FFC002007490880804601E04FF0C6
:100B5000000802E04FF0000800BF00BF00BF06E53C
:100B60007000002004000020704700BFFEE700BFB7
:100B7000FEE700BFFEE700BFFEE770477047704723
:100B8000704700000CB50020019000907648006886
:100B900040F480307449086000BF7348006800F476
:100BA000003000900198401C0190009818B90198FD
:100BB000B0F5A04FF1D16C48006800F4003010B1DE
:100BC0000120009001E0002000900098012846D10B
:100BD00065484030006840F080506349403108600B
:100BE0006248006840F44040604908605E48083050
:100BF00000685D49083108600846006840F400401C
:100C000008600846006840F4A05008605848091F72
:100C10000860081F006840F08070091F086000BF6E
:100C20005148006800F000700028F9D040F20570CB
:100C3000504908604C480830006820F003004A49D9
:100C4000083108600846006840F00200086000BFF4
:100C500045480830006800F00C000828F8D10CBDA9
:100C600010B54548006840F47000434908603E48AC
:100C7000006840F001003C49086000203A49083112
:100C80000860394800683D490840374908603C48D9
:100C9000091D0860081F006820F48020091F0860F3
:100CA000002031490C310860FFF76CFF4FF0006005
:100CB00031498039086010BD70B500200022022340
:100CC00000240221284D08352D6805F00C0020B1C4
:100CD000042806D0082834D107E02A4D2A4E356072
:100CE00033E02A4D284E35602FE01F4D2D1D2D6815
:100CF000C5F380541C4D2D1D2D6805F03F0154B1E6
:100D0000224DB5FBF1F5184E361D3668C6F3881630
:100D100005FB06F209E01B4DB5FBF1F5124E361D41
:100D20003668C6F3881605FB06F20F4D2D1D2D689B
:100D3000C5F301456D1C6B00B2FBF3F5124E356037
:100D400003E0104D104E356000BF00BF064D083562
:100D50002D68C5F303150E4E705D0B4D2D68C54013
:100D6000094E356070BD0000003802400070004040
:100D700008544007003C024088ED00E0FFFFF6FE0B
:100D8000103000240024F4000800002000127A0033
:100D90000C0000202DE9F0418AB004460D461646AD
:100DA0001F46DDF840800121084602F04FFC01217A
:100DB000480602F094FC4FF4C050089002208DF8D1
:100DC000240000208DF8260003208DF82500012046
:100DD0008DF8270008A9584802F09AF909220B213A
:100DE000554802F020FA09220C21534802F01BFA60
:100DF00000208DF81A008DF81B008DF81C008DF86E
:100E00001D008DF81E008DF81F008DF816808DF8DE
:100E100017408DF818608DF81950ADF8147005A9B9
:100E2000464802F0AAFF00208DF80E008DF80F0052
:100E300001208DF810000020ADF80400ADF8060088
:100E4000ADF80800ADF80A00ADF80C0001208DF8EF
:100E5000110001A803F01BF801220221374803F01A
:100E600015FB14208DF8000001208DF801000020F2
:100E70008DF8020001208DF80300684602F057F853
:100E800000200AB0BDE8F081F0B585B007460D46F8
:100E9000002432200090019000208DF808008DF889
:100EA00009008DF80A5000BF05E0395D0DF10B0017
:100EB0000155601C84B2AC42F7DB69461F4803F061
:100EC000D5F80646002406E0601C84B269461B483B
:100ED00003F0CCF806463146184803F05FF918B91C
:100EE00040F6FF708442EFDB40F6FF70844202DB85
:100EF000012005B0F0BD0020FBE730B585B0054608
:100F000000210E4803F02AFA10B9002005B030BDC8
:100F10006A460021094803F09EF9002404E00DF11F
:100F20000B00005D2855641C9DF80A00A042F6D80D
:100F30009DF80A00EAE7000000000240006400405B
:100F40001CB50121022002F081FB012000908DF8E8
:100F5000040000208DF8060003208DF80500012014
:100F60008DF807006946044802F0D2F801210248D2
:100F700002F04AF91CBD00000004024010B504460E
:100F80008C21204604F05BFA10BD10B50146D1F863
:100F90008420885CD1F88420521C812392FBF3F4D6
:100FA00003FB1422C1F8842010BD10B5D0F88820AE
:100FB0008154D0F88820521C812392FBF3F403FB68
:100FC0001422C0F8882010BD0FB4219822998842BD
:100FD00002D1012004B070470020FBE70FB4229833
:100FE000401C812190FBF1F201FB12002199884203
:100FF00002D1012004B070470020FBE73EB500237A
:10100000009301930293002209E000F00F051346BC
:10101000521C0DF803500011082A00D101E00028ED
:10102000F3D100BF9DF800309DF8014043EA04135E
:101030000B709DF802309DF8034043EA04134B7097
:101040009DF804309DF8054043EA04138B709DF829
:1010500006309DF8074043EA0413CB703EBD70B5DF
:101060002DED028B86B0B0EE408A054600240020AC
:101070000590009501958DF809008DF8080008206D
:101080008DF80A008DF80B008DF80C5090218DF82A
:101090000D1000218DF80E1005A9BDEEC80A10EE46
:1010A000100AFFF7ABFF9DF814108DF80F109DF894
:1010B00015108DF810109DF816108DF811109DF870
:1010C00017108DF8121000BF00BF6946FE4802F0ED
:1010D000CDFF0646601C84B2042E03D140F6FF709B
:1010E0008442F2DB002401E0601C84B23146F64801
:1010F00003F054F818B940F6FF708442F4DB40F670
:10110000FF70844204DB012006B0BDEC028B70BD91
:101110000020F9E710B5ED48007808B9012000E09B
:101120000020EA490870EA480078401CE849087045
:10113000E848407C68B99FEDE80AE84880ED0C0A71
:101140009FEDE50A80ED0D0A9FEDE30A80ED0E0AA2
:101150003AE0E048407C01280FD1E048D0ED081A81
:10116000B0EE611AD0ED071AF0EE610AD0ED061A62
:10117000B0EE610A00F044FB26E0D648407C02282D
:101180000FD1D648D0ED051AB0EE611AD0ED041A91
:10119000F0EE610AD0ED031AB0EE610A00F0E6FA53
:1011A00012E0CC48407C03280ED1CC48D0ED081A80
:1011B000B0EE611AD0ED071AF0EE610AD0ED061A12
:1011C000B0EE610A00F01CFBC248407C012807D049
:1011D000C048407C022803D0BE48407C032820D170
:1011E000BA480078A0B1BD48D0ED0E0AB0EE600A52
:1011F0003020FFF734FF4FF4C87001F07BFBB74895
:10120000D0ED0D0AB0EE600A3220FFF728FF20E093
:10121000B248D0ED0C0AB0EE600A3620FFF71FFF8F
:1012200017E036209FEDAC0AFFF719FFC82001F048
:1012300061FB30209FEDA80AFFF711FFC82001F0E5
:1012400059FB32209FEDA40AFFF709FFC82001F0E7
:1012500051FB10BDF0B585B004460F460025009443
:10126000019400208DF809008DF8080003208DF806
:101270000A008DF80B008DF80C408DF80D7000BF42
:1012800000BF6946904802F0F1FE0646681C85B230
:10129000042E03D140F6FF708542F2DB01E0681CAA
:1012A00085B23146884802F079FF18B940F6FF70E0
:1012B0008542F4DB05B0F0BD10B589480078D8B997
:1012C00001208749087001210846FFF7C3FF4FF44A
:1012D000967001F00FFB01210320FFF7BBFF4FF4D5
:1012E000967001F007FB01210220FFF7B3FF4FF4D6
:1012F000967001F0FFFA5EE100210120FFF7AAFFDE
:101300004FF4967001F0F6FA7448D0ED120A9FED92
:10131000751A80EE810AF0EE000A20EE200ADFED59
:10132000720A60EE200A90ED150A9FED701A10EE19
:10133000810A6F4880ED000A684890ED150A6C48F4
:10134000D0ED000A30EE200A644880ED150AD0ED99
:10135000140A9FED641A80EE810AF0EE000A20EE76
:10136000200ADFED610A60EE200A90ED170A9FED7A
:101370005F1A10EE810A5E4880ED020A574890ED30
:10138000170A5B48D0ED020A30EE200A534880ED80
:10139000170A90ED130ADFED530A80EE201AB0EE23
:1013A000000A21EE000ADFED500A60EE200A90EDFF
:1013B000160A9FED4E1A10EE810A4D4880ED010A83
:1013C000464890ED160A4A48D0ED010A30EE200A50
:1013D000424880ED160AC82001F08CFA3F48D0ED53
:1013E000110AB0EE600A4349414800F020FF41482D
:1013F00090ED000ADFED400AB4EEE00AF1EE10FADB
:101400000CD290ED000ADFED3D0AB4EEE00AF1EEF9
:1014100010FA03DD9FED300A80ED000A354890EDAB
:10142000010ADFED350AB4EEE00AF1EE10FA0CD253
:1014300090ED010ADFED310AB4EEE00AF1EE10FAA8
:1014400003DD9FED250A80ED010A2A4890ED020A8E
:10145000DFED290AB4EEE00AF1EE10FA0CD290EDBD
:10146000020ADFED260AB4EEE00AF1EE10FA03DD1F
:101470009FED190A80ED020A184890ED0F0A1D48E9
:10148000D0ED000A30EE600A144880ED0F0A90EDAE
:10149000100A1848D0ED010A30EE600A0F4880EDBE
:1014A000100A174890ED000ADFED160A80EE201AA8
:1014B0009FED0D0A21EE000A084880ED110A0D4942
:1014C0000B4800F044FB1FE0006400401D000020BA
:1014D0001C000020D8010020000000006001002056
:1014E0001F0000200000B443560E494060E5503D07
:1014F000F0010020FC010020BD378635BD3786B5E0
:101500005400002000003443714890ED000A5FED64
:10151000060AB4EEE00AF1EE10FA0CD290ED000AE1
:101520005FED0A0AB4EEE00AF1EE10FA03DD1FEDFA
:10153000160A80ED000A664890ED010A5FED120A76
:10154000B4EEE00AF1EE10FA0CD290ED010A5FED74
:10155000150AB4EEE00AF1EE10FA03DD1FED220ADF
:1015600080ED010A5A4890ED020A5FED1D0AB4EEC3
:10157000E00AF1EE10FA0CD290ED020A5FED210ABA
:10158000B4EEE00AF1EE10FA03DD1FED2D0A80ED56
:10159000020A4F4890ED000A4E4880ED000A4C4880
:1015A00090ED010A4B4880ED010A494890ED020A8E
:1015B000484880ED020A10BD10B50121464802F0EE
:1015C000CDFF18B10121444803F063F810BD10B5F8
:1015D00086B00221404802F0C1FF002876D001AA5F
:1015E00000213D4802F037FE0298B0F5887F16D101
:1015F0009DF80E00082812D19DF80F0002280ED188
:10160000002407E00DF10F00A11C405C3349085590
:10161000601CC4B2062CF5DB012031490870029829
:10162000B0F5047F17D19DF80E00082813D19DF85E
:101630000F0002280FD1002408E00DF10F00A11CBB
:10164000415C264AA01D1154601CC4B2062CF4DB78
:101650000120234948700298B0F5447F17D19DF8C6
:101660000E00062813D19DF80F0002280FD1002488
:1016700007E00DF10F00A11C405C18490855601CE3
:10168000C4B2042CF5DB13481449096801651448F9
:101690000078012811D11248407801280DD100208E
:1016A0000F49087048700B480C49096881640B4960
:1016B0004968C1640949896801650221064802F048
:1016C000E8FF0021044802F03EFE00BF06B010BD56
:1016D000FC0100206001002000640040080200209E
:1016E0002000002010B52DED048BB0EE409AB0EE36
:1016F000608AF0EE418AB1EE490AE54880ED000AC1
:10170000B1EE480A80ED010AC0ED028AE14900F01D
:10171000E1F9E04890ED000ADFEDDF0A80EE201AE3
:101720009FEDDE0A21EE000ADD4880ED0C0AD94863
:10173000D0ED010A9FEDD81A80EE810ADFEDD70ABD
:1017400020EE200AD64880ED0D0AD248D0ED020ADC
:101750009FEDD11A80EE810ADFEDD00A20EE200A3B
:10176000CF4880ED0E0ABDEC048B10BD10B52DEDF9
:10177000048BB0EE408AF0EE608AB0EE419AB1EE92
:10178000480AC84880ED000AB1EE680A80ED010AF7
:1017900080ED029AC248D0ED110AB0EE600AC2494B
:1017A000C04800F0F2FBC04890ED000A9FEDBA1A65
:1017B000C0EE010A9FEDB90A20EE800AB84880ED1C
:1017C0000C0AB948D0ED010A9FEDB31A80EE810AE8
:1017D000DFEDB20A20EE200AB14880ED0D0AB248D2
:1017E000D0ED020A9FEDAC1A80EE810ADFEDAB0A64
:1017F00020EE200AAA4880ED0E0ABDEC048B10BD35
:1018000010B52DED048BB0EE409AB0EE608AF0EE8C
:10181000418AA64880ED009A80ED018AC0ED028AD7
:10182000A34900F057F9A24890ED000ADFED9A0AAB
:1018300080EE201A9FED990A21EE000A984880ED6B
:101840000C0A9B4890ED010ADFED930A80EE201A06
:101850009FED920A21EE000A914880ED0D0A94480E
:1018600090ED020A9FED8C1AC0EE010A9FED8B0AE3
:1018700020EE800A8A4880ED0E0ABDEC048B10BD74
:1018800010B52DED048BB0EE408AF0EE608A88EE44
:10189000280AB0EE409AB0EE491ADFED860AB0EEA3
:1018A000480AFFF7ADFFBDEC048B10BD10B52DED60
:1018B000068BF0EE409AB0EE60AAB0EE418AF0EEF0
:1018C000618AF0EE42AA88EE280AB0EE409AB0EEA5
:1018D000491ADFED780AB0EE480AFFF791FFBDEC38
:1018E000068B10BD10B52DED108B84B0B0EE40FA14
:1018F000B0EE608AF0EE418AF0EE61FA684890ED51
:101900000F0ADFED6D0A20EE200AC0EE080A10EE85
:10191000904A204605F06AFF41EC1C0BB0EE4C0AE1
:10192000F0EE6C0A03F014FEB0EE40AAF0EE60AAEE
:10193000B0EE000A2FEE000ADFED600A20EE200A6A
:10194000C0EE080A10EE904A204605F04FFF41EC29
:101950001B0B53EC1A2B05F053FC41EC190B05F053
:1019600073F9574908600846006805F03FFF9FED8E
:10197000551BCDE902019DED020B03F055FEB0EEC3
:1019800040EAF0EE60EA9FED510B53EC102B51EC66
:101990001E0B05F08BF941EC1D0BB0EE4D0AF0EE7D
:1019A0006D0A04F0C9FCB0EE40CAF0EE60CA53EC18
:1019B0001C2B9FED460B51EC100B05F033FA41EC5C
:1019C0001A0B18EE900A05F011FF41EC1B0B53ECBB
:1019D0001A2B05F015FC41EC190B05F035F93049CF
:1019E000C8603748006805F001FF9FED361BCDE960
:1019F00000019DED000B03F017FE8DED020B9FED36
:101A0000330B53EC102B9DED020B51EC100B05F03A
:101A10004DF941EC1D0BB0EE4D0AF0EE6D0A04F0ED
:101A20008BFCB0EE40EAF0EE60EA2548006805F075
:101A3000DDFE41EC1C0B53EC1E2B05F0F3F941ECE1
:101A40001A0B18EE900A05F0D1FE41EC1B0B53EC7B
:101A50001A2B05F0D5FB41EC190B05F0F5F81049F0
:101A600008610846C0ED05FAD0ED051AB0EE611A1E
:101A7000D0ED041AF0EE610AD0ED031AB0EE610A5F
:101A8000FFF774FE04B0BDEC108B10BD7047000072
:101A9000140200202002002060E5503D9C30654289
:101AA000600100202C0200203802002044020020A7
:101AB0005002002000000000560EC940560E49405A
:101AC0002400002000000000000000400000000092
:101AD0000000F03F90ED000ADFEDFE0A20EE200A44
:101AE000D0ED010AB7EE001A01EE200AD0ED020A8D
:101AF0009FEDF91A01EE200A81ED000A90ED000A2F
:101B0000DFEDF60A20EE200AD0ED010AB6EE001A4B
:101B100001EE600AD0ED020A9FEDEF1A01EE200AF5
:101B200081ED010A90ED000ADFEDED0A20EE200ABA
:101B3000D0ED010AB6EE001A01EE600AD0ED020AFD
:101B40009FEDE51A01EE200A81ED020A704790ED43
:101B5000000ADFEDE00A20EE200AD0ED010A9FED39
:101B6000E11A01EE200AD0ED020A9FEDDF1A01EE24
:101B7000200A81ED000A90ED000ADFEDDC0A20EE7C
:101B8000200AD0ED010A9FEDDA1A01EE600AD0EDCD
:101B9000020A9FEDD81A01EE200A81ED010A90EDAC
:101BA000000AD0ED010A30EE200AD0ED020A30EE34
:101BB000200ADFEDD10A20EE200A81ED020A7047EB
:101BC00030B52DED108B85B005460C46B0EE408A41
:101BD00094ED020ADFEDBF0A20EE200A10EE101A83
:101BE000084605F003FE41EC1A0B94ED010A10EED5
:101BF000101A084605F0FAFD41EC1D0B18EE100A0C
:101C000005F0F4FD41EC1F0BB0EE4F0AF0EE6F0A49
:101C100004F026FBB0EE40EAF0EE60EA53EC1D2B38
:101C200051EC1E0B05F0ECFA41EC1C0B94ED000A94
:101C300010EE101A084605F0D9FD41EC1D0B18EE08
:101C4000100A05F0D3FD41EC1F0BB0EE4F0AF0EE89
:101C50006F0A03F07DFCB0EE40EAF0EE60EA53EC70
:101C60001D2B51EC1E0B05F0CBFA53EC1C2BCDE9D0
:101C700002019DED020B51EC100B05F017F841EC41
:101C80001B0B53EC1A2B05F011F841EC190B04F067
:101C9000DBFF286094ED020ADFED8E0A20EE200AB9
:101CA00010EE101A084605F0A1FD41EC190B94ED59
:101CB000010A10EE101A084605F098FD41EC1C0BC5
:101CC00018EE100A05F092FD41EC1E0BB0EE4E0A24
:101CD000F0EE6E0A03F03CFCB0EE40DAF0EE60DAB3
:101CE00053EC1C2B51EC1D0B05F08AFA41EC1A0B3E
:101CF00094ED000A10EE101A084605F077FD41EC4D
:101D00001C0B18EE100A05F071FD41EC1F0BB0EE34
:101D10004F0AF0EE6F0A04F0A3FAB0EE40EAF0EEDC
:101D200060EA51EC1E0B04F082FF41EC1D0B53ECFA
:101D30001C2B05F065FA41EC1B0B53EC1A2B04F03D
:101D4000B5FF53EC192BCDE900019DED000B51ECD3
:101D5000100B04F0ABFFCDE902019DED020B51EC3D
:101D6000100B04F071FF686094ED000ADFED590A72
:101D700020EE200AD4ED010A9FED561A01EE200A4A
:101D8000D4ED020AB7EE001A01EE200A85ED020A30
:101D900005B0BDEC108B30BD30B52DED108B83B090
:101DA00004460D46B0EE408A94ED020ADFED490A82
:101DB00020EE200A10EE101A084605F017FD41EC3F
:101DC0001A0B94ED010A10EE101A084605F00EFDEC
:101DD00041EC1D0B18EE100A05F008FD41EC1F0B3D
:101DE000B0EE4F0AF0EE6F0A04F03AFAB0EE40EAB5
:101DF000F0EE60EA53EC1D2B51EC1E0B05F000FADF
:101E000041EC1C0B94ED000A10EE101A084605F088
:101E1000EDFC41EC1D0B18EE100A05F0E7FC41EC5F
:101E20001F0BB0EE4F0AF0EE6F0A03F091FBB0EE1D
:101E300040EAF0EE60EA53EC1D2B51EC1E0B05F06E
:101E4000DFF953EC1C2BCDE900019DED000B51ECAB
:101E5000100B05F0E1FB41EC1B0B53EC1A2B04F0CB
:101E600025FF41EC190B04F0EFFE286094ED020A07
:101E7000DFED180A20EE200A10EE101A084605F0D1
:101E8000B5FC41EC190B94ED010A10EE101A08464E
:101E900005F0ACFC41EC1D0B18EE100A05F0A6FC99
:101EA00041EC1F0BB0EE4F0AF0EE6F0A03F050FB4F
:101EB000B0EE40EAF0EE60EA53EC1D2B51EC1E0B45
:101EC00005F09EF941EC1B0B94ED000A10EE101A80
:101ED000084613E0000000005C8F823ED0B35DBF77
:101EE000D0B35D3F36CD13BF36CD133FB0AA2A3FE6
:101EF0009FAAAA3E9FAAAABEF151A73F05F076FC71
:101F000041EC1D0B18EE100A05F070FC41EC1F0BA4
:101F1000B0EE4F0AF0EE6F0A04F0A2F9B0EE40EA1C
:101F2000F0EE60EA53EC1D2B51EC1E0B05F068F946
:101F300041EC1C0B53EC1B2B04F0B8FE41EC1A0BCC
:101F400053EC192B04F0B2FECDE900019DED000B1E
:101F500051EC100B04F078FE686094ED000A5FED20
:101F6000230A20EE200AD4ED010A1FED261A01EE05
:101F7000200AD4ED020AB7EE001A01EE200A85ED20
:101F8000020A03B0BDEC108B30BD30B52DED108BC7
:101F900085B004460D46B0EE408AD4ED020A1FED2E
:101FA000320A20EE800A10EE101A084605F01EFCD8
:101FB00041EC1A0B94ED010A10EE101A084605F0D8
:101FC00015FC41EC1C0B18EE100A05F00FFC41EC5F
:101FD0001E0BB0EE4E0AF0EE6E0A03F0B9FAB0EE48
:101FE00040DAF0EE60DA53EC1C2B51EC1D0B05F0DF
:101FF00007F9CDE9000194ED000A10EE101A084629
:1020000005F0F4FB41EC1C0B18EE100A05F0EEFB9A
:1020100041EC1F0BB0EE4F0AF0EE6F0A04F020F90E
:10202000B0EE40EAF0EE60EA51EC1E0B04F0FFFD6A
:1020300041EC1D0B53EC1C2B05F0E2F841EC1B0BA3
:102040009DED000B53EC102B04F030FE53EC1A2BDB
:10205000CDE902019DED020B51EC100B04F026FEC0
:1020600041EC190B04F0F0FD2860D4ED020A1FEDDD
:10207000660A20EE800A10EE101A084605F0B6FB3C
:1020800041EC190B94ED010A10EE101A084605F008
:10209000ADFB41EC1C0B9FEDFE0A30EE480A10EE42
:1020A000101A084605F0A2FB41EC1E0BB0EE4E0ADA
:1020B000F0EE6E0A03F04CFAB0EE40DAF0EE60DAC1
:1020C00053EC1C2B51EC1D0B05F09AF841EC1A0B4C
:1020D00094ED000A10EE101A084605F087FB41EC5B
:1020E0001C0B9FEDEB0A30EE480A10EE101A084662
:1020F00005F07CFB41EC1F0BB0EE4F0AF0EE6F0ACF
:1021000004F0AEF8B0EE40EAF0EE60EA51EC1E0BDF
:1021100004F08DFD41EC1D0B53EC1C2B05F070F809
:1021200041EC1B0B53EC1A2B05F076FA53EC192BF0
:10213000CDE900019DED000B51EC100B04F0B6FD54
:10214000CDE902019DED020B51EC100B04F07CFD7A
:10215000686094ED020A5FEDA00A20EE200A10EEFE
:10216000101A084605F042FB41EC1A0B94ED010AE7
:1021700010EE101A084605F039FB41EC1D0B9FEDDF
:10218000C40A38EE000A10EE101A084605F02EFBBD
:1021900041EC1F0BB0EE4F0AF0EE6F0A03F0D8F9D6
:1021A000B0EE40EAF0EE60EA53EC1D2B51EC1E0B52
:1021B00005F026F8CDE9020194ED000A10EE101AA0
:1021C000084605F013FB41EC1D0B9FEDB10A38EEFC
:1021D000000A10EE101A084605F008FB41EC1F0B30
:1021E000B0EE4F0AF0EE6F0A04F03AF8B0EE40EAB3
:1021F000F0EE60EA53EC1D2B51EC1E0B05F000F8DD
:1022000041EC1C0B9DED020B53EC102B05F004FA76
:1022100041EC1B0B53EC1A2B04F048FD41EC190B5D
:1022200004F012FDA86005B0BDEC108B30BD30B5D8
:102230002DED108B89B004460D46B0EE408A94ED2A
:10224000020A10EE101A084605F0D0FA41EC1A0BFB
:1022500018EE100A05F0CAFA41EC1F0BB0EE4F0A57
:10226000F0EE6F0A03F0FCFFB0EE40EAF0EE60EA39
:102270009FED880B53EC102B51EC1E0B04F0C0FFAC
:1022800041EC1C0B18EE100A05F0B0FA41EC1F0BE4
:10229000B0EE4F0AF0EE6F0A03F05AF9B0EE40EAE2
:1022A000F0EE60EA9FED7D0B53EC102B51EC1E0B12
:1022B00004F0A6FF41EC1D0B53EC1C2B04F0F6FCC4
:1022C00041EC1B0B53EC1A2B04F09AFFCDE90401EF
:1022D00094ED010A10EE101A084605F087FA41EC59
:1022E0001C0B18EE100A05F081FA41EC1F0BB0EE42
:1022F0004F0AF0EE6F0A03F0B3FFB0EE40EAF0EEE3
:1023000060EA9FED680B53EC102B51EC1E0B04F0B0
:1023100077FFCDE9020118EE100A05F067FA41ECEB
:102320001F0BB0EE4F0AF0EE6F0A03F011F9B0EE9A
:1023300040EAF0EE60EA9FED5D0B53EC102B51ECA0
:102340001E0B04F05DFFCDE900019DED020B53EC87
:10235000102B9DED000B51EC100B04F0A7FC41EC91
:102360001D0B53EC1C2B04F04BFF41EC1A0B94EDAE
:10237000000A10EE101A084605F038FA41EC1C0B62
:1023800018EE100A05F032FA41EC1F0BB0EE4F0ABE
:10239000F0EE6F0A03F064FFB0EE40EAF0EE60EAA0
:1023A0009FED440B53EC102B51EC1E0B04F028FF57
:1023B00041EC1D0B53EC1C2B04F022FF41EC1B0BDA
:1023C00053EC1A2B04F072FC41EC190B9DED040B3D
:1023D00053EC102B04F06AFCCDE906019DED060BD1
:1023E00051EC100B04F030FC286094ED020A10EE62
:1023F000101A084605F0FAF941EC190B18EE100A0C
:1024000005F0F4F941EC1E0BB0EE4E0AF0EE6E0A48
:1024100003F09EF8B0EE40DAF0EE60DA9FED210BAB
:1024200053EC102B51EC1D0B04F0EAFE41EC1C0B9D
:1024300018EE100A05F0DAF941EC1E0BB0EE4E0A68
:10244000F0EE6E0A03F00CFFB0EE40DAF0EE60DA68
:102450009FED120B53EC102B51EC1D0B04F0D0FE32
:1024600041EC1B0B53EC1C2B05F0D6F841EC1A0B7E
:1024700053EC192B04F0C4FECDE9040194ED010ADC
:1024800010EE101A084605F0B1F941EC1A0B15E0F0
:102490008F09863F465D6BEF5355D53F000000C066
:1024A000A679E23F000000E05355D53F000000C090
:1024B000A679E2BF000000005655E5BF18EE100AED
:1024C00005F094F941EC1F0BB0EE4F0AF0EE6F0AE5
:1024D00003F03EF8B0EE40EAF0EE60EA1FED0F0BBD
:1024E00053EC102B51EC1E0B04F08AFE41EC1C0B3C
:1024F00018EE100A05F07AF941EC1F0BB0EE4F0A06
:10250000F0EE6F0A03F0ACFEB0EE40EAF0EE60EAE7
:102510001FED1A0B53EC102B51EC1E0B04F070FE48
:1025200041EC1D0B53EC1C2B05F076F841EC1B0B1A
:1025300053EC1A2B04F064FE41EC190B94ED000AE5
:1025400010EE101A084605F051F941EC1A0B18EE7E
:10255000100A05F04BF941EC1D0BB0EE4D0AF0EE00
:102560006D0A02F0F5FFB0EE40CAF0EE60CA9FEDD2
:10257000200B53EC102B51EC1C0B04F041FE41ECF2
:102580001B0B53EC1A2B04F03BFE53EC192BCDE93B
:1025900000019DED000B51EC100B04F087FBCDE921
:1025A00002019DED040B53EC102B9DED020B51EC41
:1025B000100B04F07BFBCDE906019DED060B51EC01
:1025C000100B04F041FB686094ED000AD4ED010AA1
:1025D00030EE200AD4ED020A30EE200ADFED060AC2
:1025E00020EE200A85ED020A09B0BDEC108B30BD4B
:1025F000000000005655E53FFD51A73F10B50121F1
:10260000084601F023F80121022001F01FF8012102
:10261000042001F01BF80121102001F060F80121D5
:10262000480601F05CF80121880401F058F810BD5B
:1026300010B542F20F7051494860532008800020C5
:10264000488008814E4802F024F901214C4802F0EC
:10265000A9F9012211464A4802F0BCFD012148486F
:1026600002F0CCFD10BD10B50121454802F0C9FDB6
:10267000002842D04348408A401C00B24149488269
:102680004148B0F9000000EB800040004FF47A713F
:1026900091FBF0F000B23B49B1F9121088420ADC1C
:1026A0000020384948823948006808B9012000E014
:1026B000002036490860364800F07AF9354880ED48
:1026C000000A3548007828B9FEF724FD0120324978
:1026D000087004E0FEF7F0FD00202F4908702C4838
:1026E00000F066F92D4880ED000A0121244802F02F
:1026F00099FD0121224802F081FD10BD10B54FF473
:10270000A06000F00FFC36202549087001204870B9
:10271000002088700120C870084600F008FC2720BF
:102720001F4908700020487001208870C870084652
:1027300000F0FDFB25201A49087000208870032056
:1027400088700120C870084600F0F1FB10BD08B584
:10275000FFF754FF00F0DBF8FFF76AFFFEF7F0FB2E
:1027600000F020F8002006231A4605210090FEF70D
:1027700011FB4FF4E13000F065F908BD5C02002068
:1027800000100040D80100204E000020808240420E
:1027900028000020300000204C00002034000020E1
:1027A0004800002000B587B00121022000F04EFF54
:1027B0000121880400F093FF07220A21424800F01B
:1027C00032FD07220B21404800F02DFD4FF4406000
:1027D000019002208DF8080000208DF80A000320E7
:1027E0008DF8090000208DF80B0001A9364800F093
:1027F0008FFC4FF4E13003900020ADF81000ADF8ED
:102800001200ADF814000C20ADF816000020ADF851
:10281000180003A92D4801F0D4F8012240F22551F7
:102820002A4801F00CFA0121284801F052F907B0BA
:1028300000BD10B5044600BF4021244801F024FA31
:102840000028F9D02146214801F06EF910BD70B57D
:1028500004460D4600BF40211C4801F015FA00282F
:10286000F9D0E1B2194801F05FF9204670BD10B50A
:10287000A0B0002440F22551144801F01BFA00B327
:102880001348006808B9012000E0002010490860E2
:102890007C221049684602F0A0FD0E4810380FC88F
:1028A000FEF79CFB40B90948001D0088C4B22146D0
:1028B00008481038FEF779FB40F22551034801F033
:1028C00034FA20B010BD000000040240004800406F
:1028D000808240428000002010B5002107E04AF2CB
:1028E000104200BF1300A2F10102FBD1491C81423A
:1028F000F5D310BD10B5002106E0282200BF13005B
:10290000A2F10102FBD1491C8142F6D310BD1FB5D3
:102910004FF4A06000F006FB1E208DF80C00012093
:102920008DF80D0000208DF80E0001208DF80F00AD
:1029300003A800F0FCFA0121042000F0D0FE364884
:1029400001F0FAFE4FF6FF7001905320ADF8000041
:102950000020ADF80800ADF8020069462E4801F0ED
:1029600098FF01212C4802F049FC012211462A4817
:1029700002F030FC0121284802F014F80121042063
:1029800000F0ADFE1FBD2448243000682349B1F992
:1029900000104FF4803202FB010000EE900AF8EEC6
:1029A000600A9FED1F1AC0EE811AB0EE610A7047EF
:1029B00030B5194B24331B68184CB4F900404FF460
:1029C000803505FB04320368D11A0260002902DA5F
:1029D0009FED140A30BD00EE101AF8EEC00AB0EEFA
:1029E000600AF7E710B501210B4802F00AFC88B134
:1029F0000A480088401C00B2084908800846B0F91F
:102A00000000B0F57A7F01DB002008800121024838
:102A100002F008FC10BD000000080040500000203B
:102A2000002474490000000010B5044600BF402196
:102A3000FD4801F029F90028F9D02146FA4801F0B3
:102A400073F810BD10B586B004460121084600F0A9
:102A5000FDFD0121102000F053FE07220921F3485B
:102A600000F0E1FB07220A21F04800F0DCFB4FF404
:102A7000C060009002208DF8040000208DF8060050
:102A800003208DF8050000208DF807006946E7480F
:102A900000F03EFB02940020ADF80C00ADF80E00F3
:102AA000ADF810000C20ADF812000020ADF81400B5
:102AB00002A9DD4800F085FF012240F22551DA48E5
:102AC00001F0BDF80121D84801F003F80A20FFF712
:102AD00003FFFF20FFF7A8FFAA20FFF7A5FF522062
:102AE000FFF7A2FF06B010BD10B52DED048B82B02C
:102AF0000446CF4801780078401CCD4A1070CD487C
:102B000044540078552806D000201146087002B0C1
:102B1000BDEC048B10BDC64800780B2800DAF6E740
:102B2000C4484078512804D052286AD053287AD11A
:102B3000D1E0C04840880190BDF9040004F0F9FAE2
:102B400041EC190B9FEDBC0B53EC102B04F06AF910
:102B500041EC180B9FEDBA0B53EC102B04F050FB1B
:102B6000B94A03C2B34840680190BDF9040004F0BB
:102B7000E0FA41EC190B9FEDB00B53EC102B04F075
:102B800051F941EC180B9FEDAE0B53EC102B04F0F8
:102B900037FBAD4AC2E90201A648C0880190BDF9E1
:102BA000040004F0C6FA41EC190B9FEDA30B53ECA3
:102BB000102B04F037F941EC180B9FEDA10B53ECEF
:102BC000102B04F01DFBA04AC2E90401994880685B
:102BD0000190BDF9040004F0ACFA41EC190B9FED33
:102BE0009B0B53EC102B04F01DF941EC180B9FEDDF
:102BF000990B53EC102B04F059F8934AC2E90601E3
:102C0000D2E08C4840880190BDF9040004F091FAAC
:102C100041EC190B9FED880B53EC102B04F002F9DB
:102C200041EC180B00E0BEE09FED8C0B53EC102B39
:102C300004F0E6FA8B4A03C27E4840680190BDF971
:102C4000040004F076FA41EC190B9FED7B0B53EC7A
:102C5000102B04F0E7F841EC180B9FED800B53ECC0
:102C6000102B04F0CDFA7F4AC2E902017148C088F6
:102C70000190BDF9040004F05CFA41EC190B9FEDE2
:102C80006E0B53EC102B04F0CDF841EC180B9FEDBC
:102C9000730B53EC102B04F0B3FA724AC2E904012F
:102CA000644880680190BDF9040004F042FA41ECE8
:102CB000190B9FED660B53EC102B04F0B3F841ECAD
:102CC000180B9FED640B53EC102B03F0EFFF654ADC
:102CD000C2E9060168E0574840880190BDF9040048
:102CE00004F027FA41EC190B9FED530B53EC102B1A
:102CF00004F098F841EC180B9FED5B0B53EC102B94
:102D000004F07EFA5A4A03C24A4840680190BDF96D
:102D1000040004F00EFA41EC190B9FED470B53EC45
:102D2000102B04F07FF841EC180B9FED4F0B53EC88
:102D3000102B04F065FA4E4AC2E902013D48C088F2
:102D40000190BDF9040004F0F4F941EC190B9FED7A
:102D50003A0B53EC102B04F065F841EC180B9FED87
:102D6000420B53EC102B04F04BFA414AC2E9040128
:102D7000304880680190BDF9040004F0DAF941ECB4
:102D8000190B9FED320B53EC102B04F04BF841EC78
:102D9000180B9FED300B53EC102B03F087FF344AD8
:102DA000C2E9060100E000BF00BF00202049087012
:102DB00000BFACE62F490A780978491C2D4B1970E1
:102DC0001C4988540978AA2903D000211A46117099
:102DD000704728490978062900DAF9E71549497842
:102DE000AB2904D12449134AD2F802200A600021F9
:102DF000204A117000BFEBE710B540F225510A4898
:102E000000F058FF48B108498988C8B2FFF7D2FFDF
:102E100040F22551044800F088FF4FF458710248F1
:102E200000F083FF10BD00000010014000000240D0
:102E30005A000020E0020020000000000000E040F6
:102E40000000000000003040800200200000000070
:102E500000407540000000000020424000000000DB
:102E600000409F40A0020020000000C0CA2109408D
:102E7000C00200205C0000205400002010B5044671
:102E800029E020780D280BD10D21154800F04CFECB
:102E900000BF4021124800F0F7FE0128F9D119E0E7
:102EA00020780A280BD10A210D4800F03DFE00BF12
:102EB00040210B4800F0E8FE0128F9D10AE0217812
:102EC000074800F031FE00BF4021054800F0DCFE5D
:102ED0000128F9D1641C20780028D2D110BD00004F
:102EE000001001400948804709480047FEE7FEE717
:102EF000FEE7FEE7FEE7FEE7FEE7FEE7FEE7FEE7AA
:102F000004480549054A064B70470000610C00085B
:102F10008901000840050020400B002040070020E8
:102F20004007002032490143324A1160704770B5B2
:102F3000002100230F22C4781CB32E4C246804F413
:102F4000E064C4F5E064C4F30721C1F10404E3B212
:102F50000A4144789C40E1B28478144021430C0734
:102F6000210E254C05786155047804F01F050124D5
:102F7000AC4005786D11AD0005F1E025C5F80041C4
:102F800009E0047804F01F050124AC401B4D0678CD
:102F9000761145F8264070BD194A0A400243154B88
:102FA0001B1F1A60704739B1124A121D1268024382
:102FB000104B1B1D1A6006E00E4A121D1268824358
:102FC0000C4B1B1D1A607047042808D14FF0E021FC
:102FD000096941F004014FF0E022116107E04FF070
:102FE000E021096921F004014FF0E02211617047EE
:102FF0000000FA050CED00E000E400E080E100E0F4
:1030000080FFFF1F10B504469848844208D1012173
:10301000084600F086FB0021012000F082FB76E0EC
:103020009348844208D10121022000F07AFB00215C
:10303000022000F076FB6AE08E48844208D101212C
:10304000042000F06EFB0021042000F06AFB5EE02B
:103050008948844208D10121082000F062FB002148
:10306000082000F05EFB52E08448844208D1012130
:10307000102000F056FB0021102000F052FB46E02B
:103080007F48844208D10121202000F04AFB002122
:10309000202000F046FB3AE07A48844208D1012122
:1030A000402000F03EFB0021402000F03AFB2EE0E3
:1030B0007548844208D10121802000F032FB0021B4
:1030C000802000F02EFB22E07048844208D10121CC
:1030D000801500F026FB0021A01500F022FB16E071
:1030E0006B48844208D10121401500F01AFB0021F1
:1030F000601500F016FB0AE06648844207D1012102
:10310000001500F00EFB0021201500F00AFB10BD99
:10311000F0B50A4600210023002400BF3DE0012550
:1031200005FA01F3156805EA03049C4234D10568E9
:103130004F000326BE40B543056015794E00B540EB
:103140000668354305601579012D02D01579022DE9
:1031500016D185684F000326BE40B543856055797A
:103160004E00B540866835438560456801268E402F
:10317000B5434560456896798E40B6B235434560A3
:10318000C5684F000326BE40B543C560D5794E00E3
:10319000B540C6683543C560491C1029BFD3F0BD92
:1031A0004FF6FF7101600021017141718171C171A0
:1031B000704708B54FF480320092009A0A4300929B
:1031C000009AC261C161009AC261C2690092C2697B
:1031D000009208BD0246002013690B400BB101208C
:1031E00000E0002070470146086980B2704702463F
:1031F000002053690B400BB1012000E00020704714
:103200000146486980B27047018370474183704727
:103210000AB1018300E04183704741617047426910
:103220004A4042617047F0B5002300244D07ED0E7F
:1032300002FA05F3CE1000F1200555F826504E078E
:10324000F70E0F26BE40B543CF1000F1200646F81A
:103250002750CE1000F1200555F8265045EA03040A
:10326000CE1000F1200545F82640F0BD00000240D8
:103270000004024000080240000C0240001002401E
:103280000014024000180240001C024000200240CE
:103290000024024000280240F948006840F0010084
:1032A000F74908600020F64908310860F4480068D2
:1032B000F4490840F2490860F348091D0860F348E2
:1032C000EF4984310860F0481038091D0860EC4867
:1032D000006820F48020EA4908600020E8490C31A9
:1032E0000860E7498C31086070470021E44A921C6D
:1032F000117011460870704710B501460022002376
:1033000000204A11012A02D1DD4C236808E0022A7C
:1033100003D1DB4C7034236802E0D94C7434236849
:1033200001F01F02012494401C400CB1012000E078
:10333000002010BD38B5002000900024002500BFFB
:103340003120FFF7D9FF05460098401C00900098F7
:10335000B0F5A04F01D0002DF2D03120FFF7CCFF07
:1033600008B1012400E00024204638BD01460020B9
:10337000C34A106820F0F80040EAC10010607047AE
:10338000C349086070470021BD4A70321170117046
:10339000012802D004280AD104E00121B84A703281
:1033A000117005E00521B64A7032117000E000BFCF
:1033B00000BF7047B7490860704770B5049C41EA88
:1033C00082150126C6EB530645EA0645054345EA44
:1033D0000465AB4E361D356070BDAD49086670475B
:1033E000820142EA0172A64B84331A607047A849F1
:1033F0008866704710B5830143EA016343EA0273AC
:103400009F4C8834236010BDA14908677047A049CC
:10341000C864704702460020994B0833186820F0B2
:10342000EC6042EA01031843954B0833186070477B
:1034300002460020924B0833186820F0784042EA98
:10344000010318438E4B0833186070470146002073
:103450008B4A0832106820F0030008431060704760
:1034600087480830006800F00C00704701460020D3
:10347000834A0832106820F0F0000843106070475B
:10348000014600207E4A0832106820F4E0500843CC
:103490001060704701460020794A0832106820F415
:1034A000604040EAC10010607047F0B50021002282
:1034B0000024022500260223714F08373F6807F0D9
:1034C0000C0121B1042905D0082937D105E0724F3C
:1034D000076036E0714F076033E0694F3F1D3F687A
:1034E000C7F38056664F3F1D3F6807F03F036EB13C
:1034F0006A4FB7FBF3F7DFF888C10CF1040CDCF876
:1035000000C0CCF3881C07FB0CF40CE0624FB7FB47
:10351000F3F7DFF86CC10CF1040CDCF800C0CCF35D
:10352000881C07FB0CF4564F3F1D3F68C7F301474B
:103530007F1C7D00B4FBF5F7076002E0564F076083
:1035400000BF00BF4E4F08373F6807F0F001090980
:10355000534F7A5C0768D7404760494F08373F6848
:1035600007F4E051890A4E4F7A5C4768D74087607C
:10357000434F08373F6807F46041490B484F7A5C76
:103580004768D740C760F0BD002100F44072B2F533
:10359000407F0AD13A4A0832116821F4F811414AB1
:1035A00002401143364A08321160354A70321268BF
:1035B000C0F30B031A43324B70331A60704735491E
:1035C00044390860704733494039086070473649CC
:1035D0000860704701460020294A8C32106820F0AC
:1035E0001F004A1E1043264A8C3210607047014665
:1035F0000020234A8C32106820F4F8504A1E40EA1A
:1036000002201F4A8C3210607047014600201C4A7D
:103610008C32106820F44010084310607047014657
:103620000020174A8C32106820F4400008431060D4
:10363000704701460020124A8C32106820F4403056
:1036400008431060704719490860704739B10C4A47
:103650003032126802430A4B30331A6006E0084ADF
:10366000303212688243064B30331A607047F9B12A
:10367000034A343212680243014B34331A601CE0AF
:1036800000380240FFFFF6EA10300024003000202E
:1036900000004742800E47420024F40000127A00E6
:1036A0005D000020FFFCFF0F5C014742E011474234
:1036B0008F4A126882438E4B1A60704739B18C4A28
:1036C000121D126802438A4B1B1D1A6006E0884ACD
:1036D000121D12688243864B1B1D1A60704739B158
:1036E000834A0C3212680243814B0C331A6006E0A5
:1036F0007F4A0C32126882437D4B0C331A6070474C
:1037000039B17B4A103212680243794B10331A6088
:1037100006E0774A103212688243754B10331A6004
:10372000704739B1724A243A12680243704B243B05
:103730001A6006E06E4A243A126882436C4B243BBE
:103740001A60704739B16A4A203A12680243684BDE
:10375000203B1A6006E0664A203A12688243644BB6
:10376000203B1A60704739B1614A1C3A1268024323
:103770005F4B1C3B1A6006E05D4A1C3A12688243AC
:103780005B4B1C3B1A60704739B1594A143A1268B6
:103790000243574B143B1A6006E0554A143A12682C
:1037A0008243534B143B1A60704739B1504A103A68
:1037B000126802434E4B103B1A6006E04C4A103A26
:1037C000126882434A4B103B1A60704739B1484A2D
:1037D0001C3212680243464B1C331A6006E0444A0E
:1037E0001C3212688243424B1C331A60704739B155
:1037F0003F4A2032126802433D4B20331A6006E0F4
:103800003B4A203212688243394B20331A6070479A
:1038100039B1374A243212680243354B24331A60D7
:1038200006E0334A243212688243314B24331A6053
:10383000704739B12E4A2C32126802432C4B2C337C
:103840001A6006E02A4A2C3212688243284B2C3335
:103850001A60704739B1264A303212680243244B4D
:1038600030331A6006E0224A303212688243204B1D
:1038700030331A607047012808D11D493C3109686E
:1038800041F008011A4A3C32116007E018493C3106
:10389000096821F00801164A3C321160704739B1BD
:1038A000134A273A12780243114B273B1A7006E05D
:1038B0000F4A273A127882430D4B273B1A70704704
:1038C0000B484030006840F0807009494031086082
:1038D000704701460020064A283A12680A400AB199
:1038E000012000E000207047014926390870704728
:1038F0003438024010B50446FA48844208D1012108
:103900001020FFF752FF00211020FFF74EFF57E075
:10391000F548844209D101214804FFF735FF002111
:103920004FF40030FFF730FF4AE0F048844209D1FD
:1039300001218804FFF728FF00214FF48020FFF7C2
:1039400023FF3DE0EA48844209D10121C804FFF782
:103950001BFF00214FF40020FFF716FF30E0E54881
:10396000844209D101210805FFF70EFF00214FF421
:103970008010FFF709FF23E0DF48844208D10121CE
:103980002020FFF712FF00212020FFF70EFF17E095
:10399000DA48844209D101218807FFF7F5FE0021AA
:1039A0004FF08040FFF7F0FE0AE0D548844207D18F
:1039B00001214005FFF7E8FE00216005FFF7E4FE66
:1039C00010BD2DE9FF4705460E460024A14600BF65
:1039D000A046B08900B100BF2C8A24F44054F0887E
:1039E00004432C82AC8941F20C608443B088318955
:1039F0000843718908430443AC81AC8A24F44074C1
:103A0000B0890443AC826846FFF74FFDB548854254
:103A100002D0B948854202D1DDF80C9001E0DDF812
:103A20000890A88900F4004040B109EBC90000EB00
:103A3000091031684900B0FBF1F707E009EBC90054
:103A400000EB091031688900B0FBF1F76420B7FB87
:103A5000F0F004012009642101FB1078A88900F42A
:103A6000004040B1322000EBC800B0FBF1F000F0A4
:103A70000700044308E0322000EB08106421B0FB8B
:103A8000F1F000F00F0004432C81BDE8FF874FF4F4
:103A90001651016000218180C18001810C2141818A
:103AA00000218181704710B502460020108A20F461
:103AB00070600B884C8823438C882343CC88234335
:103AC0001843108210BD0021018041808180C18097
:103AD000704721B1828942F40052828104E08289D8
:103AE0004DF6FF731A4082817047028B02F47F42C9
:103AF0000283028B0A430283704721B1828942F418
:103B00000042828103E08289C2F30E028281704703
:103B100021B1828A42F40062828204E0828A4FF2FA
:103B2000FF731A4082827047C1F308028280704797
:103B300001468888C0F308007047028A4FF6F07388
:103B40001A400282028A0A430282704721B18289A6
:103B500042F00202828104E082894FF6FD731A402E
:103B60008281704782894FF2FF731A408281828975
:103B70000A4382817047028A4FF6DF731A4002823D
:103B8000028A0A430282704721B1028A42F48042CB
:103B9000028204E0028A4BF6FF731A4002827047E9
:103BA000818941F001018181704721B1828A42F00F
:103BB0000802828204E0828A4FF6F7731A408282FA
:103BC0007047028BD2B20283028B42EA0122028347
:103BD000704721B1828A42F02002828204E0828A08
:103BE0004FF6DF731A408282704721B1828A42F019
:103BF0001002828204E0828A4FF6EF731A408282BA
:103C00007047828A4FF6FB731A408282828A0A4387
:103C10008282704721B1828A42F00202828204E0ED
:103C2000828A4FF6FD731A40828270471AB1838AE6
:103C30000B43838202E0838A8B4383827047F0B513
:103C40000346002400260025002040F66A17B942EA
:103C500000D100BF1846C1F3421401F01F0601272E
:103C600007FA06F5012C01D10C3004E0022C01D139
:103C7000103000E014301AB107682F43076002E0EB
:103C80000768AF430760F0BD02460020B1F5007F32
:103C900000D100BF13880B400BB1012000E00020D1
:103CA000704701F40072B2F5007F00D100BFCA4333
:103CB0000280704770B502460024002300250020D2
:103CC00040F66A16B14200D100BFC1F3421501F0BF
:103CD0001F03012606FA03F3012D13D19689334001
:103CE00017E0000000100140004400400048004080
:103CF000004C00400050004000140140007800409B
:103D0000007C0040022D02D1168A334001E0968AE1
:103D100033400C12012606FA04F41688344013B11D
:103D20000CB1012000E0002070BD10B5002200237E
:103D300040F66A14A14200D100BF0A120124944047
:103D4000A3B2DC43048010BD10B50446FE48844293
:103D500009D101214806FFF717FD00214FF000703F
:103D6000FFF712FD08E001218806FFF70DFD002195
:103D70004FF08060FFF708FD10BD30B5024600200F
:103D80000023146824F002041460146844F0010451
:103D9000146000E05B1C546804F001041CB94FF689
:103DA000FF74A342F6D1546804F001040CB900205A
:103DB0006CE08C79012C04D1146844F08004146008
:103DC00003E0146824F080041460CC79012C04D141
:103DD000146844F04004146003E0146824F04004C4
:103DE00014600C7A012C04D1146844F0200414608F
:103DF00003E0146824F0200414604C7A012C04D1F0
:103E0000146844F01004146003E0146824F01004F3
:103E100014608C7A012C04D1146844F008041460F6
:103E200003E0146824F008041460CC7A012C04D157
:103E3000146844F00404146003E0146824F00404DB
:103E400014608C78A407CD7844EA05640D7944EABF
:103E500005444D7944EA05540D886D1E2C43D46108
:103E6000146824F001041460002300E05B1C546813
:103E700004F001041CB14FF6FF74A342F6D154685C
:103E800004F001040CB1002000E0012030BD10B5A9
:103E90000021837A012202FA03F1AC4A126842F04F
:103EA0000102AA4B1A60A94A1C3212688A43A74B26
:103EB0001C331A60027BCAB9A44A0C3212688A43C6
:103EC000A24B0C331A604288C38842EA03439F4ADC
:103ED0004032847A42F834300288838842EA0343CD
:103EE0009A4A4032847A02EBC4025360027B012A70
:103EF00019D1964A0C3212680A43944B0C331A605B
:103F00004288038842EA0343904A4032847A42F866
:103F10003430C288838842EA03438C4A4032847A30
:103F200002EBC4025360C27A3AB9884A121D126881
:103F30008A43864B1B1D1A6006E0844A121D1268D4
:103F40000A43824B1B1D1A60028932B97F4A143220
:103F500012688A437D4B14331A600289012A06D104
:103F60007A4A143212680A43784B14331A60427B3F
:103F7000012A06D1754A1C3212680A43734B1C335E
:103F80001A60724A126822F00102704B1A6010BD6A
:103F900000218171C171017241728172C17281709F
:103FA000C17003210171022141710121018070471B
:103FB0006649096841F00101644A116011460968C7
:103FC00043F60E729143614A11601146096841EA55
:103FD000002111601146096821F00101116070474C
:103FE00021B1026842F48032026003E0026822F4E8
:103FF000803202607047E1B1026842F080020260E4
:104000004FF4C272125842F480734FF4C2721350CC
:104010004FF4CA72125842F480734FF4CA721350AC
:104020004FF4D272125842F480734FF4D27213508C
:104030001BE0026822F0800202604FF4C272125844
:1040400022F480734FF4C27213504FF4CA721258A4
:1040500022F480734FF4CA7213504FF4D272125884
:1040600022F480734FF4D2721350704710B5024699
:104070000020936803F08063B3F1806F00D110E0FB
:10408000936803F00063B3F1006F01D1012008E0F1
:10409000936803F08053B3F1805F01D1022000E008
:1040A0000420042879D002F5C07303EB00131B68C9
:1040B00003F0010402F5C07303EB00131C600B7ADC
:1040C0007BB94B7A0C8843EA445302F5C07404EB85
:1040D00000142468234302F5C07404EB0014236029
:1040E00010E00B7A4C6843EAC4034C7A234302F590
:1040F000C07404EB00142468234302F5C07404EB7D
:10410000001423608B7A03F00F038B7202F5C073E7
:1041100003EB00135B6823F00F0402F5C07303EB9D
:1041200000135C6002F5C07303EB00135B688C7ACC
:10413000234302F5C07404EB001463608B7B1C0600
:104140004B7B44EA034403E0006400400066004007
:104150000B7B44EA0323CC7A234302F5C07404EBBF
:104160000014A3608B7C1C064B7C44EA03440B7C4C
:1041700044EA0323CC7B234302F5C07404EB001410
:10418000E36002F5C07303EB00131B6843F0010406
:1041900002F5C07303EB00131C6010BD10B502469E
:1041A000002321B1012907D002290FD109E090682D
:1041B000F94C00EA04030BE09068F84C00EA0403B1
:1041C00006E09068F64C00EA040301E0002300BF1B
:1041D00000BFF44C181BA34216D007DC83B16FF06C
:1041E0008060184470B1022818D111E0B0F5007F4A
:1041F00010D0ED4C204448B1B0F5003F0ED10BE09B
:1042000002230DE000230BE0002309E0002307E078
:10421000012305E0012303E0012301E0002300BFA7
:1042200000BFD8B210BD21B1012907D002290FD19A
:1042300009E0826842F0800282600AE0826842F40B
:104240000042826005E0826842F40002826000E081
:1042500000BF00BF704710B500F5D87303EB011322
:104260001B6803F004031372137A53B900F5D87373
:1042700003EB01131B6840F2FF7404EA535313600D
:1042800009E000F5D87303EB01131B686FF060447D
:1042900004EAD303536000F5D87303EB01131B68E2
:1042A00003F00203537200F5D87303EB01135B684C
:1042B00003F00F03937200F5D87303EB01135B68EF
:1042C0001B0AD37400F5D87303EB01139B68D372F8
:1042D00000F5D87303EB01139B681C0A147300F5F7
:1042E000D87303EB01139B681C0C547300F5D8734F
:1042F00003EB01139B681B0E937300F5D87303EB5C
:104300000113DB68D37300F5D87303EB0113DB688B
:104310001C0A147400F5D87303EB0113DB681C0C42
:10432000547400F5D87303EB0113DB681B0E937410
:1043300021B9C36843F02003C36003E0036943F07D
:104340002003036110BD21B9C26842F02002C2609F
:1043500003E0026942F02002026170470246002039
:1043600019B9D36803F0030006E0012903D11369EA
:1043700003F0030000E00020704710B502460B4632
:1043800000204FF6FF71BBB9146824F0020444F01A
:104390000104146000E0491E546804F00304012C79
:1043A00001D00029F7D1546804F00304012C01D096
:1043B000002032E0012030E0012B13D1146824F0FA
:1043C0000304146000E0491E546804F003040CB1B7
:1043D0000029F8D1546804F003040CB100201CE05B
:1043E00001201AE0022B17D1146824F0010444F0D4
:1043F0000204146000E0491E546804F00304022C17
:1044000001D00029F7D1546804F00304022C01D034
:10441000002002E0012000E0002010BD0146002045
:104420000A6822F0010242F002020A604A6802F0C1
:104430000302022A00D10120704701464FF6FF72A5
:1044400000200B6823F002030B6000E0521E4B6853
:1044500003F00203022B01D1002AF7D14B6803F0CD
:104460000203022B00D001207047014600208A6918
:1044700002F070007047014600208A69100E7047F4
:10448000014600208A69C2F3074070471AB14369A8
:104490000B43436102E043698B434361704710B5AE
:1044A0000246002001F4700343B19369C1F3130481
:1044B00023400BB101202DE000202BE001F08073A0
:1044C00043B15368C1F3130423400BB1012021E031
:1044D00000201FE001F0006343B19368C1F31304AF
:1044E00023400BB1012015E0002013E001F0007320
:1044F00043B1D368C1F3130423400BB1012009E099
:10450000002007E01369C1F3130423400BB101201D
:1045100000E0002010BD0022244B994202D100236C
:10452000836111E0C1F3130201F000730BB1C260AB
:104530000AE001F080630BB1026105E001F0006365
:104540000BB1826000E0426070470246002002EA40
:1045500001030BB1012000E00020704770B5044654
:104560000D46002660692840002872D0B5F5807F8E
:1045700069D01DDC082D42D006DC012D2DD0022D86
:1045800031D0042D7FD134E0102D3ED0202D42D0EB
:10459000402D78D145E0000003000004000300082E
:1045A00000000310000100080001FFF77000F03068
:1045B000B5F5004F61D009DCB5F5007F4AD0B5F5FF
:1045C000806F4DD0B5F5006F5DD150E0B5F5803FFF
:1045D0002DD0B5F5003F56D12FE0A0685549FFF723
:1045E000B4FF064651E0E0680321FFF7AEFF064640
:1045F0004BE0E0680821FFF7A8FF064645E0E068C9
:104600001021FFF7A2FF06463FE020690321FFF7D4
:104610009CFF064639E020690821FFF796FF064611
:1046200033E020691021FFF790FF06462DE0606817
:104630000821FFF78AFF064627E060681021FFF790
:1046400084FF064621E0A0690121FFF77EFF0646B0
:104650001BE01BE0A0690221FFF777FF064614E08C
:10466000A0690421FFF771FF06460EE00BE0A06988
:104670007021FFF76AFF064607E060680421FFF734
:1046800064FF064601E0002600BF00E00026304639
:1046900070BDB1F5007F3AD00FDC202928D006DCB0
:1046A00001291CD004291DD0082940D11DE0402932
:1046B00021D0B1F5807F3AD126E0B1F5004F31D05D
:1046C00006DCB1F5806F25D0B1F5006F2FD124E065
:1046D000B1F5803F12D0B1F5003F28D111E0154A65
:1046E000826025E00822C26022E01022C2601FE042
:1046F000082202611CE01022026119E008224260D7
:1047000016E01022426013E00422426010E004220E
:1047100042600DE0042242600AE00022826104222D
:10472000426005E0002282610422426000E000BF96
:1047300000BF70470101010010B50446FE488442E5
:1047400008D101210846FFF730F800210120FFF7CA
:104750002CF89DE0B4F1804F08D101210846FFF705
:1047600013F800210120FFF70FF891E0F34884428D
:1047700008D101210220FFF707F800210220FFF7EE
:1047800003F885E0EE48844208D101210420FEF7B9
:10479000FBFF00210420FEF7F7FF79E0E94884429F
:1047A00008D101210820FEF7EFFF00210820FEF7C5
:1047B000EBFF6DE0E448844208D101211020FEF7B0
:1047C000E3FF00211020FEF7DFFF61E0DF488442B5
:1047D00008D101212020FEF7D7FF00212020FEF77D
:1047E000D3FF55E0DA48844208D101210220FEF7C8
:1047F000DCFF00210220FEF7D8FF49E0D5488442C3
:1048000009D101210804FEF7D0FF00214FF48030C8
:10481000FEF7CBFF3CE0D048844209D10121480497
:10482000FEF7C3FF00214FF40030FEF7BEFF2FE07C
:10483000CA48844209D101218804FEF7B6FF00214D
:104840004FF48020FEF7B1FF22E0C548844208D132
:1048500001214020FEF798FF00214020FEF794FF41
:1048600016E0C048844208D101218020FEF78CFF69
:1048700000218020FEF788FF0AE0BB48844207D170
:1048800001218015FEF780FF0021A015FEF77CFFB7
:1048900010BD00220288A84B98420ED0AC4B984223
:1048A0000BD0B0F1804F08D0A44B984205D0A44B58
:1048B000984202D0A34B984204D14FF68F731A400E
:1048C0004B881A43A04B984207D0A04B984204D083
:1048D0004FF6FF431A400B891A4302804B68C362AC
:1048E0000B880385944B984202D0994B984201D192
:1048F0008B7A03860123838270474FF0FF3141603A
:10490000002101800181418081727047018582828E
:1049100070470A46002101884FF68F7319401143F2
:104920000180704741627047C16270470146486A22
:1049300070470146088D704721B1028842F002029B
:10494000028004E002884FF6FD731A40028070472F
:1049500021B1028842F00402028004E002884FF68E
:10496000FB731A400280704721B1028842F0800236
:10497000028004E002884FF67F731A40028070477D
:1049800002884FF6F7731A40028002880A430280B9
:10499000704702884FF6FF431A40028002880A439C
:1049A0000280704721B1028842F00102028004E0D7
:1049B00002884FF6FE731A400280704770B50024DB
:1049C00000220023058C4FF6FE7635400584028CCC
:1049D0008388048B4FF68F752C40B51E2C400D88B4
:1049E0002C43751E2A408D892A434D882A43524DF7
:1049F000A84202D0564DA84213D14FF6F7752A406F
:104A0000CD892A434FF6FB752A408D882A434FF6FD
:104A1000FF652B404FF6FF552B400D8A2B434D8AE7
:104A20002B43838004838D684563028470BD70B519
:104A3000002400220023058C4FF6EF7635400584D4
:104A4000028C8388048B48F6FF752C404FF6FF4597
:104A50002C400D884FF6FF7606EA05252C434FF6CD
:104A6000DF752A408D8906EA05152A434D8806EA36
:104A700005152A43304DA84202D0354DA8421DD11C
:104A80004FF67F752A40CD894FF6FF7606EA051569
:104A90002A434FF6BF752A408D8806EA05152A433A
:104AA0004FF6FF352B404FF2FF752B400D8A06EA7B
:104AB00085052B434D8A06EA85052B4383800483B5
:104AC0008D688563028470BD70B5002400220023C8
:104AD000058C4FF6FF6635400584028C8388848BF5
:104AE0004FF68F752C404FF6FC752C400D882C43EB
:104AF0004FF6FF552A408D894FF6FF7606EA0525C9
:104B00002A434D8806EA05252A430B4DA84202D0C8
:104B10000F4DA84238D14FF2FF752A40CD894FF68C
:104B2000FF7606EA05252A434FF6FF352A408D8891
:104B300006EA05252A4319E0000001400004004070
:104B400000080040000C004000100040001400402D
:104B50000004014000400140004401400048014081
:104B600000180040001C0040002000404EF6FF7579
:104B70002B404DF6FF752B400D8A06EA05152B4399
:104B80004D8A06EA05152B43838084838D68C563AF
:104B9000028470BD70B5002200230024058C4EF6FF
:104BA000FF7635400584038C8488828B48F6FF7538
:104BB0002A404FF6FF452A400D884FF6FF7606EA59
:104BC00005252A434DF6FF752B408D8906EA0535EC
:104BD0002B434D8806EA05352B43FE4DA84202D0F3
:104BE000FD4DA84208D14BF6FF752C400D8A4FF6BB
:104BF000FF7606EA85152C43848082838D680564E0
:104C0000038470BD002101804180818081608181A9
:104C1000C18101824182704770B5034600200024A3
:104C20001846183001258D40ACB21D8CA5431D845B
:104C300009B108290AD100EB610005684FF68F76AB
:104C4000354005600568154305600FE00D1FC5F38D
:104C50004E052844056848F6FF763540056005682E
:104C60004FF6FF7606EA02263543056070BD4163C4
:104C7000704781637047C1637047016470470A469B
:104C80000021018B4FF68F73194011430183704748
:104C90000A460021018B48F6FF7319404FF6FF7357
:104CA00003EA02231943018370470A460021818BDE
:104CB0004FF68F7319401143818370470A460021D4
:104CC000818B48F6FF7319404FF6FF7303EA022306
:104CD0001943818370470A460021018B4FF6F77311
:104CE00019401143018370470A460021018B4FF29E
:104CF000FF7319404FF6FF7303EA02231943018340
:104D000070470A460021818B4FF6F7731940114313
:104D1000818370470A460021818B4FF2FF7319404F
:104D20004FF6FF7303EA02231943818370470A4653
:104D30000021018B4FF6FB7319401143018370472B
:104D40000A460021018B4FF6FF3319404FF6FF73DF
:104D500003EA02231943018370470A460021818B2D
:104D60004FF6FB7319401143818370470A460021B7
:104D7000818B4FF6FF3319404FF6FF7303EA02238E
:104D80001943818370470A460021018B4FF67F73D8
:104D900019401143018370470A460021018BC1F37A
:104DA0000E014FF6FF7303EA022319430183704794
:104DB0000A460021818B4FF67F731940114381838E
:104DC00070470A460021818BC1F30E014FF6FF7335
:104DD00003EA02231943818370470A460021018CAC
:104DE0004FF6FD7319401143018470470A460021B4
:104DF000018C4FF6F77319401143018470470A463E
:104E00000021018C4FF6DF7319404FF6FF7303EA60
:104E100002131943018470470A460021018C4FF6A2
:104E20007F7319404FF6FF7303EA0213194301849D
:104E300070470A460021018C4FF6FF5319404FF688
:104E4000FF7303EA02231943018470470A460021D5
:104E5000018C4FF2FF7319404FF6FF7303EA0223F0
:104E60001943018470470A460021018C4DF6FF73F7
:104E700019404FF6FF7303EA023319430184704768
:104E800030B5002301248C40A3B2048C9C430484DD
:104E9000048C02FA01F5ADB22C43048430BD30B568
:104EA000002304248C40A3B2048C9C430484048C0F
:104EB00002FA01F5ADB22C43048430BD828B4FF26F
:104EC000FF331A408283828B4FF6FF7303EA01237C
:104ED0001A4382837047F0B50C4615460021002224
:104EE0000026078C4EF6FF7C07EA0C070784818BAF
:104EF000028C4FF6FF7707EA043640F6FF47394049
:104F00004FF6FF7707EA052739434FF6FF7707EAA1
:104F10000337394345F6FF773A4046F480573A4322
:104F200081830284F0BD828B4FF6F3731A40828333
:104F3000828B0A4382837047F0B50C4615460021E8
:104F400000220026078C4FF6FF6C07EA0C07078447
:104F5000818B028C4FF6FF7707EA04264FF60C7719
:104F600039404FF6FF7707EA03172F4339434FF2D3
:104F7000FF573A4046F480773A4381830284F0BD7C
:104F8000028B4FF2FF331A400283028B4FF6FF73FE
:104F900003EA01231A4302837047F0B50C46154615
:104FA000002100220026078C4FF6EF7C07EA0C0751
:104FB0000784018B028C4FF6FF7707EA041640F650
:104FC000FF4739404FF6FF7707EA033739434FF67B
:104FD000FF7703E0000001400004014007EA0527D5
:104FE00039434FF65F773A4046F010073A43018362
:104FF0000284F0BD028B4FF6F3731A400283028BDA
:105000000A4302837047F0B50C4615460021002282
:10501000068C4FF6FE773E400684018B028C4FF6DD
:105020000C7631407E1C06EA03162E4331434FF6C0
:10503000F576324044F00106324301830284F0BD2C
:1050400070B505460C46208850B92389A28861882E
:105050002846FFF7D8FFE1882846FFF7CBFF25E079
:10506000208804280AD12389A28861882846FFF76E
:1050700094FFE1882846FFF783FF17E0208808287F
:105080000AD12389A28861882846FFF755FFE18865
:105090002846FFF748FF09E02389A288618828464F
:1050A000FFF719FFE1882846FFF708FF70BD0021D0
:1050B00001804180012181800021C18001817047F0
:1050C0002DE9F04105460C4600260127608808B905
:1050D000022600E00026A088012801D1022700E076
:1050E00001272088A0B92389A28861882846FFF774
:1050F0008AFFE1882846FFF77DFF23893A4631463B
:105100002846FFF74AFFE1882846FFF739FF13E0FA
:105110002389A28861882846FFF73FFFE188284657
:10512000FFF72EFF23893A4631462846FFF76BFFEB
:10513000E1882846FFF75EFFBDE8F0810146486B35
:1051400070470146886B70470146C86B704701463F
:10515000086C70470A884B881A438B881A43CB889F
:105160001A430B891A434B891A438B891A43A0F8B7
:10517000442070470021018041808180C1800181ED
:1051800041818181704731B1B0F8442042F400423E
:10519000A0F8442005E0B0F84420C2F30E02A0F8C5
:1051A0004420704721B1828842F00402828004E0EA
:1051B00082884FF6FB731A408280704721B1828843
:1051C00042F00102828004E082884FF6FE731A40AA
:1051D000828070471AB183890B43838102E08389FF
:1051E0008B43838170478182704702460020138A77
:1051F0000B400BB1012000E000207047CA4302823F
:10520000704730B50246002000230024158A05EAC5
:105210000103958905EA010413B10CB1012000E0F6
:10522000002030BDCA430282704741EA0203A0F861
:10523000483070471AB183890B43838102E0838928
:105240008B438381704721B1828842F008028280BB
:1052500004E082884FF6F7731A4082807047018914
:105260004FF6F8721140018170470A46002101890A
:105270004FF68F73194011430181704730B50446D2
:105280000D4629462046FFF7F0FF208940F0070031
:10529000208130BD2DE9F04104460D4616461F46DB
:1052A000602D06D13B46012231462046FFF775FEB0
:1052B00005E03B46012231462046FFF7A4FE294681
:1052C0002046FFF7D2FF208940F007002081BDE88B
:1052D000F08130B50C4600210189C9B24FF6FF7547
:1052E00005EA0325154325432943018130BD2DE9F6
:1052F000F04105460E4617469846002443463A4676
:1053000031462846FFF7E5FF2C894FF6F870044038
:1053100044F007044FF68F70044044F070042C8171
:10532000BDE8F081F0B504460D4616461F463B46E3
:10533000324629462046FFF7CCFF208940F48040C2
:105340002081F0BD82884FF68F731A408280828858
:105350000A438280704702894FF6F8731A4002812F
:1053600002890A430281704702894FF67F731A400F
:10537000028102890A4302817047F0B50C46154646
:105380001E460021002200230189028B038C4FF668
:10539000F877394021434FF6FC473A4040F2011775
:1053A0003A434FF6DD773B404FF6FF7707EA0617A3
:1053B0002F433B43018102830384F0BD21B18288E6
:1053C00042F08002828004E082884FF67F731A40A8
:1053D00082807047A0F85010704710B5203AC0F096
:1053E0000B80B1E81850203AA0E81850B1E81850E6
:1053F000A0E81850BFF4F5AF5FEA027C24BFB1E823
:105400001850A0E8185044BF18C918C0BDE8104093
:105410005FEA827C24BF51F8043B40F8043B08BF9C
:105420007047D20728BF31F8023B48BF11F8012B63
:1054300028BF20F8023B48BF00F8012B70474FF00F
:10544000000200B5134694469646203922BFA0E8D4
:105450000C50A0E80C50B1F12001BFF4F7AF0907E0
:1054600028BFA0E80C5048BF0CC05DF804EB8900D1
:1054700028BF40F8042B08BF704748BF20F8022B14
:1054800011F0804F18BF00F8012B7047704770472C
:10549000704710B500F008F8006810BD10B504465C
:1054A00000F002F8046010BD00487047DC040020E2
:1054B00000487047DC0400207546FFF7F9FFAE4650
:1054C00005006946534620F00700854618B020B510
:1054D000FDF716FDBDE820404FF000064FF0000735
:1054E0004FF000084FF0000B21F00701AC46ACE88C
:1054F000C009ACE8C009ACE8C009ACE8C0098D46F9
:1055000070470446AFF300802046FAF786FE00009D
:1055100001491820ABBEFEE726000200704703B425
:1055200001984100009850EAC12018BF04204A0D9C
:1055300018BF40F0010040F2FF72B2EB515F08BFAC
:1055400040F00200012808BF052002B070470000AB
:1055500010B533492DED020B2DED028B84B09FED7C
:105560002E8B079820F00040B0EE481AF0EE681A33
:105570008842D8BF9DED060B36DD2A4988420CD102
:10558000069858B94FF00100FFF788FF53EC182B2D
:1055900051EC180B01F046FC34E008DB9DED060BE6
:1055A00053EC102B51EC100B01F080FB2AE0684605
:1055B0009DED060B00F000FF10F0030004BF9DED11
:1055C000021B9DED000B0FD0012810D09DED021B9A
:1055D0009DED000B022818D0012001F03DFA04B027
:1055E000BDEC028B02B010BD01F002F9F7E79DEDB2
:1055F000021B9DED000B012001F02EFA51EC100B67
:1056000001F015FB41EC100BE9E701F0F1F851EC6A
:10561000100B01F00CFBF5E700000000000000009B
:10562000FB21E93F0000F07F2DE9F04D2DED040B4B
:105630002DED0E8B94B0DDE92350259CDDF888A07C
:1056400025F0004624F00048BAF1000F14BF0121F4
:10565000002101EB4502FE4953184A1093422AD318
:10566000002814BF0123002303EB44030B44F94932
:105670008B4220D358EA00019FEDF79B6FD0DFF8F3
:10568000E0B35D4503D1BAF1000F05D181E0BAF175
:10569000000F08BF002100D0012101EB450111F5E9
:1056A000001F08D8002814BF0121002101EB44018C
:1056B00011F5001F0AD99DED240B53EC102B9DED25
:1056C000220B51EC100B01F0F1FA40E00027002D05
:1056D000BCBFE449884521DAE3498845A8BF0227D1
:1056E0001CDAC3451ADCE14901EB2851142908DD15
:1056F000C1F1340220FA02F101FA02F282420DD124
:1057000008E058B9C1F1140228FA02F101FA02F2D4
:10571000424503D101F00101C1F1020756EA0A0135
:105720009FEDD3AB1CD1002C1ADA002D18BF022F2D
:1057300001D0012F07D00220FFF7B0FE53EC1A2B47
:1057400051EC190B00E10220FFF7A8FE7AE041ECD2
:10575000100B14B0BDEC0E8B04B0BDE8F08D18E05A
:105760009FEDC5BB9FEDC68B002874D1BD48804519
:1057700022D105F1804010F5801008BFBAF1000F6A
:1057800007D0B3450ADC002CA8BF9DED240BE0DA5E
:105790000DE0B0EE490AF0EE690ADAE7002C06DA0D
:1057A0009DED240B51EC100B01F041FACFE7B64808
:1057B000784490ED000BCCE7D84550D1002C4BDA63
:1057C0002EB186423DD1BAF1000F45D129E0BAF1A0
:1057D000000F16D00220FFF761FE53EC182B51EC9E
:1057E000180B01F00DFDCDE902019DED220B10EE2D
:1057F000900A8DED000B61F31E0003909DED020BEE
:10580000A7E78DED02BB9DED220B1BEE901A10EE6B
:10581000900A8DED000B61F31E0003909DED020BCD
:1058200097E78DED02AB9DED220B1AEE901A10EE6C
:10583000900A8DED000B61F31E0003909DED020BAD
:1058400087E709DA9DED220B51EC190B53EC102B75
:1058500001F0E8FA7BE71DE09DED220B79E7864237
:1058600018DAB4F1804F0DD0A4F10050B0F1FF5020
:1058700010D1002D0EDB9DED220B51EC100B01F031
:105880009FF964E79DED220B53EC102B51EC100BAC
:1058900000F0BABC9DED220B51EC100B01F084F925
:1058A000BAF1000FCDE9120134D19FED790BDEB1D1
:1058B000A6F1E040B0F17F602CD1002D01DD002C7D
:1058C0000DDA002D01DD002C1FDB002D16DA002C77
:1058D00014DB012F08BF9FED700B3FF43AAFB0EE21
:1058E0004B0AF0EE6B0A34E7022F18BF002D0CD0E4
:1058F000012F0AD1002DFFF62CAF06E0002DB8BF16
:10590000002C07DA012F3FF424AFB0EE4A0AF0EE84
:105910006A0A1EE7012000EBE570049038430CD0C2
:105920005F48002580457BDD5E495F48884513DD83
:10593000B0420CDB002C18DB2CE00120FFF7AEFDA1
:1059400053EC1A2B51EC1A0B01F06CFAFFE6B3453D
:1059500002DC002C09DC1DE0864202DA002C19DA98
:1059600003E05E4529DD002C14DD0220FFF796FDE3
:1059700053EC182B51EC180B01F042FCCDE902015D
:105980001BEE900A8DED00BB61F31E0003909DEDB0
:10599000020BDEE60220FFF781FD01F0F5F810EEC4
:1059A000901A19EE900A8DED020B8DED009B61F3BC
:1059B0001E0003909DED020BCBE69DED220B53ECF8
:1059C000192B51EC100B01F027FE9FED390BCDE99F
:1059D0000C0153EC102B9DED0C0B51EC100B01F056
:1059E0000FFC9FED351B53EC112B01F03DFD9DEDA0
:1059F0000C1B53EC112B01F003FC9FED311B53ECFE
:105A0000112B01F031FD9DED0C0B41EC1A0B53EC09
:105A1000102B51EC100B01F0F3FB53EC1A2B00E0B0
:105A200087E001F0EDFB9FED280B41EC1B0B53ECE5
:105A3000102B9DED0C0B51EC100B01F0E1FB9FEDD9
:105A4000240B41EC1A0B53EC102B51EC1B0B43E0D5
:105A5000FFFF1F00FFFF0F00000000000000F03FED
:105A60000000F03F0000F07F0000404301FCFFFF1A
:105A70000000000000000000000000000000F07FB7
:105A80000000000000000070DC22000000000000A8
:105A90000000000000000080000000000000F0FF97
:105AA0000000E0410000F043FFFFEF3F0000000076
:105AB000000000000000D03F555555555555D53FC5
:105AC000000000000000E03F000000604715F73FC5
:105AD000FE822B654715F73F01F092FB41EC1B0B53
