:020000040800F2
:10000000200A0020C93A0008B90B0008BB0B000801
:10001000BF0B0008C30B0008C70B0008000000005E
:10002000000000000000000000000000CB0B0008F2
:10003000CD0B000800000000CF0B0008D10B00081A
:10004000E33A0008E33A0008E33A0008E33A00081C
:10005000E33A0008E33A0008E33A0008E33A00080C
:10006000E33A0008E33A0008E33A0008E33A0008FC
:10007000E33A0008E33A0008E33A0008E33A0008EC
:10008000E33A0008E33A0008E33A0008B91500082B
:10009000CF150008E33A0008E33A0008E33A000805
:1000A000E33A0008E33A0008E33A0008E33A0008BC
:1000B000E33A0008E33A0008992B0008E33A000805
:1000C000E33A0008E33A0008E33A0008E33A00089C
:1000D000E33A0008092D0008E33A0008232A000843
:1000E000E33A0008E33A0008E33A0008E33A00087C
:1000F000E33A0008E33A0008E33A0008E33A00086C
:10010000E33A0008E33A0008E33A0008E33A00085B
:10011000C9350008E33A000827280008E33A000838
:10012000E33A0008E33A0008E33A0008E33A00083B
:10013000E33A0008E33A0008E33A0008E33A00082B
:10014000E33A0008812F0008E33A0008E33A000888
:10015000E33A0008E33A0008E33A0008E33A00080B
:10016000E33A0008E33A0008E33A0008E33A0008FB
:10017000E33A0008E33A0008E33A0008E33A0008EB
:10018000E33A0008E33A000800F002F800F03CF817
:100190000AA090E8000C82448344AAF10107DA45E2
:1001A00001D100F031F8AFF2090EBAE80F0013F0F8
:1001B000010F18BFFB1A43F0010318479C8B000086
:1001C000BC8B0000103A24BF78C878C1FAD8520717
:1001D00024BF30C830C144BF04680C6070470000C1
:1001E0000023002400250026103A28BF78C1FBD840
:1001F000520728BF30C148BF0B6070471FB508F0D9
:1002000002FC1FBD10B510BD05F048FF1146FFF7F9
:10021000F5FF00F0B6F905F066FF03B4FFF7F2FF53
:1002200003BC05F067FF0000B0EE401AB4EEE01A20
:10023000F1EE10FA02DDB0EE600A7047B1EE600A2E
:10024000B4EEC01AF1EE10FA02D2B1EE600AF4E791
:10025000B0EE410AF1E700B5FE480068052829D153
:100260000320FD494874FD48FD4B0ECB18300EC0ED
:100270002438D0ED060AB0EE600ADFEDFA0AFFF787
:10028000D3FFF64880ED060AD0ED070AB0EE600A0B
:10029000DFEDF40AFFF7C8FFF04880ED070AD0ED64
:1002A000080AB0EE600ADFEDEF0AFFF7BDFFEB488A
:1002B00080ED080A00BD10B59FEDEB0AE74880ED20
:1002C0000F0A9FEDE90A80ED100A9FEDE70A80ED25
:1002D000110A9FEDE50A80ED120A9FEDE30A80ED19
:1002E000130A9FEDE10A80ED140A9FEDDF0A80ED0D
:1002F000150A9FEDDD0A80ED160A9FEDDB0A80ED01
:10030000170A0121084600F0CDFF4FF4967002F065
:10031000CBFB0121032000F0C5FF4FF4967002F0E3
:10032000C3FB0121022000F0BDFF4FF4967002F0E4
:10033000BBFB02F072FDCD4890ED000ACC4880ED89
:10034000000A10BD00B5C3480068012829D1022069
:10035000C1494874C148C24B0ECB0C300EC018388E
:10036000D0ED030AB0EE600ADFEDBE0AFFF75CFFD6
:10037000BA4880ED030AD0ED040AB0EE600ADFED62
:10038000B90AFFF751FFB54880ED040AD0ED050A20
:10039000B0EE600ADFEDB30AFFF746FFAF4880ED2D
:1003A000050A00BD30B587B04021B24804F05EFABE
:1003B00000287DD0A7480068012806D1A6494870CA
:1003C000FFF7C0FF0020A3490860A2480068022888
:1003D0002FD1FF2002F007FBFF2002F004FB0120D9
:1003E00002F001FB002002F0FEFA0D2002F0FBFA01
:1003F000022002F0F8FA1025984A07CA04AB07C396
:10040000002408E004A9085D02F0EDFA04A8005DEC
:10041000284485B2641C0C2CF4DBFF2095FBF0F122
:1004200000FB115085B2E8B202F0DDFA00208949E4
:1004300008608848006803281CD1FFF73CFFFF20B4
:1004400002F0D1FAFF2002F0CEFA012002F0CBFA3E
:10045000002002F0C8FA022002F0C5FA032002F0E0
:10046000C2FA002002F0BFFA062002F0BCFA002017
:100470007849086077480068042831D1FF2002F0ED
:10048000B2FAFF2002F0AFFA012002F0ACFA00202D
:1004900002F0A9FA0D2002F0A6FA042002F0A3FA55
:1004A00012256E4A3C3207CA01AB07C3002409E09B
:1004B00022E001A9085D02F096FA01A8005D284437
:1004C00085B2641C0C2CF4DBFF2095FBF0F100FBE3
:1004D000115085B2E8B202F086FA00205D4908604A
:1004E0005C480068052807D101205B494870FFF788
:1004F000B2FE00205749086000BF40215D4804F06B
:10050000B5F90028F9D007B030BD10B5024600207B
:100510001378062B18D2DFE803F01703070B0F132D
:1005200001234C4C236010E002234A4C23600CE072
:100530000323484C236008E00423464C236004E076
:100540000523444C236000E000BF00BF414B1B6803
:10055000012B08D1002004E0431CD35C404C235401
:10056000401C0C28F8DB3B4B1B68052B08D10020F6
:1005700004E0431CD35C3A4C2354401C0C28F8DBA9
:1005800010BDDCB00027642143A805F04AFDB84641
:1005900000203149C87002F0B9F902F083F93648F9
:1005A00000F014FD02202C4948740120C870FDE2BF
:1005B000314800788DF880002F4840788DF8810010
:1005C0002D4880788DF882002B48C0788DF8830004
:1005D000294800798DF88400274840798DF88500F6
:1005E000254880798DF886002348C0798DF88700EA
:1005F0002148007A8DF888001F48407A8DF88900DC
:100600001D48807A8DF88A001B48C07A8DF88B00CF
:100610001948007B8DF88C001748407B8DF88D00C1
:100620001548807B8DF88E001348C07B8DF88F00B5
:100630001148007C8DF890000F48407C8DF89100A7
:100640000D48807C8DF892000B48C07C8DF893009B
:10065000094813E00000002050020020D8010020CB
:1006600074010020CDCC4C3F000000005000002061
:100670001C00002000480040E8000020007D8DF8AC
:100680009400FE48407D8DF89500FC48807D8DF8F3
:100690009600FA48C07D8DF89700F848007E8DF8E6
:1006A0009800F648407E8DF89900F448807E8DF8D9
:1006B0009A00F248C07E8DF89B00F048007F8DF8CC
:1006C0009C00EE48407F8DF89D00EC48807F8DF8BF
:1006D0009E00EA48C07F8DF89F00E84890F820000F
:1006E0008DF8A000E54890F821008DF8A100E348BE
:1006F00090F822008DF8A200E04890F823008DF8D1
:10070000A300DE4890F824008DF8A400DB4890F8A0
:1007100025008DF8A500D94890F826008DF8A60090
:10072000D64890F827008DF8A700D44890F8280004
:100730008DF8A800D14890F829008DF8A900CF487D
:1007400090F82A008DF8AA00CC4890F82B008DF87C
:10075000AB00CA4890F82C008DF8AC00C74890F860
:100760002D008DF8AD00C54890F82E008DF8AE0034
:10077000C24890F82F008DF8AF00C04890F83000C4
:100780008DF8B000BD4890F831008DF8B100BB483D
:1007900090F832008DF8B200B84890F833008DF828
:1007A000B300B64890F834008DF8B400B34890F820
:1007B00035008DF8B500B14890F836008DF8B600D8
:1007C000AE4890F837008DF8B700AC4890F8380084
:1007D0008DF8B800A94890F839008DF8B900A748FD
:1007E00090F83A008DF8BA00A44890F83B008DF8D4
:1007F000BB00A24890F83C008DF8BC009F4890F8E0
:100800003D008DF8BD009D4890F83E008DF8BE007B
:100810009A4890F83F008DF8BF00984890F8400043
:100820008DF8C000954890F841008DF8C1009348BC
:1008300090F842008DF8C200904890F843008DF87F
:10084000C3008E4890F844008DF8C4008B4890F89F
:1008500045008DF8C500894890F846008DF8C6001F
:10086000864890F847008DF8C700844890F8480003
:100870008DF8C800814890F849008DF8C9007F487C
:1008800090F84A008DF8CA007C4890F84B008DF82B
:10089000CB007A4890F84C008DF8CC00774890F85F
:1008A0004D008DF8CD00754890F84E008DF8CE00C3
:1008B000724890F84F008DF8CF00704890F85000C3
:1008C0008DF8D0006D4890F851008DF8D1006B483C
:1008D00090F852008DF8D200684890F853008DF8D7
:1008E000D300664890F854008DF8D400634890F81F
:1008F00055008DF8D500614890F856008DF8D60067
:100900005E4890F857008DF8D7005C4890F8580082
:100910008DF8D800594890F859008DF8D9005748FB
:1009200090F85A008DF8DA00544890F85B008DF882
:10093000DB00524890F85C008DF8DC004F4890F8DE
:100940005D008DF8DD004D4890F85E008DF8DE000A
:100950004A4890F85F008DF8DF00484890F8600042
:100960008DF8E000454890F861008DF8E1004348BB
:1009700090F862008DF8E200404890F863008DF82E
:10098000E3003E4890F864008DF8E4003B4890F89E
:1009900065008DF8E500394890F866008DF8E600AE
:1009A000364890F867008DF8E700344890F8680002
:1009B0008DF8E800314890F869008DF8E9002F487B
:1009C00090F86A008DF8EA002C4890F86B008DF8DA
:1009D000EB002A4890F86C008DF8EC00274890F85E
:1009E0006D008DF8ED00254890F86E008DF8EE0052
:1009F000224890F86F008DF8EF00204890F87000C2
:100A00008DF8F0001D4890F871008DF8F1001B483A
:100A100090F872008DF8F200184890F873008DF885
:100A2000F300164890F874008DF8F400134890F81D
:100A300075008DF8F500114890F876008DF8F600F5
:100A40000E4890F877008DF8F7000C4890F8780081
:100A50008DF8F800094890F879008DF8F9000748FA
:100A600090F87A008DF8FA00044890F87B008DF831
:100A7000FB00024890F87C0002E00000E800002043
:100A80008DF8FC004A4890F87D008DF8FD0048483C
:100A900090F87E008DF8FE00454890F87F008DF8B4
:100AA000FF00434890F880008DF800014048D0F8DE
:100AB000840041903E48D0F888007C2224A94290CE
:100AC000684605F07CFA20A80FC800F0A5FA00B12E
:100AD0006CE0374800F081FA0446B8F1080F60D2A4
:100AE000DFE808F0040D5F15222B3644FF2C05D1FA
:100AF0004FF0010800202F490880002754E0FF2C08
:100B000002D14FF0030801E04FF000084CE0012C47
:100B100007D1284800882044264908804FF004085F
:100B200001E04FF000083FE02248008820442149BE
:100B3000088025464FF0050836E01E48008820440E
:100B40001C49088044EA052006B24FF006082BE055
:100B50001848008820441749088038467F1C43A95C
:100B60000C54B74201DB4FF007081DE01148008824
:100B7000FF2190FBF1F201FB12000E4908800846AC
:100B8000008884420AD1314643A8FFF7BEFCFFF734
:100B900009FC002007490880804601E04FF000086A
:100BA00002E04FF0000800BF00BF00BF00E50000FA
:100BB000E800002004000020704700BFFEE700BFEF
:100BC000FEE700BFFEE700BFFEE7704770477047D3
:100BD000704700000CB50020019000907648006836
:100BE00040F480307449086000BF7348006800F426
:100BF000003000900198401C0190009818B90198AD
:100C0000B0F5A04FF1D16C48006800F4003010B18D
:100C10000120009001E0002000900098012846D1BA
:100C200065484030006840F08050634940310860BA
:100C30006248006840F44040604908605E480830FF
:100C400000685D49083108600846006840F40040CB
:100C500008600846006840F4A05008605848091F22
:100C60000860081F006840F08070091F086000BF1E
:100C70005148006800F000700028F9D040F205707B
:100C8000504908604C480830006820F003004A4989
:100C9000083108600846006840F00200086000BFA4
:100CA00045480830006800F00C000828F8D10CBD59
:100CB00010B54548006840F47000434908603E485C
:100CC000006840F001003C49086000203A490831C2
:100CD0000860394800683D490840374908603C4889
:100CE000091D0860081F006820F48020091F0860A3
:100CF000002031490C310860FFF76CFF4FF00060B5
:100D000031498039086010BD70B5002000220223EF
:100D100000240221284D08352D6805F00C0020B173
:100D2000042806D0082834D107E02A4D2A4E356021
:100D300033E02A4D284E35602FE01F4D2D1D2D68C4
:100D4000C5F380541C4D2D1D2D6805F03F0154B195
:100D5000224DB5FBF1F5184E361D3668C6F38816E0
:100D600005FB06F209E01B4DB5FBF1F5124E361DF1
:100D70003668C6F3881605FB06F20F4D2D1D2D684B
:100D8000C5F301456D1C6B00B2FBF3F5124E3560E7
:100D900003E0104D104E356000BF00BF064D083512
:100DA0002D68C5F303150E4E705D0B4D2D68C540C3
:100DB000094E356070BD00000038024000700040F0
:100DC00008544007003C024088ED00E0FFFFF6FEBB
:100DD000103000240024F4000800002000127A00E3
:100DE0000C0000202DE9F0418AB004460D4616465D
:100DF0001F46DDF840800121084603F019FA012161
:100E0000480603F05EFA4FF4C050089002208DF8B7
:100E1000240000208DF8260003208DF825000120F5
:100E20008DF8270008A9584802F064FF09220B2119
:100E3000554802F0EAFF09220C21534802F0E5FF71
:100E400000208DF81A008DF81B008DF81C008DF81D
:100E50001D008DF81E008DF81F008DF816808DF88E
:100E600017408DF818608DF81950ADF8147005A969
:100E7000464803F074FD00208DF80E008DF80F0039
:100E800001208DF810000020ADF80400ADF8060038
:100E9000ADF80800ADF80A00ADF80C0001208DF89F
:100EA000110001A803F0E5FD01220221374804F0FA
:100EB000DFF814208DF8000001208DF801000020DB
:100EC0008DF8020001208DF80300684602F021FE33
:100ED00000200AB0BDE8F081F0B585B007460D46A8
:100EE000002432200090019000208DF808008DF839
:100EF00009008DF80A5000BF05E0395D0DF10B00C7
:100F00000155601C84B2AC42F7DB69461F4803F010
:100F10009FFE0646002406E0601C84B269461B481A
:100F200003F096FE06463146184803F029FF18B92B
:100F300040F6FF708442EFDB40F6FF70844202DB34
:100F4000012005B0F0BD0020FBE730B585B00546B7
:100F500000210E4803F0F4FF10B9002005B030BDA9
:100F60006A460021094803F068FF002404E00DF1FF
:100F70000B00005D2855641C9DF80A00A042F6D8BD
:100F80009DF80A00EAE7000000000240006400400B
:100F90001CB50121022003F04BF9012000908DF8CF
:100FA000040000208DF8060003208DF805000120C4
:100FB0008DF807006946044802F09CFE01210248B2
:100FC00002F014FF1CBD00000004024010B50446EE
:100FD0008C21204605F025F810BD10B50146D1F84A
:100FE0008420885CD1F88420521C812392FBF3F486
:100FF00003FB1422C1F8842010BD10B5D0F888205E
:101000008154D0F88820521C812392FBF3F403FB17
:101010001422C0F8882010BD0FB42198229988426C
:1010200002D1012004B070470020FBE70FB42298E2
:10103000401C812190FBF1F201FB120021998842B2
:1010400002D1012004B070470020FBE73EB5002329
:10105000009301930293002209E000F00F0513466C
:10106000521C0DF803500011082A00D101E000289D
:10107000F3D100BF9DF800309DF8014043EA04130E
:101080000B709DF802309DF8034043EA04134B7047
:101090009DF804309DF8054043EA04138B709DF8D9
:1010A00006309DF8074043EA0413CB703EBD70B58F
:1010B0002DED028B86B0B0EE408A0546002400205C
:1010C0000590009501958DF809008DF8080008201D
:1010D0008DF80A008DF80B008DF80C5090218DF8DA
:1010E0000D1000218DF80E1005A9BDEEC80A10EEF6
:1010F000100AFFF7ABFF9DF814108DF80F109DF844
:1011000015108DF810109DF816108DF811109DF81F
:1011100017108DF8121000BF00BF6946FE4803F09B
:1011200097FD0646601C84B2042E03D140F6FF7082
:101130008442F2DB002401E0601C84B23146F648B0
:1011400003F01EFE18B940F6FF708442F4DB40F64F
:10115000FF70844204DB012006B0BDEC028B70BD41
:101160000020F9E710B5ED48007808B9012000E04B
:101170000020EA490870EA480078401CE8490870F5
:10118000E848407C68B99FEDE80AE84880ED0C0A21
:101190009FEDE50A80ED0D0A9FEDE30A80ED0E0A52
:1011A0003AE0E048407C01280FD1E048D0ED081A31
:1011B000B0EE611AD0ED071AF0EE610AD0ED061A12
:1011C000B0EE610A00F03CFB26E0D648407C0228E5
:1011D0000FD1D648D0ED051AB0EE611AD0ED041A41
:1011E000F0EE610AD0ED031AB0EE610A00F0D2FA17
:1011F00012E0CC48407C03280ED1CC48D0ED081A30
:10120000B0EE611AD0ED071AF0EE610AD0ED061AC1
:10121000B0EE610A00F014FBC248407C012807D000
:10122000C048407C022803D0BE48407C032820D11F
:10123000BA480078A0B1BD48D0ED0E0AB0EE600A01
:101240003020FFF734FF4FF4C87001F02DFCB74891
:10125000D0ED0D0AB0EE600A3220FFF728FF20E043
:10126000B248D0ED0C0AB0EE600A3620FFF71FFF3F
:1012700017E036209FEDAC0AFFF719FFC82001F0F8
:1012800013FC30209FEDA80AFFF711FFC82001F0E2
:101290000BFC32209FEDA40AFFF709FFC82001F0E4
:1012A00003FC10BDF0B585B004460F460025009440
:1012B000019400208DF809008DF8080003208DF8B6
:1012C0000A008DF80B008DF80C408DF80D7000BFF2
:1012D00000BF6946904803F0BBFC0646681C85B217
:1012E000042E03D140F6FF708542F2DB01E0681C5A
:1012F00085B23146884803F043FD18B940F6FF70C7
:101300008542F4DB05B0F0BD10B58948007818BB04
:1013100001208749087001210846FFF7C3FF4FF4F9
:10132000967001F0C1FB01210320FFF7BBFF4FF4D2
:10133000967001F0B9FB01210220FFF7B3FF4FF4D3
:10134000967001F0B1FB01F068FD7A4890ED000A5B
:10135000794880ED000A2EE100210120FFF7A2FF6D
:101360004FF4967001F0A0FB704890ED120ADFED8B
:10137000730A80EE201AB0EE000A21EE000ADFEDBB
:10138000700A60EE200A90ED150A9FED6E1A10EEBD
:10139000810A6D4880ED000A644890ED150A6A489C
:1013A000D0ED000A30EE200A604880ED150A90ED7D
:1013B000140ADFED620A80EE201AB0EE000A21EE78
:1013C000000ADFED5F0A60EE200A90ED170A9FED3C
:1013D0005D1A10EE810A5C4880ED020A534890EDD8
:1013E000170A5948D0ED020A30EE200A4F4880ED26
:1013F000170AD0ED130A9FED511A80EE810AF0EE24
:10140000000A20EE200ADFED4E0A60EE200A90ED81
:10141000160A9FED4C1A10EE810A4B4880ED010A26
:10142000424890ED160A4848D0ED010A30EE200AF5
:101430003E4880ED160AC82001F036FB424890ED88
:10144000000A424880ED000A3F4890ED010ADFEDB6
:10145000400A20EE200A3D4880ED010A3A4890ED0E
:10146000020ADFED3B0A20EE200A384880ED020A2E
:101470002E48D0ED110AB0EE600A3649334800F02C
:1014800006FF344890ED000ADFED330AB4EEE00ABF
:10149000F1EE10FA0CD290ED000ADFED300AB4EE56
:1014A000E00AF1EE10FA03DD9FED1F0A80ED000A5D
:1014B000284890ED010ADFED280AB4EEE00AF1EECB
:1014C00010FA0CD290ED010ADFED240AB4EEE00A26
:1014D000F1EE10FA03DD9FED140A80ED010A1D48BC
:1014E00090ED020ADFED1C0AB4EEE00AF1EE10FA0C
:1014F0000CD290ED020ADFED190AB4EEE00AF1EE2B
:1015000010FA03DD9FED080A80ED020A074890ED0E
:101510000F0A104824E0000000640040250000206D
:10152000240000205002002000000000D80100200C
:1015300026000020500000201C0000200000B443C2
:10154000560E494060E5503D6802002074020020BC
:10155000713D6A3F80020020BD378635BD3786B5B4
:10156000D0ED000A30EE600A594880ED0F0A90ED88
:10157000100A5848D0ED010A30EE600A544880ED58
:10158000100A554890ED000A5448D0ED000A30EE9C
:10159000600AB1EE400A524880ED000A90ED000A60
:1015A000DFED500A80EE201A1FED1B0A21EE000A23
:1015B000474880ED110A10BD10B501214A4803F0DB
:1015C000BFFD18B10121484803F055FE10BD10B50C
:1015D00086B00221444803F0B3FD002876D001AA6A
:1015E0000021414803F029FC0298B0F5887F16D10C
:1015F0009DF80E00082812D19DF80F0002280ED188
:10160000002407E00DF10F00A11C405C374908558C
:10161000601CC4B2062CF5DB012035490870029825
:10162000B0F5047F17D19DF80E00082813D19DF85E
:101630000F0002280FD1002408E00DF10F00A11CBB
:10164000415C2A4AA01D1154601CC4B2062CF4DB74
:101650000120274948700298B0F5447F17D19DF8C2
:101660000E00062813D19DF80F0002280FD1002488
:1016700007E00DF10F00A11C405C1C490855601CDF
:10168000C4B2042CF5DB12481849096801651848F2
:101690000078012811D11648407801280DD100208A
:1016A0001349087048700A481049096881640F4955
:1016B0004968C1640D498968016502210A4803F03F
:1016C000DAFD0021084803F030FC00BF06B010BD71
:1016D000D801002080020020500000201C000020C3
:1016E0002000002000003443006400408C020020F1
:1016F0002700002010B52DED048BB0EE409AB0EE1F
:10170000608AF0EE418AB1EE490AF84880ED000A9D
:10171000B1EE480A80ED010AC0ED028AF44900F0FA
:1017200009FAF34890ED000ADFEDF20A80EE201A84
:101730009FEDF10A21EE000AF1EE080A80EE201A70
:10174000EE4880ED0C1AEA4890ED010ADFEDE90A57
:1017500080EE201A9FEDE80A21EE000AF1EE080A59
:1017600080EE201AE54880ED0D1AE14890ED020A5E
:10177000DFEDE00A80EE201A9FEDDF0A21EE000A7D
:10178000F1EE080A80EE201ADC4880ED0E1ABDEC5E
:10179000048B10BD10B52DED048BB0EE408AF0EE39
:1017A000608AB0EE419AB1EE480AD54880ED000A51
:1017B000B1EE680A80ED010A80ED029ACF48D0EDC3
:1017C000110AB0EE600ACF49CD4800F00EFCCD48BA
:1017D00090ED000ADFEDC70A80EE201A9FEDC60AE1
:1017E00021EE000AF1EE080A80EE201AC34880EDCF
:1017F0000C1AC44890ED010ADFEDBE0A80EE201AF3
:101800009FEDBD0A21EE000AF1EE080A80EE201AD3
:10181000BA4880ED0D1ABB4890ED020A9FEDB51A4B
:10182000C0EE010A9FEDB40A20EE800AF1EE080A2C
:1018300080EE201AB14880ED0E1ABDEC048B10BD6D
:1018400010B52DED048BB0EE409AB0EE608AF0EE4C
:10185000418AB1EE490AAC4880ED000AB1EE480A6F
:1018600080ED010AC0ED028AA84900F063F9A7489B
:1018700090ED000ADFED9F0A80EE201A9FED9E0A90
:1018800021EE000AF1EE080A80EE201A9B4880ED56
:101890000C1A9E4890ED010ADFED960A80EE201AA0
:1018A0009FED950A21EE000AF1EE080A80EE201A5B
:1018B000924880ED0D1A954890ED020ADFED8D0AF1
:1018C00080EE201A9FED8C0A21EE000AF1EE080A44
:1018D00080EE201A894880ED0E1ABDEC048B10BDF5
:1018E00010B52DED048BB0EE408AF0EE608A88EEE4
:1018F000280AB0EE409AB0EE491ADFED850AB0EE44
:10190000480AFFF79DFFBDEC048B10BD10B52DED0F
:10191000068BF0EE409AB0EE60AAB0EE418AF0EE8F
:10192000618AF0EE42AA88EE280AB0EE409AB0EE44
:10193000491ADFED770AB0EE480AFFF781FFBDECE8
:10194000068B10BD10B52DED108B84B0B0EE40FAB3
:10195000B0EE608AF0EE418AF0EE61FA674890EDF1
:101960000F0ADFED6C0A20EE200AC0EE080A10EE26
:10197000904A204606F0D6FF41EC1C0BB0EE4C0A14
:10198000F0EE6C0A04F03CFEB0EE40AAF0EE60AA65
:10199000B0EE000A2FEE000ADFED5F0A20EE200A0B
:1019A000C0EE080A10EE904A204606F0BBFF41EC5C
:1019B0001B0B53EC1A2B06F0BFFC41EC190B06F085
:1019C000DFF9564908600846006806F0ABFF9FED56
:1019D000541BCDE902019DED020B04F075FEB0EE43
:1019E00040EAF0EE60EA9FED500B53EC102B51EC07
:1019F0001E0B06F0F7F941EC1D0BB0EE4D0AF0EEB0
:101A00006D0A05F0E1FCB0EE40CAF0EE60CA53EC9E
:101A10001C2B9FED450B51EC100B06F09FFA41EC8F
:101A20001A0B18EE900A06F07DFF41EC1B0B53ECED
:101A30001A2B06F081FC41EC190B06F0A1F92F4995
:101A4000C8603648006806F06DFF9FED351BCDE994
:101A500000019DED000B04F037FE8DED020B9FEDB4
:101A6000320B53EC102B9DED020B51EC100B06F0DA
:101A7000B9F941EC1D0BB0EE4D0AF0EE6D0A05F020
:101A8000A3FCB0EE40EAF0EE60EA2448006806F0FD
:101A900049FF41EC1C0B53EC1E2B06F05FFA41ECA6
:101AA0001A0B18EE900A06F03DFF41EC1B0B53ECAD
:101AB0001A2B06F041FC41EC190B06F061F90F49B5
:101AC00008610846C0ED05FAD0ED051AB0EE611ABE
:101AD000D0ED041AF0EE610AD0ED031AB0EE610AFF
:101AE000FFF758FE04B0BDEC108B10BD980200202B
:101AF000A402002060E5503D9C306542D8010020E2
:101B0000B0020020BC020020C8020020D402002045
:101B100000000000560EC940560E49402C0000201F
:101B20000000000000000040000000000000F03F46
:101B30007047000090ED000ADFEDFE0A20EE200A5B
:101B4000D0ED010AB7EE001A01EE200AD0ED020A2C
:101B50009FEDF91A01EE200A81ED000A90ED000ACE
:101B6000DFEDF60A20EE200AD0ED010AB6EE001AEB
:101B700001EE600AD0ED020A9FEDEF1A01EE200A95
:101B800081ED010A90ED000ADFEDED0A20EE200A5A
:101B9000D0ED010AB6EE001A01EE600AD0ED020A9D
:101BA0009FEDE51A01EE200A81ED020A704790EDE3
:101BB000000ADFEDE00A20EE200AD0ED010A9FEDD9
:101BC000E11A01EE200AD0ED020A9FEDDF1A01EEC4
:101BD000200A81ED000A90ED000ADFEDDC0A20EE1C
:101BE000200AD0ED010A9FEDDA1A01EE600AD0ED6D
:101BF000020A9FEDD81A01EE200A81ED010A90ED4C
:101C0000000AD0ED010A30EE200AD0ED020A30EED3
:101C1000200ADFEDD10A20EE200A81ED020A70478A
:101C200030B52DED108B85B005460C46B0EE408AE0
:101C300094ED020ADFEDBF0A20EE200A10EE101A22
:101C4000084606F06FFE41EC1A0B94ED010A10EE07
:101C5000101A084606F066FE41EC1D0B18EE100A3D
:101C600006F060FE41EC1F0BB0EE4F0AF0EE6F0A7B
:101C700005F046FBB0EE40EAF0EE60EA53EC1D2BB7
:101C800051EC1E0B06F058FB41EC1C0B94ED000AC6
:101C900010EE101A084606F045FE41EC1D0B18EE3A
:101CA000100A06F03FFE41EC1F0BB0EE4F0AF0EEBB
:101CB0006F0A04F0A5FCB0EE40EAF0EE60EA53ECE7
:101CC0001D2B51EC1E0B06F037FB53EC1C2BCDE902
:101CD00002019DED020B51EC100B06F083F841EC74
:101CE0001B0B53EC1A2B06F07DF841EC190B06F098
:101CF00047F8286094ED020ADFED8E0A20EE200AF4
:101D000010EE101A084606F00DFE41EC190B94ED8A
:101D1000010A10EE101A084606F004FE41EC1C0BF6
:101D200018EE100A06F0FEFD41EC1E0BB0EE4E0A56
:101D3000F0EE6E0A04F064FCB0EE40DAF0EE60DA29
:101D400053EC1C2B51EC1D0B06F0F6FA41EC1A0B70
:101D500094ED000A10EE101A084606F0E3FD41EC7F
:101D60001C0B18EE100A06F0DDFD41EC1F0BB0EE67
:101D70004F0AF0EE6F0A05F0C3FAB0EE40EAF0EE5B
:101D800060EA51EC1E0B05F0EEFF41EC1D0B53EC2D
:101D90001C2B06F0D1FA41EC1B0B53EC1A2B06F06E
:101DA00021F853EC192BCDE900019DED000B51EC0E
:101DB000100B06F017F8CDE902019DED020B51EC76
:101DC000100B05F0DDFF686094ED000ADFED590AA5
:101DD00020EE200AD4ED010A9FED561A01EE200AEA
:101DE000D4ED020AB7EE001A01EE200A85ED020AD0
:101DF00005B0BDEC108B30BD30B52DED108B83B030
:101E000004460D46B0EE408A94ED020ADFED490A21
:101E100020EE200A10EE101A084606F083FD41EC71
:101E20001A0B94ED010A10EE101A084606F07AFD1E
:101E300041EC1D0B18EE100A06F074FD41EC1F0B6F
:101E4000B0EE4F0AF0EE6F0A05F05AFAB0EE40EA33
:101E5000F0EE60EA53EC1D2B51EC1E0B06F06CFA11
:101E600041EC1C0B94ED000A10EE101A084606F027
:101E700059FD41EC1D0B18EE100A06F053FD41EC24
:101E80001F0BB0EE4F0AF0EE6F0A04F0B9FBB0EE94
:101E900040EAF0EE60EA53EC1D2B51EC1E0B06F00D
:101EA0004BFA53EC1C2BCDE900019DED000B51ECDE
:101EB000100B06F04DFC41EC1B0B53EC1A2B05F0FC
:101EC00091FF41EC190B05F05BFF286094ED020ACD
:101ED000DFED180A20EE200A10EE101A084606F070
:101EE00021FD41EC190B94ED010A10EE101A084681
:101EF00006F018FD41EC1D0B18EE100A06F012FD5D
:101F000041EC1F0BB0EE4F0AF0EE6F0A04F078FBC5
:101F1000B0EE40EAF0EE60EA53EC1D2B51EC1E0BE4
:101F200006F00AFA41EC1B0B94ED000A10EE101AB1
:101F3000084613E0000000005C8F823ED0B35DBF16
:101F4000D0B35D3F36CD13BF36CD133FB0AA2A3F85
:101F50009FAAAA3E9FAAAABEF151A73F06F0E2FCA3
:101F600041EC1D0B18EE100A06F0DCFC41EC1F0BD7
:101F7000B0EE4F0AF0EE6F0A05F0C2F9B0EE40EA9B
:101F8000F0EE60EA53EC1D2B51EC1E0B06F0D4F979
:101F900041EC1C0B53EC1B2B05F024FF41EC1A0BFE
:101FA00053EC192B05F01EFFCDE900019DED000B50
:101FB00051EC100B05F0E4FE686094ED000A5FED53
:101FC000230A20EE200AD4ED010A1FED261A01EEA5
:101FD000200AD4ED020AB7EE001A01EE200A85EDC0
:101FE000020A03B0BDEC108B30BD30B52DED108B67
:101FF00085B004460D46B0EE408AD4ED020A1FEDCE
:10200000320A20EE800A10EE101A084606F08AFC0A
:1020100041EC1A0B94ED010A10EE101A084606F076
:1020200081FC41EC1C0B18EE100A06F07BFC41EC25
:102030001E0BB0EE4E0AF0EE6E0A04F0E1FAB0EEBE
:1020400040DAF0EE60DA53EC1C2B51EC1D0B06F07D
:1020500073F9CDE9000194ED000A10EE101A08465C
:1020600006F060FC41EC1C0B18EE100A06F05AFC5E
:1020700041EC1F0BB0EE4F0AF0EE6F0A05F040F98D
:10208000B0EE40EAF0EE60EA51EC1E0B05F06BFE9C
:1020900041EC1D0B53EC1C2B06F04EF941EC1B0BD5
:1020A0009DED000B53EC102B05F09CFE53EC1A2B0E
:1020B000CDE902019DED020B51EC100B05F092FEF3
:1020C00041EC190B05F05CFE2860D4ED020A1FED0F
:1020D000660A20EE800A10EE101A084606F022FC6E
:1020E00041EC190B94ED010A10EE101A084606F0A7
:1020F00019FC41EC1C0B9FEDFE0A30EE480A10EE75
:10210000101A084606F00EFC41EC1E0BB0EE4E0A0B
:10211000F0EE6E0A04F074FAB0EE40DAF0EE60DA37
:1021200053EC1C2B51EC1D0B06F006F941EC1A0B7D
:1021300094ED000A10EE101A084606F0F3FB41EC8D
:102140001C0B9FEDEB0A30EE480A10EE101A084601
:1021500006F0E8FB41EC1F0BB0EE4F0AF0EE6F0A01
:1021600005F0CEF8B0EE40EAF0EE60EA51EC1E0B5E
:1021700005F0F9FD41EC1D0B53EC1C2B06F0DCF8CF
:1021800041EC1B0B53EC1A2B06F0E2FA53EC192B23
:10219000CDE900019DED000B51EC100B05F022FE86
:1021A000CDE902019DED020B51EC100B05F0E8FDAD
:1021B000686094ED020A5FEDA00A20EE200A10EE9E
:1021C000101A084606F0AEFB41EC1A0B94ED010A1A
:1021D00010EE101A084606F0A5FB41EC1D0B9FED12
:1021E000C40A38EE000A10EE101A084606F09AFBF0
:1021F00041EC1F0BB0EE4F0AF0EE6F0A04F000FA4C
:10220000B0EE40EAF0EE60EA53EC1D2B51EC1E0BF1
:1022100006F092F8CDE9020194ED000A10EE101AD2
:10222000084606F07FFB41EC1D0B9FEDB10A38EE2E
:10223000000A10EE101A084606F074FB41EC1F0B62
:10224000B0EE4F0AF0EE6F0A05F05AF8B0EE40EA31
:10225000F0EE60EA53EC1D2B51EC1E0B06F06CF80F
:1022600041EC1C0B9DED020B53EC102B06F070FAA9
:1022700041EC1B0B53EC1A2B05F0B4FD41EC190B90
:1022800005F07EFDA86005B0BDEC108B30BD30B50B
:102290002DED108B89B004460D46B0EE408A94EDCA
:1022A000020A10EE101A084606F03CFB41EC1A0B2D
:1022B00018EE100A06F036FB41EC1F0BB0EE4F0A89
:1022C000F0EE6F0A05F01CF8B0EE40EAF0EE60EABE
:1022D0009FED880B53EC102B51EC1E0B06F02CF8E5
:1022E00041EC1C0B18EE100A06F01CFB41EC1F0B16
:1022F000B0EE4F0AF0EE6F0A04F082F9B0EE40EA59
:10230000F0EE60EA9FED7D0B53EC102B51EC1E0BB1
:1023100006F012F841EC1D0B53EC1C2B05F062FD8E
:1023200041EC1B0B53EC1A2B06F006F8CDE9040127
:1023300094ED010A10EE101A084606F0F3FA41EC8B
:102340001C0B18EE100A06F0EDFA41EC1F0BB0EE74
:102350004F0AF0EE6F0A04F0D3FFB0EE40EAF0EE61
:1023600060EA9FED680B53EC102B51EC1E0B05F04F
:10237000E3FFCDE9020118EE100A06F0D3FA41ECB2
:102380001F0BB0EE4F0AF0EE6F0A04F039F9B0EE11
:1023900040EAF0EE60EA9FED5D0B53EC102B51EC40
:1023A0001E0B05F0C9FFCDE900019DED020B53ECBA
:1023B000102B9DED000B51EC100B05F013FD41ECC3
:1023C0001D0B53EC1C2B05F0B7FF41EC1A0B94EDE1
:1023D000000A10EE101A084606F0A4FA41EC1C0B95
:1023E00018EE100A06F09EFA41EC1F0BB0EE4F0AF1
:1023F000F0EE6F0A04F084FFB0EE40EAF0EE60EA1F
:102400009FED440B53EC102B51EC1E0B05F094FF89
:1024100041EC1D0B53EC1C2B05F08EFF41EC1B0B0C
:1024200053EC1A2B05F0DEFC41EC190B9DED040B6F
:1024300053EC102B05F0D6FCCDE906019DED060B03
:1024400051EC100B05F09CFC286094ED020A10EE94
:10245000101A084606F066FA41EC190B18EE100A3D
:1024600006F060FA41EC1E0BB0EE4E0AF0EE6E0A7A
:1024700004F0C6F8B0EE40DAF0EE60DA9FED210B22
:1024800053EC102B51EC1D0B05F056FF41EC1C0BCF
:1024900018EE100A06F046FA41EC1E0BB0EE4E0A9A
:1024A000F0EE6E0A04F02CFFB0EE40DAF0EE60DAE7
:1024B0009FED120B53EC102B51EC1D0B05F03CFF64
:1024C00041EC1B0B53EC1C2B06F042F941EC1A0BB0
:1024D00053EC192B05F030FFCDE9040194ED010A0E
:1024E00010EE101A084606F01DFA41EC1A0B15E022
:1024F0008F09863F465D6BEF5355D53F000000C006
:10250000A679E23F000000E05355D53F000000C02F
:10251000A679E2BF000000005655E5BF18EE100A8C
:1025200006F000FA41EC1F0BB0EE4F0AF0EE6F0A16
:1025300004F066F8B0EE40EAF0EE60EA1FED0F0B33
:1025400053EC102B51EC1E0B05F0F6FE41EC1C0B6E
:1025500018EE100A06F0E6F941EC1F0BB0EE4F0A38
:10256000F0EE6F0A04F0CCFEB0EE40EAF0EE60EA66
:102570001FED1A0B53EC102B51EC1E0B05F0DCFE7B
:1025800041EC1D0B53EC1C2B06F0E2F841EC1B0B4D
:1025900053EC1A2B05F0D0FE41EC190B94ED000A18
:1025A00010EE101A084606F0BDF941EC1A0B18EEB1
:1025B000100A06F0B7F941EC1D0BB0EE4D0AF0EE33
:1025C0006D0A04F01DF8B0EE40CAF0EE60CA9FED4F
:1025D000750B53EC102B51EC1C0B05F0ADFE41ECD0
:1025E0001B0B53EC1A2B05F0A7FE53EC192BCDE96E
:1025F00000019DED000B51EC100B05F0F3FBCDE954
:1026000002019DED040B53EC102B9DED020B51ECE0
:10261000100B05F0E7FBCDE906019DED060B51EC33
:10262000100B05F0ADFB686094ED000AD4ED010AD3
:1026300030EE200AD4ED020A30EE200ADFED5B0A0C
:1026400020EE200A85ED020A09B0BDEC108B30BDEA
:1026500070B52DED0E8B04460D46B0EE408AF0EEBF
:10266000608A18EE100A06F05DF941EC1E0BB0EE20
:102670004E0AF0EE6E0A03F0C3FFB0EE40CAF0EE71
:1026800060CA94ED010ADFED4A0A08EEA00A10EED6
:10269000101A084606F046F941EC1D0B53EC1C2BB2
:1026A00005F04AFE41EC1A0B18EE100A06F03AF952
:1026B00041EC1E0BB0EE4E0AF0EE6E0A04F020FE66
:1026C000B0EE40CAF0EE60CA94ED000ADFED380AC1
:1026D00008EEA00A10EE101A084606F023F941ECA5
:1026E0001D0B53EC1C2B05F027FE41EC1B0B53EC90
:1026F0001A2B05F077FB41EC190B05F041FB286024
:1027000018EE100A06F00EF941EC1E0BB0EE4E0A60
:10271000F0EE6E0A04F0F4FDB0EE40CAF0EE60CACE
:1027200094ED010ADFED220A08EEA00A10EE101A5D
:10273000084606F0F7F841EC1D0B53EC1C2B05F096
:10274000FBFD41EC1A0B18EE100A06F0EBF841EC19
:102750001E0BB0EE4E0AF0EE6E0A03F051FFB0EE23
:1027600040CAF0EE60CA94ED000ADFED110A18EEDF
:10277000E00A10EE101A084606F0D4F841EC1D0BE2
:1027800053EC1C2B05F0D8FD41EC1B0B53EC1A2B22
:1027900005F028FB41EC190B05F0F2FA6860BDEC7E
:1027A0000E8B70BD000000005655E53FFD51A73F60
:1027B00060E5503D10B50121084601F039FD0121C9
:1027C000022001F035FD0121042001F031FD01213D
:1027D000102001F076FD0121480601F072FD012173
:1027E000880601F06EFD0121880401F06AFD10BD2C
:1027F00010B542F20F705149486053200880002004
:10280000488008814E4802F036FE01214C4802F013
:10281000BBFE012211464A4803F0CEFA0121484886
:1028200003F0DEFA10BD10B50121454803F0DBFAD4
:10283000002836D04348408A401C00B241494882B3
:102840004148B0F9000000EB800040004FF47A717D
:1028500091FBF0F000B23B49B1F9121088420ADC5A
:102860000020384948823948006808B9012000E052
:102870000020364908603648007828B9FEF772FC17
:1028800001203349087004E0FEF73EFD0020304986
:10289000087001212A4803F0B7FA0121284803F003
:1028A0009FFA10BD10B54FF4A06001F02DF936204D
:1028B000284908700220487001208870C8700846B6
:1028C00001F027F9272023490870002048700120D3
:1028D0008870C870084601F01CF925201D49087051
:1028E00001208870002088700120C870084601F01F
:1028F00010F9342017490870012088700020887072
:102900000120C870084601F004F910BD08B5FFF7B2
:1029100051FF00F0D6F8FFF76BFFFEF739FB00F030
:102920001BF8002006231A4605210090FEF75AFAEC
:102930004FF4E13000F052F908BD0000E002002041
:1029400000100040500200204600002080824042DB
:10295000440000204000002000B587B00121022083
:1029600001F066FC0121880401F0ABFC07220A217A
:10297000424801F04AFA07220B21404801F045FA8B
:102980004FF44060019002208DF8080000208DF87F
:102990000A0003208DF8090000208DF80B0001A922
:1029A000364801F0A7F94FF4E13003900020ADF86C
:1029B0001000ADF81200ADF814000C20ADF81600B0
:1029C0000020ADF8180003A92D4801F0ECFD01220C
:1029D00040F225512A4801F024FF0121284801F046
:1029E0006AFE07B000BD10B5044600BF4021244870
:1029F00001F03CFF0028F9D02146214801F086FE75
:102A000010BD70B504460D4600BF40211C4801F0C2
:102A10002DFF0028F9D0E1B2194801F077FE2046D9
:102A200070BD10B5A0B0002440F22551144801F04B
:102A300033FF00B31348006808B9012000E000200C
:102A4000104908607C221049684603F0B8FA0E4825
:102A500010380FC8FEF7EAFA40B90948001D00888F
:102A6000C4B2214608481038FEF7C7FA40F2255193
:102A7000034801F04CFF20B010BD000000040240EC
:102A80000048004080824042F800002010B500213C
:102A900007E04AF2104200BF1300A2F10102FBD18D
:102AA000491C8142F5D310BD10B5002106E0282253
:102AB00000BF1300A2F10102FBD1491C8142F6D3F1
:102AC00010BD1FB54FF4A06001F01EF81E208DF858
:102AD0000C0001208DF80D0000208DF80E00012063
:102AE0008DF80F0003A801F014F80121042001F073
:102AF000E8FB364802F012FC4FF6FF7001905320BD
:102B0000ADF800000020ADF80800ADF802006946FD
:102B10002E4802F0B0FC01212C4803F061F901229B
:102B200011462A4803F048F90121284802F02CFDFB
:102B30000121042001F0C5FB1FBD2448243000689A
:102B40002349B1F900104FF4803202FB010000EE7E
:102B5000900AF8EE600A9FED1F1AC0EE811AB0EEDF
:102B6000610A704730B5194B24331B68184CB4F90F
:102B700000404FF4803505FB04320368D11A02602F
:102B8000002902DA9FED140A30BD00EE101AF8EEAB
:102B9000C00AB0EE600AF7E710B501210B4803F058
:102BA00022F988B10A480088401C00B20849088010
:102BB0000846B0F90000B0F57A7F01DB00200880FC
:102BC0000121024803F020F910BD00000008004078
:102BD00048000020002474490000000010B586B0B1
:102BE00004460121084601F023FB0121102001F0D9
:102BF00079FB07220921994801F007F907220A21E8
:102C0000964801F002F94FF4C060009002208DF860
:102C1000040000208DF8060003208DF80500002038
:102C20008DF8070069468D4801F064F80294002091
:102C3000ADF80C00ADF80E00ADF810000C20ADF8AA
:102C400012000020ADF8140002A9854801F0ABFC89
:102C5000012240F22551824801F0E3FD0121804824
:102C600001F029FD06B010BD70B57E4800788428BB
:102C700042D17C4DEA79D51702EB15752D11A2EBE7
:102C80000515642615FB06F5764E347AE61704EB37
:102C90001676361106EB860605EB4605714E317A3F
:102CA000CE1701EB16763611A1EB0616354400EE71
:102CB000105AB8EEC00A6B4D6B7ADD1703EB157531
:102CC0002D1100EE905AF8EEE00A9FED671A00EE23
:102CD000810A644D687AC51700EB15752D11A0EBBC
:102CE000051500EE905AF8EEE00A9FED601A00EE2E
:102CF000810A5F4D85ED000A5A480078282802D1E4
:102D000001205C49087070BD10B540F2255154484F
:102D100001F0C2FD002871D0514801F0FBFCC4B2A3
:102D20005548007805285FD2DFE800F0030E192926
:102D30004200682C07D101204F49087000204F49FC
:102D400008804F49086053E04C48008820444B49B4
:102D500008804C48048002204749087048E044B984
:102D600003204549087045480088204443490880AD
:102D700004E00020404908704049088038E03F489E
:102D8000008820443D4908803D4801680068401C97
:102D90003B4A1060334844543A48B0F90000C01E22
:102DA00011460968884202DC0420334908701FE09C
:102DB00032490888C11700EB11610912A0EB01210B
:102DC0002E4A118010460088844207D1FFF74CFF3D
:102DD00000202A4908802849087004E0002026497C
:102DE00008702649088003E000202349087000BFCE
:102DF00000BF40F225511A4801F089FD10BD10B501
:102E0000044600BF4021164801F030FD0028F9D0EB
:102E10002146134801F07AFC10BD10B5002413E0E0
:102E2000601CC4B26820FFF7EAFF0420FFF7E7FF49
:102E30000020FFF7E4FF2820FFF7E1FF2C20FFF739
:102E4000DEFF0A20FFF730FE0A48007808B9102C90
:102E5000E6DB00200749087010BD000000000240BA
:102E60000010014000030020CDCCCC3D0AD7233C0C
:102E7000500000204C00002054000020560000208C
:102E8000580000205E0000202DE9F0418AB0044681
:102E90000D4616461F46DDF840800121022001F054
:102EA000C7F90121880601F00CFA60200890022081
:102EB0008DF8240000208DF8260003208DF82500D1
:102EC00001208DF8270008A9904800F013FF09227F
:102ED00005218E4800F099FF092206218B4800F059
:102EE00094FF00208DF81A008DF81B008DF81C004F
:102EF00001208DF81D0000208DF81E008DF81F00A8
:102F00008DF816808DF817408DF818608DF81950DF
:102F1000ADF8147005A97E4801F021FD0E208DF852
:102F20000E0000208DF80F0001208DF81000002009
:102F3000ADF80400ADF80600ADF80800ADF80A00E1
:102F40000120ADF80C008DF8110001A801F091FDF1
:102F5000012210216E4802F08BF841208DF800000C
:102F600001208DF8010000208DF8020001208DF86D
:102F70000300684600F0CDFD00200AB0BDE8F081F6
:102F800010B51021624802F0DBF800287DD0614ABC
:102F900001215F4801F051FF5E48006840F20141A5
:102FA000884275D15B48C07A01065A48007B41EAE5
:102FB00000415848407B41EA00205649897B08433C
:102FC00000EE100AB8EEC00A534880ED000A90EDFA
:102FD000000ADFED520A20EE200A514880ED000A77
:102FE00090ED000ADFED4F0AB4EEE00AF1EE10FAC0
:102FF00008DC90ED000ADFED4C0AB4EEE00AF1EED9
:1030000010FA05D2494890ED000A454880ED000AC3
:10301000434890ED000A4548D0ED000A30EE600AC2
:10302000434880ED000A90ED000ADFED420AB4EE5D
:10303000E00AF1EE10FA08DC90ED000ADFED3E0A3E
:10304000B4EEE00AF1EE10FA05D23C4890ED000A29
:10305000374880ED000A364890ED000A374880ED89
:10306000000A324890ED000A3148D0ED000A30EEF7
:10307000200A2E4880ED000A90ED000A3048D0ED7D
:10308000000A30EE600A2F4800E001E080ED000AFF
:1030900010211F4802F0EFF801211D4801F045FF03
:1030A00010BDF0B585B007460D460024009501958A
:1030B00000208DF808008DF8090008208DF80A001E
:1030C00000BF05E0395D0DF10B000155601C84B2B5
:1030D000082CF7DB69460E4801F0BAFD06460024CD
:1030E00001E0601C84B23146094801F049FE18B97C
:1030F00040F6FF708442F4DB40F6FF70844202DB4E
:10310000012005B0F0BD0020FBE7000000040240F4
:103110000068004020030020740000200AD7233CF0
:103120006C00002000A00C4700A00CC78400002009
:103130007C0000200000FA430000FAC37800002061
:103140008C0000209000002010B5044600BF4021F4
:10315000FE4801F08BFB0028F9D02146FB4801F026
:10316000D5FA10BD10B586B004460121042001F047
:103170005FF80121C80401F0A4F808220A21F448EC
:1031800000F043FE08220B21F14800F03EFE4FF410
:103190004060009002208DF8040000208DF80600A9
:1031A00003208DF8050000208DF807006946E848E7
:1031B00000F0A0FD02940020ADF80C00ADF80E0068
:1031C000ADF810000C20ADF812000020ADF814008E
:1031D00002A9DE4801F0E7F9012240F22551DB485F
:1031E00001F01FFB0121D94801F065FA0A20FFF721
:1031F0004DFCFF20FFF7A8FFAA20FFF7A5FF5220F4
:10320000FFF7A2FF06B010BD10B52DED088B82B000
:103210000446D04801780078401CCE4A1070CE4851
:1032200044540078552806D000201146087002B09A
:10323000BDEC088B10BDC74800780B2800DAF6E714
:10324000C5484078512806D052286CD053287CD0ED
:1032500054287BD13AE1C04840880190BDF9040070
:1032600005F003F841EC190B9FEDBC0B53EC102B50
:1032700004F074FE41EC180B9FEDBA0B53EC102BCD
:1032800005F05AF8B94A03C2B34840680190BDF945
:10329000040004F0EAFF41EC190B9FEDB00B53EC76
:1032A000102B04F05BFE41EC180B9FEDAE0B53ECC2
:1032B000102B05F041F8AD4AC2E90201A648C088CA
:1032C0000190BDF9040004F0D0FF41EC190B9FED13
:1032D000A30B53EC102B04F041FE41EC180B9FEDB7
:1032E000A10B53EC102B05F027F8A04AC2E904010A
:1032F000994880680190BDF9040004F0B6FF41ECE4
:10330000190B9FED9B0B53EC102B04F027FE41ECA7
:10331000180B9FED990B53EC102B04F063FD934AAF
:10332000C2E906014AE18C4840880190BDF90400D9
:1033300004F09BFF41EC190B9FED880B53EC102B15
:1033400004F00CFE41EC180B01E057E035E19FED75
:103350008C0B53EC102B04F0EFFF8B4A03C27E481A
:1033600040680190BDF9040004F07FFF41EC190BA7
:103370009FED7A0B53EC102B04F0F0FD41EC180B91
:103380009FED7F0B53EC102B04F0D6FF7E4AC2E971
:1033900002017148C0880190BDF9040004F065FF86
:1033A00041EC190B9FED6D0B53EC102B04F0D6FD87
:1033B00041EC180B9FED720B53EC102B04F0BCFF8B
:1033C000714AC2E90401644880680190BDF90400B3
:1033D00004F04BFF41EC190B9FED650B53EC102BE8
:1033E00004F0BCFD41EC180B9FED630B53EC102B6C
:1033F00004F0F8FC644AC2E90601DFE05648408860
:103400000190BDF9040004F030FF41EC190B9FED71
:10341000530B53EC102B04F0A1FD41EC180B9FED66
:103420005B0B53EC102B04F087FF5A4A03C24A4847
:1034300040680190BDF9040004F017FF41EC190B3E
:103440009FED460B53EC102B04F088FD41EC180B5C
:103450009FED4E0B53EC102B04F06EFF4D4AC2E96A
:1034600002013D48C0880190BDF9040004F0FDFE52
:1034700041EC190B9FED390B53EC102B04F06EFD52
:1034800041EC180B9FED410B53EC102B04F054FF53
:10349000404AC2E90401304880680190BDF9040047
:1034A00004F0E3FE41EC190B9FED310B53EC102BB4
:1034B00004F054FD41EC180B9FED2F0B53EC102B37
:1034C00004F090FC334AC2E9060177E03248224911
:1034D000891C0A680260496841603048007898B3E6
:1034E0002D49B1F9020004F0C0FE41EC1B0B9FED29
:1034F0002C0B53EC102B05F02BF941EC190B264942
:10350000B1F9000004F0B1FE41EC1B0B9FED260B5E
:1035100053EC102B05F01CF941EC1A0BB0EE491AD4
:10352000F0EE691AB0EE4A0AF0EE6A0A02F070FF95
:10353000B0EE408AF0EE608A51EC180B04F020FCEB
:103540001B490860002035E036E00000004C0040D8
:1035500000080240D1000020A0030020000000006D
:103560000000E04000000000000030404003002068
:1035700000000000004075400000000000204240B4
:103580000000000000409F4060030020000000C0D9
:10359000CA2109408003002098000020D0000020AC
:1035A00000000000000065C00000000000004FC0E7
:1035B00094000020FA49087000E000BF00BF00201E
:1035C000F849087000BF32E610B540F22551F648C0
:1035D00001F062F950B1F449091D0988C8B2FFF73A
:1035E00013FE40F22551F04801F091F94FF4587163
:1035F000ED4801F08CF910BD10B5044629E02078A3
:103600000D280BD10D21E84801F080F800BF4021C2
:10361000E54801F02BF90128F9D119E020780A28B2
:103620000BD10A21E04801F071F800BF4021DE48CB
:1036300001F01CF90128F9D10AE02178DA4801F0FB
:1036400065F800BF4021D84801F010F90128F9D1F0
:10365000641C20780028D2D110BD10B52DED108B40
:10366000D249B1F9020004F000FE41EC1B0B1FED42
:10367000340B53EC102B05F06BF841EC190BCB49D4
:10368000B1F9000004F0F1FD41EC1B0B1FED3A0B0A
:1036900053EC102B05F05CF841EC1A0BB0EE491A14
:1036A000F0EE691AB0EE4A0AF0EE6A0A02F0B0FED5
:1036B000B0EE408AF0EE608A51EC180B04F060FB2B
:1036C000BB490860BB48006805F02CF941EC1B0BB6
:1036D000B649B1F9020004F0C8FD41EC1F0B1FED23
:1036E000500B53EC102B05F033F841EC1D0BAF4998
:1036F000B1F9000004F0B9FD41EC1F0B1FED560BB2
:1037000053EC102B05F024F841EC1E0BB0EE4D1AD3
:10371000F0EE6D1AB0EE4E0AF0EE6E0A02F078FE90
:10372000B0EE40CAF0EE60CA53EC1B2B51EC1C0B00
:1037300005F00EF841EC1A0B9FED9F0B53EC102B8C
:1037400004F0FAFD41EC190B1FED700B53EC102B3C
:1037500004F004FC41EC180B04F012FB98490860DB
:10376000984890ED000A9848D0ED000A30EE600AC3
:103770009648D0ED000A80EE201A954880ED001A98
:10378000904890ED000A904880ED000A904890ED36
:10379000000A9048D0ED000A70EE600A8B4890ED68
:1037A000001A8D4890ED000A00EE810A80ED000AB3
:1037B0008A4890ED000A8A48D0ED000A30EE200ACF
:1037C000B1EE400A8148D0ED000A20EE200AD0ED8B
:1037D000000A9FED841A01EE200A8348D0ED000A0A
:1037E00030EE200A80ED000A7D4890ED000A7F4807
:1037F000D0ED000AF1EE600A744890ED001A00EE78
:10380000810A774880ED000A744890ED000A7748F5
:10381000D0ED000AF1EE600A6C4890ED001A00EE5F
:10382000810A6E4880ED000A704890ED000A6748F2
:10383000D0ED000A9FED6E1A01EE200A6B4880ED74
:10384000000A694890ED000ADFED6A0A30EE200AAE
:10385000D0ED000A80EE801A674880ED001A6248B9
:1038600090ED000ADFED630A30EE200A5B48D0EDF0
:10387000000A80EE801A614880ED001A084690ED3B
:10388000000A5548D0ED000A70EE600A514890EDEC
:10389000000A5A4890ED001A01EE200A4D4880EDCA
:1038A000000A084690ED000A4B48D0ED000A70EE81
:1038B000600A90ED000A504890ED001A01EE200ACF
:1038C000454880ED000A484890ED000A4A48D0ED8E
:1038D000000A454890ED001A00EEC10A80ED000A8A
:1038E0003F4890ED000A4448D0ED000A3C4890ED76
:1038F000001A00EEC10A80ED000A384890ED000A77
:103900003E48D0ED000A384890ED001A00EEC10A9A
:10391000324880ED000A354890ED000A3748D0ED76
:10392000000A2F4890ED001A00EEC10A2F4880EDE2
:10393000000ABDEC108B10BDF0B58DB006460F46E9
:1039400015462D2D01DD0DB0F0BD0021281D0DF80F
:103950000010AA208DF800008DF801008DF802609B
:103960008DF80350002405E0395D201D0DF800108E
:10397000601CC4B2AC42F7DB00240BE0281D1DF82C
:1039800000001DF804100844C1B2281D0DF80010F5
:10399000601CC4B2281D8442F0DB002436E0000025
:1039A000D0000020D1000020004C004098000020F2
:1039B000CC00002094000020000000000080664041
:1039C000C000002020000020D4000020A000002023
:1039D000C8000020A4000020C4000020B000002087
:1039E000AC00002017B7D138A8000020B400002098
:1039F0009A99993E0AD7233CB8000020BC000020C9
:103A00001DF80400FFF7A0FB601CC4B2681D8442CF
:103A1000F6DB00BF97E710B52DED048B8EB0B0EE4E
:103A2000408AF0EE608AB0EE419A00249FED250AAC
:103A300028EE000ABDEEC00A10EE100A00B20D908A
:103A40009DF835202146641C0DF801209DF8342096
:103A50002146641C0DF801209FED1A0A28EE800A09
:103A6000BDEEC00A10EE100A00B20D909DF8352090
:103A70002146641C0DF801209DF834202146641C69
:103A80000DF801209FED0F0A29EE000ABDEEC00AD5
:103A900010EE100A00B20D909DF835202146641CEE
:103AA0000DF801209DF834202146641C0DF80120FA
:103AB00022466946F120FFF73FFF0EB0BDEC048BB4
:103AC00010BD00000000C84209488047094800476F
:103AD000FEE7FEE7FEE7FEE7FEE7FEE7FEE7FEE7BE
:103AE000FEE7FEE704480549054A064B704700001B
:103AF000B10C00088901000820040020200A0020E1
:103B0000200600202006002032490143324A11607D
:103B1000704770B5002100230F22C4781CB32E4CCF
:103B2000246804F4E064C4F5E064C4F30721C1F13F
:103B30000404E3B20A4144789C40E1B28478144022
:103B400021430C07210E254C05786155047804F0BB
:103B50001F050124AC4005786D11AD0005F1E0258D
:103B6000C5F8004109E0047804F01F050124AC40C9
:103B70001B4D0678761145F8264070BD194A0A405B
:103B80000243154B1B1F1A60704739B1124A121DB0
:103B900012680243104B1B1D1A6006E00E4A121DEC
:103BA000126882430C4B1B1D1A607047042808D111
:103BB0004FF0E021096941F004014FF0E02211616A
:103BC00007E04FF0E021096921F004014FF0E02205
:103BD000116170470000FA050CED00E000E400E020
:103BE00080E100E080FFFF1F10B504469848844242
:103BF00008D10121084600F086FB0021012000F0D9
:103C000082FB76E09348844208D10121022000F033
:103C10007AFB0021022000F076FB6AE08E488442A5
:103C200008D10121042000F06EFB0021042000F0E7
:103C30006AFB5EE08948844208D10121082000F037
:103C400062FB0021082000F05EFB52E084488442C1
:103C500008D10121102000F056FB0021102000F0B7
:103C600052FB46E07F48844208D10121202000F029
:103C70004AFB0021202000F046FB3AE07A488442CB
:103C800008D10121402000F03EFB0021402000F03F
:103C90003AFB2EE07548844208D10121802000F0D3
:103CA00032FB0021802000F02EFB22E0704884428D
:103CB00008D10121801500F026FB0021A01500F09D
:103CC00022FB16E06B48844208D10121401500F028
:103CD0001AFB0021601500F016FB0AE066488442DA
:103CE00007D10121001500F00EFB0021201500F086
:103CF0000AFB10BDF0B50A4600210023002400BFD6
:103D00003DE0012505FA01F3156805EA03049C422C
:103D100034D105684F000326BE40B54305601579D0
:103D20004E00B5400668354305601579012D02D077
:103D30001579022D16D185684F000326BE40B54384
:103D4000856055794E00B540866835438560456885
:103D500001268E40B5434560456896798E40B6B2DF
:103D600035434560C5684F000326BE40B543C56076
:103D7000D5794E00B540C6683543C560491C102949
:103D8000BFD3F0BD4FF6FF71016000210171417199
:103D90008171C171704708B54FF480320092009A6A
:103DA0000A430092009AC261C161009AC261C2696D
:103DB0000092C269009208BD0246002013690B40C0
:103DC0000BB1012000E0002070470146086980B275
:103DD00070470246002053690B400BB1012000E000
:103DE000002070470146486980B2704701837047E0
:103DF000418370470AB1018300E04183704741610C
:103E0000704742694A4042617047F0B50023002480
:103E10004D07ED0E02FA05F3CE1000F1200555F81E
:103E200026504E07F70E0F26BE40B543CF1000F1C7
:103E3000200646F82750CE1000F1200555F82650F0
:103E400045EA0304CE1000F1200545F82640F0BDF8
:103E5000000002400004024000080240000C024042
:103E6000001002400014024000180240001C0240F2
:103E7000002002400024024000280240F948006867
:103E800040F00100F74908600020F6490831086059
:103E9000F4480068F4490840F2490860F348091DF5
:103EA0000860F348EF4984310860F0481038091D74
:103EB0000860EC48006820F48020EA49086000208F
:103EC000E8490C310860E7498C31086070470021EF
:103ED000E44A921C117011460870704710B50146F3
:103EE0000022002300204A11012A02D1DD4C236860
:103EF00008E0022A03D1DB4C7034236802E0D94C7D
:103F00007434236801F01F02012494401C400CB15A
:103F1000012000E0002010BD38B5002000900024F2
:103F2000002500BF3120FFF7D9FF05460098401C4F
:103F300000900098B0F5A04F01D0002DF2D03120B4
:103F4000FFF7CCFF08B1012400E00024204638BD73
:103F500001460020C34A106820F0F80040EAC10082
:103F600010607047C349086070470021BD4A703235
:103F700011701170012802D004280AD104E0012137
:103F8000B84A7032117005E00521B64A70321170DE
:103F900000E000BF00BF7047B7490860704770B5C8
:103FA000049C41EA82150126C6EB530645EA064504
:103FB000054345EA0465AB4E361D356070BDAD491D
:103FC00008667047820142EA0172A64B84331A6088
:103FD0007047A8498866704710B5830143EA0163BA
:103FE00043EA02739F4C8834236010BDA1490867DF
:103FF0007047A049C864704702460020994B0833B7
:10400000186820F0EC6042EA01031843954B08332E
:104010001860704702460020924B0833186820F061
:10402000784042EA010318438E4B0833186070470A
:10403000014600208B4A0832106820F00300084334
:104040001060704787480830006800F00C00704727
:1040500001460020834A0832106820F0F00008432F
:1040600010607047014600207E4A0832106820F434
:10407000E05008431060704701460020794A08323A
:10408000106820F4604040EAC10010607047F0B54D
:10409000002100220024022500260223714F083748
:1040A0003F6807F00C0121B1042905D0082937D158
:1040B00005E0724F076036E0714F076033E0694FEB
:1040C0003F1D3F68C7F38056664F3F1D3F6807F0AE
:1040D0003F036EB16A4FB7FBF3F7DFF888C10CF10D
:1040E000040CDCF800C0CCF3881C07FB0CF40CE0DB
:1040F000624FB7FBF3F7DFF86CC10CF1040CDCF88E
:1041000000C0CCF3881C07FB0CF4564F3F1D3F68E2
:10411000C7F301477F1C7D00B4FBF5F7076002E0A1
:10412000564F076000BF00BF4E4F08373F6807F08B
:10413000F0010909534F7A5C0768D7404760494F3F
:1041400008373F6807F4E051890A4E4F7A5C4768A8
:10415000D7408760434F08373F6807F46041490BF9
:10416000484F7A5C4768D740C760F0BD002100F433
:104170004072B2F5407F0AD13A4A0832116821F400
:10418000F811414A02401143364A08321160354A5B
:1041900070321268C0F30B031A43324B70331A604B
:1041A00070473549443908607047334940390860E1
:1041B000704736490860704701460020294A8C3212
:1041C000106820F01F004A1E1043264A8C321060EF
:1041D000704701460020234A8C32106820F4F850C2
:1041E0004A1E40EA02201F4A8C3210607047014686
:1041F00000201C4A8C32106820F4401008431060E4
:10420000704701460020174A8C32106820F44000A5
:1042100008431060704701460020124A8C32106833
:1042200020F4403008431060704719490860704717
:1042300039B10C4A3032126802430A4B30331A60EB
:1042400006E0084A303212688243064B30331A6067
:104250007047F9B1034A343212680243014B3433D8
:104260001A601CE000380240FFFFF6EA103000241C
:104270000030002000004742800E47420024F40036
:1042800000127A00D8000020FFFCFF0F5C014742BB
:10429000E01147428F4A126882438E4B1A60704782
:1042A00039B18C4A121D126802438A4B1B1D1A60D9
:1042B00006E0884A121D12688243864B1B1D1A6055
:1042C000704739B1834A0C3212680243814B0C3378
:1042D0001A6006E07F4A0C32126882437D4B0C3331
:1042E0001A60704739B17B4A103212680243794B29
:1042F00010331A6006E0774A103212688243754B19
:1043000010331A60704739B1724A243A1268024376
:10431000704B243B1A6006E06E4A243A12688243CE
:104320006C4B243B1A60704739B16A4A203A1268D4
:104330000243684B203B1A6006E0664A203A126846
:104340008243644B203B1A60704739B1614A1C3A82
:10435000126802435F4B1C3B1A6006E05D4A1C3A40
:10436000126882435B4B1C3B1A60704739B1594A53
:10437000143A12680243574B143B1A6006E0554A40
:10438000143A12688243534B143B1A60704739B198
:10439000504A103A126802434E4B103B1A6006E036
:1043A0004C4A103A126882434A4B103B1A607047DD
:1043B00039B1484A1C3212680243464B1C331A601A
:1043C00006E0444A1C3212688243424B1C331A6096
:1043D000704739B13F4A2032126802433D4B2033C7
:1043E0001A6006E03B4A203212688243394B203380
:1043F0001A60704739B1374A243212680243354B8C
:1044000024331A6006E0334A243212688243314B67
:1044100024331A60704739B12E4A2C321268024395
:104420002C4B2C331A6006E02A4A2C321268824345
:10443000284B2C331A60704739B1264A3032126843
:104440000243244B30331A6006E0224A30321268AD
:104450008243204B30331A607047012808D11D4930
:104460003C31096841F008011A4A3C32116007E00A
:1044700018493C31096821F00801164A3C321160A4
:10448000704739B1134A273A12780243114B273B40
:104490001A7006E00F4A273A127882430D4B273BE9
:1044A0001A7070470B484030006840F0807009492E
:1044B00040310860704701460020064A283A1268D9
:1044C0000A400AB1012000E0002070470149263966
:1044D000087070473438024010B50446FA488442E8
:1044E00008D101211020FFF752FF00211020FFF713
:1044F0004EFF57E0F548844209D101214804FFF7F7
:1045000035FF00214FF40030FFF730FF4AE0F0485C
:10451000844209D101218804FFF728FF00214FF4CC
:104520008020FFF723FF3DE0EA48844209D10121C2
:10453000C804FFF71BFF00214FF40020FFF716FF10
:1045400030E0E548844209D101210805FFF70EFF5C
:1045500000214FF48010FFF709FF23E0DF48844279
:1045600008D101212020FFF712FF00212020FFF7B2
:104570000EFF17E0DA48844209D101218807FFF7CE
:10458000F5FE00214FF08040FFF7F0FE0AE0D5482D
:10459000844207D101214005FFF7E8FE00216005B4
:1045A000FFF7E4FE10BD2DE9FF4705460E46002447
:1045B000A14600BFA046B08900B100BF2C8A24F4F8
:1045C0004054F08804432C82AC8941F20C6084434F
:1045D000B08831890843718908430443AC81AC8AAF
:1045E00024F44074B0890443AC826846FFF74FFD61
:1045F000B548854202D0B948854202D1DDF80C9019
:1046000001E0DDF80890A88900F4004040B109EB12
:10461000C90000EB091031684900B0FBF1F707E071
:1046200009EBC90000EB091031688900B0FBF1F714
:104630006420B7FBF0F004012009642101FB10782D
:10464000A88900F4004040B1322000EBC800B0FB64
:10465000F1F000F00700044308E0322000EB0810FE
:104660006421B0FBF1F000F00F0004432C81BDE8A1
:10467000FF874FF41651016000218180C1800181C4
:104680000C21418100218181704710B50246002034
:10469000108A20F470600B884C8823438C88234355
:1046A000CC8823431843108210BD00210180418033
:1046B0008180C180704721B1828942F40052828199
:1046C00004E082894DF6FF731A4082817047028BA5
:1046D00002F47F420283028B0A430283704721B1B6
:1046E000828942F40042828103E08289C2F30E0291
:1046F0008281704721B1828A42F40062828204E0A2
:10470000828A4FF2FF731A4082827047C1F3080217
:104710008280704701468888C0F308007047028A8B
:104720004FF6F0731A400282028A0A4302827047EF
:1047300021B1828942F00202828104E082894FF62F
:10474000FD731A408281704782894FF2FF731A40CD
:10475000828182890A4382817047028A4FF6DF7321
:104760001A400282028A0A430282704721B1028AF9
:1047700042F48042028204E0028A4BF6FF731A4040
:1047800002827047818941F001018181704721B126
:10479000828A42F00802828204E0828A4FF6F7732E
:1047A0001A4082827047028BD2B20283028B42EAA5
:1047B00001220283704721B1828A42F02002828264
:1047C00004E0828A4FF6DF731A408282704721B17B
:1047D000828A42F01002828204E0828A4FF6EF73EE
:1047E0001A4082827047828A4FF6FB731A40828297
:1047F000828A0A438282704721B1828A42F0020291
:10480000828204E0828A4FF6FD731A4082827047EA
:104810001AB1838A0B43838202E0838A8B438382AB
:104820007047F0B50346002400260025002040F61E
:104830006A17B94200D100BF1846C1F3421401F013
:104840001F06012707FA06F5012C01D10C3004E000
:10485000022C01D1103000E014301AB107682F4348
:10486000076002E00768AF430760F0BD0246002022
:10487000B1F5007F00D100BF13880B400BB10120C0
:1048800000E00020704701F40072B2F5007F00D113
:1048900000BFCA430280704770B50246002400235F
:1048A0000025002040F66A16B14200D100BFC1F3D6
:1048B000421501F01F03012606FA03F3012D13D15F
:1048C0009689334017E0000000100140004400408A
:1048D00000480040004C00400050004000140140DF
:1048E00000780040007C0040022D02D1168A33403F
:1048F00001E0968A33400C12012606FA04F4168869
:10490000344013B10CB1012000E0002070BD10B59F
:104910000022002340F66A14A14200D100BF0A120F
:1049200001249440A3B2DC43048010BD10B50446BA
:10493000FE48844209D101214806FFF717FD0021F6
:104940004FF00070FFF712FD08E001218806FFF725
:104950000DFD00214FF08060FFF708FD10BD30B560
:10496000024600200023146824F002041460146836
:1049700044F00104146000E05B1C546804F001047E
:104980001CB94FF6FF74A342F6D1546804F0010439
:104990000CB900206CE08C79012C04D1146844F02F
:1049A0008004146003E0146824F080041460CC795F
:1049B000012C04D1146844F04004146003E014682E
:1049C00024F0400414600C7A012C04D1146844F0E3
:1049D0002004146003E0146824F0200414604C7A6E
:1049E000012C04D1146844F01004146003E014682E
:1049F00024F0100414608C7A012C04D1146844F063
:104A00000804146003E0146824F008041460CC7AED
:104A1000012C04D1146844F00404146003E0146809
:104A200024F0040414608C78A407CD7844EA05646B
:104A30000D7944EA05444D7944EA05540D886D1E0C
:104A40002C43D461146824F001041460002300E0B6
:104A50005B1C546804F001041CB14FF6FF74A342C0
:104A6000F6D1546804F001040CB1002000E00120EC
:104A700030BD10B50021837A012202FA03F1AC4A5D
:104A8000126842F00102AA4B1A60A94A1C3212684D
:104A90008A43A74B1C331A60027BCAB9A44A0C3262
:104AA00012688A43A24B0C331A604288C38842EAD8
:104AB00003439F4A4032847A42F834300288838824
:104AC00042EA03439A4A4032847A02EBC4025360BA
:104AD000027B012A19D1964A0C3212680A43944B80
:104AE0000C331A604288038842EA0343904A4032FA
:104AF000847A42F83430C288838842EA03438C4A7D
:104B00004032847A02EBC4025360C27A3AB9884ACE
:104B1000121D12688A43864B1B1D1A6006E0844AE8
:104B2000121D12680A43824B1B1D1A60028932B99A
:104B30007F4A143212688A437D4B14331A6002890B
:104B4000012A06D17A4A143212680A43784B143388
:104B50001A60427B012A06D1754A1C3212680A4348
:104B6000734B1C331A60724A126822F00102704BB8
:104B70001A6010BD00218171C17101724172817290
:104B8000C1728170C1700321017102214171012143
:104B9000018070476649096841F00101644A11606B
:104BA0001146096843F60E729143614A116011463D
:104BB000096841EA002111601146096821F00101EC
:104BC0001160704721B1026842F48032026003E054
:104BD000026822F4803202607047E1B1026842F05C
:104BE000800202604FF4C272125842F480734FF494
:104BF000C27213504FF4CA72125842F480734FF4C9
:104C0000CA7213504FF4D272125842F480734FF4A8
:104C1000D27213501BE0026822F0800202604FF44F
:104C2000C272125822F480734FF4C27213504FF4C0
:104C3000CA72125822F480734FF4CA7213504FF4A0
:104C4000D272125822F480734FF4D272135070470C
:104C500010B502460020936803F08063B3F1806FC3
:104C600000D110E0936803F00063B3F1006F01D14D
:104C7000012008E0936803F08053B3F1805F01D115
:104C8000022000E00420042879D002F5C07303EB71
:104C900000131B6803F0010402F5C07303EB00135B
:104CA0001C600B7A7BB94B7A0C8843EA445302F5BB
:104CB000C07404EB00142468234302F5C07404EBB1
:104CC0000014236010E00B7A4C6843EAC4034C7A6A
:104CD000234302F5C07404EB00142468234302F557
:104CE000C07404EB001423608B7A03F00F038B7203
:104CF00002F5C07303EB00135B6823F00F0402F5A9
:104D0000C07303EB00135C6002F5C07303EB001388
:104D10005B688C7A234302F5C07404EB0014636073
:104D20008B7B1C064B7B44EA034403E00064004099
:104D3000006600400B7B44EA0323CC7A234302F550
:104D4000C07404EB0014A3608B7C1C064B7C44EA0B
:104D500003440B7C44EA0323CC7B234302F5C07459
:104D600004EB0014E36002F5C07303EB00131B684F
:104D700043F0010402F5C07303EB00131C6010BD87
:104D800010B50246002321B1012907D002290FD115
:104D900009E09068F94C00EA04030BE09068F84CD5
:104DA00000EA040306E09068F64C00EA040301E020
:104DB000002300BF00BFF44C181BA34216D007DC31
:104DC00083B16FF08060184470B1022818D111E0EF
:104DD000B0F5007F10D0ED4C204448B1B0F5003F55
:104DE0000ED10BE002230DE000230BE0002309E0CD
:104DF000002307E0012305E0012303E0012301E094
:104E0000002300BF00BFD8B210BD21B1012907D0D7
:104E100002290FD109E0826842F0800282600AE034
:104E2000826842F40042826005E0826842F4000237
:104E3000826000E000BF00BF704710B500F5D87376
:104E400003EB01131B6803F004031372137A53B9C5
:104E500000F5D87303EB01131B6840F2FF7404EAFA
:104E60005353136009E000F5D87303EB01131B687B
:104E70006FF0604404EAD303536000F5D87303EB8A
:104E800001131B6803F00203537200F5D87303EBA0
:104E900001135B6803F00F03937200F5D87303EB03
:104EA00001135B681B0AD37400F5D87303EB01137D
:104EB0009B68D37200F5D87303EB01139B681C0A3F
:104EC000147300F5D87303EB01139B681C0C547327
:104ED00000F5D87303EB01139B681B0E937300F569
:104EE000D87303EB0113DB68D37300F5D87303EBBE
:104EF0000113DB681C0A147400F5D87303EB01136B
:104F0000DB681C0C547400F5D87303EB0113DB68E9
:104F10001B0E937421B9C36843F02003C36003E000
:104F2000036943F02003036110BD21B9C26842F058
:104F30002002C26003E0026942F020020261704771
:104F40000246002019B9D36803F0030006E00129E6
:104F500003D1136903F0030000E00020704710B58F
:104F600002460B4600204FF6FF71BBB9146824F0CF
:104F7000020444F00104146000E0491E546804F087
:104F80000304012C01D00029F7D1546804F0030474
:104F9000012C01D0002032E0012030E0012B13D1A0
:104FA000146824F00304146000E0491E546804F0FF
:104FB00003040CB10029F8D1546804F003040CB1C7
:104FC00000201CE001201AE0022B17D1146824F005
:104FD000010444F00204146000E0491E546804F027
:104FE0000304022C01D00029F7D1546804F0030413
:104FF000022C01D0002002E0012000E0002010BDC2
:10500000014600200A6822F0010242F002020A6012
:105010004A6802F00302022A00D1012070470146CB
:105020004FF6FF7200200B6823F002030B6000E0D4
:10503000521E4B6803F00203022B01D1002AF7D164
:105040004B6803F00203022B00D001207047014699
:1050500000208A6902F070007047014600208A69CA
:10506000100E7047014600208A69C2F3074070475E
:105070001AB143690B43436102E043698B434361C7
:10508000704710B50246002001F4700343B19369E4
:10509000C1F3130423400BB101202DE000202BE0CD
:1050A00001F0807343B15368C1F3130423400BB183
:1050B000012021E000201FE001F0006343B193686C
:1050C000C1F3130423400BB1012015E0002013E0CD
:1050D00001F0007343B1D368C1F3130423400BB153
:1050E000012009E0002007E01369C1F31304234005
:1050F0000BB1012000E0002010BD0022244B99429A
:1051000002D10023836111E0C1F3130201F00073A7
:105110000BB1C2600AE001F080630BB1026105E0EF
:1051200001F000630BB1826000E04260704702460C
:10513000002002EA01030BB1012000E000207047CB
:1051400070B504460D46002660692840002872D0DC
:10515000B5F5807F69D01DDC082D42D006DC012D1D
:105160002DD0022D31D0042D7FD134E0102D3ED032
:10517000202D42D0402D78D145E0000003000004EE
:105180000003000800000310000100080001FFF701
:105190007000F030B5F5004F61D009DCB5F5007F47
:1051A0004AD0B5F5806F4DD0B5F5006F5DD150E0B8
:1051B000B5F5803F2DD0B5F5003F56D12FE0A06862
:1051C0005549FFF7B4FF064651E0E0680321FFF7B9
:1051D000AEFF06464BE0E0680821FFF7A8FF064651
:1051E00045E0E0681021FFF7A2FF06463FE0206996
:1051F0000321FFF79CFF064639E020690821FFF7ED
:1052000096FF064633E020691021FFF790FF06461F
:105210002DE060680821FFF78AFF064627E06068F6
:105220001021FFF784FF064621E0A0690121FFF766
:105230007EFF06461BE01BE0A0690221FFF777FF17
:10524000064614E0A0690421FFF771FF06460EE050
:105250000BE0A0697021FFF76AFF064607E060686F
:105260000421FFF764FF064601E0002600BF00E0CE
:105270000026304670BDB1F5007F3AD00FDC202902
:1052800028D006DC01291CD004291DD0082940D1D2
:105290001DE0402921D0B1F5807F3AD126E0B1F55B
:1052A000004F31D006DCB1F5806F25D0B1F5006F2D
:1052B0002FD124E0B1F5803F12D0B1F5003F28D1C5
:1052C00011E0154A826025E00822C26022E0102227
:1052D000C2601FE0082202611CE01022026119E096
:1052E0000822426016E01022426013E0042242606D
:1052F00010E0042242600DE0042242600AE0002235
:1053000082610422426005E0002282610422426040
:1053100000E000BF00BF70470101010010B5044666
:10532000FE48844208D101210846FFF730F80021E9
:105330000120FFF72CF89DE0B4F1804F08D1012146
:105340000846FFF713F800210120FFF70FF891E05E
:10535000F348844208D101210220FFF707F8002119
:105360000220FFF703F885E0EE48844208D10121CE
:105370000420FEF7FBFF00210420FEF7F7FF79E091
:10538000E948844208D101210820FEF7EFFF0021FF
:105390000820FEF7EBFF6DE0E448844208D10121CC
:1053A0001020FEF7E3FF00211020FEF7DFFF61E091
:1053B000DF48844208D101212020FEF7D7FF0021D9
:1053C0002020FEF7D3FF55E0DA48844208D10121BE
:1053D0000220FEF7DCFF00210220FEF7D8FF49E0A3
:1053E000D548844209D101210804FEF7D0FF0021ED
:1053F0004FF48030FEF7CBFF3CE0D048844209D127
:1054000001214804FEF7C3FF00214FF40030FEF7EE
:10541000BEFF2FE0CA48844209D101218804FEF76B
:10542000B6FF00214FF48020FEF7B1FF22E0C5480F
:10543000844208D101214020FEF798FF002140203E
:10544000FEF794FF16E0C048844208D10121802075
:10545000FEF78CFF00218020FEF788FF0AE0BB48A2
:10546000844207D101218015FEF780FF0021A0159D
:10547000FEF77CFF10BD00220288A84B98420ED098
:10548000AC4B98420BD0B0F1804F08D0A44B98425F
:1054900005D0A44B984202D0A34B984204D14FF6BA
:1054A0008F731A404B881A43A04B984207D0A04BE9
:1054B000984204D04FF6FF431A400B891A430280EA
:1054C0004B68C3620B880385944B984202D0994B7A
:1054D000984201D18B7A03860123838270474FF073
:1054E000FF3141600021018001814180817270475C
:1054F0000185828270470A46002101884FF68F732A
:10550000194011430180704741627047C162704782
:105510000146486A70470146088D704721B10288EC
:1055200042F00202028004E002884FF6FD731A4046
:105530000280704721B1028842F00402028004E038
:1055400002884FF6FB731A400280704721B102882F
:1055500042F08002028004E002884FF67F731A4016
:105560000280704702884FF6F7731A400280028863
:105570000A430280704702884FF6FF431A400280B8
:1055800002880A430280704721B1028842F001027A
:10559000028004E002884FF6FE731A4002807047D2
:1055A00070B5002400220023058C4FF6FE763540AE
:1055B0000584028C8388048B4FF68F752C40B51EB2
:1055C0002C400D882C43751E2A408D892A434D8816
:1055D0002A43524DA84202D0564DA84213D14FF64D
:1055E000F7752A40CD892A434FF6FB752A408D88EE
:1055F0002A434FF6FF652B404FF6FF552B400D8A8F
:105600002B434D8A2B43838004838D68456302843A
:1056100070BD70B5002400220023058C4FF6EF7694
:1056200035400584028C8388048B48F6FF752C4036
:105630004FF6FF452C400D884FF6FF7606EA05250C
:105640002C434FF6DF752A408D8906EA05152A435B
:105650004D8806EA05152A43304DA84202D0354D43
:10566000A8421DD14FF67F752A40CD894FF6FF76AF
:1056700006EA05152A434FF6BF752A408D8806EACB
:1056800005152A434FF6FF352B404FF2FF752B408F
:105690000D8A06EA85052B434D8A06EA85052B43CC
:1056A000838004838D688563028470BD70B5002497
:1056B00000220023058C4FF6FF6635400584028CDE
:1056C0008388848B4FF68F752C404FF6FC752C40E9
:1056D0000D882C434FF6FF552A408D894FF6FF76F3
:1056E00006EA05252A434D8806EA05252A430B4D7F
:1056F000A84202D00F4DA84238D14FF2FF752A4080
:10570000CD894FF6FF7606EA05252A434FF6FF3589
:105710002A408D8806EA05252A4319E00000014049
:105720000004004000080040000C00400010004051
:1057300000140040000401400040014000440140CA
:105740000048014000180040001C004000200040BC
:105750004EF6FF752B404DF6FF752B400D8A06EA7D
:1057600005152B434D8A06EA05152B438380848358
:105770008D68C563028470BD70B5002200230024CB
:10578000058C4EF6FF7635400584038C8488828B29
:1057900048F6FF752A404FF6FF452A400D884FF620
:1057A000FF7606EA05252A434DF6FF752B408D89C5
:1057B00006EA05352B434D8806EA05352B43FE4D99
:1057C000A84202D0FD4DA84208D14BF6FF752C40EF
:1057D0000D8A4FF6FF7606EA85152C438480828376
:1057E0008D680564038470BD002101804180818043
:1057F00081608181C18101824182704770B5034619
:10580000002000241846183001258D40ACB21D8CB4
:10581000A5431D8409B108290AD100EB6100056880
:105820004FF68F76354005600568154305600FE03B
:105830000D1FC5F34E052844056848F6FF76354030
:10584000056005684FF6FF7606EA022635430560D7
:1058500070BD4163704781637047C16370470164E5
:1058600070470A460021018B4FF68F731940114390
:10587000018370470A460021018B48F6FF731940E7
:105880004FF6FF7303EA02231943018370470A4668
:105890000021818B4FF68F7319401143818370472C
:1058A0000A460021818B48F6FF7319404FF6FF73BB
:1058B00003EA02231943818370470A460021018BC2
:1058C0004FF6F77319401143018370470A460021D0
:1058D000018B4FF2FF7319404FF6FF7303EA022367
:1058E0001943018370470A460021818B4FF6F773F5
:1058F00019401143818370470A460021818B4FF282
:10590000FF7319404FF6FF7303EA022319438183A3
:1059100070470A460021018B4FF6FB731940114373
:10592000018370470A460021018B4FF6FF3319406F
:105930004FF6FF7303EA02231943018370470A46B7
:105940000021818B4FF6FB7319401143818370470F
:105950000A460021818B4FF6FF3319404FF6FF7343
:1059600003EA02231943818370470A460021018B11
:105970004FF67F7319401143018370470A46002197
:10598000018BC1F30E014FF6FF7303EA02231943A3
:10599000018370470A460021818B4FF67F731940BF
:1059A0001143818370470A460021818BC1F30E01A8
:1059B0004FF6FF7303EA02231943818370470A46B7
:1059C0000021018C4FF6FD7319401143018470478B
:1059D0000A460021018C4FF6F773194011430184E8
:1059E00070470A460021018C4FF6DF7319404FF6CD
:1059F000FF7303EA02131943018470470A4600212A
:105A0000018C4FF67F7319404FF6FF7303EA0213C0
:105A10001943018470470A460021018C4FF6FF5359
:105A200019404FF6FF7303EA0223194301847047BC
:105A30000A460021018C4FF2FF7319404FF6FF73A5
:105A400003EA02231943018470470A460021018CAE
:105A50004DF6FF7319404FF6FF7303EA0233194303
:105A60000184704730B5002301248C40A3B2048C1C
:105A70009C430484048C02FA01F5ADB22C430484E7
:105A800030BD30B5002304248C40A3B2048C9C4369
:105A90000484048C02FA01F5ADB22C43048430BDB9
:105AA000828B4FF2FF331A408283828B4FF6FF7353
:105AB00003EA01231A4382837047F0B50C4615466A
:105AC000002100220026078C4EF6FF7C07EA0C0717
:105AD0000784818B028C4FF6FF7707EA043640F685
