:020000040800F2
:10000000280A0020B9390008CD0B0008CF0B0008E2
:10001000D30B0008D70B0008DB0B00080000000022
:10002000000000000000000000000000DF0B0008DE
:10003000E10B000800000000E30B0008E50B0008DE
:10004000D3390008D3390008D3390008D339000860
:10005000D3390008D3390008D3390008D339000850
:10006000D3390008D3390008D3390008D339000840
:10007000D3390008D3390008D3390008D339000830
:10008000D3390008D3390008D3390008ED1500082A
:1000900003160008D3390008D3390008D339000803
:1000A000D3390008D3390008D3390008D339000800
:1000B000D3390008D3390008892A0008D339000849
:1000C000D3390008D3390008D3390008D3390008E0
:1000D000D3390008F92B0008D33900081329000888
:1000E000D3390008D3390008D3390008D3390008C0
:1000F000D3390008D3390008D3390008D3390008B0
:10010000D3390008D3390008D3390008D33900089F
:10011000B9340008D33900080B270008D339000888
:10012000D3390008D3390008D3390008D33900087F
:10013000D3390008D3390008D3390008D33900086F
:10014000D3390008712E0008D3390008D3390008CC
:10015000D3390008D3390008D3390008D33900084F
:10016000D3390008D3390008D3390008D33900083F
:10017000D3390008D3390008D3390008D33900082F
:10018000D3390008D339000800F002F800F03CF839
:100190000AA090E8000C82448344AAF10107DA45E2
:1001A00001D100F031F8AFF2090EBAE80F0013F0F8
:1001B000010F18BFFB1A43F0010318478C8A000097
:1001C000AC8A0000103A24BF78C878C1FAD8520728
:1001D00024BF30C830C144BF04680C6070470000C1
:1001E0000023002400250026103A28BF78C1FBD840
:1001F000520728BF30C148BF0B6070471FB508F0D9
:100200007AFB1FBD10B510BD05F0C0FE1146FFF70B
:10021000F5FF00F0BCF905F0DEFE03B4FFF7F2FFD6
:1002200003BC05F0DFFE0000B0EE401AB4EEE01AA9
:10023000F1EE10FA02DDB0EE600A7047B1EE600A2E
:10024000B4EEC01AF1EE10FA02D2B1EE600AF4E791
:10025000B0EE410AF1E700B5FE480068052829D153
:100260000320FD494874FD48FD4B0ECB18300EC0ED
:100270002438D0ED060AB0EE600ADFEDFA0AFFF787
:10028000D3FFF64880ED060AD0ED070AB0EE600A0B
:10029000DFEDF40AFFF7C8FFF04880ED070AD0ED64
:1002A000080AB0EE600AF7EE000AFFF7BDFFEB4860
:1002B00080ED080A00BD10B59FEDEB0AE74880ED20
:1002C0000F0A9FEDE90A80ED100A9FEDE70A80ED25
:1002D000110A9FEDE50A80ED120A9FEDE30A80ED19
:1002E000130A9FEDE10A80ED140A9FEDDF0A80ED0D
:1002F000150A9FEDDD0A80ED160A9FEDDB0A80ED01
:10030000170A0121084600F0D7FF4FF4967002F05B
:1003100043FB0121032000F0CFFF4FF4967002F061
:100320003BFB0121022000F0C7FF4FF4967002F062
:1003300033FB02F0EAFCCD4890ED000ACC4880ED9A
:10034000000ACC4890ED000ACB4880ED000A10BDB1
:1003500000B5C0480068012829D10220BE49487470
:10036000BE48BF4B0ECB0C300EC01838D0ED030A80
:10037000B0EE600ADFEDBB0AFFF756FFB74880ED2D
:10038000030AD0ED040AB0EE600ADFEDB60AFFF70B
:100390004BFFB24880ED040AD0ED050AB0EE600ACA
:1003A000F7EE000AFFF740FFAC4880ED050A00BDFC
:1003B00030B587B04021B14804F0D0F900287DD095
:1003C000A4480068012806D1A3494870FFF7C0FF80
:1003D0000020A04908609F48006802282FD1FF2014
:1003E00002F079FAFF2002F076FA012002F073FAA7
:1003F000002002F070FA0D2002F06DFA022002F0E7
:100400006AFA1025954A07CA04AB07C3002408E01E
:1004100004A9085D02F05FFA04A8005D284485B2D3
:10042000641C0C2CF4DBFF2095FBF0F100FB115059
:1004300085B2E8B202F04FFA00208649086085488C
:10044000006803281CD1FFF736FFFF2002F043FAB3
:10045000FF2002F040FA012002F03DFA002002F0F5
:100460003AFA022002F037FA032002F034FA0020B0
:1004700002F031FA062002F02EFA002075490860D9
:1004800074480068042831D1FF2002F024FAFF20CC
:1004900002F021FA012002F01EFA002002F01BFAFD
:1004A0000D2002F018FA042002F015FA12256B4A0A
:1004B0003C3207CA01AB07C3002409E022E001A9CE
:1004C000085D02F008FA01A8005D284485B2641CAA
:1004D0000C2CF4DBFF2095FBF0F100FB115085B2F2
:1004E000E8B202F0F8F900205A490860594800685B
:1004F000052807D1012058494870FFF7ACFE0020BD
:100500005449086000BF40215C4804F027F90028E6
:10051000F9D007B030BD10B5024600201378062B85
:1005200018D2DFE803F01703070B0F130123494C20
:10053000236010E00223474C23600CE00323454C6A
:10054000236008E00423434C236004E00523414C6E
:10055000236000E000BF00BF3E4B1B68012B08D1A9
:10056000002004E0431CD35C3D4C2354401C0C2869
:10057000F8DB384B1B68052B08D1002004E0431C36
:10058000D35C374C2354401C0C28F8DB10BDDCB086
:100590000027642143A805F0BCFCB84600202E4982
:1005A000C87002F025F902F0EFF8354800F018FDA8
:1005B0000220294948740120C87002E330480078BD
:1005C0008DF880002E4840788DF881002C48807886
:1005D0008DF882002A48C0788DF883002848007979
:1005E0008DF88400264840798DF88500244880796C
:1005F0008DF886002248C0798DF887002048007A5F
:100600008DF888001E48407A8DF889001C48807A51
:100610008DF88A001A48C07A8DF88B001848007B44
:100620008DF88C001648407B8DF88D001448807B37
:100630008DF88E001248C07B8DF88F001048007C2A
:100640008DF890000E48407C8DF891000C48807C1D
:1006500018E000000000002054020020DC0100200F
:1006600078010020CDCC8C3F000000005400002019
:100670001C000020940000202400002000480040BE
:10068000EC0000208DF89200FE48C07C8DF89300AD
:10069000FC48007D8DF89400FA48407D8DF8950067
:1006A000F848807D8DF89600F648C07D8DF897005B
:1006B000F448007E8DF89800F248407E8DF899004D
:1006C000F048807E8DF89A00EE48C07E8DF89B0041
:1006D000EC48007F8DF89C00EA48407F8DF89D0033
:1006E000E848807F8DF89E00E648C07F8DF89F0027
:1006F000E44890F820008DF8A000E24890F821002E
:100700008DF8A100DF4890F822008DF8A200DD48A6
:1007100090F823008DF8A300DA4890F824008DF8B3
:10072000A400D84890F825008DF8A500D54890F889
:1007300026008DF8A600D34890F827008DF8A70072
:10074000D04890F828008DF8A800CE4890F82900ED
:100750008DF8A900CB4890F82A008DF8AA00C94866
:1007600090F82B008DF8AB00C64890F82C008DF85F
:10077000AC00C44890F82D008DF8AD00C14890F849
:100780002E008DF8AE00BF4890F82F008DF8AF0016
:10079000BC4890F830008DF8B000BA4890F83100AD
:1007A0008DF8B100B74890F832008DF8B200B54826
:1007B00090F833008DF8B300B24890F834008DF80B
:1007C000B400B04890F835008DF8B500AD4890F809
:1007D00036008DF8B600AB4890F837008DF8B700BA
:1007E000A84890F838008DF8B800A64890F839006D
:1007F0008DF8B900A34890F83A008DF8BA00A148E6
:1008000090F83B008DF8BB009E4890F83C008DF8B6
:10081000BC009C4890F83D008DF8BD00994890F8C8
:100820003E008DF8BE00974890F83F008DF8BF005D
:10083000944890F840008DF8C000924890F841002C
:100840008DF8C1008F4890F842008DF8C2008D48A5
:1008500090F843008DF8C3008A4890F844008DF862
:10086000C400884890F845008DF8C500854890F888
:1008700046008DF8C600834890F847008DF8C70001
:10088000804890F848008DF8C8007E4890F84900EC
:100890008DF8C9007B4890F84A008DF8CA00794865
:1008A00090F84B008DF8CB00764890F84C008DF80E
:1008B000CC00744890F84D008DF8CD00714890F848
:1008C0004E008DF8CE006F4890F84F008DF8CF00A5
:1008D0006C4890F850008DF8D0006A4890F85100AC
:1008E0008DF8D100674890F852008DF8D200654825
:1008F00090F853008DF8D300624890F854008DF8BA
:10090000D400604890F855008DF8D5005D4890F807
:1009100056008DF8D6005B4890F857008DF8D70048
:10092000584890F858008DF8D800564890F859006B
:100930008DF8D900534890F85A008DF8DA005148E4
:1009400090F85B008DF8DB004E4890F85C008DF865
:10095000DC004C4890F85D008DF8DD00494890F8C7
:100960005E008DF8DE00474890F85F008DF8DF00EC
:10097000444890F860008DF8E000424890F861002B
:100980008DF8E1003F4890F862008DF8E2003D48A4
:1009900090F863008DF8E3003A4890F864008DF811
:1009A000E400384890F865008DF8E500354890F887
:1009B00066008DF8E600334890F867008DF8E70090
:1009C000304890F868008DF8E8002E4890F86900EB
:1009D0008DF8E9002B4890F86A008DF8EA00294864
:1009E00090F86B008DF8EB00264890F86C008DF8BD
:1009F000EC00244890F86D008DF8ED00214890F847
:100A00006E008DF8EE001F4890F86F008DF8EF0033
:100A10001C4890F870008DF8F0001A4890F87100AA
:100A20008DF8F100174890F872008DF8F200154823
:100A300090F873008DF8F300124890F874008DF868
:100A4000F400104890F875008DF8F5000D4890F806
:100A500076008DF8F6000B4890F877008DF8F700D7
:100A6000084890F878008DF8F800064890F879006A
:100A70008DF8F900034890F87A008DF8FA000148E3
:100A800002E00000EC00002090F87B008DF8FB00F5
:100A90004C4890F87C008DF8FC004A4890F87D00A6
:100AA0008DF8FD00474890F87E008DF8FE0045481F
:100AB00090F87F008DF8FF00424890F880008DF894
:100AC00000014048D0F8840041903E48D0F88800AA
:100AD0007C2224A94290684605F0E9F920A80FC8B5
:100AE00000F0A4FA00B16CE0364800F080FA044649
:100AF000B8F1080F60D2DFE808F0040D5F15222B73
:100B00003644FF2C05D14FF0010800202E49088003
:100B1000002754E0FF2C02D14FF0030801E04FF012
:100B200000084CE0012C07D12748008820442649C2
:100B300008804FF0040801E04FF000083FE0224831
:100B4000008820442049088025464FF0050836E0FB
:100B50001D48008820441C49088044EA052006B24C
:100B60004FF006082BE018480088204416490880FA
:100B700038467F1C43A90C54B74201DB4FF00708ED
:100B80001DE011480088FF2190FBF1F201FB1200EB
:100B90000D4908800846008884420AD1314643A89E
:100BA000FFF7B9FCFFF704FC0020074908808046E6
:100BB00001E04FF0000802E04FF0000800BF00BF66
:100BC00000BFFBE4EC00002004000020704700BFE1
:100BD000FEE700BFFEE700BFFEE700BFFEE770478D
:100BE00070477047704700000CB5002001900090DE
:100BF0007648006840F480307449086000BF73484C
:100C0000006800F4003000900198401C01900098AA
:100C100018B90198B0F5A04FF1D16C48006800F404
:100C2000003010B10120009001E0002000900098F9
:100C3000012846D165484030006840F08050634943
:100C4000403108606248006840F4404060490860F4
:100C50005E48083000685D49083108600846006851
:100C600040F4004008600846006840F4A050086066
:100C70005848091F0860081F006840F08070091F6D
:100C8000086000BF5148006800F000700028F9D0EB
:100C900040F20570504908604C480830006820F068
:100CA00003004A49083108600846006840F0020025
:100CB000086000BF45480830006800F00C000828B4
:100CC000F8D10CBD10B54548006840F470004349A8
:100CD00008603E48006840F001003C490860002080
:100CE0003A4908310860394800683D4908403749A9
:100CF00008603C48091D0860081F006820F4802037
:100D0000091F0860002031490C310860FFF76CFFB3
:100D10004FF0006031498039086010BD70B5002087
:100D20000022022300240221284D08352D6805F0F9
:100D30000C0020B1042806D0082834D107E02A4D41
:100D40002A4E356033E02A4D284E35602FE01F4D86
:100D50002D1D2D68C5F380541C4D2D1D2D6805F0EB
:100D60003F0154B1224DB5FBF1F5184E361D3668E2
:100D7000C6F3881605FB06F209E01B4DB5FBF1F53D
:100D8000124E361D3668C6F3881605FB06F20F4D67
:100D90002D1D2D68C5F301456D1C6B00B2FBF3F5ED
:100DA000124E356003E0104D104E356000BF00BF9D
:100DB000064D08352D68C5F303150E4E705D0B4DBD
:100DC0002D68C540094E356070BD000000380240F6
:100DD0000070004008544007003C024088ED00E0ED
:100DE000FFFFF6FE103000240024F400080000206D
:100DF00000127A000C0000202DE9F0418AB0044670
:100E00000D4616461F46DDF840800121084603F0D6
:100E100087F90121480603F0CCF94FF4C05008903F
:100E200002208DF8240000208DF8260003208DF884
:100E3000250001208DF8270008A9584802F0D2FEAD
:100E400009220B21554802F058FF09220C21534872
:100E500002F053FF00208DF81A008DF81B008DF86A
:100E60001C008DF81D008DF81E008DF81F008DF8F8
:100E700016808DF817408DF818608DF81950ADF870
:100E8000147005A9464803F0E2FC00208DF80E001E
:100E90008DF80F0001208DF810000020ADF804003F
:100EA000ADF80600ADF80800ADF80A00ADF80C008A
:100EB00001208DF8110001A803F053FD0122022149
:100EC000374804F04DF814208DF8000001208DF80B
:100ED000010000208DF8020001208DF80300684613
:100EE00002F08FFD00200AB0BDE8F081F0B585B0BA
:100EF00007460D46002432200090019000208DF816
:100F000008008DF809008DF80A5000BF05E0395D32
:100F10000DF10B000155601C84B2AC42F7DB694651
:100F20001F4803F00DFE0646002406E0601C84B254
:100F300069461B4803F004FE06463146184803F094
:100F400097FE18B940F6FF708442EFDB40F6FF7061
:100F5000844202DB012005B0F0BD0020FBE730B584
:100F600085B0054600210E4803F062FF10B900204D
:100F700005B030BD6A460021094803F0D6FE0024C2
:100F800004E00DF10B00005D2855641C9DF80A007B
:100F9000A042F6D89DF80A00EAE7000000000240EF
:100FA000006400401CB50121022003F0B9F80120C3
:100FB00000908DF8040000208DF8060003208DF8C5
:100FC000050001208DF807006946044802F00AFE7A
:100FD0000121024802F082FE1CBD00000004024014
:100FE00010B504468C21204604F093FF10BD10B5C7
:100FF0000146D1F88420885CD1F88420521C8123DA
:1010000092FBF3F403FB1422C1F8842010BD10B549
:10101000D0F888208154D0F88820521C812392FB7C
:10102000F3F403FB1422C0F8882010BD0FB42198FC
:101030002299884202D1012004B070470020FBE7CA
:101040000FB42298401C812190FBF1F201FB1200A9
:101050002199884202D1012004B070470020FBE7AB
:101060003EB50023009301930293002209E000F0B3
:101070000F051346521C0DF803500011082A00D129
:1010800001E00028F3D100BF9DF800309DF8014039
:1010900043EA04130B709DF802309DF8034043EAC5
:1010A00004134B709DF804309DF8054043EA041387
:1010B0008B709DF806309DF8074043EA0413CB700F
:1010C0003EBD70B52DED028B86B0B0EE408A054670
:1010D000002400200590009501958DF809008DF8F9
:1010E000080008208DF80A008DF80B008DF80C50D0
:1010F00090218DF80D1000218DF80E1005A9BDEE80
:10110000C80A10EE100AFFF7ABFF9DF814108DF817
:101110000F109DF815108DF810109DF816108DF811
:1011200011109DF817108DF8121000BF00BF69460E
:10113000FD4803F005FD0646601C84B2042E03D171
:1011400040F6FF708442F2DB002401E0601C84B2B0
:101150003146F54803F08CFD18B940F6FF70844223
:10116000F4DB40F6FF70844204DB012006B0BDECE6
:10117000028B70BD0020F9E710B5EC48007808B983
:10118000012000E00020E9490870E9480078401C8F
:10119000E7490870E748407C68B99FEDE70AE748EF
:1011A00080ED0C0A9FEDE40A80ED0D0A9FEDE20A46
:1011B00080ED0E0A3AE0DF48407C01280FD1DF487D
:1011C000D0ED081AB0EE611AD0ED071AF0EE610A00
:1011D000D0ED061AB0EE610A00F050FB26E0D548CB
:1011E000407C02280FD1D548D0ED051AB0EE611A27
:1011F000D0ED041AF0EE610AD0ED031AB0EE610AE8
:1012000000F0E6FA12E0CB48407C03280ED1CB4830
:10121000D0ED081AB0EE611AD0ED071AF0EE610AAF
:10122000D0ED061AB0EE610A00F028FBC148407C00
:10123000012807D0BF48407C022803D0BD48407C2D
:10124000032820D1B9480078A0B1BC48D0ED0E0ADF
:10125000B0EE600A3020FFF734FF4FF4C87001F0A1
:101260009BFBB648D0ED0D0AB0EE600A3220FFF7C6
:1012700028FF20E0B148D0ED0C0AB0EE600A36201D
:10128000FFF71FFF17E036209FEDAB0AFFF719FFAE
:10129000C82001F081FB30209FEDA70AFFF711FF66
:1012A000C82001F079FB32209FEDA30AFFF709FF68
:1012B000C82001F071FB10BDF0B585B004460F46A3
:1012C00000250094019400208DF809008DF8080095
:1012D00003208DF80A008DF80B008DF80C408DF876
:1012E0000D7000BF00BF69468F4803F029FC064619
:1012F000681C85B2042E03D140F6FF708542F2DBF4
:1013000001E0681C85B23146874803F0B1FC18B98A
:1013100040F6FF708542F4DB05B0F0BD10B588489B
:10132000007848BB01208649087001210846FFF774
:10133000C3FF4FF4967001F02FFB01210320FFF74C
:10134000BBFF4FF4967001F027FB01210220FFF74D
:10135000B3FF4FF4967001F01FFB01F0D6FC794803
:1013600090ED000A784880ED000A784890ED000A78
:10137000774880ED000A38E100210120FFF79CFF4B
:101380004FF4967001F008FB6C4890ED120ADFED07
:10139000710A80EE201AB0EE000A21EE000ADFED9D
:1013A0006E0A60EE200A90ED150A9FED6C1A10EEA1
:1013B000810A6B4880ED000A604890ED150A684884
:1013C000D0ED000A30EE200A5C4880ED150AD0ED21
:1013D000140A9FED601A80EE810AF0EE000A20EEFA
:1013E000200ADFED5D0A60EE200A90ED170A9FEDFE
:1013F0005B1A10EE810A5A4880ED020A4F4890EDC0
:10140000170A5748D0ED020A30EE200A4B4880ED0B
:10141000170A90ED130ADFED4F0A80EE201AB0EEA6
:10142000000A21EE000ADFED4C0A60EE200A90ED82
:10143000160A9FED4A1A10EE810A494880ED010A0A
:101440003E4890ED160A4648D0ED010A30EE200ADB
:101450003A4880ED160AC82001F09EFA404890ED07
:10146000000A404880ED000A3D4890ED010ADFED9A
:101470003E0A20EE200A3B4880ED010A384890EDF4
:10148000020ADFED390A20EE200A364880ED020A12
:101490002A48D0ED110AB0EE600A3449314800F014
:1014A00014FF324890ED000ADFED310AB4EEE00A95
:1014B000F1EE10FA0CD290ED000ADFED2E0AB4EE38
:1014C000E00AF1EE10FA03DD9FED1B0A80ED000A41
:1014D000264890ED010ADFED260AB4EEE00AF1EEAF
:1014E00010FA0CD290ED010ADFED220AB4EEE00A08
:1014F000F1EE10FA03DD9FED100A80ED010A1B48A2
:1015000090ED020ADFED1A0AB4EEE00AF1EE10FAED
:1015100036D290ED020ADFED170AB4EEE00AF1EEE2
:1015200010FA2DDD28E000000064004029000020B2
:10153000280000205402002000000000DC010020F0
:101540002A000020540000201C00002094000020ED
:10155000240000200000B443560E494060E5503D91
:101560006C02002078020020713D6A3F8402002056
:10157000BD378635BD3786B51FED110A80ED020AED
:10158000604890ED0F0A6048D0ED000A30EE600A26
:101590005C4880ED0F0A90ED100A5B48D0ED010A1F
:1015A00030EE600A574880ED100A584890ED000A66
:1015B0005748D0ED000A30EE600AB1EE400A5548B7
:1015C00080ED000A544890ED000A5448D0ED000A1E
:1015D00030EE600ADFED520A80EE201A1FED220A7B
:1015E00021EE000A474880ED110A10BD10B5012117
:1015F0004C4803F01DFD18B101214A4803F0B3FD2A
:1016000010BD10B586B00221464803F011FD002838
:1016100076D001AA0021434803F087FB0298B0F579
:10162000887F16D19DF80E00082812D19DF80F0072
:1016300002280ED1002407E00DF10F00A11C405C30
:1016400039490855601CC4B2062CF5DB0120374926
:1016500008700298B0F5047F17D19DF80E00082895
:1016600013D19DF80F0002280FD1002408E00DF1DE
:101670000F00A11C415C2C4AA01D1154601CC4B277
:10168000062CF4DB0120294948700298B0F5447F0C
:1016900017D19DF80E00062813D19DF80F000228DF
:1016A0000FD1002407E00DF10F00A11C405C1E4982
:1016B0000855601CC4B2042CF5DB12481A490968AD
:1016C00001651A480078012811D11848407801288E
:1016D0000DD100201549087048700A481249096860
:1016E000816411494968C1640F4989680165022113
:1016F0000C4803F038FD00210A4803F08EFB00BFC0
:1017000006B010BDDC01002084020020540000203F
:101710001C00002020000020940000202400002055
:101720000000344300640040900200202B000020A1
:1017300010B52DED048BB0EE409AB0EE608AF0EE5D
:10174000418AB1EE490AF84880ED000AB1EE480A34
:1017500080ED010AC0ED028AF44900F009FAF3486D
:1017600090ED000ADFEDF20A80EE201A9FEDF10AFB
:1017700021EE000AF1EE080A80EE201AEE4880ED14
:101780000C1AEA4890ED010ADFEDE90A80EE201A12
:101790009FEDE80A21EE000AF1EE080A80EE201A19
:1017A000E54880ED0D1AE14890ED020ADFEDE00A10
:1017B00080EE201A9FEDDF0A21EE000AF1EE080A02
:1017C00080EE201ADC4880ED0E1ABDEC048B10BDB3
:1017D00010B52DED048BB0EE408AF0EE608AB0EECD
:1017E000419AB1EE480AD54880ED000AB1EE680A88
:1017F00080ED010A80ED029ACF48D0ED110AB0EEDB
:10180000600ACF49CD4800F00EFCCD4890ED000AAB
:10181000DFEDC70A80EE201A9FEDC60A21EE000A0E
:10182000F1EE080A80EE201AC34880ED0C1AC44875
:1018300090ED010ADFEDBE0A80EE201A9FEDBD0A91
:1018400021EE000AF1EE080A80EE201ABA4880ED77
:101850000D1ABB4890ED020A9FEDB51AC0EE010AC1
:101860009FEDB40A20EE800AF1EE080A80EE201AFD
:10187000B14880ED0E1ABDEC048B10BD10B52DEDF6
:10188000048BB0EE409AB0EE608AF0EE418AB1EE81
:10189000490AAC4880ED000AB1EE480A80ED010A21
:1018A000C0ED028AA84900F063F9A74890ED000A4C
:1018B000DFED9F0A80EE201A9FED9E0A21EE000ABE
:1018C000F1EE080A80EE201A9B4880ED0C1A9E4823
:1018D00090ED010ADFED960A80EE201A9FED950A41
:1018E00021EE000AF1EE080A80EE201A924880EDFF
:1018F0000D1A954890ED020ADFED8D0A80EE201A50
:101900009FED8C0A21EE000AF1EE080A80EE201A03
:10191000894880ED0E1ABDEC048B10BD10B52DED7D
:10192000048BB0EE408AF0EE608A88EE280AB0EEB2
:10193000409AB0EE491ADFED850AB0EE480AFFF78B
:101940009DFFBDEC048B10BD10B52DED068BF0EEA8
:10195000409AB0EE60AAB0EE418AF0EE618AF0EEF5
:1019600042AA88EE280AB0EE409AB0EE491ADFED9E
:10197000770AB0EE480AFFF781FFBDEC068B10BD79
:1019800010B52DED108B84B0B0EE40FAB0EE608A49
:10199000F0EE418AF0EE61FA674890ED0F0ADFED54
:1019A0006C0A20EE200AC0EE080A10EE904A20468B
:1019B00006F030FF41EC1C0BB0EE4C0AF0EE6C0A66
:1019C00004F096FDB0EE40AAF0EE60AAB0EE000A78
:1019D0002FEE000ADFED5F0A20EE200AC0EE080AB3
:1019E00010EE904A204606F015FF41EC1B0B53EC1D
:1019F0001A2B06F019FC41EC190B06F039F956497F
:101A000008600846006806F005FF9FED541BCDE90D
:101A100002019DED020B04F0CFFDB0EE40EAF0EEC6
:101A200060EA9FED500B53EC102B51EC1E0B06F0AF
:101A300051F941EC1D0BB0EE4D0AF0EE6D0A05F0C8
:101A40003BFCB0EE40CAF0EE60CA53EC1C2B9FED9D
:101A5000450B51EC100B06F0F9F941EC1A0B18EE9E
:101A6000900A06F0D7FE41EC1B0B53EC1A2B06F044
:101A7000DBFB41EC190B06F0FBF82F49C860364838
:101A8000006806F0C7FE9FED351BCDE900019DED16
:101A9000000B04F091FD8DED020B9FED320B53EC2A
:101AA000102B9DED020B51EC100B06F013F941ECDD
:101AB0001D0BB0EE4D0AF0EE6D0A05F0FDFBB0EE29
:101AC00040EAF0EE60EA2448006806F0A3FE41EC2C
:101AD0001C0B53EC1E2B06F0B9F941EC1A0B18EE57
:101AE000900A06F097FE41EC1B0B53EC1A2B06F004
:101AF0009BFB41EC190B06F0BBF80F490861084647
:101B0000C0ED05FAD0ED051AB0EE611AD0ED041A59
:101B1000F0EE610AD0ED031AB0EE610AFFF758FE4D
:101B200004B0BDEC108B10BD9C020020A802002068
:101B300060E5503D9C306542DC010020B40200208D
:101B4000C0020020CC020020D802002000000000CB
:101B5000560EC940560E49403000002000000000DB
:101B600000000040000000000000F03F704700004F
:101B700090ED000ADFEDFE0A20EE200AD0ED010A0A
:101B8000B7EE001A01EE200AD0ED020A9FEDF91A15
:101B900001EE200A81ED000A90ED000ADFEDF60A61
:101BA00020EE200AD0ED010AB6EE001A01EE600A1E
:101BB000D0ED020A9FEDEF1A01EE200A81ED010A35
:101BC00090ED000ADFEDED0A20EE200AD0ED010ACB
:101BD000B6EE001A01EE600AD0ED020A9FEDE51A9A
:101BE00001EE200A81ED020A704790ED000ADFED58
:101BF000E00A20EE200AD0ED010A9FEDE11A01EE85
:101C0000200AD0ED020A9FEDDF1A01EE200A81EDD5
:101C1000000A90ED000ADFEDDC0A20EE200AD0ED8C
:101C2000010A9FEDDA1A01EE600AD0ED020A9FED7B
:101C3000D81A01EE200A81ED010A90ED000AD0EDDC
:101C4000010A30EE200AD0ED020A30EE200ADFED64
:101C5000D10A20EE200A81ED020A704730B52DED41
:101C6000108B85B005460C46B0EE408A94ED020A12
:101C7000DFEDBF0A20EE200A10EE101A084606F02B
:101C8000C9FD41EC1A0B94ED010A10EE101A08463A
:101C900006F0C0FD41EC1D0B18EE100A06F0BAFD6F
:101CA00041EC1F0BB0EE4F0AF0EE6F0A05F0A0FA00
:101CB000B0EE40EAF0EE60EA53EC1D2B51EC1E0B47
:101CC00006F0B2FA41EC1C0B94ED000A10EE101A6B
:101CD000084606F09FFD41EC1D0B18EE100A06F0B9
:101CE00099FD41EC1F0BB0EE4F0AF0EE6F0A04F0C5
:101CF000FFFBB0EE40EAF0EE60EA53EC1D2B51EC36
:101D00001E0B06F091FA53EC1C2BCDE902019DED60
:101D1000020B51EC100B05F0DDFF41EC1B0B53ECFB
:101D20001A2B05F0D7FF41EC190B05F0A1FF286035
:101D300094ED020ADFED8E0A20EE200A10EE101A52
:101D4000084606F067FD41EC190B94ED010A10EE10
:101D5000101A084606F05EFD41EC1C0B18EE100A46
:101D600006F058FD41EC1E0BB0EE4E0AF0EE6E0A86
:101D700004F0BEFBB0EE40DAF0EE60DA53EC1C2B60
:101D800051EC1D0B06F050FA41EC1A0B94ED000AD1
:101D900010EE101A084606F03DFD41EC1C0B18EE43
:101DA000100A06F037FD41EC1F0BB0EE4F0AF0EEC3
:101DB0006F0A05F01DFAB0EE40EAF0EE60EA51EC71
:101DC0001E0B05F048FF41EC1D0B53EC1C2B06F0DD
:101DD0002BFA41EC1B0B53EC1A2B05F07BFF53EC59
:101DE000192BCDE900019DED000B51EC100B05F016
:101DF00071FFCDE902019DED020B51EC100B05F0D6
:101E000037FF686094ED000ADFED590A20EE200AE2
:101E1000D4ED010A9FED561A01EE200AD4ED020A14
:101E2000B7EE001A01EE200A85ED020A05B0BDECFE
:101E3000108B30BD30B52DED108B83B004460D46B0
:101E4000B0EE408A94ED020ADFED490A20EE200A46
:101E500010EE101A084606F0DDFC41EC1A0B94ED6A
:101E6000010A10EE101A084606F0D4FC41EC1D0BD6
:101E700018EE100A06F0CEFC41EC1F0BB0EE4F0A34
:101E8000F0EE6F0A05F0B4F9B0EE40EAF0EE60EA69
:101E900053EC1D2B51EC1E0B06F0C6F941EC1C0B4C
:101EA00094ED000A10EE101A084606F0B3FC41EC5F
:101EB0001D0B18EE100A06F0ADFC41EC1F0BB0EE46
:101EC0004F0AF0EE6F0A04F013FBB0EE40EAF0EEBA
:101ED00060EA53EC1D2B51EC1E0B06F0A5F953ECF8
:101EE0001C2BCDE900019DED000B51EC100B06F011
:101EF000A7FB41EC1B0B53EC1A2B05F0EBFE41EC5E
:101F0000190B05F0B5FE286094ED020ADFED180A02
:101F100020EE200A10EE101A084606F07BFC41EC79
:101F2000190B94ED010A10EE101A084606F072FC27
:101F300041EC1D0B18EE100A06F06CFC41EC1F0B77
:101F4000B0EE4F0AF0EE6F0A04F0D2FAB0EE40EABB
:101F5000F0EE60EA53EC1D2B51EC1E0B06F064F919
:101F600041EC1B0B94ED000A10EE101A084613E02A
:101F7000000000005C8F823ED0B35DBFD0B35D3FF8
:101F800036CD13BF36CD133FB0AA2A3F9FAAAA3E33
:101F90009FAAAABEF151A73F06F03CFC41EC1D0BE5
:101FA00018EE100A06F036FC41EC1F0BB0EE4F0A9B
:101FB000F0EE6F0A05F01CF9B0EE40EAF0EE60EAD0
:101FC00053EC1D2B51EC1E0B06F02EF941EC1C0BB3
:101FD00053EC1B2B05F07EFE41EC1A0B53EC192B36
:101FE00005F078FECDE900019DED000B51EC100BE2
:101FF00005F03EFE686094ED000A5FED230A20EED6
:10200000200AD4ED010A1FED261A01EE200AD4EDB4
:10201000020AB7EE001A01EE200A85ED020A03B0AB
:10202000BDEC108B30BD30B52DED108B85B0044666
:102030000D46B0EE408AD4ED020A1FED320A20EEC2
:10204000800A10EE101A084606F0E4FB41EC1A0B69
:1020500094ED010A10EE101A084606F0DBFB41EC85
:102060001C0B18EE100A06F0D5FB41EC1E0BB0EE6F
:102070004E0AF0EE6E0A04F03BFAB0EE40DAF0EEF3
:1020800060DA53EC1C2B51EC1D0B06F0CDF8CDE9BA
:10209000000194ED000A10EE101A084606F0BAFB93
:1020A00041EC1C0B18EE100A06F0B4FB41EC1F0BC0
:1020B000B0EE4F0AF0EE6F0A05F09AF8B0EE40EA83
:1020C000F0EE60EA51EC1E0B05F0C5FD41EC1D0B76
:1020D00053EC1C2B06F0A8F841EC1B0B9DED000BFC
:1020E00053EC102B05F0F6FD53EC1A2BCDE9020151
:1020F0009DED020B51EC100B05F0ECFD41EC190BC2
:1021000005F0B6FD2860D4ED020A1FED660A20EE48
:10211000800A10EE101A084606F07CFB41EC190B01
:1021200094ED010A10EE101A084606F073FB41EC1C
:102130001C0B9FEDFE0A30EE480A10EE101A0846FE
:1021400006F068FB41EC1E0BB0EE4E0AF0EE6E0A94
:1021500004F0CEF9B0EE40DAF0EE60DA53EC1C2B6E
:1021600051EC1D0B06F060F841EC1A0B94ED000ADF
:1021700010EE101A084606F04DFB41EC1C0B9FEDCB
:10218000EB0A30EE480A10EE101A084606F042FB41
:1021900041EC1F0BB0EE4F0AF0EE6F0A05F028F885
:1021A000B0EE40EAF0EE60EA51EC1E0B05F053FD94
:1021B00041EC1D0B53EC1C2B06F036F841EC1B0BCD
:1021C00053EC1A2B06F03CFA53EC192BCDE9000125
:1021D0009DED000B51EC100B05F07CFDCDE90201EB
:1021E0009DED020B51EC100B05F042FD686094ED83
:1021F000020A5FEDA00A20EE200A10EE101A08462F
:1022000006F008FB41EC1A0B94ED010A10EE101ACF
:10221000084606F0FFFA41EC1D0B9FEDC40A38EEAC
:10222000000A10EE101A084606F0F4FA41EC1F0BF3
:10223000B0EE4F0AF0EE6F0A04F05AF9B0EE40EA41
:10224000F0EE60EA53EC1D2B51EC1E0B05F0ECFF99
:10225000CDE9020194ED000A10EE101A084606F0CE
:10226000D9FA41EC1D0B9FEDB10A38EE000A10EED1
:10227000101A084606F0CEFA41EC1F0BB0EE4F0ADA
:10228000F0EE6F0A04F0B4FFB0EE40EAF0EE60EA60
:1022900053EC1D2B51EC1E0B05F0C6FF41EC1C0B43
:1022A0009DED020B53EC102B06F0CAF941EC1B0B11
:1022B00053EC1A2B05F00EFD41EC190B05F0D8FC80
:1022C000A86005B0BDEC108B30BD30B52DED108B86
:1022D00089B004460D46B0EE408A94ED020A10EE35
:1022E000101A084606F096FA41EC1A0B18EE100A7E
:1022F00006F090FA41EC1F0BB0EE4F0AF0EE6F0AB9
:1023000004F076FFB0EE40EAF0EE60EA9FED880B55
:1023100053EC102B51EC1E0B05F086FF41EC1C0B0F
:1023200018EE100A06F076FA41EC1F0BB0EE4F0AD9
:10233000F0EE6F0A04F0DCF8B0EE40EAF0EE60EA8E
:102340009FED7D0B53EC102B51EC1E0B05F06CFF39
:1023500041EC1D0B53EC1C2B05F0BCFC41EC1B0BA2
:1023600053EC1A2B05F060FFCDE9040194ED010A4E
:1023700010EE101A084606F04DFA41EC1C0B18EE50
:10238000100A06F047FA41EC1F0BB0EE4F0AF0EED0
:102390006F0A04F02DFFB0EE40EAF0EE60EA9FED28
:1023A000680B53EC102B51EC1E0B05F03DFFCDE9F3
:1023B000020118EE100A06F02DFA41EC1F0BB0EEE8
:1023C0004F0AF0EE6F0A04F093F8B0EE40EAF0EE38
:1023D00060EA9FED5D0B53EC102B51EC1E0B05F0EA
:1023E00023FFCDE900019DED020B53EC102B9DED79
:1023F000000B51EC100B05F06DFC41EC1D0B53EC88
:102400001C2B05F011FF41EC1A0B94ED000A10EEA5
:10241000101A084606F0FEF941EC1C0B18EE100AE3
:1024200006F0F8F941EC1F0BB0EE4F0AF0EE6F0A20
:1024300004F0DEFEB0EE40EAF0EE60EA9FED440B01
:1024400053EC102B51EC1E0B05F0EEFE41EC1D0B76
:1024500053EC1C2B05F0E8FE41EC1B0B53EC1A2B44
:1024600005F038FC41EC190B9DED040B53EC102BDF
:1024700005F030FCCDE906019DED060B51EC100B8B
:1024800005F0F6FB286094ED020A10EE101A0846DB
:1024900006F0C0F941EC190B18EE100A06F0BAF973
:1024A00041EC1E0BB0EE4E0AF0EE6E0A04F020F87E
:1024B000B0EE40DAF0EE60DA9FED210B53EC102B1A
:1024C00051EC1D0B05F0B0FE41EC1C0B18EE100A90
:1024D00006F0A0F941EC1E0BB0EE4E0AF0EE6E0ACB
:1024E00004F086FEB0EE40DAF0EE60DA9FED120BFB
:1024F00053EC102B51EC1D0B05F096FE41EC1B0B21
:1025000053EC1C2B06F09CF841EC1A0B53EC192BE6
:1025100005F08AFECDE9040194ED010A10EE101ACF
:10252000084606F077F941EC1A0B15E08F09863F53
:10253000465D6BEF5355D53F000000C0A679E23FE2
:10254000000000E05355D53F000000C0A679E2BF6F
:10255000000000005655E5BF18EE100A06F05AF9C3
:1025600041EC1F0BB0EE4F0AF0EE6F0A03F0C0FF14
:10257000B0EE40EAF0EE60EA1FED0F0B53EC102BCB
:1025800051EC1E0B05F050FE41EC1C0B18EE100A2E
:1025900006F040F941EC1F0BB0EE4F0AF0EE6F0A67
:1025A00004F026FEB0EE40EAF0EE60EA1FED1A0BF2
:1025B00053EC102B51EC1E0B05F036FE41EC1D0BBD
:1025C00053EC1C2B06F03CF841EC1B0B53EC1A2B84
:1025D00005F02AFE41EC190B94ED000A10EE101ADA
:1025E000084606F017F941EC1A0B18EE100A06F02F
:1025F00011F941EC1D0BB0EE4D0AF0EE6D0A03F03F
:1026000077FFB0EE40CAF0EE60CA9FED200B53ECAE
:10261000102B51EC1C0B05F007FE41EC1B0B53EC8F
:102620001A2B05F001FE53EC192BCDE900019DEDAD
:10263000000B51EC100B05F04DFBCDE902019DEDB7
:10264000040B53EC102B9DED020B51EC100B05F01D
:1026500041FBCDE906019DED060B51EC100B05F099
:1026600007FB686094ED000AD4ED010A30EE200A01
:10267000D4ED020A30EE200ADFED060A20EE200A31
:1026800085ED020A09B0BDEC108B30BD00000000E2
:102690005655E53FFD51A73F10B50121084601F011
:1026A0003FFD0121022001F03BFD0121042001F04A
:1026B00037FD0121102001F07CFD0121480601F0C9
:1026C00078FD0121880601F074FD0121880401F0E4
:1026D00070FD10BD10B542F20F7054494860532090
:1026E0000880002048800881514802F03CFE01210A
:1026F0004F4802F0C1FE012211464D4803F0D4FAC2
:1027000001214B4803F0E4FA10BD10B501214848FF
:1027100003F0E1FA002836D04648408A401C00B257
:10272000444948824448B0F9000000EB8000400072
:102730004FF47A7191FBF0F000B23E49B1F91210FA
:1027400088420ADC00203B4948823C48006808B9BE
:10275000012000E00020394908603948007828B994
:10276000FEF70AFD01203649087004E0FEF7D6FDA9
:1027700000203349087001212D4803F0BDFA0121E2
:102780002B4803F0A5FA10BD10B54FF4A06001F07E
:1027900033F936202B4908700220487001208870D8
:1027A000C870084601F02DF927202649087000203E
:1027B000487001208870C870084601F022F9252071
:1027C0002049087001208870002088700120C8709E
:1027D000084601F016F934201A4908700120887063
:1027E000002088700120C870084601F00AF910BD69
:1027F00008B5FFF751FF00F0DCF8FFF76BFFFEF7BD
:10280000D1FB00F021F8002006231A460521009094
:10281000FEF7F2FA0020032306220521009000F0C3
:10282000ABFA4FF4E13000F051F908BDE4020020AA
:1028300000100040540200204A00002080824042E4
:10284000480000204400002000B587B0012102208C
:1028500001F066FC0121880401F0ABFC07220A218B
:10286000424801F04AFA07220B21404801F045FA9C
:102870004FF44060019002208DF8080000208DF890
:102880000A0003208DF8090000208DF80B0001A933
:10289000364801F0A7F94FF4E13003900020ADF87D
:1028A0001000ADF81200ADF814000C20ADF81600C1
:1028B0000020ADF8180003A92D4801F0ECFD01221D
:1028C00040F225512A4801F024FF0121284801F057
:1028D0006AFE07B000BD10B5044600BF4021244881
:1028E00001F03CFF0028F9D02146214801F086FE86
:1028F00010BD70B504460D4600BF40211C4801F0D4
:102900002DFF0028F9D0E1B2194801F077FE2046EA
:1029100070BD10B5A0B0002440F22551144801F05C
:1029200033FF00B31348006808B9012000E000201D
:10293000104908607C221049684603F0B8FA0E4836
:1029400010380FC8FEF77CFB40B90948001D00880D
:10295000C4B2214608481038FEF759FB40F2255111
:10296000034801F04CFF20B010BD000000040240FD
:102970000048004080824042FC00002010B5002149
:1029800007E04AF2104200BF1300A2F10102FBD19E
:10299000491C8142F5D310BD10B5002106E0282264
:1029A00000BF1300A2F10102FBD1491C8142F6D302
:1029B00010BD1FB54FF4A06001F01EF81E208DF869
:1029C0000C0001208DF80D0000208DF80E00012074
:1029D0008DF80F0003A801F014F80121042001F084
:1029E000E8FB364802F012FC4FF6FF7001905320CE
:1029F000ADF800000020ADF80800ADF8020069460F
:102A00002E4802F0B0FC01212C4803F061F90122AC
:102A100011462A4803F048F90121284802F02CFD0C
:102A20000121042001F0C5FB1FBD244824300068AB
:102A30002349B1F900104FF4803202FB010000EE8F
:102A4000900AF8EE600A9FED1F1AC0EE811AB0EEF0
:102A5000610A704730B5194B24331B68184CB4F920
:102A600000404FF4803505FB04320368D11A026040
:102A7000002902DA9FED140A30BD00EE101AF8EEBC
:102A8000C00AB0EE600AF7E710B501210B4803F069
:102A900022F988B10A480088401C00B20849088021
:102AA0000846B0F90000B0F57A7F01DB002008800D
:102AB0000121024803F020F910BD00000008004089
:102AC0004C000020002474490000000010B586B0BE
:102AD00004460121084601F023FB0121102001F0EA
:102AE00079FB07220921994801F007F907220A21F9
:102AF000964801F002F94FF4C060009002208DF872
:102B0000040000208DF8060003208DF80500002049
:102B10008DF8070069468D4801F064F802940020A2
:102B2000ADF80C00ADF80E00ADF810000C20ADF8BB
:102B300012000020ADF8140002A9854801F0ABFC9A
:102B4000012240F22551824801F0E3FD0121804835
:102B500001F029FD06B010BD70B57E4800788428CC
:102B600042D17C4DEA79D51702EB15752D11A2EBF8
:102B70000515642615FB06F5764E347AE61704EB48
:102B80001676361106EB860605EB4605714E317A50
:102B9000CE1701EB16763611A1EB0616354400EE82
:102BA000105AB8EEC00A6B4D6B7ADD1703EB157542
:102BB0002D1100EE905AF8EEE00A9FED671A00EE34
:102BC000810A644D687AC51700EB15752D11A0EBCD
:102BD000051500EE905AF8EEE00A9FED601A00EE3F
:102BE000810A5F4D85ED000A5A480078282802D1F5
:102BF00001205C49087070BD10B540F22551544861
:102C000001F0C2FD002871D0514801F0FBFCC4B2B4
:102C10005548007805285FD2DFE800F0030E192937
:102C20004200682C07D101204F49087000204F490D
:102C300008804F49086053E04C48008820444B49C5
:102C400008804C48048002204749087048E044B995
:102C500003204549087045480088204443490880BE
:102C600004E00020404908704049088038E03F48AF
:102C7000008820443D4908803D4801680068401CA8
:102C80003B4A1060334844543A48B0F90000C01E33
:102C900011460968884202DC0420334908701FE0AD
:102CA00032490888C11700EB11610912A0EB01211C
:102CB0002E4A118010460088844207D1FFF74CFF4E
:102CC00000202A4908802849087004E0002026498D
:102CD00008702649088003E000202349087000BFDF
:102CE00000BF40F225511A4801F089FD10BD10B512
:102CF000044600BF4021164801F030FD0028F9D0FD
:102D00002146134801F07AFC10BD10B5002413E0F1
:102D1000601CC4B26820FFF7EAFF0420FFF7E7FF5A
:102D20000020FFF7E4FF2820FFF7E1FF2C20FFF74A
:102D3000DEFF0A20FFF730FE0A48007808B9102CA1
:102D4000E6DB00200749087010BD000000000240CB
:102D50000010014004030020CDCCCC3D0AD7233C19
:102D60005400002050000020580000205A0000208D
:102D70005C000020620000202DE9F0418AB004468A
:102D80000D4616461F46DDF840800121022001F065
:102D9000C7F90121880601F00CFA60200890022092
:102DA0008DF8240000208DF8260003208DF82500E2
:102DB00001208DF8270008A9904800F013FF092290
:102DC00005218E4800F099FF092206218B4800F06A
:102DD00094FF00208DF81A008DF81B008DF81C0060
:102DE00001208DF81D0000208DF81E008DF81F00B9
:102DF0008DF816808DF817408DF818608DF81950F1
:102E0000ADF8147005A97E4801F021FD0E208DF863
:102E10000E0000208DF80F0001208DF8100000201A
:102E2000ADF80400ADF80600ADF80800ADF80A00F2
:102E30000120ADF80C008DF8110001A801F091FD02
:102E4000012210216E4802F08BF841208DF800001D
:102E500001208DF8010000208DF8020001208DF87E
:102E60000300684600F0CDFD00200AB0BDE8F08107
:102E700010B51021624802F0DBF800287DD0614ACD
:102E800001215F4801F051FF5E48006840F20141B6
:102E9000884275D15B48C07A01065A48007B41EAF6
:102EA00000415848407B41EA00205649897B08434D
:102EB00000EE100AB8EEC00A534880ED000A90ED0B
:102EC000000ADFED520A20EE200A514880ED000A88
:102ED00090ED000ADFED4F0AB4EEE00AF1EE10FAD1
:102EE00008DC90ED000ADFED4C0AB4EEE00AF1EEEA
:102EF00010FA05D2494890ED000A454880ED000AD5
:102F0000434890ED000A4548D0ED000A30EE600AD3
:102F1000434880ED000A90ED000ADFED420AB4EE6E
:102F2000E00AF1EE10FA08DC90ED000ADFED3E0A4F
:102F3000B4EEE00AF1EE10FA05D23C4890ED000A3A
:102F4000374880ED000A364890ED000A374880ED9A
:102F5000000A324890ED000A3148D0ED000A30EE08
:102F6000200A2E4880ED000A90ED000A3048D0ED8E
:102F7000000A30EE600A2F4800E001E080ED000A10
:102F800010211F4802F0EFF801211D4801F045FF14
:102F900010BDF0B585B007460D460024009501959B
:102FA00000208DF808008DF8090008208DF80A002F
:102FB00000BF05E0395D0DF10B000155601C84B2C6
:102FC000082CF7DB69460E4801F0BAFD06460024DE
:102FD00001E0601C84B23146094801F049FE18B98D
:102FE00040F6FF708442F4DB40F6FF70844202DB5F
:102FF000012005B0F0BD0020FBE700000004024006
:103000000068004024030020780000200AD7233CF9
:103010007000002000A00C4700A00CC78800002012
:10302000800000200000FA430000FAC37C0000206A
:10303000900000209400002010B5044600BF4021FD
:10304000FE4801F08BFB0028F9D02146FB4801F037
:10305000D5FA10BD10B586B004460121042001F058
:103060005FF80121C80401F0A4F808220A21F448FD
:1030700000F043FE08220B21F14800F03EFE4FF421
:103080004060009002208DF8040000208DF80600BA
:1030900003208DF8050000208DF807006946E848F8
:1030A00000F0A0FD02940020ADF80C00ADF80E0079
:1030B000ADF810000C20ADF812000020ADF814009F
:1030C00002A9DE4801F0E7F9012240F22551DB4870
:1030D00001F01FFB0121D94801F065FA0A20FFF732
:1030E0004DFCFF20FFF7A8FFAA20FFF7A5FF522005
:1030F000FFF7A2FF06B010BD10B52DED088B82B012
:103100000446D04801780078401CCE4A1070CE4862
:1031100044540078552806D000201146087002B0AB
:10312000BDEC088B10BDC74800780B2800DAF6E725
:10313000C5484078512806D052286CD053287CD0FE
:1031400054287BD13AE1C04840880190BDF9040081
:1031500005F003F841EC190B9FEDBC0B53EC102B61
:1031600004F074FE41EC180B9FEDBA0B53EC102BDE
:1031700005F05AF8B94A03C2B34840680190BDF956
:10318000040004F0EAFF41EC190B9FEDB00B53EC87
:10319000102B04F05BFE41EC180B9FEDAE0B53ECD3
:1031A000102B05F041F8AD4AC2E90201A648C088DB
:1031B0000190BDF9040004F0D0FF41EC190B9FED24
:1031C000A30B53EC102B04F041FE41EC180B9FEDC8
:1031D000A10B53EC102B05F027F8A04AC2E904011B
:1031E000994880680190BDF9040004F0B6FF41ECF5
:1031F000190B9FED9B0B53EC102B04F027FE41ECB9
:10320000180B9FED990B53EC102B04F063FD934AC0
:10321000C2E906014AE18C4840880190BDF90400EA
:1032200004F09BFF41EC190B9FED880B53EC102B26
:1032300004F00CFE41EC180B01E057E035E19FED86
:103240008C0B53EC102B04F0EFFF8B4A03C27E482B
:1032500040680190BDF9040004F07FFF41EC190BB8
:103260009FED7A0B53EC102B04F0F0FD41EC180BA2
:103270009FED7F0B53EC102B04F0D6FF7E4AC2E982
:1032800002017148C0880190BDF9040004F065FF97
:1032900041EC190B9FED6D0B53EC102B04F0D6FD98
:1032A00041EC180B9FED720B53EC102B04F0BCFF9C
:1032B000714AC2E90401644880680190BDF90400C4
:1032C00004F04BFF41EC190B9FED650B53EC102BF9
:1032D00004F0BCFD41EC180B9FED630B53EC102B7D
:1032E00004F0F8FC644AC2E90601DFE05648408871
:1032F0000190BDF9040004F030FF41EC190B9FED83
:10330000530B53EC102B04F0A1FD41EC180B9FED77
:103310005B0B53EC102B04F087FF5A4A03C24A4858
:1033200040680190BDF9040004F017FF41EC190B4F
:103330009FED460B53EC102B04F088FD41EC180B6D
:103340009FED4E0B53EC102B04F06EFF4D4AC2E97B
:1033500002013D48C0880190BDF9040004F0FDFE63
:1033600041EC190B9FED390B53EC102B04F06EFD63
:1033700041EC180B9FED410B53EC102B04F054FF64
:10338000404AC2E90401304880680190BDF9040058
:1033900004F0E3FE41EC190B9FED310B53EC102BC5
:1033A00004F054FD41EC180B9FED2F0B53EC102B48
:1033B00004F090FC334AC2E9060177E03248224922
:1033C000891C0A680260496841603048007898B3F7
:1033D0002D49B1F9020004F0C0FE41EC1B0B9FED3A
:1033E0002C0B53EC102B05F02BF941EC190B264953
:1033F000B1F9000004F0B1FE41EC1B0B9FED260B70
:1034000053EC102B05F01CF941EC1A0BB0EE491AE5
:10341000F0EE691AB0EE4A0AF0EE6A0A02F070FFA6
:10342000B0EE408AF0EE608A51EC180B04F020FCFC
:103430001B490860002035E036E00000004C0040E9
:1034400000080240D5000020A80300200000000072
:103450000000E04000000000000030404803002071
:1034600000000000004075400000000000204240C5
:103470000000000000409F4068030020000000C0E2
:10348000CA210940880300209C000020D4000020AD
:1034900000000000000065C00000000000004FC0F8
:1034A00098000020FA49087000E000BF00BF00202B
:1034B000F849087000BF32E610B540F22551F648D1
:1034C00001F062F950B1F449091D0988C8B2FFF74B
:1034D00013FE40F22551F04801F091F94FF4587174
:1034E000ED4801F08CF910BD10B5044629E02078B4
:1034F0000D280BD10D21E84801F080F800BF4021D4
:10350000E54801F02BF90128F9D119E020780A28C3
:103510000BD10A21E04801F071F800BF4021DE48DC
:1035200001F01CF90128F9D10AE02178DA4801F00C
:1035300065F800BF4021D84801F010F90128F9D101
:10354000641C20780028D2D110BD10B52DED108B51
:10355000D249B1F9020004F000FE41EC1B0B1FED53
:10356000340B53EC102B05F06BF841EC190BCB49E5
:10357000B1F9000004F0F1FD41EC1B0B1FED3A0B1B
:1035800053EC102B05F05CF841EC1A0BB0EE491A25
:10359000F0EE691AB0EE4A0AF0EE6A0A02F0B0FEE6
:1035A000B0EE408AF0EE608A51EC180B04F060FB3C
:1035B000BB490860BB48006805F02CF941EC1B0BC7
:1035C000B649B1F9020004F0C8FD41EC1F0B1FED34
:1035D000500B53EC102B05F033F841EC1D0BAF49A9
:1035E000B1F9000004F0B9FD41EC1F0B1FED560BC3
:1035F00053EC102B05F024F841EC1E0BB0EE4D1AE5
:10360000F0EE6D1AB0EE4E0AF0EE6E0A02F078FEA1
:10361000B0EE40CAF0EE60CA53EC1B2B51EC1C0B11
:1036200005F00EF841EC1A0B9FED9F0B53EC102B9D
:1036300004F0FAFD41EC190B1FED700B53EC102B4D
:1036400004F004FC41EC180B04F012FB98490860EC
:10365000984890ED000A9848D0ED000A30EE600AD4
:103660009648D0ED000A80EE201A954880ED001AA9
:10367000904890ED000A904880ED000A904890ED47
:10368000000A9048D0ED000A70EE600A8B4890ED79
:10369000001A8D4890ED000A00EE810A80ED000AC4
:1036A0008A4890ED000A8A48D0ED000A30EE200AE0
:1036B000B1EE400A8148D0ED000A20EE200AD0ED9C
:1036C000000A9FED841A01EE200A8348D0ED000A1B
:1036D00030EE200A80ED000A7D4890ED000A7F4818
:1036E000D0ED000AF1EE600A744890ED001A00EE89
:1036F000810A774880ED000A744890ED000A774807
:10370000D0ED000AF1EE600A6C4890ED001A00EE70
:10371000810A6E4880ED000A704890ED000A674803
:10372000D0ED000A9FED6E1A01EE200A6B4880ED85
:10373000000A694890ED000ADFED6A0A30EE200ABF
:10374000D0ED000A80EE801A674880ED001A6248CA
:1037500090ED000ADFED630A30EE200A5B48D0ED01
:10376000000A80EE801A614880ED001A084690ED4C
:10377000000A5548D0ED000A70EE600A514890EDFD
:10378000000A5A4890ED001A01EE200A4D4880EDDB
:10379000000A084690ED000A4B48D0ED000A70EE92
:1037A000600A90ED000A504890ED001A01EE200AE0
:1037B000454880ED000A484890ED000A4A48D0ED9F
:1037C000000A454890ED001A00EEC10A80ED000A9B
:1037D0003F4890ED000A4448D0ED000A3C4890ED87
:1037E000001A00EEC10A80ED000A384890ED000A88
:1037F0003E48D0ED000A384890ED001A00EEC10AAC
:10380000324880ED000A354890ED000A3748D0ED87
:10381000000A2F4890ED001A00EEC10A2F4880EDF3
:10382000000ABDEC108B10BDF0B58DB006460F46FA
:1038300015462D2D01DD0DB0F0BD0021281D0DF820
:103840000010AA208DF800008DF801008DF80260AC
:103850008DF80350002405E0395D201D0DF800109F
:10386000601CC4B2AC42F7DB00240BE0281D1DF83D
:1038700000001DF804100844C1B2281D0DF8001006
:10388000601CC4B2281D8442F0DB002436E0000036
:10389000D4000020D5000020004C00409C000020F7
:1038A000D00000209800002000000000008066404A
:1038B000C400002020000020D8000020A400002028
:1038C000CC000020A8000020C8000020B400002088
:1038D000B000002017B7D138AC000020B80000209D
:1038E0009A99993E0AD7233CBC000020C0000020D2
:1038F0001DF80400FFF7A0FB601CC4B2681D8442E1
:10390000F6DB00BF97E710B52DED048B8EB0B0EE5F
:10391000408AF0EE608AB0EE419A00249FED250ABD
:1039200028EE000ABDEEC00A10EE100A00B20D909B
:103930009DF835202146641C0DF801209DF83420A7
:103940002146641C0DF801209FED1A0A28EE800A1A
:10395000BDEEC00A10EE100A00B20D909DF83520A1
:103960002146641C0DF801209DF834202146641C7A
:103970000DF801209FED0F0A29EE000ABDEEC00AE6
:1039800010EE100A00B20D909DF835202146641CFF
:103990000DF801209DF834202146641C0DF801200B
:1039A00022466946F120FFF73FFF0EB0BDEC048BC5
:1039B00010BD00000000C842094880470948004780
:1039C000FEE7FEE7FEE7FEE7FEE7FEE7FEE7FEE7CF
:1039D000FEE7FEE704480549054A064B704700002C
:1039E000C50C00088901000828040020280A0020CE
:1039F000280600202806002032490143324A11607F
:103A0000704770B5002100230F22C4781CB32E4CE0
:103A1000246804F4E064C4F5E064C4F30721C1F150
:103A20000404E3B20A4144789C40E1B28478144033
:103A300021430C07210E254C05786155047804F0CC
:103A40001F050124AC4005786D11AD0005F1E0259E
:103A5000C5F8004109E0047804F01F050124AC40DA
:103A60001B4D0678761145F8264070BD194A0A406C
:103A70000243154B1B1F1A60704739B1124A121DC1
:103A800012680243104B1B1D1A6006E00E4A121DFD
:103A9000126882430C4B1B1D1A607047042808D122
:103AA0004FF0E021096941F004014FF0E02211617B
:103AB00007E04FF0E021096921F004014FF0E02216
:103AC000116170470000FA050CED00E000E400E031
:103AD00080E100E080FFFF1F10B504469848844253
:103AE00008D10121084600F086FB0021012000F0EA
:103AF00082FB76E09348844208D10121022000F045
:103B00007AFB0021022000F076FB6AE08E488442B6
:103B100008D10121042000F06EFB0021042000F0F8
:103B20006AFB5EE08948844208D10121082000F048
:103B300062FB0021082000F05EFB52E084488442D2
:103B400008D10121102000F056FB0021102000F0C8
:103B500052FB46E07F48844208D10121202000F03A
:103B60004AFB0021202000F046FB3AE07A488442DC
:103B700008D10121402000F03EFB0021402000F050
:103B80003AFB2EE07548844208D10121802000F0E4
:103B900032FB0021802000F02EFB22E0704884429E
:103BA00008D10121801500F026FB0021A01500F0AE
:103BB00022FB16E06B48844208D10121401500F039
:103BC0001AFB0021601500F016FB0AE066488442EB
:103BD00007D10121001500F00EFB0021201500F097
:103BE0000AFB10BDF0B50A4600210023002400BFE7
:103BF0003DE0012505FA01F3156805EA03049C423E
:103C000034D105684F000326BE40B54305601579E1
:103C10004E00B5400668354305601579012D02D088
:103C20001579022D16D185684F000326BE40B54395
:103C3000856055794E00B540866835438560456896
:103C400001268E40B5434560456896798E40B6B2F0
:103C500035434560C5684F000326BE40B543C56087
:103C6000D5794E00B540C6683543C560491C10295A
:103C7000BFD3F0BD4FF6FF710160002101714171AA
:103C80008171C171704708B54FF480320092009A7B
:103C90000A430092009AC261C161009AC261C2697E
:103CA0000092C269009208BD0246002013690B40D1
:103CB0000BB1012000E0002070470146086980B286
:103CC00070470246002053690B400BB1012000E011
:103CD000002070470146486980B2704701837047F1
:103CE000418370470AB1018300E04183704741611D
:103CF000704742694A4042617047F0B50023002492
:103D00004D07ED0E02FA05F3CE1000F1200555F82F
:103D100026504E07F70E0F26BE40B543CF1000F1D8
:103D2000200646F82750CE1000F1200555F8265001
:103D300045EA0304CE1000F1200545F82640F0BD09
:103D4000000002400004024000080240000C024053
:103D5000001002400014024000180240001C024003
:103D6000002002400024024000280240F948006878
:103D700040F00100F74908600020F649083108606A
:103D8000F4480068F4490840F2490860F348091D06
:103D90000860F348EF4984310860F0481038091D85
:103DA0000860EC48006820F48020EA4908600020A0
:103DB000E8490C310860E7498C3108607047002100
:103DC000E44A921C117011460870704710B5014604
:103DD0000022002300204A11012A02D1DD4C236871
:103DE00008E0022A03D1DB4C7034236802E0D94C8E
:103DF0007434236801F01F02012494401C400CB16C
:103E0000012000E0002010BD38B500200090002403
:103E1000002500BF3120FFF7D9FF05460098401C60
:103E200000900098B0F5A04F01D0002DF2D03120C5
:103E3000FFF7CCFF08B1012400E00024204638BD84
:103E400001460020C34A106820F0F80040EAC10093
:103E500010607047C349086070470021BD4A703246
:103E600011701170012802D004280AD104E0012148
:103E7000B84A7032117005E00521B64A70321170EF
:103E800000E000BF00BF7047B7490860704770B5D9
:103E9000049C41EA82150126C6EB530645EA064515
:103EA000054345EA0465AB4E361D356070BDAD492E
:103EB00008667047820142EA0172A64B84331A6099
:103EC0007047A8498866704710B5830143EA0163CB
:103ED00043EA02739F4C8834236010BDA1490867F0
:103EE0007047A049C864704702460020994B0833C8
:103EF000186820F0EC6042EA01031843954B083340
:103F00001860704702460020924B0833186820F072
:103F1000784042EA010318438E4B0833186070471B
:103F2000014600208B4A0832106820F00300084345
:103F30001060704787480830006800F00C00704738
:103F400001460020834A0832106820F0F000084340
:103F500010607047014600207E4A0832106820F445
:103F6000E05008431060704701460020794A08324B
:103F7000106820F4604040EAC10010607047F0B55E
:103F8000002100220024022500260223714F083759
:103F90003F6807F00C0121B1042905D0082937D169
:103FA00005E0724F076036E0714F076033E0694FFC
:103FB0003F1D3F68C7F38056664F3F1D3F6807F0BF
:103FC0003F036EB16A4FB7FBF3F7DFF888C10CF11E
:103FD000040CDCF800C0CCF3881C07FB0CF40CE0EC
:103FE000624FB7FBF3F7DFF86CC10CF1040CDCF89F
:103FF00000C0CCF3881C07FB0CF4564F3F1D3F68F4
:10400000C7F301477F1C7D00B4FBF5F7076002E0B2
:10401000564F076000BF00BF4E4F08373F6807F09C
:10402000F0010909534F7A5C0768D7404760494F50
:1040300008373F6807F4E051890A4E4F7A5C4768B9
:10404000D7408760434F08373F6807F46041490B0A
:10405000484F7A5C4768D740C760F0BD002100F444
:104060004072B2F5407F0AD13A4A0832116821F411
:10407000F811414A02401143364A08321160354A6C
:1040800070321268C0F30B031A43324B70331A605C
:1040900070473549443908607047334940390860F2
:1040A000704736490860704701460020294A8C3223
:1040B000106820F01F004A1E1043264A8C32106000
:1040C000704701460020234A8C32106820F4F850D3
:1040D0004A1E40EA02201F4A8C3210607047014697
:1040E00000201C4A8C32106820F4401008431060F5
:1040F000704701460020174A8C32106820F44000B7
:1041000008431060704701460020124A8C32106844
:1041100020F4403008431060704719490860704728
:1041200039B10C4A3032126802430A4B30331A60FC
:1041300006E0084A303212688243064B30331A6078
:104140007047F9B1034A343212680243014B3433E9
:104150001A601CE000380240FFFFF6EA103000242D
:104160000030002000004742800E47420024F40047
:1041700000127A00DC000020FFFCFF0F5C014742C8
:10418000E01147428F4A126882438E4B1A60704793
:1041900039B18C4A121D126802438A4B1B1D1A60EA
:1041A00006E0884A121D12688243864B1B1D1A6066
:1041B000704739B1834A0C3212680243814B0C3389
:1041C0001A6006E07F4A0C32126882437D4B0C3342
:1041D0001A60704739B17B4A103212680243794B3A
:1041E00010331A6006E0774A103212688243754B2A
:1041F00010331A60704739B1724A243A1268024388
:10420000704B243B1A6006E06E4A243A12688243DF
:104210006C4B243B1A60704739B16A4A203A1268E5
:104220000243684B203B1A6006E0664A203A126857
:104230008243644B203B1A60704739B1614A1C3A93
:10424000126802435F4B1C3B1A6006E05D4A1C3A51
:10425000126882435B4B1C3B1A60704739B1594A64
:10426000143A12680243574B143B1A6006E0554A51
:10427000143A12688243534B143B1A60704739B1A9
:10428000504A103A126802434E4B103B1A6006E047
:104290004C4A103A126882434A4B103B1A607047EE
:1042A00039B1484A1C3212680243464B1C331A602B
:1042B00006E0444A1C3212688243424B1C331A60A7
:1042C000704739B13F4A2032126802433D4B2033D8
:1042D0001A6006E03B4A203212688243394B203391
:1042E0001A60704739B1374A243212680243354B9D
:1042F00024331A6006E0334A243212688243314B79
:1043000024331A60704739B12E4A2C3212680243A6
:104310002C4B2C331A6006E02A4A2C321268824356
:10432000284B2C331A60704739B1264A3032126854
:104330000243244B30331A6006E0224A30321268BE
:104340008243204B30331A607047012808D11D4941
:104350003C31096841F008011A4A3C32116007E01B
:1043600018493C31096821F00801164A3C321160B5
:10437000704739B1134A273A12780243114B273B51
:104380001A7006E00F4A273A127882430D4B273BFA
:104390001A7070470B484030006840F0807009493F
:1043A00040310860704701460020064A283A1268EA
:1043B0000A400AB1012000E0002070470149263977
:1043C000087070473438024010B50446FA488442F9
:1043D00008D101211020FFF752FF00211020FFF724
:1043E0004EFF57E0F548844209D101214804FFF708
:1043F00035FF00214FF40030FFF730FF4AE0F0486E
:10440000844209D101218804FFF728FF00214FF4DD
:104410008020FFF723FF3DE0EA48844209D10121D3
:10442000C804FFF71BFF00214FF40020FFF716FF21
:1044300030E0E548844209D101210805FFF70EFF6D
:1044400000214FF48010FFF709FF23E0DF4884428A
:1044500008D101212020FFF712FF00212020FFF7C3
:104460000EFF17E0DA48844209D101218807FFF7DF
:10447000F5FE00214FF08040FFF7F0FE0AE0D5483E
:10448000844207D101214005FFF7E8FE00216005C5
:10449000FFF7E4FE10BD2DE9FF4705460E46002458
:1044A000A14600BFA046B08900B100BF2C8A24F409
:1044B0004054F08804432C82AC8941F20C60844360
:1044C000B08831890843718908430443AC81AC8AC0
:1044D00024F44074B0890443AC826846FFF74FFD72
:1044E000B548854202D0B948854202D1DDF80C902A
:1044F00001E0DDF80890A88900F4004040B109EB24
:10450000C90000EB091031684900B0FBF1F707E082
:1045100009EBC90000EB091031688900B0FBF1F725
:104520006420B7FBF0F004012009642101FB10783E
:10453000A88900F4004040B1322000EBC800B0FB75
:10454000F1F000F00700044308E0322000EB08100F
:104550006421B0FBF1F000F00F0004432C81BDE8B2
:10456000FF874FF41651016000218180C1800181D5
:104570000C21418100218181704710B50246002045
:10458000108A20F470600B884C8823438C88234366
:10459000CC8823431843108210BD00210180418044
:1045A0008180C180704721B1828942F400528281AA
:1045B00004E082894DF6FF731A4082817047028BB6
:1045C00002F47F420283028B0A430283704721B1C7
:1045D000828942F40042828103E08289C2F30E02A2
:1045E0008281704721B1828A42F40062828204E0B3
:1045F000828A4FF2FF731A4082827047C1F3080229
:104600008280704701468888C0F308007047028A9C
:104610004FF6F0731A400282028A0A430282704700
:1046200021B1828942F00202828104E082894FF640
:10463000FD731A408281704782894FF2FF731A40DE
:10464000828182890A4382817047028A4FF6DF7332
:104650001A400282028A0A430282704721B1028A0A
:1046600042F48042028204E0028A4BF6FF731A4051
:1046700002827047818941F001018181704721B137
:10468000828A42F00802828204E0828A4FF6F7733F
:104690001A4082827047028BD2B20283028B42EAB6
:1046A00001220283704721B1828A42F02002828275
:1046B00004E0828A4FF6DF731A408282704721B18C
:1046C000828A42F01002828204E0828A4FF6EF73FF
:1046D0001A4082827047828A4FF6FB731A408282A8
:1046E000828A0A438282704721B1828A42F00202A2
:1046F000828204E0828A4FF6FD731A4082827047FC
:104700001AB1838A0B43838202E0838A8B438382BC
:104710007047F0B50346002400260025002040F62F
:104720006A17B94200D100BF1846C1F3421401F024
:104730001F06012707FA06F5012C01D10C3004E011
:10474000022C01D1103000E014301AB107682F4359
:10475000076002E00768AF430760F0BD0246002033
:10476000B1F5007F00D100BF13880B400BB10120D1
:1047700000E00020704701F40072B2F5007F00D124
:1047800000BFCA430280704770B502460024002370
:104790000025002040F66A16B14200D100BFC1F3E7
:1047A000421501F01F03012606FA03F3012D13D170
:1047B0009689334017E0000000100140004400409B
:1047C00000480040004C00400050004000140140F0
:1047D00000780040007C0040022D02D1168A334050
:1047E00001E0968A33400C12012606FA04F416887A
:1047F000344013B10CB1012000E0002070BD10B5B1
:104800000022002340F66A14A14200D100BF0A1220
:1048100001249440A3B2DC43048010BD10B50446CB
:10482000FE48844209D101214806FFF717FD002107
:104830004FF00070FFF712FD08E001218806FFF736
:104840000DFD00214FF08060FFF708FD10BD30B571
:10485000024600200023146824F002041460146847
:1048600044F00104146000E05B1C546804F001048F
:104870001CB94FF6FF74A342F6D1546804F001044A
:104880000CB900206CE08C79012C04D1146844F040
:104890008004146003E0146824F080041460CC7970
:1048A000012C04D1146844F04004146003E014683F
:1048B00024F0400414600C7A012C04D1146844F0F4
:1048C0002004146003E0146824F0200414604C7A7F
:1048D000012C04D1146844F01004146003E014683F
:1048E00024F0100414608C7A012C04D1146844F074
:1048F0000804146003E0146824F008041460CC7AFF
:10490000012C04D1146844F00404146003E014681A
:1049100024F0040414608C78A407CD7844EA05647C
:104920000D7944EA05444D7944EA05540D886D1E1D
:104930002C43D461146824F001041460002300E0C7
:104940005B1C546804F001041CB14FF6FF74A342D1
:10495000F6D1546804F001040CB1002000E00120FD
:1049600030BD10B50021837A012202FA03F1AC4A6E
:10497000126842F00102AA4B1A60A94A1C3212685E
:104980008A43A74B1C331A60027BCAB9A44A0C3273
:1049900012688A43A24B0C331A604288C38842EAE9
:1049A00003439F4A4032847A42F834300288838835
:1049B00042EA03439A4A4032847A02EBC4025360CB
:1049C000027B012A19D1964A0C3212680A43944B91
:1049D0000C331A604288038842EA0343904A40320B
:1049E000847A42F83430C288838842EA03438C4A8E
:1049F0004032847A02EBC4025360C27A3AB9884AE0
:104A0000121D12688A43864B1B1D1A6006E0844AF9
:104A1000121D12680A43824B1B1D1A60028932B9AB
:104A20007F4A143212688A437D4B14331A6002891C
:104A3000012A06D17A4A143212680A43784B143399
:104A40001A60427B012A06D1754A1C3212680A4359
:104A5000734B1C331A60724A126822F00102704BC9
:104A60001A6010BD00218171C171017241728172A1
:104A7000C1728170C1700321017102214171012154
:104A8000018070476649096841F00101644A11607C
:104A90001146096843F60E729143614A116011464E
:104AA000096841EA002111601146096821F00101FD
:104AB0001160704721B1026842F48032026003E065
:104AC000026822F4803202607047E1B1026842F06D
:104AD000800202604FF4C272125842F480734FF4A5
:104AE000C27213504FF4CA72125842F480734FF4DA
:104AF000CA7213504FF4D272125842F480734FF4BA
:104B0000D27213501BE0026822F0800202604FF460
:104B1000C272125822F480734FF4C27213504FF4D1
:104B2000CA72125822F480734FF4CA7213504FF4B1
:104B3000D272125822F480734FF4D272135070471D
:104B400010B502460020936803F08063B3F1806FD4
:104B500000D110E0936803F00063B3F1006F01D15E
:104B6000012008E0936803F08053B3F1805F01D126
:104B7000022000E00420042879D002F5C07303EB82
:104B800000131B6803F0010402F5C07303EB00136C
:104B90001C600B7A7BB94B7A0C8843EA445302F5CC
:104BA000C07404EB00142468234302F5C07404EBC2
:104BB0000014236010E00B7A4C6843EAC4034C7A7B
:104BC000234302F5C07404EB00142468234302F568
:104BD000C07404EB001423608B7A03F00F038B7214
:104BE00002F5C07303EB00135B6823F00F0402F5BA
:104BF000C07303EB00135C6002F5C07303EB00139A
:104C00005B688C7A234302F5C07404EB0014636084
:104C10008B7B1C064B7B44EA034403E000640040AA
:104C2000006600400B7B44EA0323CC7A234302F561
:104C3000C07404EB0014A3608B7C1C064B7C44EA1C
:104C400003440B7C44EA0323CC7B234302F5C0746A
:104C500004EB0014E36002F5C07303EB00131B6860
:104C600043F0010402F5C07303EB00131C6010BD98
:104C700010B50246002321B1012907D002290FD126
:104C800009E09068F94C00EA04030BE09068F84CE6
:104C900000EA040306E09068F64C00EA040301E031
:104CA000002300BF00BFF44C181BA34216D007DC42
:104CB00083B16FF08060184470B1022818D111E000
:104CC000B0F5007F10D0ED4C204448B1B0F5003F66
:104CD0000ED10BE002230DE000230BE0002309E0DE
:104CE000002307E0012305E0012303E0012301E0A5
:104CF000002300BF00BFD8B210BD21B1012907D0E9
:104D000002290FD109E0826842F0800282600AE045
:104D1000826842F40042826005E0826842F4000248
:104D2000826000E000BF00BF704710B500F5D87387
:104D300003EB01131B6803F004031372137A53B9D6
:104D400000F5D87303EB01131B6840F2FF7404EA0B
:104D50005353136009E000F5D87303EB01131B688C
:104D60006FF0604404EAD303536000F5D87303EB9B
:104D700001131B6803F00203537200F5D87303EBB1
:104D800001135B6803F00F03937200F5D87303EB14
:104D900001135B681B0AD37400F5D87303EB01138E
:104DA0009B68D37200F5D87303EB01139B681C0A50
:104DB000147300F5D87303EB01139B681C0C547338
:104DC00000F5D87303EB01139B681B0E937300F57A
:104DD000D87303EB0113DB68D37300F5D87303EBCF
:104DE0000113DB681C0A147400F5D87303EB01137C
:104DF000DB681C0C547400F5D87303EB0113DB68FB
:104E00001B0E937421B9C36843F02003C36003E011
:104E1000036943F02003036110BD21B9C26842F069
:104E20002002C26003E0026942F020020261704782
:104E30000246002019B9D36803F0030006E00129F7
:104E400003D1136903F0030000E00020704710B5A0
:104E500002460B4600204FF6FF71BBB9146824F0E0
:104E6000020444F00104146000E0491E546804F098
:104E70000304012C01D00029F7D1546804F0030485
:104E8000012C01D0002032E0012030E0012B13D1B1
:104E9000146824F00304146000E0491E546804F010
:104EA00003040CB10029F8D1546804F003040CB1D8
:104EB00000201CE001201AE0022B17D1146824F016
:104EC000010444F00204146000E0491E546804F038
:104ED0000304022C01D00029F7D1546804F0030424
:104EE000022C01D0002002E0012000E0002010BDD3
:104EF000014600200A6822F0010242F002020A6024
:104F00004A6802F00302022A00D1012070470146DC
:104F10004FF6FF7200200B6823F002030B6000E0E5
:104F2000521E4B6803F00203022B01D1002AF7D175
:104F30004B6803F00203022B00D0012070470146AA
:104F400000208A6902F070007047014600208A69DB
:104F5000100E7047014600208A69C2F3074070476F
:104F60001AB143690B43436102E043698B434361D8
:104F7000704710B50246002001F4700343B19369F5
:104F8000C1F3130423400BB101202DE000202BE0DE
:104F900001F0807343B15368C1F3130423400BB194
:104FA000012021E000201FE001F0006343B193687D
:104FB000C1F3130423400BB1012015E0002013E0DE
:104FC00001F0007343B1D368C1F3130423400BB164
:104FD000012009E0002007E01369C1F31304234016
:104FE0000BB1012000E0002010BD0022244B9942AB
:104FF00002D10023836111E0C1F3130201F00073B9
:105000000BB1C2600AE001F080630BB1026105E000
:1050100001F000630BB1826000E04260704702461D
:10502000002002EA01030BB1012000E000207047DC
:1050300070B504460D46002660692840002872D0ED
:10504000B5F5807F69D01DDC082D42D006DC012D2E
:105050002DD0022D31D0042D7FD134E0102D3ED043
:10506000202D42D0402D78D145E0000003000004FF
:105070000003000800000310000100080001FFF712
:105080007000F030B5F5004F61D009DCB5F5007F58
:105090004AD0B5F5806F4DD0B5F5006F5DD150E0C9
:1050A000B5F5803F2DD0B5F5003F56D12FE0A06873
:1050B0005549FFF7B4FF064651E0E0680321FFF7CA
:1050C000AEFF06464BE0E0680821FFF7A8FF064662
:1050D00045E0E0681021FFF7A2FF06463FE02069A7
:1050E0000321FFF79CFF064639E020690821FFF7FE
:1050F00096FF064633E020691021FFF790FF064631
:105100002DE060680821FFF78AFF064627E0606807
:105110001021FFF784FF064621E0A0690121FFF777
:105120007EFF06461BE01BE0A0690221FFF777FF28
:10513000064614E0A0690421FFF771FF06460EE061
:105140000BE0A0697021FFF76AFF064607E0606880
:105150000421FFF764FF064601E0002600BF00E0DF
:105160000026304670BDB1F5007F3AD00FDC202913
:1051700028D006DC01291CD004291DD0082940D1E3
:105180001DE0402921D0B1F5807F3AD126E0B1F56C
:10519000004F31D006DCB1F5806F25D0B1F5006F3E
:1051A0002FD124E0B1F5803F12D0B1F5003F28D1D6
:1051B00011E0154A826025E00822C26022E0102238
:1051C000C2601FE0082202611CE01022026119E0A7
:1051D0000822426016E01022426013E0042242607E
:1051E00010E0042242600DE0042242600AE0002246
:1051F00082610422426005E0002282610422426052
:1052000000E000BF00BF70470101010010B5044677
:10521000FE48844208D101210846FFF730F80021FA
:105220000120FFF72CF89DE0B4F1804F08D1012157
:105230000846FFF713F800210120FFF70FF891E06F
:10524000F348844208D101210220FFF707F800212A
:105250000220FFF703F885E0EE48844208D10121DF
:105260000420FEF7FBFF00210420FEF7F7FF79E0A2
:10527000E948844208D101210820FEF7EFFF002110
:105280000820FEF7EBFF6DE0E448844208D10121DD
:105290001020FEF7E3FF00211020FEF7DFFF61E0A2
:1052A000DF48844208D101212020FEF7D7FF0021EA
:1052B0002020FEF7D3FF55E0DA48844208D10121CF
:1052C0000220FEF7DCFF00210220FEF7D8FF49E0B4
:1052D000D548844209D101210804FEF7D0FF0021FE
:1052E0004FF48030FEF7CBFF3CE0D048844209D138
:1052F00001214804FEF7C3FF00214FF40030FEF700
:10530000BEFF2FE0CA48844209D101218804FEF77C
:10531000B6FF00214FF48020FEF7B1FF22E0C54820
:10532000844208D101214020FEF798FF002140204F
:10533000FEF794FF16E0C048844208D10121802086
:10534000FEF78CFF00218020FEF788FF0AE0BB48B3
:10535000844207D101218015FEF780FF0021A015AE
:10536000FEF77CFF10BD00220288A84B98420ED0A9
:10537000AC4B98420BD0B0F1804F08D0A44B984270
:1053800005D0A44B984202D0A34B984204D14FF6CB
:105390008F731A404B881A43A04B984207D0A04BFA
:1053A000984204D04FF6FF431A400B891A430280FB
:1053B0004B68C3620B880385944B984202D0994B8B
:1053C000984201D18B7A03860123838270474FF084
:1053D000FF3141600021018001814180817270476D
:1053E0000185828270470A46002101884FF68F733B
:1053F000194011430180704741627047C162704794
:105400000146486A70470146088D704721B10288FD
:1054100042F00202028004E002884FF6FD731A4057
:105420000280704721B1028842F00402028004E049
:1054300002884FF6FB731A400280704721B1028840
:1054400042F08002028004E002884FF67F731A4027
:105450000280704702884FF6F7731A400280028874
:105460000A430280704702884FF6FF431A400280C9
:1054700002880A430280704721B1028842F001028B
:10548000028004E002884FF6FE731A4002807047E3
:1054900070B5002400220023058C4FF6FE763540BF
:1054A0000584028C8388048B4FF68F752C40B51EC3
:1054B0002C400D882C43751E2A408D892A434D8827
:1054C0002A43524DA84202D0564DA84213D14FF65E
:1054D000F7752A40CD892A434FF6FB752A408D88FF
:1054E0002A434FF6FF652B404FF6FF552B400D8AA0
:1054F0002B434D8A2B43838004838D68456302844C
:1055000070BD70B5002400220023058C4FF6EF76A5
:1055100035400584028C8388048B48F6FF752C4047
:105520004FF6FF452C400D884FF6FF7606EA05251D
:105530002C434FF6DF752A408D8906EA05152A436C
:105540004D8806EA05152A43304DA84202D0354D54
:10555000A8421DD14FF67F752A40CD894FF6FF76C0
:1055600006EA05152A434FF6BF752A408D8806EADC
:1055700005152A434FF6FF352B404FF2FF752B40A0
:105580000D8A06EA85052B434D8A06EA85052B43DD
:10559000838004838D688563028470BD70B50024A8
:1055A00000220023058C4FF6FF6635400584028CEF
:1055B0008388848B4FF68F752C404FF6FC752C40FA
:1055C0000D882C434FF6FF552A408D894FF6FF7604
:1055D00006EA05252A434D8806EA05252A430B4D90
:1055E000A84202D00F4DA84238D14FF2FF752A4091
:1055F000CD894FF6FF7606EA05252A434FF6FF359B
:105600002A408D8806EA05252A4319E0000001405A
:105610000004004000080040000C00400010004062
:1056200000140040000401400040014000440140DB
:105630000048014000180040001C004000200040CD
:105640004EF6FF752B404DF6FF752B400D8A06EA8E
:1056500005152B434D8A06EA05152B438380848369
:105660008D68C563028470BD70B5002200230024DC
:10567000058C4EF6FF7635400584038C8488828B3A
:1056800048F6FF752A404FF6FF452A400D884FF631
:10569000FF7606EA05252A434DF6FF752B408D89D6
:1056A00006EA05352B434D8806EA05352B43FE4DAA
:1056B000A84202D0FD4DA84208D14BF6FF752C4000
:1056C0000D8A4FF6FF7606EA85152C438480828387
:1056D0008D680564038470BD002101804180818054
:1056E00081608181C18101824182704770B503462A
:1056F000002000241846183001258D40ACB21D8CC6
:10570000A5431D8409B108290AD100EB6100056891
:105710004FF68F76354005600568154305600FE04C
:105720000D1FC5F34E052844056848F6FF76354041
:10573000056005684FF6FF7606EA022635430560E8
:1057400070BD4163704781637047C16370470164F6
:1057500070470A460021018B4FF68F7319401143A1
:10576000018370470A460021018B48F6FF731940F8
:105770004FF6FF7303EA02231943018370470A4679
:105780000021818B4FF68F7319401143818370473D
:105790000A460021818B48F6FF7319404FF6FF73CC
:1057A00003EA02231943818370470A460021018BD3
:1057B0004FF6F77319401143018370470A460021E1
:1057C000018B4FF2FF7319404FF6FF7303EA022378
:1057D0001943018370470A460021818B4FF6F77306
:1057E00019401143818370470A460021818B4FF293
:1057F000FF7319404FF6FF7303EA022319438183B5
:1058000070470A460021018B4FF6FB731940114384
:10581000018370470A460021018B4FF6FF33194080
:105820004FF6FF7303EA02231943018370470A46C8
:105830000021818B4FF6FB73194011438183704720
:105840000A460021818B4FF6FF3319404FF6FF7354
:1058500003EA02231943818370470A460021018B22
:105860004FF67F7319401143018370470A460021A8
:10587000018BC1F30E014FF6FF7303EA02231943B4
:10588000018370470A460021818B4FF67F731940D0
:105890001143818370470A460021818BC1F30E01B9
:1058A0004FF6FF7303EA02231943818370470A46C8
:1058B0000021018C4FF6FD7319401143018470479C
:1058C0000A460021018C4FF6F773194011430184F9
:1058D00070470A460021018C4FF6DF7319404FF6DE
:1058E000FF7303EA02131943018470470A4600213B
:1058F000018C4FF67F7319404FF6FF7303EA0213D2
:105900001943018470470A460021018C4FF6FF536A
:1059100019404FF6FF7303EA0223194301847047CD
:105920000A460021018C4FF2FF7319404FF6FF73B6
:1059300003EA02231943018470470A460021018CBF
:105940004DF6FF7319404FF6FF7303EA0233194314
:105950000184704730B5002301248C40A3B2048C2D
:105960009C430484048C02FA01F5ADB22C430484F8
:1059700030BD30B5002304248C40A3B2048C9C437A
:105980000484048C02FA01F5ADB22C43048430BDCA
:10599000828B4FF2FF331A408283828B4FF6FF7364
:1059A00003EA01231A4382837047F0B50C4615467B
:1059B000002100220026078C4EF6FF7C07EA0C0728
:1059C0000784818B028C4FF6FF7707EA043640F696
:1059D000FF4739404FF6FF7707EA052739434FF66F
:1059E000FF7707EA0337394345F6FF773A4046F435
:1059F00080573A4381830284F0BD828B4FF6F37364
:105A00001A408283828B0A4382837047F0B50C462A
:105A10001546002100220026078C4FF6FF6C07EA8E
:105A20000C070784818B028C4FF6FF7707EA042668
:105A30004FF60C7739404FF6FF7707EA03172F43ED
:105A400039434FF2FF573A4046F480773A43818317
:105A50000284F0BD028B4FF2FF331A400283028BA7
:105A60004FF6FF7303EA01231A4302837047F0B530
:105A70000C461546002100220026078C4FF6EF7CCD
:105A800007EA0C070784018B028C4FF6FF7707EAC1
:105A9000041640F6FF4739404FF6FF7707EA033711
:105AA00039434FF6FF7703E0000001400004014056
:105AB00007EA052739434FF65F773A4046F010076B
:105AC0003A4301830284F0BD028B4FF6F3731A4010
:105AD0000283028B0A4302837047F0B50C461546D9
