:020000040800F2
:10000000280B0020A1340008690B00086B0B0008C6
:100010006F0B0008730B0008770B0008000000004E
:100020000000000000000000000000007B0B000842
:100030007D0B0008000000007F0B0008810B00080A
:10004000BB340008BB340008BB340008BB340008D4
:10005000BB340008BB340008BB340008BB340008C4
:10006000BB340008BB340008BB340008BB340008B4
:10007000BB340008BB340008BB340008BB340008A4
:10008000BB340008BB340008BB3400081D1800084E
:1000900033180008BB340008BB340008BB34000828
:1000A000BB340008BB340008BB340008BB34000874
:1000B000BB340008BB340008F12F0008BB34000833
:1000C000BB340008BB340008BB340008BB34000854
:1000D000BB340008C1330008BB3400087B2E000885
:1000E000BB340008BB340008BB340008BB34000834
:1000F000BB340008BB340008BB340008BB34000824
:10010000BB340008BB340008BB340008BB34000813
:10011000BB340008BB340008872C0008BB3400083F
:10012000BB340008BB340008BB340008BB340008F3
:10013000BB340008BB340008BB340008BB340008E3
:10014000BB340008BB340008BB340008BB340008D3
:10015000BB340008BB340008BB340008BB340008C3
:10016000BB340008BB340008BB340008BB340008B3
:10017000BB340008BB340008BB340008BB340008A3
:10018000BB340008BB34000800F002F800F03CF873
:100190000AA090E8000C82448344AAF10107DA45E2
:1001A00001D100F031F8AFF2090EBAE80F0013F0F8
:1001B000010F18BFFB1A43F0010318470480000029
:1001C00024800000103A24BF78C878C1FAD85207BA
:1001D00024BF30C830C144BF04680C6070470000C1
:1001E0000023002400250026103A28BF78C1FBD840
:1001F000520728BF30C148BF0B6070471FB507F0DA
:1002000082FE1FBD10B510BD05F034FC1146FFF78E
:10021000F5FF00F095F905F052FC03B4FFF7F2FF8B
:1002200003BC05F053FC0000B0EE401AB4EEE01A37
:10023000F1EE10FA02DDB0EE600A7047B1EE600A2E
:10024000B4EEC01AF1EE10FA02D2B1EE600AF4E791
:10025000B0EE410AF1E700B5FE480068052829D153
:100260000320FD494874FD48FD4B0ECB18300EC0ED
:100270002438D0ED0C0AB0EE600AF2EE040AFFF763
:10028000D3FFF64880ED060AD0ED0D0AB0EE600A05
:10029000F2EE040AFFF7C8FFF04880ED070AD0ED40
:1002A0000E0AB0EE600AF2EE040AFFF7BDFFEB485B
:1002B00080ED080A00BD9FEDEB0AE84880ED0F0ACB
:1002C0009FEDE80A80ED100A9FEDE60A80ED110A25
:1002D0009FEDE40A80ED120A9FEDE20A80ED130A19
:1002E0009FEDE00A80ED140A9FEDDE0A80ED150A0D
:1002F0009FEDDC0A80ED160A9FEDDA0A80ED170A01
:10030000704700B5D3480068012829D10220D2499E
:100310004874D248D24B0ECB0C300EC01838D0EDFA
:10032000030AB0EE600AF2EE040AFFF77DFFCB4845
:1003300080ED030AD0ED040AB0EE600AF2EE040A82
:10034000FFF772FFC54880ED040AD0ED050AB0EE54
:10035000600AF2EE040AFFF767FFC04880ED050A65
:1003600000BD30B587B04021BF4803F06BFF0028C7
:100370007DD0B8480068012806D1B7494870FFF71A
:10038000C0FF0020B3490860B248006802282FD19E
:10039000FF2002F054FDFF2002F051FD012002F089
:1003A0004EFD002002F04BFD0D2002F048FD022022
:1003B00002F045FD1025A94A07CA04AB07C3002473
:1003C00008E004A9085D02F03AFD04A8005D284495
:1003D00085B2641C0C2CF4DBFF2095FBF0F100FBD4
:1003E000115085B2E8B202F02AFD00209949086058
:1003F0009848006803281CD1FFF75DFFFF2002F03A
:100400001EFDFF2002F01BFD012002F018FD002060
:1004100002F015FD022002F012FD032002F00FFD94
:10042000002002F00CFD062002F009FD00208949A1
:10043000086088480068042831D1FF2002F0FFFCE2
:10044000FF2002F0FCFC012002F0F9FC002002F089
:10045000F6FC0D2002F0F3FC042002F0F0FC122563
:100460007E4A3C3207CA01AB07C3002409E022E000
:1004700001A9085D02F0E3FC01A8005D284485B2F3
:10048000641C0C2CF4DBFF2095FBF0F100FB1150F9
:1004900085B2E8B202F0D3FC00206E4908606D48D6
:1004A0000068052807D101206B494870FFF7D3FE8B
:1004B00000206849086000BF40216B4803F0C2FE7D
:1004C0000028F9D007B030BD10B5024600201378DF
:1004D000062B18D2DFE803F01703070B0F130123D5
:1004E0005C4C236010E002235A4C23600CE0032391
:1004F000584C236008E00423564C236004E0052395
:10050000544C236000E000BF00BF524B1B68012B1E
:1005100008D1002004E0431CD35C514C2354401C00
:100520000C28F8DB4B4B1B68052B08D1002004E09E
:10053000431CD35C4A4C2354401C0C28F8DB10BDF0
:10054000DCB00027642143A805F057FAB846002024
:100550004149C87002F003FC02F0D8FB434800F0A8
:1005600009FD02203C4948740120C870F7E23F4869
:1005700000788DF880003D4840788DF881003B4838
:1005800080788DF882003948C0788DF8830037482C
:1005900000798DF88400354840798DF8850033481E
:1005A00080798DF886003148C0798DF887002F4812
:1005B000007A8DF888002D48407A8DF889002B4804
:1005C000807A8DF88A002948C07A8DF88B002748F8
:1005D000007B8DF88C002548407B8DF88D002348EA
:1005E000807B8DF88E002148C07B8DF88F001F48DE
:1005F000007C8DF890001D48407C8DF891001B48D0
:10060000807C8DF892001948C07C8DF893001748C3
:10061000007D8DF894001548407D8DF895001348B5
:10062000807D8DF896001148C07D8DF897000F48A9
:10063000007E8DF898000D48407E8DF899000B489B
:10064000807E8DF89A000948C07E8DF89B0007488F
:10065000007F0DE000000020CC01002054010020AC
:10066000F00000200000000000480040640000206E
:100670008DF89C00FE48407F8DF89D00FC48807FEF
:100680008DF89E00FA48C07F8DF89F00F84890F8DA
:1006900020008DF8A000F64890F821008DF8A10008
:1006A000F34890F822008DF8A200F14890F823005A
:1006B0008DF8A300EE4890F824008DF8A400EC48D3
:1006C00090F825008DF8A500E94890F826008DF8EF
:1006D000A600E74890F827008DF8A700E44890F8B6
:1006E00028008DF8A800E24890F829008DF8A900AC
:1006F000DF4890F82A008DF8AA00DD4890F82B001A
:100700008DF8AB00DA4890F82C008DF8AC00D84892
:1007100090F82D008DF8AD00D54890F82E008DF89A
:10072000AE00D34890F82F008DF8AF00D04890F875
:1007300030008DF8B000CE4890F831008DF8B1004F
:10074000CB4890F832008DF8B200C94890F83300D9
:100750008DF8B300C64890F834008DF8B400C44852
:1007600090F835008DF8B500C14890F836008DF846
:10077000B600BF4890F837008DF8B700BC4890F835
:1007800038008DF8B800BA4890F839008DF8B900F3
:10079000B74890F83A008DF8BA00B54890F83B0099
:1007A0008DF8BB00B24890F83C008DF8BC00B04812
:1007B00090F83D008DF8BD00AD4890F83E008DF8F2
:1007C000BE00AB4890F83F008DF8BF00A84890F8F5
:1007D00040008DF8C000A64890F841008DF8C10097
:1007E000A34890F842008DF8C200A14890F8430059
:1007F0008DF8C3009E4890F844008DF8C4009C48D2
:1008000090F845008DF8C500994890F846008DF89D
:10081000C600974890F847008DF8C700944890F8B4
:1008200048008DF8C800924890F849008DF8C9003A
:100830008F4890F84A008DF8CA008D4890F84B0018
:100840008DF8CB008A4890F84C008DF8CC00884891
:1008500090F84D008DF8CD00854890F84E008DF849
:10086000CE00834890F84F008DF8CF00804890F874
:1008700050008DF8D0007E4890F851008DF8D100DE
:100880007B4890F852008DF8D200794890F85300D8
:100890008DF8D300764890F854008DF8D400744851
:1008A00090F855008DF8D500714890F856008DF8F5
:1008B000D6006F4890F857008DF8D7006C4890F834
:1008C00058008DF8D8006A4890F859008DF8D90082
:1008D000674890F85A008DF8DA00654890F85B0098
:1008E0008DF8DB00624890F85C008DF8DC00604811
:1008F00090F85D008DF8DD005D4890F85E008DF8A1
:10090000DE005B4890F85F008DF8DF00584890F8F3
:1009100060008DF8E000564890F861008DF8E10025
:10092000534890F862008DF8E200514890F8630057
:100930008DF8E3004E4890F864008DF8E4004C48D0
:1009400090F865008DF8E500494890F866008DF84C
:10095000E600474890F867008DF8E700444890F8B3
:1009600068008DF8E800424890F869008DF8E900C9
:100970003F4890F86A008DF8EA003D4890F86B0017
:100980008DF8EB003A4890F86C008DF8EC00384890
:1009900090F86D008DF8ED00354890F86E008DF8F8
:1009A000EE00334890F86F008DF8EF00304890F873
:1009B00070008DF8F0002E4890F871008DF8F1006D
:1009C0002B4890F872008DF8F200294890F87300D7
:1009D0008DF8F300264890F874008DF8F400244850
:1009E00090F875008DF8F500214890F876008DF8A4
:1009F000F6001F4890F877008DF8F7001C4890F833
:100A000078008DF8F8001A4890F879008DF8F90010
:100A1000174890F87A008DF8FA00154890F87B0096
:100A20008DF8FB00124890F87C008DF8FC0010480F
:100A300090F87D008DF8FD000D4890F87E008DF84F
:100A4000FE000B4890F87F008DF8FF00084890F8F2
:100A500080008DF800010648D0F8840041900448D9
:100A6000D0F888007C2224A94290684602E0000069
:100A70006400002004F08FFF20A80FC800F0A0FA47
:100A800000B16CE0364800F07CFA0446B8F1080F7B
:100A900060D2DFE808F0040D5F15222B3644FF2CEE
:100AA00005D14FF0010800202E490880002754E0AE
:100AB000FF2C02D14FF0030801E04FF000084CE09A
:100AC000012C07D1274800882044264908804FF090
:100AD000040801E04FF000083FE02248008820446D
:100AE0002049088025464FF0050836E01D4800885B
:100AF00020441C49088044EA052006B24FF006084D
:100B00002BE01848008820441649088038467F1C8E
:100B100043A90C54B74201DB4FF007081DE0114810
:100B20000088FF2190FBF1F201FB12000D490880C3
:100B30000846008884420AD1314643A8FFF7C4FC26
:100B4000FFF70FFC002007490880804601E04FF0C6
:100B5000000802E04FF0000800BF00BF00BF06E53C
:100B60006400002004000020704700BFFEE700BFC3
:100B7000FEE700BFFEE700BFFEE770477047704723
:100B8000704700000CB50020019000907648006886
:100B900040F480307449086000BF7348006800F476
:100BA000003000900198401C0190009818B90198FD
:100BB000B0F5A04FF1D16C48006800F4003010B1DE
:100BC0000120009001E0002000900098012846D10B
:100BD00065484030006840F080506349403108600B
:100BE0006248006840F44040604908605E48083050
:100BF00000685D49083108600846006840F400401C
:100C000008600846006840F4A05008605848091F72
:100C10000860081F006840F08070091F086000BF6E
:100C20005148006800F000700028F9D040F20570CB
:100C3000504908604C480830006820F003004A49D9
:100C4000083108600846006840F00200086000BFF4
:100C500045480830006800F00C000828F8D10CBDA9
:100C600010B54548006840F47000434908603E48AC
:100C7000006840F001003C49086000203A49083112
:100C80000860394800683D490840374908603C48D9
:100C9000091D0860081F006820F48020091F0860F3
:100CA000002031490C310860FFF76CFF4FF0006005
:100CB00031498039086010BD70B500200022022340
:100CC00000240221284D08352D6805F00C0020B1C4
:100CD000042806D0082834D107E02A4D2A4E356072
:100CE00033E02A4D284E35602FE01F4D2D1D2D6815
:100CF000C5F380541C4D2D1D2D6805F03F0154B1E6
:100D0000224DB5FBF1F5184E361D3668C6F3881630
:100D100005FB06F209E01B4DB5FBF1F5124E361D41
:100D20003668C6F3881605FB06F20F4D2D1D2D689B
:100D3000C5F301456D1C6B00B2FBF3F5124E356037
:100D400003E0104D104E356000BF00BF064D083562
:100D50002D68C5F303150E4E705D0B4D2D68C54013
:100D6000094E356070BD0000003802400070004040
:100D700008544007003C024088ED00E0FFFFF6FE0B
:100D8000103000240024F4000800002000127A0033
:100D90000C0000202DE9F0418AB004460D461646AD
:100DA0001F46DDF840800121084602F02DFF012199
:100DB000480602F072FF4FF4C050089002208DF8F0
:100DC000240000208DF8260003208DF82500012046
:100DD0008DF8270008A9554802F078FC09220B215C
:100DE000524802F0FEFC09220C21504802F0F9FCA6
:100DF00000208DF81A008DF81B008DF81C008DF86E
:100E00001D008DF81E008DF81F008DF816808DF8DE
:100E100017408DF818608DF81950ADF8147005A9B9
:100E2000434803F088FA00208DF80E008DF80F007B
:100E300001208DF810000020ADF80400ADF8060088
:100E4000ADF80800ADF80A00ADF80C0001208DF8EF
:100E5000110001A803F0F9FA01220221344803F03D
:100E6000F3FD14208DF8000001208DF80100002012
:100E70008DF8020001208DF80300684602F035FB72
:100E800000200AB0BDE8F081F0B585B007460D46F8
:100E9000002432200090019000208DF808008DF889
:100EA00009008DF80A5000BF05E0395D0DF10B0017
:100EB0000155601C84B2AC42F7DB69461C4803F064
:100EC000B3FB0646002401E0601C84B2314618489A
:100ED00003F042FC18B940F6FF708442F4DB40F6A0
:100EE000FF70844202DB012005B0F0BD0020FBE76B
:100EF00030B585B0054600210D4803F00DFD10B951
:100F0000002005B030BD6A460021094803F081FC8D
:100F1000002404E00DF10B00005D2855641C9DF8D1
:100F20000A00A042F6D89DF80A00EAE70000024055
:100F3000006400401CB50121202002F065FE4FF442
:100F4000C060009001208DF8040000208DF806009C
:100F500003208DF8050001208DF80700694604483C
:100F600002F0B4FB4FF4C061014802F02BFC1CBD41
:100F70000014024010B504468C21204604F03DFDCB
:100F800010BD10B50146D1F88420885CD1F88420CA
:100F9000521C812392FBF3F403FB1422C1F884203A
:100FA00010BD10B5D0F888208154D0F88820521C8C
:100FB000812392FBF3F403FB1422C0F8882010BDB8
:100FC0000FB421982299884202D1012004B07047C1
:100FD0000020FBE70FB42298401C812190FBF1F226
:100FE00001FB12002199884202D1012004B0704710
:100FF0000020FBE73EB500230093019302930022FB
:1010000009E000F00F051346521C0DF803500011C3
:10101000082A00D101E00028F3D100BF9DF800307C
:101020009DF8014043EA04130B709DF802309DF8CF
:10103000034043EA04134B709DF804309DF80540CB
:1010400043EA04138B709DF806309DF8074043EA8D
:101050000413CB703EBD70B52DED028B86B0B0EEA3
:10106000408A0546002400200590009501958DF8E2
:1010700009008DF8080008208DF80A008DF80B0093
:101080008DF80C5090218DF80D1000218DF80E1068
:1010900005A9BDEEC80A10EE100AFFF7ABFF9DF8D8
:1010A00014108DF80F109DF815108DF810109DF884
:1010B00016108DF811109DF817108DF8121000BF42
:1010C00000BF6946FE4803F0AFFA0646601C84B2D2
:1010D000C82001F015FF042E03D140F6FF708442B2
:1010E000EFDB002401E0601C84B23146F44803F0D9
:1010F00033FB18B940F6FF708442F4DB40F6FF7012
:10110000844204DB012006B0BDEC028B70BD0020E0
:10111000F9E710B5EB480078401CEA490870EA4846
:10112000407C68B99FEDE90AE94880ED0C0A9FED23
:10113000E70A80ED0D0A9FEDE50A80ED0E0A3AE020
:10114000E148407C01280FD1E148D0ED081AB0EE0B
:10115000611AD0ED071AF0EE610AD0ED061AB0EE72
:10116000610A00F0DFFC26E0D748407C02280FD15E
:10117000D748D0ED051AB0EE611AD0ED041AF0EEA2
:10118000610AD0ED031AB0EE610A00F051FC12E0E2
:10119000CD48407C03280ED1CD48D0ED081AB0EEE2
:1011A000611AD0ED071AF0EE610AD0ED061AB0EE22
:1011B000610A00F0C9FBC448407C012807D0C2483E
:1011C000407C022803D0C048407C03285ED1BD4843
:1011D0000078032190FBF1F201FB1200B0B9C820A6
:1011E00001F08EFEBA48D0ED0E0AB0EE600A302053
:1011F000FFF731FFC82001F083FEB548D0ED0D0A9E
:10120000B0EE600A3220FFF726FF57E0AD480078C5
:10121000032190FBF1F201FB1200012816D1C82036
:1012200001F06EFEAA48D0ED0D0AB0EE600A322041
:10123000FFF711FFC82001F063FEA548D0ED0C0AAE
:10124000B0EE600A3620FFF706FF37E09D480078D1
:10125000032190FBF1F201FB120002282ED1C820DD
:1012600001F04EFE9A48D0ED0E0AB0EE600A302032
:10127000FFF7F1FEC82001F043FE9548D0ED0C0ABF
:10128000B0EE600A3620FFF7E6FE17E036209FED4D
:101290008F0AFFF7E0FEC82001F032FE30209FEDFC
:1012A0008B0AFFF7D8FEC82001F02AFE32209FEDFE
:1012B000870AFFF7D0FEC82001F022FE10BDF0B56E
:1012C00085B004460F4600250094019400208DF857
:1012D00009008DF8080003208DF80A008DF80B0036
:1012E0008DF80C408DF80D7000BF00BF6946744842
:1012F00003F09AF90646681C85B2C82001F000FE8A
:10130000042E03D140F6FF708542EFDB01E0681C3C
:1013100085B231466A4803F01FFA18B940F6FF70EB
:101320008542F4DB05B0F0BD10B52DED0E8B69489C
:101330000078C0B901206749087001210846FFF70D
:10134000BEFFC82001F0DCFD01210320FFF7B7FF3D
:10135000C82001F0D5FD01210220FFF7B0FFC82011
:1013600001F0CEFD57E25C480078401CC0B25A49FB
:101370000870032190FBF1F201FB1200401CC4B283
:1013800000212046FFF79BFFC82001F0B9FD52481D
:101390000078401CC0B250490870032190FBF1F264
:1013A00001FB1200401CC4B200212046FFF787FF5A
:1013B000C82001F0A5FD464890ED150A10EE101A60
:1013C000084606F02FFD41EC190B414890ED120A3A
:1013D00010EE101A084606F025FD41EC1E0B9FED9D
:1013E0003F0B53EC102B06F039F841EC1D0B9FED31
:1013F0003D0B53EC102B06F01FFA41EC1C0B9FED3C
:101400003B0B53EC102B06F017FA41EC1B0B9FED36
:10141000390B53EC102B06F00FFA41EC1A0B53EC7E
:10142000192B06F015FC41EC180B05F029FF334988
:101430000860274890ED150A0846D0ED000A30EE06
:10144000200A234880ED150AC82001F059FD2048E4
:1014500090ED170A10EE101A084606F0E3FC41EC76
:10146000190B1B4890ED140A10EE101A084606F0EE
:10147000D9FC41EC1E0B9FED190B53EC102B05F022
:10148000EDFF41EC1D0B9FED170B53EC102B06F0FD
:10149000D3F941EC1C0B9FED150B53EC102B06F010
:1014A000CBF941EC1B0B9FED130B53EC102B06F00B
:1014B000C3F941EC1A0B53EC192B06F0C9FB1FE0E2
:1014C000006400401C000020CC010020000000004F
:1014D000540100201E0000201D000020000000001C
:1014E0000080764000000000000000406F1283C0C2
:1014F000CA210940E9263108AC1CAA3FE4010020BA
:1015000041EC180B05F0BCFEF8498860F84890EDF6
:10151000170A0846D0ED020A30EE200AF44880EDA2
:10152000170AC82001F0ECFCF14890ED160A10EE05
:10153000101A084606F076FC41EC190BEC4890EDC9
:10154000130A10EE101A084606F06CFC41EC1E0B54
:101550001FED1E0B53EC102B05F080FF41EC1D0B13
:101560001FED200B53EC102B06F066F941EC1C0B21
:101570001FED220B53EC102B06F05EF941EC1B0B18
:101580001FED240B53EC102B06F056F941EC1A0B0F
:1015900053EC192B06F05CFB41EC180B05F070FEC8
:1015A000D2494860D24890ED160A0846D0ED010AAB
:1015B00030EE200ACE4880ED160AC82001F0A0FCCB
:1015C000CB48D0ED110AB0EE600ACA49C74801F015
:1015D0003AF9C84890ED000A10EE101A084606F0D5
:1015E00021FC41EC180B9FEDC40B53EC102B06F0C3
:1015F000E7F815D2BF4890ED000A10EE101A084621
:1016000006F010FC41EC180B9FEDBD0B53EC102BBA
:1016100006F010FA04D21FED530AB64880ED000A16
:10162000B44890ED010A10EE101A084606F0FAFBD5
:1016300041EC180B9FEDB00B53EC102B06F0C0F8EB
:1016400015D2AC4890ED010A10EE101A084606F0CB
:10165000E9FB41EC180B9FEDAA0B53EC102B06F0A5
:10166000E9F904D21FED670AA24880ED010AA148FA
:1016700090ED020A10EE101A084606F0D3FB41EC7A
:10168000180B9FED9D0B53EC102B06F099F815D21B
:10169000984890ED020A10EE101A084606F0C2FBB8
:1016A00041EC180B9FED960B53EC102B06F0C2F992
:1016B00004D21FED7A0A8F4880ED020A8C4890ED23
:1016C0000F0A8C48D0ED000A30EE600A884880EDA1
:1016D0000F0A90ED100A8748D0ED010A30EE600A3B
:1016E000834880ED100A884890ED041BB0EE410A53
:1016F000F0EE610A51EC100B05F0C2FD7C49486424
:101700007C497A4800F08DFC7A4890ED000A10EE92
:10171000101A084606F086FB41EC180B9FED760B7D
:1017200053EC102B06F04CF815D2724890ED000ADD
:1017300010EE101A084606F075FB41EC180B9FEDF1
:10174000700B53EC102B06F075F904D21FEDA10AB3
:10175000684880ED000A674890ED010A10EE101A03
:10176000084606F05FFB41EC180B9FED630B53EC52
:10177000102B06F025F815D25E4890ED010A10EE08
:10178000101A084606F04EFB41EC180B9FED5C0B5F
:1017900053EC102B06F04EF904D21FEDB40A554855
:1017A00080ED010A534890ED020A10EE101A084627
:1017B00006F038FB41EC180B9FED4F0B53EC102B50
:1017C00005F0FEFF15D24B4890ED020A10EE101AFC
:1017D000084606F027FB41EC180B9FED490B53EC34
:1017E000102B06F027F904D21FEDC80A414880EDFE
:1017F000020A404890ED000A3D4880ED000A3D484D
:1018000090ED010A3A4880ED010A3A4890ED020A4B
:10181000374880ED020ABDEC0E8B10BD10B50121DA
:101820003A4803F079F918B10121384803F00FFA6A
:1018300010BD10B586B00221344803F06DF90028C0
:101840007CD0002001903220029000208DF80C0006
:101850008DF80E008DF8170001AA00212B4802F028
:10186000D8FF0298B0F5887F16D19DF80E000628A3
:1018700012D19DF80F0002280ED1002407E00DF1CF
:101880000F00A11C405C0DF80400601CC4B2042CC5
:10189000F5DB1748009981640298B0F5047F16D1F2
:1018A0009DF80E00062812D19DF80F0002280ED1D7
:1018B000002407E00DF10F00A11C405C0DF80400AE
:1018C000601CC4B2042CF5DB09480099C16402987D
:1018D000B0F5447F29D19DF80E00062825D19DF84A
:1018E0000F00022821D100241AE027E0E4010020A3
:1018F00054010020F00100208DEDB5A0F7C6B03EE8
:101900008DEDB5A0F7C6B0BEA8020020006400406F
:101910000DF10F00A11C405C0DF80400601CC4B266
:10192000042CF5DB0648009901650221054803F007
:101930008EF90021034802F0E4FF00BF06B010BD9D
:10194000540100200064004010B52DED0A8BB0EE6C
:10195000408AF0EE608AB0EE419AB1EE480AFE4845
:1019600080ED000AB1EE680A80ED010A80ED029A6E
:10197000FA4900F09DFAF94890ED000A10EE101AAD
:10198000084606F04FFA41EC1C0B9FEDF50B53ECAB
:10199000102B05F063FD41EC1B0B9FEDF30B53EC9B
:1019A000102B05F049FF41EC1A0B05F069FCF049DA
:1019B0000863EA4890ED010A10EE101A084606F096
:1019C00031FA41EC1C0B9FEDE60B53EC102B05F0AC
:1019D00045FD41EC1B0B9FEDE40B53EC102B05F088
:1019E0002BFF41EC1A0B05F04BFCE1494863DB4847
:1019F00090ED020A10EE101A084606F013FA41ECB8
:101A00001C0B9FEDD70B53EC102B05F027FD41EC81
:101A10001B0B9FEDD50B53EC102B05F00DFF41EC8C
:101A20001A0B05F02DFCD2498863BDEC0A8B10BD62
:101A300010B52DED0A8BB0EE408AF0EE608AB0EE64
:101A4000419AB1EE480ACB4880ED000AB1EE680A2F
:101A500080ED010A80ED029AC548D0ED110AB0EE82
:101A6000600AC549C34800F07CFDC34890ED000AF8
:101A700010EE101A084606F0D5F941EC1C0B9FED4C
:101A8000B80B53EC102B05F0E9FC41EC1B0B9FED60
:101A9000B60B53EC102B05F0CFFE41EC1A0B05F002
:101AA000EFFBB3490863B44890ED010A10EE101A39
:101AB000084606F0B7F941EC1C0B9FEDA90B53EC5F
:101AC000102B05F0CBFC41EC1B0B9FEDA70B53EC4F
:101AD000102B05F0B1FE41EC1A0B05F0D1FBA44927
:101AE0004863A54890ED020A10EE101A084606F069
:101AF00099F941EC1C0B9FED9A0B53EC102B05F060
:101B0000ADFC41EC1B0B9FED980B53EC102B05F03B
:101B100093FE41EC1A0B05F0B3FB95498863BDECCD
:101B20000A8B10BD10B52DED0A8BB0EE408AF0EE99
:101B3000608AB0EE419A914880ED008AC0ED018A3A
:101B400080ED029A8E4900F0B3F98D4890ED000ABD
:101B500010EE101A084606F065F941EC1C0B9FEDDB
:101B6000800B53EC102B05F079FC41EC1B0B9FED27
:101B70007E0B53EC102B05F05FFE41EC1A0B05F0C9
:101B80007FFB7B4908637E4890ED010A10EE101A36
:101B9000084606F047F941EC1C0B9FED710B53EC26
:101BA000102B05F05BFC41EC1B0B9FED6F0B53EC16
:101BB000102B05F041FE41EC1A0B05F061FB6C495E
:101BC00048636F4890ED020A10EE101A084606F0BE
:101BD00029F941EC1C0B9FED620B53EC102B05F027
:101BE0003DFC41EC1B0B9FED600B53EC102B05F003
:101BF00023FE41EC1A0B05F043FB5D498863BDEC05
:101C00000A8B10BD10B52DED048BB0EE408AF0EEBE
:101C1000608A88EE280AB0EE409AB0EE491ADFEDED
:101C2000590AB0EE480AFFF77DFFBDEC048B10BDEA
:101C300010B52DED068BF0EE409AB0EE60AAB0EE36
:101C4000418AF0EE618AF0EE42AA88EE280AB0EEF0
:101C5000409AB0EE491ADFED4B0AB0EE480AFFF7A2
:101C600061FFBDEC068B10BD00B52DED108B85B06E
:101C7000B0EE40FAB0EE608AF0EE418AF0EE61FA22
:101C800018EE100A06F0CEF841EC1A0B384890ED29
:101C90000F0A10EE101A084606F0C4F841EC1C0BAF
:101CA0009FED390B53EC102B05F0C6FD41EC1B0BDF
:101CB00053EC1A2B05F0D2FB41EC190BB0EE490A9C
:101CC000F0EE690A03F024FFB0EE40DAF0EE60DADD
:101CD00018EE100A06F0A6F841EC190BB0EE000A57
:101CE0002FEE000A10EE101A084606F09BF841ECA1
:101CF0001B0B9FED270B53EC102B05F09DFD41ECCA
:101D00001A0B53EC192B05F0A9FB41EC1E0B53ECFD
:101D10001D2B05F091FDCDE902019DED020B51EC6B
:101D2000100B05F0ADFA1C4908600846006806F083
:101D300079F841EC1E0B9FED191BB0EE4E0AF0EE48
:101D40006E0A03F049FFB0EE40DAF0EE60DA9FED84
:101D5000150B53EC102B29E0FC0100200802002099
:101D6000E9263108AC1CAA3F872EDE7913A64C4029
:101D70005401002014020020200200202C02002028
:101D800038020020000000006F1283C0CA211940F1
:101D90006F1283C0CA21094020000020000000000B
:101DA00000000040000000000000F03F51EC1D0B5F
:101DB00005F098FACDE902019DED020B04F08CFDCF
:101DC000B0EE40CAF0EE60CA53EC1C2B1FED0B0BBB
:101DD00051EC100B05F042FB41EC1A0B18EE900A87
:101DE00006F020F841EC1B0B53EC1A2B05F024FDF8
:101DF00041EC190B05F044FA2B49C8602B480068E8
:101E000006F010F81FED1B1BCDE900019DED000B46
:101E100003F0E2FE8DED020B1FED1E0B53EC102BB9
:101E20009DED020B51EC100B05F05CFA41EC1C0B24
:101E3000B0EE4C0AF0EE6C0A04F04EFDB0EE40BA83
:101E4000F0EE60BA1948006805F0ECFF41EC1D0B9C
:101E500053EC1B2B05F002FB41EC1A0B18EE900A19
:101E600005F0E0FF41EC1E0B53EC1A2B05F0E4FCEF
:101E700041EC190B05F004FA0B4908610846C0ED66
:101E800005FAD0ED051AB0EE611AD0ED041AF0EEA5
:101E9000610AD0ED031AB0EE610AFFF7C9FD05B083
:101EA000BDEC108B00BD70475401002020000020C5
:101EB00070B52DED0C8B04460D4694ED020A10EE24
:101EC000101A084605F0AEFF41EC1B0B9FEDFE0B10
:101ED00053EC102B05F0B0FC41EC190B94ED000A0B
:101EE000DFEDFB0A20EE200AD4ED010AB7EE001A5E
:101EF00001EE200A10EE101A084605F093FF41EC9F
:101F00001A0B53EC192B05F0EDF941EC180B05F009
:101F1000B7F9286094ED020A10EE101A084605F091
:101F200081FF41EC1B0B9FEDE80B53EC102B05F0F0
:101F300083FC41EC190B94ED010A10EE101A0846CF
:101F400005F070FF41EC1D0B9FEDE20B53EC102BE5
:101F500005F072FC41EC1B0B94ED000A10EE101A18
:101F6000084605F05FFF41EC1D0B9FEDDC0B53ECC9
:101F7000102B05F061FC41EC1C0B53EC1B2B05F006
:101F800067FE41EC1A0B53EC192B05F0ABF941EC51
:101F9000180B05F075F9686094ED020A10EE101A3E
:101FA000084605F03FFF41EC1A0B9FEDC70B53ECC1
:101FB000102B05F041FC41EC190B94ED010A10EED9
:101FC000101A084605F02EFF41EC1D0B9FEDC10BCA
:101FD00053EC102B05F030FC41EC1C0B94ED000A87
:101FE00010EE101A084605F01DFF41EC1D0B9FED89
:101FF000BD0B53EC102B05F01FFC41EC1A0B53ECFE
:102000001C2B05F025FE41EC180B53EC192B05F0A9
:1020100069F941EC1B0B05F033F9A860BDEC0C8BA2
:1020200070BD70B52DED0C8B04460D4694ED020A83
:1020300010EE101A084605F0F5FE41EC1B0B9FED63
:10204000AB0B53EC102B05F0F7FB41EC190B94EDA7
:10205000010A10EE101A084605F0E4FE41EC1D0BD3
:102060009FEDA40B53EC102B05F0E6FB41EC1B0B92
:1020700094ED000ADFED960A20EE200A10EE101A09
:10208000084605F0CFFE41EC1C0B53EC1B2B05F072
:1020900029F941EC1A0B53EC192B05F023F941EC0B
:1020A000180B05F0EDF8286094ED020A10EE101AF6
:1020B000084605F0B7FE41EC1B0B9FED900B53EC6F
:1020C000102B05F0B9FB41EC1A0B94ED010A10EE50
:1020D000101A084605F0A6FE41EC1D0B9FED890B7A
:1020E00053EC102B05F0A8FB41EC1B0B94ED000A00
:1020F00010EE101A084605F095FE41EC1D0B9FED01
:10210000830B53EC102B05F097FB41EC1C0B53ECAD
:102110001B2B05F09DFD41EC180B53EC1A2B05F021
:10212000E1F841EC190B05F0ABF8686094ED000A9A
:10213000D4ED010A30EE200AD4ED020A30EE200A76
:1021400010EE101A084605F06DFE41EC190B9FEDDC
:10215000710B53EC102B05F06FFB41EC180B05F0E5
:102160008FF8A860BDEC0C8B70BD30B52DED108BD9
:1021700085B005460C46B0EE408A94ED020ADFEDCC
:10218000540A20EE200A10EE101A084605F04AFE06
:1021900041EC1A0B94ED010A10EE101A084605F0F6
:1021A00041FE41EC1D0B18EE100A05F03BFE41EC20
:1021B0001F0BB0EE4F0AF0EE6F0A04F029FBB0EEF1
:1021C00040EAF0EE60EA53EC1D2B51EC1E0B05F0DB
:1021D00033FB41EC1C0B94ED000A10EE101A08467C
:1021E00005F020FE41EC1D0B18EE100A05F01AFE5A
:1021F00041EC1F0BB0EE4F0AF0EE6F0A03F088FCC3
:10220000B0EE40EAF0EE60EA53EC1D2B51EC1E0BF1
:1022100005F012FB53EC1C2BCDE902019DED020BE6
:1022200051EC100B05F05EF841EC1B0B53EC1A2B34
:1022300005F058F841EC190B05F022F8286094EDF0
:10224000020ADFED230A20EE200A10EE101A0846DB
:1022500005F0E8FD41EC190B94ED010A10EE101A9F
:10226000084605F0DFFD41EC1C0B18EE100A05F0E6
:10227000D9FD41EC1E0BB0EE4E0AF0EE6E0A03F0F3
:1022800047FCB0EE40DAF0EE60DA53EC1C2B51EC78
:102290001D0B05F0D1FA41EC1A0B94ED000A10EE7B
:1022A000101A084605F0BEFD41EC1C0B18EE100A92
:1022B00005F0B8FD41EC1F0BB0EE4F0AF0EE6F0ACF
:1022C00004F0A6FA2AE0000052B81E85EB51D03F78
:1022D00000000000000000000000E03FBC96900FEE
:1022E0007AB6EBBFBC96900F7AB6EB3F280F0BB5D2
:1022F000A679E23F280F0BB5A679E2BF465D6BEFEA
:102300005355D5BF465D6BEF5355D53F5D514A08D8
:102310005655E53F2AA1943C3EEAF43FB0EE40EA30
:10232000F0EE60EA51EC1E0B04F09DFF41EC1D0B3A
:1023300053EC1C2B05F080FA41EC1B0B53EC1A2BD1
:1023400004F0D0FF53EC192BCDE900019DED000BFB
:1023500051EC100B04F0C6FFCDE902019DED020B1C
:1023600051EC100B04F08CFF686094ED000A5FEDF7
:10237000280A20EE200AD4ED010A1FED2B1A01EEE7
:10238000200AD4ED020AB7EE001A01EE200A85ED0C
:10239000020A05B0BDEC108B30BD30B52DED108BB1
:1023A00083B004460D46B0EE408A94ED020A5FED1C
:1023B000380A20EE200A10EE101A084605F032FD09
:1023C00041EC1A0B94ED010A10EE101A084605F0C4
:1023D00029FD41EC1D0B18EE100A05F023FD41EC20
:1023E0001F0BB0EE4F0AF0EE6F0A04F011FAB0EED8
:1023F00040EAF0EE60EA53EC1D2B51EC1E0B05F0A9
:102400001BFA41EC1C0B94ED000A10EE101A084662
:1024100005F008FD41EC1D0B18EE100A05F002FD59
:1024200041EC1F0BB0EE4F0AF0EE6F0A03F070FBA9
:10243000B0EE40EAF0EE60EA53EC1D2B51EC1E0BBF
:1024400005F0FAF953EC1C2BCDE900019DED000BD2
:1024500051EC100B05F0FCFB41EC1B0B53EC1A2B61
:1024600004F040FF41EC190B04F00AFF286094EDE2
:10247000020A5FED690A20EE200A10EE101A0846E3
:1024800005F0D0FC41EC190B94ED010A10EE101A86
:10249000084605F0C7FC41EC1D0B18EE100A05F0CC
:1024A000C1FC41EC1F0BB0EE4F0AF0EE6F0A03F0D7
:1024B0002FFBB0EE40EAF0EE60EA53EC1D2B51EC3E
:1024C0001E0B05F0B9F941EC1B0B94ED000A10EE60
:1024D000101A084605F0A6FC41EC1D0B18EE100A78
:1024E00005F0A0FC41EC1F0BB0EE4F0AF0EE6F0AB6
:1024F00004F08EF9B0EE40EAF0EE60EA53EC1D2BEA
:1025000051EC1E0B05F098F941EC1C0B53EC1B2B06
:1025100004F0E8FE41EC1A0B53EC192B04F0E2FE38
:10252000CDE900019DED000B51EC100B04F0A8FE6D
:10253000686094ED000A5FED9A0A20EE200AD4ED5F
:10254000010A1FED9D1A01EE200AD4ED020AB7EE32
:10255000001A01EE200A85ED020A03B0BDEC108BD3
:1025600030BD30B52DED108B87B004460D46B0EE72
:10257000408A94ED020A10EE101A084605F052FC4B
:1025800041EC1B0B1FEDB00B53EC102B05F054F975
:1025900041EC1A0B94ED010A10EE101A084605F0F2
:1025A00041FC41EC1C0B18EE100A05F03BFC41EC21
:1025B0001E0BB0EE4E0AF0EE6E0A03F0A9FAB0EE72
:1025C00040DAF0EE60DA53EC1C2B51EC1D0B05F0F9
:1025D00033F941EC1B0B94ED000A10EE101A08467B
:1025E00005F020FC41EC1C0B18EE100A05F01AFC5B
:1025F00041EC1F0BB0EE4F0AF0EE6F0A04F008F941
:10260000B0EE40EAF0EE60EA51EC1E0B04F02BFE57
:1026100041EC1D0B53EC1C2B05F00EF953EC1B2B5E
:10262000CDE902019DED020B51EC100B04F05AFEB6
:1026300053EC1A2BCDE904019DED040B51EC100B6A
:1026400004F050FE41EC190B04F01AFE286094EDE2
:10265000020A10EE101A084605F0E4FB41EC190BD3
:102660001FEDE70B53EC102B05F0E6F8CDE9020166
:1026700094ED010A10EE101A084605F0D3FB41EC68
:102680001B0B18EE100A05F0CDFB41EC1E0B9FED65
:10269000FE0B53EC102B05F003FA41EC1D0BB0EED2
:1026A0004D0AF0EE6D0A03F033FAB0EE40CAF0EED8
:1026B00060CA53EC1B2B51EC1C0B05F0BDF841EC30
:1026C000190B94ED000A10EE101A084605F0AAFB4B
:1026D00041EC1B0B18EE100A05F0A4FB41EC1F0B9C
:1026E0009FEDE90B53EC102B05F0DAF941EC1E0BD2
:1026F000B0EE4E0AF0EE6E0A04F08AF8B0EE40DA60
:10270000F0EE60DA51EC1D0B04F0ADFD41EC1C0B5A
:1027100053EC1B2B05F090F841EC1A0B53EC192BE2
:1027200005F096FACDE900019DED020B53EC102B5C
:102730009DED000B51EC100B04F0D4FDCDE904012C
:102740009DED040B51EC100B04F09AFD686094EDC4
:10275000020A10EE101A084605F064FB41EC1A0B51
:102760009FEDCB0B53EC102B05F066F8CDE9020181
:1027700094ED010A10EE101A084605F053FB41ECE7
:102780001C0B18EE100A05F04DFB41EC1F0B9FEDE2
:10279000BE0B53EC102B04F0A5FD41EC1E0BB0EE6C
:1027A0004E0AF0EE6E0A03F0B3F9B0EE40DAF0EE46
:1027B00060DA53EC1C2B51EC1D0B05F03DF841EC9D
:1027C0001A0B94ED000A10EE101A084605F02AFBC9
:1027D00041EC1C0B18EE100A05F024FB41EC1F0B1A
:1027E0009FEDA90B53EC102B04F07CFD41EC1E0B6C
:1027F000B0EE4E0AF0EE6E0A04F00AF8B0EE40DADF
:10280000F0EE60DA53EC1C2B51EC1D0B05F014F8C4
:1028100041EC1B0B53EC1A2B05F01AFA41EC190B87
:102820009DED020B53EC102B04F05CFDCDE904018F
:102830009DED040B51EC100B04F022FDA86007B0D5
:10284000BDEC108B30BD30B52DED108B89B004463A
:102850000D46B0EE408A94ED020A10EE101A0846BA
:1028600005F0E0FA41EC1A0B18EE100A05F0DAFA5E
:1028700041EC1F0BB0EE4F0AF0EE6F0A03F0C8FFF9
:10288000B0EE40EAF0EE60EA9FED830B53EC102BC4
:1028900051EC1E0B04F0D0FF41EC1C0B18EE100A9B
:1028A00005F0C0FA41EC1F0BB0EE4F0AF0EE6F0AD4
:1028B00003F02EF9B0EE40EAF0EE60EA9FED780BFF
:1028C00053EC102B51EC1E0B04F0B6FF41EC1D0B2A
:1028D00053EC1C2B04F006FD41EC1B0B53EC1A2BA4
:1028E00004F0AAFFCDE9040194ED010A10EE101ADC
:1028F000084605F097FA41EC1C0B18EE100A05F09B
:1029000091FA41EC1F0BB0EE4F0AF0EE6F0A03F0A4
:102910007FFFB0EE40EAF0EE60EA9FED5F0B53EC14
:10292000102B51EC1E0B04F087FFCDE9020118EECD
:10293000100A05F077FA41EC1F0BB0EE4F0AF0EEEB
:102940006F0A03F0E5F8B0EE40EAF0EE60EA9FEDC2
:10295000560B53EC102B51EC1E0B04F06DFFCDE920
:1029600000019DED020B53EC102B9DED000B51EC83
:10297000100B04F0B7FC41EC1D0B53EC1C2B04F0C6
:102980005BFF41EC1A0B94ED000A10EE101A08469A
:1029900005F048FA41EC1C0B18EE100A05F042FA5B
:1029A00041EC1F0BB0EE4F0AF0EE6F0A03F030FF60
:1029B000B0EE40EAF0EE60EA9FED3D0B53EC102BD9
:1029C00051EC1E0B04F038FF41EC1D0B53EC1C2B9B
:1029D00004F032FF41EC1B0B53EC1A2B04F082FC89
:1029E00041EC190B9DED040B53EC102B04F07AFC19
:1029F000CDE906019DED060B51EC100B04F040FCF7
:102A0000286094ED020A10EE101A084605F00AFA42
:102A100041EC190B18EE100A05F004FA41EC1E0BFC
:102A2000B0EE4E0AF0EE6E0A03F072F8B0EE40DA45
:102A3000F0EE60DA9FED180B53EC102B51EC1D0BF0
:102A400004F0FAFE41EC1C0B18EE100A05F0EAF94E
:102A500041EC1E0BB0EE4E0AF0EE6E0A03F0D8FE0B
:102A6000B0EE40DAF0EE60DA9FED0D0B53EC102B78
:102A700051EC1D0B04F0E0FE41EC1B0B53EC1C2B46
:102A800005F0E6F818E00000F5B6ACD531C1F03F2E
:102A900052B81E85EB51D03F465D6BEF5355D53F85
:102AA000280F0BB5A679E23F280F0BB5A679E2BF38
:102AB0005D514A085655E5BF41EC1A0B53EC192BF2
:102AC00004F0BAFECDE9040194ED010A10EE101AEB
:102AD000084605F0A7F941EC1A0B18EE100A05F0AC
:102AE000A1F941EC1F0BB0EE4F0AF0EE6F0A03F0B4
:102AF0000FF8B0EE40EAF0EE60EA1FED190B53EC70
:102B0000102B51EC1E0B04F097FE41EC1C0B18EE41
:102B1000100A05F087F941EC1F0BB0EE4F0AF0EEFA
:102B20006F0A03F075FEB0EE40EAF0EE60EA1FEDCA
:102B3000220B53EC102B51EC1E0B04F07DFE41ECEC
:102B40001D0B53EC1C2B05F083F841EC1B0B53ECD5
:102B50001A2B04F071FE41EC190B94ED000A10EEF3
:102B6000101A084605F05EF941EC1A0B18EE100A2F
:102B700005F058F941EC1D0BB0EE4D0AF0EE6D0A70
:102B800002F0C6FFB0EE40CAF0EE60CA9FED200B27
:102B900053EC102B51EC1C0B04F04EFE41EC1B0BC4
:102BA00053EC1A2B04F048FE53EC192BCDE900012D
:102BB0009DED000B51EC100B04F094FBCDE90201EC
:102BC0009DED040B53EC102B9DED020B51EC100B03
:102BD00004F088FBCDE906019DED060B51EC100BCE
:102BE00004F04EFB686094ED000AD4ED010A30EE6B
:102BF000200AD4ED020A30EE200ADFED070A20EEAB
:102C0000200A85ED020A09B0BDEC108B30BD000032
:102C10005D514A085655E53FFD51A73F10B50121CA
:102C2000084600F0F1FF0121022000F0EDFF012134
:102C3000042000F0E9FF0121102001F02EF801210D
:102C4000480601F02AF80121880401F026F810BD99
:102C500010B542F20F704D494860532008800020A3
:102C6000488008814A4802F0F2F80121484802F001
:102C700077F901221146464802F08AFD01214448B5
:102C800002F09AFD10BD10B50121414802F097FDF8
:102C900000283AD03F48408A401C00B23D49488253
:102CA0003D48B0F9000000EB800040004FF47A711D
:102CB00091FBF0F000B23749B1F91210884202DC02
:102CC000002034494882354800F078F9344880EDD6
:102CD000000A3448007828B9FEF71BFA0120314970
:102CE000087004E0FEF720FB00202E4908702B48F6
:102CF00000F064F92C4880ED000A0121244802F01C
:102D00006FFD0121224802F057FD10BD10B54FF4B0
:102D1000A06000F0E5FB36202449087001204870CF
:102D2000002088700120C870084600F0DEFB2720D4
:102D30001E4908700020487001208870C87008463D
:102D400000F0D3FB2520194908700020887003206B
:102D500088700120C870084600F0C7FB10BD08B598
:102D6000FFF75CFF00F0D9F8FFF772FFFEF7E2F81B
:102D700000F01EF8002006231A4605210090FEF7F9
:102D800009F84FF4E13000F063F908BD4402002077
:102D900000100040CC0100204A0000202400002048
:102DA0002C000020480000203000002044000020BB
:102DB00000B587B00121022000F026FF0121880420
:102DC00000F06BFF07220A21424800F00AFD0722AB
:102DD0000B21404800F005FD4FF4406001900220B7
:102DE0008DF8080000208DF80A0003208DF80900F6
:102DF00000208DF80B0001A9364800F067FC4FF465
:102E0000E13003900020ADF81000ADF81200ADF8ED
:102E100014000C20ADF816000020ADF8180003A92E
:102E20002D4801F0ACF8012240F225512A4801F06A
:102E3000E4F90121284801F02AF907B000BD10B5D6
:102E4000044600BF4021244801F0FCF90028F9D0D5
:102E50002146214801F046F910BD70B504460D46E3
:102E600000BF40211C4801F0EDF90028F9D0E1B283
:102E7000194801F037F9204670BD10B5A0B0002404
:102E800040F22551144801F0F3F900B313480068EB
:102E900008B9012000E00020104908607C22104998
:102EA000684602F078FD0E4810380FC8FEF792F819
:102EB00040B90948001D0088C4B2214608481038AE
:102EC000FEF76FF840F22551034801F00CFA20B0EC
:102ED00010BD00000004024000480040A4824242AD
:102EE0007400002010B5002107E04AF2104200BF34
:102EF0001300A2F10102FBD1491C8142F5D310BDA0
:102F000010B5002106E0282200BF1300A2F1010243
:102F1000FBD1491C8142F6D310BD1FB54FF4A06010
:102F200000F0DEFA1E208DF80C0001208DF80D0057
:102F300000208DF80E0001208DF80F0003A800F08E
:102F4000D4FA0121042000F0A8FE364801F0D2FE98
:102F50004FF6FF7001905320ADF800000020ADF84F
:102F60000800ADF8020069462E4801F070FF01210B
:102F70002C4802F021FC012211462A4802F008FCEC
:102F80000121284801F0ECFF0121042000F085FE1A
:102F90001FBD2448243000682349B1F900104FF4C4
:102FA000803202FB010000EE900AF8EE600A9FED0D
:102FB0001F1AC0EE811AB0EE610A704730B5194B86
:102FC00024331B68184CB4F900404FF4803505FBDE
:102FD00004320368D11A0260002902DA9FED140A54
:102FE00030BD00EE101AF8EEC00AB0EE600AF7E746
:102FF00010B501210B4802F0E2FB88B10A480088B5
:10300000401C00B2084908800846B0F90000B0F53D
:103010007A7F01DB002008800121024802F0E0FBFA
:1030200010BD0000000800404C000020002474493E
:103030000000000010B5044600BF4021FC4801F02C
:1030400001F90028F9D02146F94801F04BF810BDEC
:1030500010B586B004460121084600F0D5FD0121D7
:10306000102000F02BFE07220921F24800F0B9FBE6
:1030700007220A21EF4800F0B4FB4FF4C060009033
:1030800002208DF8040000208DF8060003208DF842
:10309000050000208DF807006946E64800F016FBA1
:1030A00002940020ADF80C00ADF80E00ADF8100051
:1030B0000C20ADF812000020ADF8140002A9DC4885
:1030C00000F05DFF012240F22551D94801F095F84A
:1030D0000121D74800F0DBFF0A20FFF703FFFF20A4
:1030E000FFF7A8FFAA20FFF7A5FF5220FFF7A2FFD6
:1030F00006B010BD10B52DED048B82B00446CE484D
:1031000001780078401CCC4A1070CC4844540078B8
:10311000552806D000201146087002B0BDEC048B83
:1031200010BDC54800780B2800DAF6E7C3484078A0
:10313000512804D052286AD053287AD1D1E0BF4810
:1031400040880190BDF9040004F00FFB41EC190B1D
:103150009FEDBB0B53EC102B04F080F941EC180BE6
:103160009FEDB90B53EC102B04F066FBB84A03C279
:10317000B24840680190BDF9040004F0F6FA41EC51
:10318000190B9FEDAF0B53EC102B04F067F941ECDA
:10319000180B9FEDAD0B53EC102B04F04DFBAC4A1C
:1031A000C2E90201A548C0880190BDF9040004F0FD
:1031B000DCFA41EC190B9FEDA20B53EC102B04F041
:1031C0004DF941EC180B9FEDA00B53EC102B04F0C4
:1031D00033FB9F4AC2E90401984880680190BDF919
:1031E000040004F0C2FA41EC190B9FED9A0B53EC6A
:1031F000102B04F033F941EC180B9FED980B53ECB6
:10320000102B04F06FF8924AC2E90601D2E08B4815
:1032100040880190BDF9040004F0A7FA41EC190BB5
:103220009FED870B53EC102B04F018F941EC180BB1
:1032300000E0BEE09FED8B0B53EC102B04F0FCFA8A
:103240008A4A03C27D4840680190BDF9040004F039
:103250008CFA41EC190B9FED7A0B53EC102B04F018
:10326000FDF841EC180B9FED7F0B53EC102B04F095
:10327000E3FA7E4AC2E902017048C0880190BDF9B4
:10328000040004F072FA41EC190B9FED6D0B53EC46
:10329000102B04F0E3F841EC180B9FED720B53EC8C
:1032A000102B04F0C9FA714AC2E90401634880682E
:1032B0000190BDF9040004F058FA41EC190B9FEDA0
:1032C000650B53EC102B04F0C9F841EC180B9FED83
:1032D000630B53EC102B04F005F8644AC2E90601B5
:1032E00068E0564840880190BDF9040004F03DFABA
:1032F00041EC190B9FED520B53EC102B04F0AEF880
:1033000041EC180B9FED5A0B53EC102B04F094FA80
:10331000594A03C2494840680190BDF9040004F0CD
:1033200024FA41EC190B9FED460B53EC102B04F0E3
:1033300095F841EC180B9FED4E0B53EC102B04F05D
:103340007BFA4D4AC2E902013C48C0880190BDF9B0
:10335000040004F00AFA41EC190B9FED390B53EC11
:10336000102B04F07BF841EC180B9FED410B53EC54
:10337000102B04F061FA404AC2E904012F4880682A
:103380000190BDF9040004F0F0F941EC190B9FED38
:10339000310B53EC102B04F061F841EC180B9FED4E
:1033A0002F0B53EC102B03F09DFF334AC2E90601AB
:1033B00000E000BF00BF00201F49087000BFACE65E
:1033C00010B540F225511A4800F052FF48B1184993
:1033D0008988C8B2FFF78EFE40F22551144800F0EC
:1033E00082FF4FF45871124800F07DFF10BD10B5F8
:1033F00004464FE020780D280BD10D210C4800F039
:1034000071FE00BF40210A4800F01CFF0128F9D1DD
:103410003FE020780A2831D10A21054800F062FEF9
:1034200000BF4021024800F00DFF0128F9D130E033
:10343000001001400000024050000020C80200209F
:10344000000000000000E0400000000000003040EC
:1034500068020020000000000040754000000000ED
:10346000002042400000000000409F4088020020F1
:103470006F1283C0CA210940A802002021780748A2
:1034800000F030FE00BF4021044800F0DBFE0128C0
:10349000F9D1641C20780028ACD110BD0010014087
:1034A0000948804709480047FEE7FEE7FEE7FEE7D8
:1034B000FEE7FEE7FEE7FEE7FEE7FEE70448054914
:1034C000054A064B70470000610C0008890100089E
:1034D00028050020280B00202807002028070020AE
:1034E00032490143324A1160704770B50021002310
:1034F0000F22C4781CB32E4C246804F4E064C4F595
:10350000E064C4F30721C1F10404E3B20A41447842
:103510009C40E1B28478144021430C07210E254CD5
:1035200005786155047804F01F050124AC40057846
:103530006D11AD0005F1E025C5F8004109E0047802
:1035400004F01F050124AC401B4D0678761145F8A8
:10355000264070BD194A0A400243154B1B1F1A60D2
:10356000704739B1124A121D12680243104B1B1DDD
:103570001A6006E00E4A121D126882430C4B1B1D96
:103580001A607047042808D14FF0E021096941F022
:1035900004014FF0E022116107E04FF0E0210969DA
:1035A00021F004014FF0E022116170470000FA059C
:1035B0000CED00E000E400E080E100E080FFFF1F90
:1035C00010B504469848844208D10121084600F00D
:1035D00086FB0021012000F082FB76E093488442C4
:1035E00008D10121022000F07AFB0021022000F026
:1035F00076FB6AE08E48844208D10121042000F065
:103600006EFB0021042000F06AFB5EE089488442E2
:1036100008D10121082000F062FB0021082000F001
:103620005EFB52E08448844208D10121102000F062
:1036300056FB0021102000F052FB46E07F488442F8
:1036400008D10121202000F04AFB0021202000F0B9
:1036500046FB3AE07A48844208D10121402000F03C
:103660003EFB0021402000F03AFB2EE075488442EA
:1036700008D10121802000F032FB0021802000F0E1
:103680002EFB22E07048844208D10121801500F011
:1036900026FB0021A01500F022FB16E06B488442B7
:1036A00008D10121401500F01AFB0021601500F03F
:1036B00016FB0AE06648844207D10121001500F09C
:1036C0000EFB0021201500F00AFB10BDF0B50A46E4
:1036D00000210023002400BF3DE0012505FA01F38D
:1036E000156805EA03049C4234D105684F0003269F
:1036F000BE40B543056015794E00B54006683543B8
:1037000005601579012D02D01579022D16D1856835
:103710004F000326BE40B543856055794E00B54045
:10372000866835438560456801268E40B54345600F
:10373000456896798E40B6B235434560C5684F00FE
:103740000326BE40B543C560D5794E00B540C66876
:103750003543C560491C1029BFD3F0BD4FF6FF713A
:1037600001600021017141718171C171704708B51B
:103770004FF480320092009A0A430092009AC2618C
:10378000C161009AC261C2690092C269009208BD1B
:103790000246002013690B400BB1012000E000201D
:1037A00070470146086980B270470246002053699D
:1037B0000B400BB1012000E0002070470146486932
:1037C00080B2704701837047418370470AB101831B
:1037D00000E0418370474161704742694A4042615D
:1037E0007047F0B5002300244D07ED0E02FA05F3F3
:1037F000CE1000F1200555F826504E07F70E0F2683
:10380000BE40B543CF1000F1200646F82750CE1039
:1038100000F1200555F8265045EA0304CE1000F1CA
:10382000200545F82640F0BD00000240000402409B
:1038300000080240000C0240001002400014024048
:1038400000180240001C02400020024000240240F8
:1038500000280240F948006840F00100F74908607C
:103860000020F64908310860F4480068F44908402F
:10387000F2490860F348091D0860F348EF498431B4
:103880000860F0481038091D0860EC48006820F412
:103890008020EA4908600020E8490C310860E749C7
:1038A0008C31086070470021E44A921C1170114667
:1038B0000870704710B501460022002300204A110D
:1038C000012A02D1DD4C236808E0022A03D1DB4C37
:1038D0007034236802E0D94C7434236801F01F026D
:1038E000012494401C400CB1012000E0002010BDD8
:1038F00038B5002000900024002500BF3120FFF7DC
:10390000D9FF05460098401C00900098B0F5A04FE4
:1039100001D0002DF2D03120FFF7CCFF08B10124F7
:1039200000E00024204638BD01460020C34A10684C
:1039300020F0F80040EAC10010607047C3490860F9
:1039400070470021BD4A703211701170012802D0F9
:1039500004280AD104E00121B84A7032117005E050
:103960000521B64A7032117000E000BF00BF7047F9
:10397000B7490860704770B5049C41EA821501267A
:10398000C6EB530645EA0645054345EA0465AB4EDA
:10399000361D356070BDAD4908667047820142EA48
:1039A0000172A64B84331A607047A8498866704735
:1039B00010B5830143EA016343EA02739F4C8834E4
:1039C000236010BDA14908677047A049C8647047CB
:1039D00002460020994B0833186820F0EC6042EA58
:1039E00001031843954B08331860704702460020C6
:1039F000924B0833186820F0784042EA01031843DC
:103A00008E4B083318607047014600208B4A0832FD
:103A1000106820F0030008431060704787480830A2
:103A2000006800F00C00704701460020834A08320D
:103A3000106820F0F0000843106070470146002035
:103A40007E4A0832106820F4E05008431060704746
:103A500001460020794A0832106820F4604040EAAC
:103A6000C10010607047F0B500210022002402253B
:103A700000260223714F08373F6807F00C0121B17F
:103A8000042905D0082937D105E0724F076036E0D8
:103A9000714F076033E0694F3F1D3F68C7F38056A1
:103AA000664F3F1D3F6807F03F036EB16A4FB7FB9B
:103AB000F3F7DFF888C10CF1040CDCF800C0CCF39C
:103AC000881C07FB0CF40CE0624FB7FBF3F7DFF840
:103AD0006CC10CF1040CDCF800C0CCF3881C07FBB3
:103AE0000CF4564F3F1D3F68C7F301477F1C7D0014
:103AF000B4FBF5F7076002E0564F076000BF00BF58
:103B00004E4F08373F6807F0F0010909534F7A5CC0
:103B10000768D7404760494F08373F6807F4E051CE
:103B2000890A4E4F7A5C4768D7408760434F083711
:103B30003F6807F46041490B484F7A5C4768D740BB
:103B4000C760F0BD002100F44072B2F5407F0AD199
:103B50003A4A0832116821F4F811414A02401143EF
:103B6000364A08321160354A70321268C0F30B03CE
:103B70001A43324B70331A60704735494439086034
:103B800070473349403908607047364908607047CC
:103B900001460020294A8C32106820F01F004A1E7E
:103BA0001043264A8C321060704701460020234A99
:103BB0008C32106820F4F8504A1E40EA02201F4A56
:103BC0008C3210607047014600201C4A8C3210680D
:103BD00020F4401008431060704701460020174A47
:103BE0008C32106820F44000084310607047014692
:103BF0000020124A8C32106820F4403008431060D4
:103C0000704719490860704739B10C4A3032126860
:103C100002430A4B30331A6006E0084A3032126819
:103C20008243064B30331A607047F9B1034A34328D
:103C300012680243014B34331A601CE00038024022
:103C4000FFFFF6EA10300024003000200000474259
:103C5000800E47420024F40000127A005100002038
:103C6000FFFCFF0F5C014742E01147428F4A126898
:103C700082438E4B1A60704739B18C4A121D12680C
:103C800002438A4B1B1D1A6006E0884A121D126807
:103C90008243864B1B1D1A60704739B1834A0C3230
:103CA00012680243814B0C331A6006E07F4A0C32E3
:103CB000126882437D4B0C331A60704739B17B4ADE
:103CC000103212680243794B10331A6006E0774ACB
:103CD000103212688243754B10331A60704739B145
:103CE000724A243A12680243704B243B1A6006E081
:103CF0006E4A243A126882436C4B243B1A60704728
:103D000039B16A4A203A12680243684B203B1A6074
:103D100006E0664A203A12688243644B203B1A60F0
:103D2000704739B1614A1C3A126802435F4B1C3B31
:103D30001A6006E05D4A1C3A126882435B4B1C3BEA
:103D40001A60704739B1594A143A12680243574B06
:103D5000143B1A6006E0554A143A12688243534BEA
:103D6000143B1A60704739B1504A103A1268024346
:103D70004E4B103B1A6006E04C4A103A12688243E0
:103D80004A4B103B1A60704739B1484A1C321268DE
:103D90000243464B1C331A6006E0444A1C32126848
:103DA0008243424B1C331A60704739B13F4A20327C
:103DB000126802433D4B20331A6006E03B4A203232
:103DC00012688243394B20331A60704739B1374A41
:103DD000243212680243354B24331A6006E0334A1A
:103DE000243212688243314B24331A60704739B150
:103DF0002E4A2C32126802432C4B2C331A6006E0F8
:103E00002A4A2C3212688243284B2C331A6070479E
:103E100039B1264A303212680243244B30331A60DB
:103E200006E0224A303212688243204B30331A6057
:103E30007047012808D11D493C31096841F008014B
:103E40001A4A3C32116007E018493C31096821F0F8
:103E50000801164A3C321160704739B1134A273ABB
:103E600012780243114B273B1A7006E00F4A273A9B
:103E7000127882430D4B273B1A7070470B48403035
:103E8000006840F080700949403108607047014681
:103E90000020064A283A12680A400AB1012000E0D0
:103EA00000207047014926390870704734380240B5
:103EB00010B50446FA48844208D101211020FFF7CA
:103EC00052FF00211020FFF74EFF57E0F5488442D3
:103ED00009D101214804FFF735FF00214FF40030DC
:103EE000FFF730FF4AE0F048844209D101218804FD
:103EF000FFF728FF00214FF48020FFF723FF3DE06C
:103F0000EA48844209D10121C804FFF71BFF0021C0
:103F10004FF40020FFF716FF30E0E548844209D156
:103F200001210805FFF70EFF00214FF48010FFF775
:103F300009FF23E0DF48844208D101212020FFF758
:103F400012FF00212020FFF70EFF17E0DA4884421D
:103F500009D101218807FFF7F5FE00214FF08040CD
:103F6000FFF7F0FE0AE0D548844207D10121400561
:103F7000FFF7E8FE00216005FFF7E4FE10BD2DE924
:103F8000FF4705460E460024A14600BFA046B08963
:103F900000B100BF2C8A24F44054F08804432C82E2
:103FA000AC8941F20C608443B0883189084371893F
:103FB00008430443AC81AC8A24F44074B0890443C0
:103FC000AC826846FFF74FFDB548854202D0B9483C
:103FD000854202D1DDF80C9001E0DDF80890A88957
:103FE00000F4004040B109EBC90000EB0910316852
:103FF0004900B0FBF1F707E009EBC90000EB09103D
:1040000031688900B0FBF1F76420B7FBF0F00401E0
:104010002009642101FB1078A88900F4004040B118
:10402000322000EBC800B0FBF1F000F007000443C1
:1040300008E0322000EB08106421B0FBF1F000F042
:104040000F0004432C81BDE8FF874FF41651016037
:1040500000218180C18001810C2141810021818169
:10406000704710B502460020108A20F470600B885B
:104070004C8823438C882343CC88234318431082E5
:1040800010BD0021018041808180C180704721B135
:10409000828942F40052828104E082894DF6FF73E6
:1040A0001A4082817047028B02F47F420283028BA6
:1040B0000A430283704721B1828942F4004282811F
:1040C00003E08289C2F30E028281704721B1828AA5
:1040D00042F40062828204E0828A4FF2FF731A4047
:1040E00082827047C1F30802828070470146888847
:1040F000C0F308007047028A4FF6F0731A4002823C
:10410000028A0A430282704721B1828942F0020288
:10411000828104E082894FF6FD731A4082817047E4
:1041200082894FF2FF731A40828182890A43828119
:104130007047028A4FF6DF731A400282028A0A43EE
:104140000282704721B1028A42F48042028204E076
:10415000028A4BF6FF731A4002827047818941F050
:1041600001018181704721B1828A42F00802828276
:1041700004E0828A4FF6F7731A4082827047028BFE
:10418000D2B20283028B42EA01220283704721B13C
:10419000828A42F02002828204E0828A4FF6DF7334
:1041A0001A408282704721B1828A42F010028282D4
:1041B00004E0828A4FF6EF731A4082827047828A47
:1041C0004FF6FB731A408282828A0A4382827047CA
:1041D00021B1828A42F00202828204E0828A4FF692
:1041E000FD731A40828270471AB1838A0B4383821F
:1041F00002E0838A8B4383827047F0B50346002434
:1042000000260025002040F66A17B94200D100BF01
:104210001846C1F3421401F01F06012707FA06F5FC
:10422000012C01D10C3004E0022C01D1103000E04F
:1042300014301AB107682F43076002E00768AF43E4
:104240000760F0BD02460020B1F5007F00D100BF3D
:1042500013880B400BB1012000E00020704701F4EF
:104260000072B2F5007F00D100BFCA4302807047E0
:1042700070B50246002400230025002040F66A168F
:10428000B14200D100BFC1F3421501F01F03012666
:1042900006FA03F3012D13D19689334017E000008D
:1042A000001001400044004000480040004C004025
:1042B000005000400014014000780040007C0040A5
:1042C000022D02D1168A334001E0968A33400C1247
:1042D000012606FA04F41688344013B10CB101200B
:1042E00000E0002070BD10B50022002340F66A14E3
:1042F000A14200D100BF0A1201249440A3B2DC43C2
:10430000048010BD10B50446FE48844209D1012145
:104310004806FFF717FD00214FF00070FFF712FD70
:1043200008E001218806FFF70DFD00214FF08060B5
:10433000FFF708FD10BD30B50246002000231468C9
:1043400024F002041460146844F00104146000E0D6
:104350005B1C546804F001041CB94FF6FF74A342BF
:10436000F6D1546804F001040CB900206CE08C799B
:10437000012C04D1146844F08004146003E0146834
:1043800024F080041460CC79012C04D1146844F02A
:104390004004146003E0146824F0400414600C7AB4
:1043A000012C04D1146844F02004146003E0146864
:1043B00024F0200414604C7A012C04D1146844F0D9
:1043C0001004146003E0146824F0100414608C7A64
:1043D000012C04D1146844F00804146003E014684C
:1043E00024F008041460CC7A012C04D1146844F041
:1043F0000404146003E0146824F0040414608C784E
:10440000A407CD7844EA05640D7944EA05444D7962
:1044100044EA05540D886D1E2C43D461146824F0C1
:1044200001041460002300E05B1C546804F00104E4
:104430001CB14FF6FF74A342F6D1546804F0010496
:104440000CB1002000E0012030BD10B50021837ABE
:10445000012202FA03F1AC4A126842F00102AA4BAF
:104460001A60A94A1C3212688A43A74B1C331A608F
:10447000027BCAB9A44A0C3212688A43A24B0C339D
:104480001A604288C38842EA03439F4A4032847AD2
:1044900042F834300288838842EA03439A4A403221
:1044A000847A02EBC4025360027B012A19D1964A36
:1044B0000C3212680A43944B0C331A60428803880A
:1044C00042EA0343904A4032847A42F83430C28848
:1044D000838842EA03438C4A4032847A02EBC40266
:1044E0005360C27A3AB9884A121D12688A43864BD1
:1044F0001B1D1A6006E0844A121D12680A43824B93
:104500001B1D1A60028932B97F4A143212688A432D
:104510007D4B14331A600289012A06D17A4A14327B
:1045200012680A43784B14331A60427B012A06D181
:10453000754A1C3212680A43734B1C331A60724A64
:10454000126822F00102704B1A6010BD00218171C7
:10455000C171017241728172C1728170C170032197
:10456000017102214171012101807047664909688A
:1045700041F00101644A11601146096843F60E7268
:104580009143614A11601146096841EA00211160B6
:104590001146096821F001011160704721B10268DC
:1045A00042F48032026003E0026822F4803202604A
:1045B0007047E1B1026842F0800202604FF4C272BB
:1045C000125842F480734FF4C27213504FF4CA72FF
:1045D000125842F480734FF4CA7213504FF4D272DF
:1045E000125842F480734FF4D27213501BE00268E9
:1045F00022F0800202604FF4C272125822F48073DB
:104600004FF4C27213504FF4CA72125822F48073DE
:104610004FF4CA7213504FF4D272125822F48073BE
:104620004FF4D2721350704710B5024600209368C1
:1046300003F08063B3F1806F00D110E0936803F062
:104640000063B3F1006F01D1012008E0936803F02B
:104650008053B3F1805F01D1022000E004200428E0
:1046600079D002F5C07303EB00131B6803F001045B
:1046700002F5C07303EB00131C600B7A7BB94B7A15
:104680000C8843EA445302F5C07404EB0014246818
:10469000234302F5C07404EB0014236010E00B7A8E
:1046A0004C6843EAC4034C7A234302F5C07404EB1C
:1046B00000142468234302F5C07404EB0014236043
:1046C0008B7A03F00F038B7202F5C07303EB0013B8
:1046D0005B6823F00F0402F5C07303EB00135C600A
:1046E00002F5C07303EB00135B688C7A234302F579
:1046F000C07404EB001463608B7B1C064B7B44EAA4
:10470000034403E000640040006600400B7B44EA81
:104710000323CC7A234302F5C07404EB0014A36096
:104720008B7C1C064B7C44EA03440B7C44EA032349
:10473000CC7B234302F5C07404EB0014E36002F564
:10474000C07303EB00131B6843F0010402F5C07350
:1047500003EB00131C6010BD10B50246002321B10D
:10476000012907D002290FD109E09068F94C00EA2D
:1047700004030BE09068F84C00EA040306E090683C
:10478000F64C00EA040301E0002300BF00BFF44C34
:10479000181BA34216D007DC83B16FF08060184469
:1047A00070B1022818D111E0B0F5007F10D0ED4CA7
:1047B000204448B1B0F5003F0ED10BE002230DE0DC
:1047C00000230BE0002309E0002307E0012305E0BC
:1047D000012303E0012301E0002300BF00BFD8B2A2
:1047E00010BD21B1012907D002290FD109E082684B
:1047F00042F0800282600AE0826842F400428260F5
:1048000005E0826842F40002826000E000BF00BF61
:10481000704710B500F5D87303EB01131B6803F064
:1048200004031372137A53B900F5D87303EB011321
:104830001B6840F2FF7404EA5353136009E000F56B
:10484000D87303EB01131B686FF0604404EAD303D1
:10485000536000F5D87303EB01131B6803F00203E8
:10486000537200F5D87303EB01135B6803F00F0379
:10487000937200F5D87303EB01135B681B0AD374C2
:1048800000F5D87303EB01139B68D37200F5D8735E
:1048900003EB01139B681C0A147300F5D87303EB38
:1048A00001139B681C0C547300F5D87303EB0113C0
:1048B0009B681B0E937300F5D87303EB0113DB6841
:1048C000D37300F5D87303EB0113DB681C0A14746F
:1048D00000F5D87303EB0113DB681C0C547400F56E
:1048E000D87303EB0113DB681B0E937421B9C36803
:1048F00043F02003C36003E0036943F02003036136
:1049000010BD21B9C26842F02002C26003E0026912
:1049100042F02002026170470246002019B9D368B4
:1049200003F0030006E0012903D1136903F003003B
:1049300000E00020704710B502460B4600204FF6FD
:10494000FF71BBB9146824F0020444F00104146040
:1049500000E0491E546804F00304012C01D0002932
:10496000F7D1546804F00304012C01D0002032E098
:10497000012030E0012B13D1146824F003041460EB
:1049800000E0491E546804F003040CB10029F8D17A
:10499000546804F003040CB100201CE001201AE06C
:1049A000022B17D1146824F0010444F002041460AF
:1049B00000E0491E546804F00304022C01D00029D1
:1049C000F7D1546804F00304022C01D0002002E067
:1049D000012000E0002010BD014600200A6822F0FE
:1049E000010242F002020A604A6802F00302022A4F
:1049F00000D10120704701464FF6FF7200200B687E
:104A000023F002030B6000E0521E4B6803F0020328
:104A1000022B01D1002AF7D14B6803F00203022BCD
:104A200000D001207047014600208A6902F0700022
:104A30007047014600208A69100E70470146002029
:104A40008A69C2F3074070471AB143690B43436157
:104A500002E043698B434361704710B50246002072
:104A600001F4700343B19369C1F3130423400BB104
:104A700001202DE000202BE001F0807343B153684A
:104A8000C1F3130423400BB1012021E000201FE0FB
:104A900001F0006343B19368C1F3130423400BB1E9
:104AA000012015E0002013E001F0007343B1D3684A
:104AB000C1F3130423400BB1012009E0002007E0FB
:104AC0001369C1F3130423400BB1012000E000205F
:104AD00010BD0022244B994202D10023836111E0D2
:104AE000C1F3130201F000730BB1C2600AE001F0E0
:104AF00080630BB1026105E001F000630BB18260DD
:104B000000E0426070470246002002EA01030BB158
:104B1000012000E00020704770B504460D460026D5
:104B200060692840002872D0B5F5807F69D01DDC0F
:104B3000082D42D006DC012D2DD0022D31D0042DC0
:104B40007FD134E0102D3ED0202D42D0402D78D1A1
:104B500045E000000300000400030008000003100B
:104B6000000100080001FFF77000F030B5F5004FBC
:104B700061D009DCB5F5007F4AD0B5F5806F4DD026
:104B8000B5F5006F5DD150E0B5F5803F2DD0B5F59E
:104B9000003F56D12FE0A0685549FFF7B4FF064605
:104BA00051E0E0680321FFF7AEFF06464BE0E06806
:104BB0000821FFF7A8FF064645E0E0681021FFF74F
:104BC000A2FF06463FE020690321FFF79CFF06464F
:104BD00039E020690821FFF796FF064633E0206997
:104BE0001021FFF790FF06462DE060680821FFF7CF
:104BF0008AFF064627E060681021FFF784FF06461B
:104C000021E0A0690121FFF77EFF06461BE01BE0C3
:104C1000A0690221FFF777FF064614E0A06904218E
:104C2000FFF771FF06460EE00BE0A0697021FFF769
:104C30006AFF064607E060680421FFF764FF064646
:104C400001E0002600BF00E00026304670BDB1F54F
:104C5000007F3AD00FDC202928D006DC01291CD0A7
:104C600004291DD0082940D11DE0402921D0B1F5EB
:104C7000807F3AD126E0B1F5004F31D006DCB1F5A6
:104C8000806F25D0B1F5006F2FD124E0B1F5803FC2
:104C900012D0B1F5003F28D111E0154A826025E01D
:104CA0000822C26022E01022C2601FE008220261D6
:104CB0001CE01022026119E00822426016E0102276
:104CC000426013E00422426010E0042242600DE0E2
:104CD000042242600AE0002282610422426005E070
:104CE000002282610422426000E000BF00BF7047E2
:104CF0000101010010B50446FE48844208D101219B
:104D00000846FFF730F800210120FFF72CF89DE05E
:104D1000B4F1804F08D101210846FFF713F80021B4
:104D20000120FFF70FF891E0F348844208D10121F8
:104D30000220FFF707F800210220FFF703F885E0C3
:104D4000EE48844208D101210420FEF7FBFF002138
:104D50000420FEF7F7FF79E0E948844208D10121F9
:104D60000820FEF7EFFF00210820FEF7EBFF6DE0C3
:104D7000E448844208D101211020FEF7E3FF00211E
:104D80001020FEF7DFFF61E0DF48844208D10121F7
:104D90002020FEF7D7FF00212020FEF7D3FF55E0AB
:104DA000DA48844208D101210220FEF7DCFF00210D
:104DB0000220FEF7D8FF49E0D548844209D10121FD
:104DC0000804FEF7D0FF00214FF48030FEF7CBFF40
:104DD0003CE0D048844209D101214804FEF7C3FFDA
:104DE00000214FF40030FEF7BEFF2FE0CA48844296
:104DF00009D101218804FEF7B6FF00214FF480207D
:104E0000FEF7B1FF22E0C548844208D101214020CD
:104E1000FEF798FF00214020FEF794FF16E0C048FF
:104E2000844208D101218020FEF78CFF00218020E0
:104E3000FEF788FF0AE0BB48844207D101218015B4
:104E4000FEF780FF0021A015FEF77CFF10BD0022B9
:104E50000288A84B98420ED0AC4B98420BD0B0F1D0
:104E6000804F08D0A44B984205D0A44B984202D062
:104E7000A34B984204D14FF68F731A404B881A43C4
:104E8000A04B984207D0A04B984204D04FF6FF4366
:104E90001A400B891A4302804B68C3620B88038552
:104EA000944B984202D0994B984201D18B7A038659
:104EB0000123838270474FF0FF3141600021018060
:104EC00001814180817270470185828270470A4664
:104ED000002101884FF68F731940114301807047FC
:104EE00041627047C16270470146486A7047014697
:104EF000088D704721B1028842F00202028004E06E
:104F000002884FF6FD731A400280704721B1028873
:104F100042F00402028004E002884FF6FB731A405C
:104F20000280704721B1028842F08002028004E0D2
:104F300002884FF67F731A400280704702884FF64E
:104F4000F7731A40028002880A4302807047028881
:104F50004FF6FF431A40028002880A4302807047DE
:104F600021B1028842F00102028004E002884FF67B
:104F7000FE731A400280704770B50024002200239F
:104F8000058C4FF6FE7635400584028C8388048BB1
:104F90004FF68F752C40B51E2C400D882C43751E86
:104FA0002A408D892A434D882A43524DA84202D077
:104FB000564DA84213D14FF6F7752A40CD892A43A2
:104FC0004FF6FB752A408D882A434FF6FF652B402C
:104FD0004FF6FF552B400D8A2B434D8A2B43838080
:104FE00004838D684563028470BD70B5002400227F
:104FF0000023058C4FF6EF7635400584028C8388BC
:10500000048B48F6FF752C404FF6FF452C400D8869
:105010004FF6FF7606EA05252C434FF6DF752A404A
:105020008D8906EA05152A434D8806EA05152A43A7
:10503000304DA84202D0354DA8421DD14FF67F75A4
:105040002A40CD894FF6FF7606EA05152A434FF62A
:10505000BF752A408D8806EA05152A434FF6FF35AD
:105060002B404FF2FF752B400D8A06EA85052B4336
:105070004D8A06EA85052B43838004838D6885630A
:10508000028470BD70B5002400220023058C4FF609
:10509000FF6635400584028C8388848B4FF68F75BC
:1050A0002C404FF6FC752C400D882C434FF6FF55D5
:1050B0002A408D894FF6FF7606EA05252A434D885A
:1050C00006EA05252A430B4DA84202D00F4DA842FF
:1050D00038D14FF2FF752A40CD894FF6FF7606EAA8
:1050E00005252A434FF6FF352A408D8806EA052517
:1050F0002A4319E00000014000040040000800407D
:10510000000C00400010004000140040000401406A
:1051100000400140004401400048014000180040A8
:10512000001C0040002000404EF6FF752B404DF65D
:10513000FF752B400D8A06EA05152B434D8A06EABA
:1051400005152B43838084838D68C563028470BDFD
:1051500070B5002200230024058C4EF6FF76354002
:105160000584038C8488828B48F6FF752A404FF6AD
:10517000FF452A400D884FF6FF7606EA05252A43AB
:105180004DF6FF752B408D8906EA05352B434D887A
:1051900006EA05352B43FE4DA84202D0FD4DA8423C
:1051A00008D14BF6FF752C400D8A4FF6FF7606EAC4
:1051B00085152C43848082838D680564038470BDCB
:1051C000002101804180818081608181C1810182D3
:1051D0004182704770B503460020002418461830FD
:1051E00001258D40ACB21D8CA5431D8409B1082951
:1051F0000AD100EB610005684FF68F7635400560F7
:105200000568154305600FE00D1FC5F34E052844E2
:10521000056848F6FF763540056005684FF6FF766D
:1052200006EA02263543056070BD4163704781631D
:105230007047C1637047016470470A460021018BC3
:105240004FF68F7319401143018370470A460021BE
:10525000018B48F6FF7319404FF6FF7303EA0223F0
:105260001943018370470A460021818B4FF68F73E3
:1052700019401143818370470A460021818B48F60B
:10528000FF7319404FF6FF7303EA0223194381832A
:1052900070470A460021018B4FF6F77319401143FE
:1052A000018370470A460021018B4FF2FF731940BA
:1052B0004FF6FF7303EA02231943018370470A463E
:1052C0000021818B4FF6F77319401143818370479A
:1052D0000A460021818B4FF2FF7319404FF6FF738E
:1052E00003EA02231943818370470A460021018B98
:1052F0004FF6FB7319401143018370470A460021A2
:10530000018B4FF6FF3319404FF6FF7303EA022378
:105310001943018370470A460021818B4FF6FB73C6
:1053200019401143818370470A460021818B4FF653
:10533000FF3319404FF6FF7303EA022319438183B9
:1053400070470A460021018B4FF67F7319401143C5
:10535000018370470A460021018BC1F30E014FF60D
:10536000FF7303EA02231943018370470A460021B1
:10537000818B4FF67F7319401143818370470A4632
:105380000021818BC1F30E014FF6FF7303EA022364
:105390001943818370470A460021018C4FF6FD7343
:1053A00019401143018470470A460021018C4FF6D1
:1053B000F77319401143018470470A460021018C9C
:1053C0004FF6DF7319404FF6FF7303EA02131943D8
:1053D000018470470A460021018C4FF67F73194003
:1053E0004FF6FF7303EA02131943018470470A461C
:1053F0000021018C4FF6FF5319404FF6FF7303EA6B
:1054000002231943018470470A460021018C4FF2A0
:10541000FF7319404FF6FF7303EA02231943018417
:1054200070470A460021018C4DF6FF7319404FF674
:10543000FF7303EA023319430184704730B5002338
:1054400001248C40A3B2048C9C430484048C02FA93
:1054500001F5ADB22C43048430BD30B500230424E3
:105460008C40A3B2048C9C430484048C02FA01F5A2
:10547000ADB22C43048430BD828B4FF2FF331A400F
:105480008283828B4FF6FF7303EA01231A438283E0
:105490007047F0B50C461546002100220026078C07
:1054A0004EF6FF7C07EA0C070784818B028C4FF6CF
:1054B000FF7707EA043640F6FF4739404FF6FF779B
:1054C00007EA052739434FF6FF7707EA03373943E1
:1054D00045F6FF773A4046F480573A438183028489
:1054E000F0BD828B4FF6F3731A408283828B0A439E
:1054F00082837047F0B50C46154600210022002635
:10550000078C4FF6FF6C07EA0C070784818B028C2F
:105510004FF6FF7707EA04264FF60C7739404FF62F
:10552000FF7707EA03172F4339434FF2FF573A40FB
:1055300046F480773A4381830284F0BD028B4FF2B8
:10554000FF331A400283028B4FF6FF7303EA0123F5
:105550001A4302837047F0B50C461546002100221D
:105560000026078C4FF6EF7C07EA0C070784018BB7
:10557000028C4FF6FF7707EA041640F6FF473940E2
:105580004FF6FF7707EA033739434FF6FF7703E01B
:10559000000001400004014007EA052739434FF6A7
:1055A0005F773A4046F010073A4301830284F0BD2A
:1055B000028B4FF6F3731A400283028B0A43028375
:1055C0007047F0B50C46154600210022068C4FF6B8
:1055D000FE773E400684018B028C4FF60C763140FC
:1055E0007E1C06EA03162E4331434FF6F576324011
:1055F00044F00106324301830284F0BD70B50546D4
:105600000C46208850B92389A28861882846FFF774
:10561000D8FFE1882846FFF7CBFF25E02088042843
:105620000AD12389A28861882846FFF794FFE18880
:105630002846FFF783FF17E0208808280AD123892E
:10564000A28861882846FFF755FFE1882846FFF7C2
:1056500048FF09E02389A28861882846FFF719FFDF
:10566000E1882846FFF708FF70BD002101804180D6
:10567000012181800021C180018170472DE9F04125
:1056800005460C4600260127608808B9022600E07E
:105690000026A088012801D1022700E001272088E8
:1056A000A0B92389A28861882846FFF78AFFE1888C
:1056B0002846FFF77DFF23893A4631462846FFF703
:1056C0004AFFE1882846FFF739FF13E02389A288C3
:1056D00061882846FFF73FFFE1882846FFF72EFF45
:1056E00023893A4631462846FFF76BFFE188284672
:1056F000FFF75EFFBDE8F0810146486B7047014649
:10570000886B70470146C86B70470146086C70474C
:105710000A884B881A438B881A43CB881A430B8913
:105720001A434B891A438B891A43A0F844207047C7
:105730000021018041808180C1800181418181817E
:10574000704731B1B0F8442042F40042A0F8442040
:1057500005E0B0F84420C2F30E02A0F844207047E0
:1057600021B1828842F00402828004E082884FF6F0
:10577000FB731A408280704721B1828842F0010297
:10578000828004E082884FF6FE731A408280704760
:105790001AB183890B43838102E083898B43838120
:1057A00070478182704702460020138A0B400BB17C
:1057B000012000E000207047CA430282704730B5E4
:1057C0000246002000230024158A05EA010395897A
:1057D00005EA010413B10CB1012000E0002030BD46
:1057E000CA430282704741EA0203A0F8483070477A
:1057F0001AB183890B43838102E083898B438381C0
:10580000704721B1828842F00802828004E08288D9
:105810004FF6F7731A408280704701894FF6F8728D
:105820001140018170470A46002101894FF68F73AC
:10583000194011430181704730B504460D46294691
:105840002046FFF7F0FF208940F00700208130BD9F
:105850002DE9F04104460D4616461F46602D06D13F
:105860003B46012231462046FFF775FE05E03B46E8
:10587000012231462046FFF7A4FE29462046FFF7C5
:10588000D2FF208940F007002081BDE8F08130B5CB
:105890000C4600210189C9B24FF6FF7505EA0325C0
:1058A000154325432943018130BD2DE9F0410546CB
:1058B0000E4617469846002443463A463146284647
:1058C000FFF7E5FF2C894FF6F870044044F0070419
:1058D0004FF68F70044044F070042C81BDE8F081D5
:1058E000F0B504460D4616461F463B46324629464D
:1058F0002046FFF7CCFF208940F480402081F0BD96
:1059000082884FF68F731A40828082880A43828091
:10591000704702894FF6F8731A40028102890A43E0
:105920000281704702894FF67F731A400281028913
:105930000A4302817047F0B50C4615461E46002109
:10594000002200230189028B038C4FF6F87739403F
:1059500021434FF6FC473A4040F201173A434FF6D5
:10596000DD773B404FF6FF7707EA06172F433B43AF
:10597000018102830384F0BD21B1828842F080025C
:10598000828004E082884FF67F731A4082807047DD
:10599000A0F85010704710B5203AC0F00B80B1E865
:1059A0001850203AA0E81850B1E81850A0E8185054
:1059B000BFF4F5AF5FEA027C24BFB1E81850A0E85D
:1059C000185044BF18C918C0BDE810405FEA827C77
:1059D00024BF51F8043B40F8043B08BF7047D2078E
:1059E00028BF31F8023B48BF11F8012B28BF20F82F
:1059F000023B48BF00F8012B70474FF0000200B592
:105A0000134694469646203922BFA0E80C50A0E8E1
:105A10000C50B1F12001BFF4F7AF090728BFA0E88F
:105A20000C5048BF0CC05DF804EB890028BF40F85B
:105A3000042B08BF704748BF20F8022B11F0804F9D
:105A400018BF00F8012B704770477047704710B5BA
:105A500000F008F8006810BD10B5044600F002F828
:105A6000046010BD00487047C4040020004870471F
:105A7000C40400207546FFF7F9FFAE4605006946ED
:105A8000534620F00700854618B020B5FDF716FDF7
:105A9000BDE820404FF000064FF000074FF000082F
:105AA0004FF0000B21F00701AC46ACE8C009ACE8B0
:105AB000C009ACE8C009ACE8C0098D46704704468F
:105AC000AFF300802046FAF7A8FB00000149182038
:105AD000ABBEFEE726000200704703B40198410008
